:1000000071C0000081C000007FC000007DC0000002
:100010007BC0000079C0000077C0000075C0000000
:1000200073C0000071C000006FC000006DC0000010
:100030006BC0000069C0000067C0000065C0000020
:1000400063C0000061C000005FC000005DC0000030
:100050005BC0000059C0000057C00000AFC00000E6
:1000600053C0000051C000004FC000004DC0000050
:100070004BC0000049C0000047C0000045C0000060
:1000800043C0000041C000003FC000003DC0000070
:100090003BC0000039C0000037C0000035C0000080
:1000A00033C0000031C000002FC000002DC0000090
:1000B0002BC0000029C0000027C0000025C00000A0
:1000C00023C0000021C000001FC000001DC00000B0
:1000D0001BC0000019C0000017C0000015C00000C0
:1000E00013C0000011241FBECFEFD1E2DEBFCDBF91
:1000F00000E00CBF22E0A0E0B2E001C01D92A930F8
:10010000B207E1F7A5D021C17BCF3FB7F89480912A
:10011000050290910602A0910702B091080226B54F
:10012000A89B05C02F3F19F00196A11DB11D3FBF2F
:10013000BA2FA92F982F8827BC01CD01620F711DFE
:10014000811D911D42E0660F771F881F991F4A95F8
:10015000D1F708958F929F92AF92BF92CF92DF9284
:10016000EF92FF92D2DF4B015C018CEDC82E85E04F
:10017000D82EE12CF12CC9DF681979098A099B096D
:10018000683E734081059105B0F321E0C21AD108A1
:10019000E108F10888EE880E83E0981EA11CB11CCE
:1001A000C114D104E104F10431F7FF90EF90DF9026
:1001B000CF90BF90AF909F908F9008951F920F9215
:1001C0000FB60F9211242F933F938F939F93AF936A
:1001D000BF938091010290910202A0910302B0911D
:1001E00004023091000223E0230F2D3758F50196C9
:1001F000A11DB11D20930002809301029093020281
:10020000A0930302B093040280910502909106022C
:10021000A0910702B09108020196A11DB11D809323
:10022000050290930602A0930702B0930802BF91C3
:10023000AF919F918F913F912F910F900FBE0F9093
:100240001F90189526E8230F0296A11DB11DD2CF4D
:10025000789484B5826084BD84B5816084BD85B5A1
:10026000826085BD85B5816085BD80916E008160AD
:1002700080936E0010928100809181008260809353
:100280008100809181008160809381008091800055
:100290008160809380008091B10084608093B10080
:1002A0008091B00081608093B00080919100826065
:1002B0008093910080919100816080939100809162
:1002C00090008160809390008091A1008260809373
:1002D000A1008091A10081608093A1008091A00085
:1002E00081608093A0008091210182608093210130
:1002F00080912101816080932101809120018160A2
:100300008093200180917A00846080937A008091AC
:100310007A00826080937A0080917A008160809375
:100320007A0080917A00806880937A001092C100F0
:100330008FEF8AB9C0E0D0E05F9A0CDF5F980ADFE8
:0E0340002097D1F30E940000F7CFF894FFCF72
:00000001FF
