:100000000C9416020C9447020C9447020C9447027D
:100010000C9447020C9447020C9447020C9447023C
:100020000C9447020C9447020C9447020C9447022C
:100030000C9447020C9472340C9447020C944702BF
:100040000C9447020C9447020C9447020C9447020C
:100050000C9447020C9447020C9447020C94B50D83
:100060000C9447020C9435040C9425050C9447021B
:100070000C9447020C9447020C9447020C944702DC
:100080000C9447020C9447020C9447020C944702CC
:100090000C9469040C9464050C9447020C945D2F35
:1000A0000C9447020C9447020C9447020C944702AC
:1000B0000C9447020C9447020C9447020C9447029C
:1000C0000C9447020C9447020C9447020C949D0434
:1000D0000C94A3050C9447020C94D1040C94E205F3
:1000E0000C9447028A0295029E02AB02B602C1023C
:1000F000CC02D402E002E80246034603460346036C
:10010000460385024603F302FE02090314031F039C
:100110002A03350385024603460346034603850248
:100120004603460346034603460346034603460387
:100130004603460346034603460346034603460377
:10014000460346034603F302FE02090314031F039A
:100150002A03350385024603460346034603850208
:100160002A352D35203524356435313535353B3547
:100170003F35433549354D355135643557355B3558
:100180005F350C94D4020C94FA220C946F240C94D6
:10019000C02D0C94D62D0C9478250C940F110C9432
:1001A00043350C94FD2D0C94F8180C9414030C9406
:1001B000020B0C94FD060C9409030C945C270C9420
:1001C00004050C943B350C9485020C949E020C940F
:1001D0000A090C9420350C9457350C947D130C941B
:1001E000AB020C945C020C94DE300C94CF2D0C947A
:1001F000F7100C942D2A0C945B350C9419260C9452
:10020000CD030C94D02D0C9497130C94B6020C943F
:10021000A30A0C944D350C94262B0C9495020C9447
:100220007E0B0C94CB080C943F350C941B2A0C9439
:10023000F50C0C9449350C948A020C94EF0A0C943A
:10024000F7250C9491030C9424350C94F3020C9430
:1002500092120C947B2E0C94F72D0C94CF070C94D7
:1002600067020C94CC020C94581C0C94B3150C949B
:10027000A42D0C94CE230C942D350C9431350C9474
:10028000131B0C9482140C94E4210C9481030C94A1
:100290002A350C94E8020C941F030C94AC2D0C949A
:1002A000E7260C94EC170C9451350C9435350C94CE
:1002B000D5070C948A0A0C948C1E0C94C2280C94BA
:1002C00064350C94D0120C94D8030C9477210C94C0
:1002D00087290C948D1F0C94C1020C942A030C9452
:1002E00046030C94AD030C9435030C94FE020C945D
:1002F0000D080C945F350C947B080C94E0020C9470
:10030000902A020000090A02080B0C0D07060304DC
:1003100001000000000000000000000000000000DC
:1003200000000000000000000000000000000011BC
:10033000100F00000000000000000000000000009E
:10034000000000000000000000010210202008084A
:100350001020401020408002010201080402010127
:100360000204081020408080402010080402018010
:100370000402018040201008040201080402010167
:10038000020408102040800102040810204080056B
:10039000050505070508080808020202020A0A08FE
:1003A0000804040404010101010101010103030324
:1003B0000303030303040707070C0C0C0C0C0C0CC1
:1003C0000C0202020206060606060606060B0B0BC8
:1003D0000B0B0B0B0B000020002300260029002C28
:1003E000002F003200000100000301060109010096
:1003F000002200250028002B002E003100340002CE
:10040000010000050108010B010000210024002764
:10041000002A002D00300033000101000004010714
:10042000010A01005C02FD067D137B2E11241FBE14
:10043000CFEFD1E2DEBFCDBF00E00CBF1DE0A0E0FA
:10044000B2E0ECEAF4E700E00BBF02C007900D92C7
:10045000A232B107D9F721E1A2E2BDE001C01D92AD
:10046000AA30B207E1F712E0C6E1D2E000E006C030
:1004700021970109802FFE010E944A36C231D1071F
:1004800080E00807A9F70E94C10B0C94543A0C9421
:1004900000008CE190E10E94372E82E29DE00E94F4
:1004A000B91168EE73E080E090E00E94300E82E2C5
:1004B0009DE00E94E40E089582E29DE00E94E30E1A
:1004C0000895A5E1B0E0E7E6F2E00C946D3689E826
:1004D0009DE00E948103181619060CF00EC189E8F0
:1004E0009DE00E94AD03682F082E000C990BAA0B0B
:1004F000BB0BFC01F097EE33F10508F0C7C088276D
:10050000EE58FF4F8F4F0C944A3682E29DE00E94D6
:10051000E40EE9C067E072E089E89DE00E946308AC
:1005200082E29DE00E94F211DEC066E172E089E89D
:100530009DE00E94630840E060E008C064E272E071
:1005400089E89DE00E94630840E061E082E29DE06E
:100550000E94DE21C8C065E472E089E89DE00E9447
:10056000630882E29DE00E94CD20BDC064E572E098
:1005700089E89DE00E94630882E29DE00E94E61700
:10058000B2C064E772E089E89DE00E94630882E2FD
:100590009DE00E94F218A7C063E972E089E89DE03F
:1005A0000E94630860E007C06BEA72E089E89DE0A2
:1005B0000E94630861E082E29DE00E942F1D93C0CB
:1005C00060ED72E089E89DE00E94630841E0BDCFE4
:1005D0006DEF72E089E89DE00E94630882E29DE091
:1005E0000E94911380C062E173E089E89DE00E945F
:1005F000630882E29DE00E94712175C061E273E0B0
:1006000089E89DE00E94630882E29DE00E94F42256
:100610006AC060E373E089E89DE00E94630882E2BB
:100620009DE00E940D1B5FC067E473E089E89DE0D8
:100630000E94630882E29DE00E947C1454C066E63A
:1006400073E089E89DE00E94630882E29DE00E94D9
:10065000AD1549C065E873E089E89DE00E94630834
:1006600082E29DE00E94871F3EC06FE176E089E84C
:100670009DE00E94630864E973E089E89DE00E94C0
:10068000630882E29DE00E94900F2DC0CE01089683
:100690000E94840A63EB73E0CE010F960E94350A34
:1006A000BE01615F7F4FCE0101960E94620ABE01CA
:1006B000685F7F4FCE0101960E941C0B66EC73E0D1
:1006C0000E942F0BBC0189E89DE00E945108CE01D9
:1006D00001960E94C809CE010F960E94C809CE015A
:1006E00008960E94C80968EE73E080E090E00E94DE
:1006F000300E82E29DE00E94E40E6596E2E00C94EA
:100700008936FC0124853585F901E05CFF4F808145
:100710009181329620813181821B930B8F739927AF
:100720000895DC011C96ED91FC911D97DF01A05C02
:10073000BF4F2D913C91119712968D919C911197DD
:100740002817390739F08D919C91E80FF91F8081A6
:1007500090E008958FEF9FEF0895FC01A485B58583
:10076000FD01E05CFF4F20813181329680819181D3
:100770002817390779F080819181A80FB91F8C91D2
:10078000208131812F5F3F4F2F73332731832083A7
:1007900090E008958FEF9FEF0895FC0181A18823D9
:1007A00029F0A489B5898C9186FFFBCF11A2089509
:1007B0000F931F93CF93DF93FC01A685B7858D011F
:1007C000005C1F4FE8018881998101968F739927FA
:1007D000AD014E5B5F4FEA01288139812817390747
:1007E000D1F3E80128813981A20FB31F6C93A6854C
:1007F000B785A05CBF4F11969C938E93A689B7894D
:100800002C9181E090E0078C02C0880F991F0A9418
:10081000E2F7822B8C9381E081A30488F589E02D97
:1008200080818064808381E090E0DF91CF911F918F
:100830000F910895FB01E05CFF4F20813181DB01C6
:10084000AE5BBF4F4D915C912F5F3F4F2F733327AE
:100850004217530741F040815181DB01A40FB51FBE
:100860008C9331832083089508951F920F920FB6C1
:100870000F9211240BB60F922F933F934F935F93D8
:100880006F937F938F939F93AF93BF93EF93FF9358
:100890008091C00082FD07C08091C60067E87FE0BC
:1008A0000E941A0402C08091C600FF91EF91BF918F
:1008B000AF919F918F917F916F915F914F913F91F8
:1008C0002F910F900BBE0F900FBE0F901F90189599
:1008D00008951F920F920FB60F9211240BB60F922C
:1008E0002F933F934F935F936F937F938F939F9338
:1008F000AF93BF93EF93FF938091C80082FD07C031
:100900008091CE006FEF7EE00E941A0402C08091B9
:10091000CE00FF91EF91BF91AF919F918F917F9109
:100920006F915F914F913F912F910F900BBE0F9060
:100930000FBE0F901F90189508951F920F920FB63B
:100940000F9211240BB60F922F933F934F935F9307
:100950006F937F938F939F93AF93BF93EF93FF9387
:100960008091D00082FD07C08091D60067E77EE0CD
:100970000E941A0402C08091D600FF91EF91BF91AE
:10098000AF919F918F917F916F915F914F913F9127
:100990002F910F900BBE0F900FBE0F901F901895C8
:1009A00008951F920F920FB60F9211240BB60F925B
:1009B0002F933F934F935F936F937F938F939F9367
:1009C000AF93BF93EF93FF938091300182FD07C0F7
:1009D000809136016FEE7DE00E941A0402C0809182
:1009E0003601FF91EF91BF91AF919F918F917F91D0
:1009F0006F915F914F913F912F910F900BBE0F9090
:100A00000FBE0F901F90189589E89DE00E9481030A
:100A1000892B11F00E94340487E69DE00E94810337
:100A2000892B11F00E94680485E49DE00E948103F7
:100A3000892B11F00E949C0483E29DE00E948103B7
:100A4000892B11F00E94D00408951F920F920FB6C7
:100A50000F9211240BB60F922F933F938F939F9376
:100A6000EF93FF932091830F3091840F8091850F36
:100A70009091860F2817390731F48091C1008F7D3E
:100A80008093C10014C0E091850FF091860FED5B5B
:100A9000F04F20818091850F9091860F01968F7382
:100AA00099279093860F8093850F2093C600FF911E
:100AB000EF919F918F913F912F910F900BBE0F90CF
:100AC0000FBE0F901F9018951F920F920FB60F92A6
:100AD00011240BB60F922F933F938F939F93EF9315
:100AE000FF932091FB0E3091FC0E8091FD0E9091B2
:100AF000FE0E2817390731F48091C9008F7D80934D
:100B0000C90014C0E091FD0EF091FE0EE554F14FC6
:100B100020818091FD0E9091FE0E01968F73992792
:100B20009093FE0E8093FD0E2093CE00FF91EF91E7
:100B30009F918F913F912F910F900BBE0F900FBE01
:100B40000F901F9018951F920F920FB60F921124BD
:100B50000BB60F922F933F938F939F93EF93FF9337
:100B60002091730E3091740E8091750E9091760ED7
:100B70002817390731F48091D1008F7D8093D100FF
:100B800014C0E091750EF091760EED5CF14F20816E
:100B90008091750E9091760E01968F7399279093A0
:100BA000760E8093750E2093D600FF91EF919F9162
:100BB0008F913F912F910F900BBE0F900FBE0F9012
:100BC0001F9018951F920F920FB60F9211240BB61B
:100BD0000F922F933F938F939F93EF93FF932091C7
:100BE000EB0D3091EC0D8091ED0D9091EE0D2817ED
:100BF000390731F4809131018F7D8093310114C028
:100C0000E091ED0DF091EE0DE555F24F20818091D0
:100C1000ED0D9091EE0D01968F7399279093EE0D47
:100C20008093ED0D20933601FF91EF919F918F916D
:100C30003F912F910F900BBE0F900FBE0F901F9002
:100C40001895CF92DF92EF92FF92CF93DF93EC0152
:100C50006A017B014115514E6105710509F1EC896D
:100C6000FD8981E090E008A002C0880F991F0A94D6
:100C7000E2F7808360E079E08DE390E0A7019601E0
:100C80000E940936DA01C9010197A109B109B69597
:100C9000A795979587959C01211580E13807A8F0C5
:100CA000EC89FD89108260E874E88EE190E0A7018C
:100CB00096010E940936DA01C9010197A109B1091B
:100CC000B695A795979587959C01E889F989308312
:100CD000EA89FB89208319A2EE89FF89408181E09E
:100CE00090E09C010C8C02C0220F331F0A94E2F7A3
:100CF000242B2083EE89FF8940819C010D8C02C04A
:100D0000220F331F0A94E2F7242B2083EE89FF89F8
:100D100040819C010E8C02C0220F331F0A94E2F71F
:100D2000242B2083EE89FF8920810F8C02C0880F3D
:100D3000991F0A94E2F7809582238083DF91CF91F7
:100D4000FF90EF90DF90CF900895CF93DF93FC0159
:100D500086859785DC01A05CBF4FEC01CE5BDF4F41
:100D60004D915C9111972881398142175307C1F742
:100D7000A689B7893C9181E090E0AC01048C02C067
:100D8000440F551F0A94E2F7242F209523232C9318
:100D9000A689B7893C91AC01058C02C0440F551F50
:100DA0000A94E2F7242F209523232C93A689B78950
:100DB0003C91AC01068C02C0440F551F0A94E2F727
:100DC000242F209523232C93A689B7892C91078C57
:100DD00002C0880F991F0A94E2F7809582238C93B2
:100DE00084859585FC01EE5BFF4F20813181329730
:100DF00031832083DF91CF910895CF92DF92EF92DC
:100E0000FF92E9E8FDE01382128288EEC82E83E0AB
:100E1000D82EE12CF12CC482D582E682F7826DECCB
:100E200073E07183608387E89FE09587848783E41C
:100E30009FE09787868785EC90E0918B808B84EC90
:100E400090E0938B828B80EC90E0958B848B81EC8F
:100E500090E0978B868B82EC90E0918F808F86EC70
:100E600090E0938F828F44E0448F33E0358F27E00A
:100E7000268F95E0978F81E080A3E7E6FDE013825F
:100E80001282C482D582E682F78271836083AFEFDB
:100E9000BEE0B587A487ABEBBEE0B787A687ADEC15
:100EA000B0E0B18BA08BACECB0E0B38BA28BA8EC24
:100EB000B0E0B58BA48BA9ECB0E0B78BA68BAAEC05
:100EC000B0E0B18FA08FAEECB0E0B38FA28F448FB3
:100ED000358F268F978F80A3E5E4FDE01382128281
:100EE000C482D582E682F78271836083A7E7BEE081
:100EF000B587A487A3E3BEE0B787A687A5EDB0E0DA
:100F0000B18BA08BA4EDB0E0B38BA28BA0EDB0E0D1
:100F1000B58BA48BA1EDB0E0B78BA68BA2EDB0E0B2
:100F2000B18FA08FA6EDB0E0B38FA28F448F358F25
:100F3000268F978F80A3E3E2FDE013821282C482A2
:100F4000D582E682F782718360836FEE7DE07587DC
:100F500064876BEA7DE07787668765E371E0718B74
:100F6000608B64E371E0738B628B60E371E0758B7F
:100F7000648B61E371E0778B668B62E371E0718F64
:100F8000608F66E371E0738F628F448F358F268F99
:100F9000978F80A3FF90EF90DF90CF900895A0E00F
:100FA000B0E0E5EDF7E00C9467366C01EB017B01F6
:100FB000E40EF51E00E010E0CE15DF0561F069914A
:100FC000D601ED91FC910190F081E02DC6011995BB
:100FD000080F191FF1CFC801CDB7DEB7E8E00C94B8
:100FE00083366115710581F0FB0101900020E9F75E
:100FF0003197AF01461B570BDC01ED91FC9102804C
:10100000F381E02D1995089580E090E00895A0E027
:10101000B0E0EDE0F8E00C9465367C016B01C0E0D7
:10102000D0E000E010E0D60114968D919C911597C8
:10103000C817D90788F4D701ED91FC91A080B18041
:10104000BE01C6010E94640B682FC701F501199506
:10105000080F191F2196E7CFC801CDB7DEB7EAE028
:101060000C9481360E94F1070895DC01ED91FC910A
:101070000190F081E02D199508950F931F93CF9360
:10108000DF93EC016DE00E9435088C016AE0CE012F
:101090000E943508800F911FDF91CF911F910F9112
:1010A00008950F931F93CF93DF93EC010E940708DD
:1010B0008C01CE010E943D08800F911FDF91CF91DE
:1010C0001F910F9108950F931F93CF93DF93EC011E
:1010D0000E94F1078C01CE010E943D08800F911FF4
:1010E000DF91CF911F910F910895A1E2B0E0EBE75E
:1010F000F8E00C9463366C01142FE52FCB01022F1E
:1011000019A2223008F40AE07E0121E2E20EF11C6D
:10111000802E912CA12CB12C612F7E2FA501940142
:101120000E940936029F1019112481E0E81AF10883
:101130001A3014F4105D01C0195CF7011083122FEE
:10114000E32FCA01232B242B252B31F7B701C6012E
:101150000E94F107A196ECE00C947F362115310531
:1011600049F4DC01ED91FC910190F081E02D642FB8
:10117000199508950E94750808959A01462F50E028
:1011800060E070E00E94AE080895A0E0B0E0EBECF3
:10119000F8E00C9467368C016A017B01211531055A
:1011A00049F4DC01ED91FC910190F081E02D642F78
:1011B00019951DC02A303105A9F477FF12C06DE2E0
:1011C0000E943508EC0144275527BA014C195D09E6
:1011D0006E097F092AE0C8010E9475088C0F9D1FC7
:1011E00006C02AE0B701A601C8010E947508CDB764
:1011F000DEB7E8E00C9483369A01AB01770F660BFB
:10120000770B0E94C5080895A0E0B0E0EAE0F9E09D
:101210000C9462368C016A017B01722E9A01AB013B
:10122000C701B6010E949F2D882319F069ED73E074
:1012300027C046015701E894B7F82FEF3FEF4FE77B
:101240005FE7C501B4010E949F2D81110DC02FEFF2
:101250003FEF4FE75FE7C501B4010E94CE2B1816A0
:101260001CF46DED73E00CC02FEF3FEF4FE75FE430
:10127000C701B6010E942D2D181634F461EE73E0FB
:10128000C8010E94F1077CC02FEF3FEF4FE75FECF2
:10129000C701B6010E94CE2B87FDF0CF20E030E0E1
:1012A000A901C701B6010E94CE2B87FF0AC06DE2DB
:1012B000C8010E943508EC01F7FAF094F7F8F094B1
:1012C00002C0C0E0D0E0B12C60E070E080E09FE3BD
:1012D0007B1441F020E030E040E251E40E94D32B47
:1012E000B394F6CFA70196010E94622B6B017C019B
:1012F0000E944C2C4B015C012AE0AB01BC01C801EF
:101300000E947508C80FD91F7720C9F1C501B40123
:101310000E947B2C9B01AC01C701B6010E94612B8E
:101320006B017C0166E37BE0C8010E94F107C80FF6
:10133000D91F20E030E040E251E4C701B6010E942D
:10134000322D4B015C010E94452C6B017C014AE06F
:1013500050E0C8010E94FC08C80FD91FB601DD0C7F
:10136000880B990B0E947D2C9B01AC01C501B40137
:101370000E94612B6B017C017A947110DACFCE014F
:10138000CDB7DEB7EDE00C947E360E9404090895D7
:10139000FC01808191810E94660C0895CF93DF93B8
:1013A000EC0188819981009711F00E94660C1982E6
:1013B00018821D821C821B821A82DF91CF910895B0
:1013C0000F931F93CF93DF93EC018B016F5F7F4FE0
:1013D000888199810E94EF0C009731F0998388836E
:1013E0001B830A8381E001C080E0DF91CF911F91D0
:1013F0000F910895CF93DF93EC0188819981892B18
:1014000029F08A819B818617970760F4CE010E949C
:10141000E009882341F08C819D81892B19F4E881B2
:10142000F981108281E0DF91CF910895EF92FF92D0
:101430000F931F93CF93DF93EC017B018A01BA01D5
:101440000E94FA09811104C0CE010E94CE0907C092
:101450001D830C83B701888199810E94F136CE01EA
:10146000CDB7DEB7E6E00C948536FC011182108220
:10147000138212821582148216826115710551F051
:10148000FB0101900020E9F73197AF01461B570B94
:101490000E94160A0895CF93DF93EC01FB01861793
:1014A000970761F0608171816115710529F04481B0
:1014B00055810E94160A02C00E94CE09CE01DF911A
:1014C000CF910895FC01118210821382128215823D
:1014D000148216820E944B0A0895CF93DF93EC0189
:1014E0006115710559F0FB0101900020E9F7319772
:1014F000AF01461B570B0E94160A02C00E94CE097C
:10150000CE01DF91CF910895A2E0B0E0EAE8FAE0E1
:101510000C946D36FC0111821082138212821582A6
:101520001482168269831A82BE016F5F7F4F0E9408
:101530006D0A2296E2E00C948936A2E1B0E0E3EA7B
:10154000FAE00C946B368C01CB01F8011182108209
:101550001382128215821482168250E0BE016F5FE0
:101560007F4F0E94F836BE016F5F7F4FC8010E9417
:101570006D0A6296E4E00C948736EF92FF920F9327
:101580001F93CF93DF936115710511F480E01CC0A8
:1015900041155105C1F07B01EC018C819D818A01CF
:1015A000080F191FB801CE010E94FA09882371F3B0
:1015B000288139818C819D81B701820F931F0E9400
:1015C000F1361D830C8381E0CDB7DEB7E6E00C94E5
:1015D0008536A2E0B0E0EFEEFAE00C946D36698358
:1015E0001A8241E050E0BE016F5F7F4F0E94BD0A4A
:1015F0002296E2E00C948936A7E0B0E0E2E0FBE05E
:101600000C9469367C01CB014AE050E08E010F5FFB
:101610001F4FB8010E94F836F80101900020E9F749
:101620003197AF01401B510BB801C7010E94BD0AA1
:101630002796E6E00C948536CF93DF93EC01FB010F
:1016400044815581608171810E94BD0A811103C06E
:10165000CE010E94CE09CE01DF91CF910895CF93A4
:10166000DF93EC016115710561F0FB010190002031
:10167000E9F73197AF01461B570B0E94BD0A811154
:1016800003C0CE010E94CE09CE01DF91CF91089513
:10169000CF93DF93EC010E94E90A811103C0CE01D0
:1016A0000E94CE09CE01DF91CF910895CF93DF93B1
:1016B000EC010E94FC0A811103C0CE010E94CE09F8
:1016C000CE01DF91CF910895FC012481358162170D
:1016D000730748F480819181009729F0FC01E60F9F
:1016E000F71F8081089580E008950E94640B08959B
:1016F000A0E0B0E0EEE7FBE00C9466367C016B0105
:101700008A01E9012417350720F4812F8901C42FAC
:10171000D82F60E577E0C7010E94350AD6011496FC
:101720008D919C91159780179107C8F08C179D0794
:1017300008F4EC01D601ED91FC911197EC0FFD1F1F
:10174000B08010826D917C91600F711FC7010E9463
:101750006D0AD601ED91FC91EC0FFD1FB082C7011F
:10176000CDB7DEB7E9E00C948236FC01808191812F
:10177000009719F00E94C136089560E070E0CB0137
:1017800008950E94600E0E944902C4E0D5E00E94C4
:1017900061022097E1F30E940405F9CF0F931F9394
:1017A000CF93DF938230910510F482E090E0E091D6
:1017B0000811F091091120E030E0A0E0B0E030978E
:1017C00019F1408151810281138148175907C8F0EE
:1017D0008417950769F4109731F012960C931297BD
:1017E00013961C9327C0009308111093091122C06F
:1017F0002115310519F04217530718F49A01BD015C
:10180000EF01DF01F801DBCF21153105F9F0281BCD
:10181000390B2430310580F48A819B816115710573
:1018200021F0FB019383828304C09093091180937C
:101830000811FE01329644C0FE01E20FF31F8193AE
:10184000919322503109398328833AC0209106119F
:1018500030910711232B41F42091020230910302B1
:10186000309307112093061120910002309101025C
:101870002115310541F42DB73EB740910402509136
:101880000502241B350BE0910611F0910711E217B8
:10189000F307A0F42E1B3F0B2817390778F0AC0193
:1018A0004E5F5F4F2417350748F04E0F5F1F509370
:1018B0000711409306118193919302C0E0E0F0E09C
:1018C000CF01DF91CF911F910F910895CF93DF93B7
:1018D000009709F481C0FC01329713821282A09113
:1018E0000811B0910911109781F420813181820F84
:1018F000931F20910611309107112817390751F5D0
:10190000F0930711E093061167C0ED0120E030E08D
:10191000CE17DF0740F44A815B819E0141155105D6
:10192000F1F0EA01F5CFD383C28340815181840F66
:10193000951FC817D90759F488819981840F951F7D
:101940000296918380838A819B8193838283211570
:10195000310529F4F0930911E09308113DC0E90124
:10196000FB83EA8349915991C40FD51FEC17FD07FA
:1019700061F480819181840F951F0296E90199831A
:101980008883828193819B838A83E0E0F0E01296D2
:101990008D919C911397009719F0FD01DC01F7CF11
:1019A0008D919C9111979D012E5F3F4F820F931F48
:1019B00020910611309107112817390769F43097E3
:1019C00029F4109209111092081102C01382128298
:1019D000B0930711A0930611DF91CF910895A0E075
:1019E000B0E0E5EFFCE00C946136EC01009721F4E7
:1019F000CB010E94CE0BB4C0FC01E60FF71F9C0187
:101A000022503109E217F30708F4A8C0D9010D915B
:101A10001C91119706171707B0F00530110508F44F
:101A20009BC0C80104978617970708F495C0025019
:101A30001109061B170B019311936D937C93CF0132
:101A40000E94660C89C05B01A01AB10A4C01800E8D
:101A5000911EA0910811B0910911612C712CE12CFB
:101A6000F12C109709F446C08D919C911197A815FF
:101A7000B905B1F56C0142E0C40ED11CCA14DB04F7
:101A800078F14C018A189B08640142E0C40ED11C15
:101A90001296BC9012971396AC91B5E0CB16D10478
:101AA00040F0B282A38391828082D9016D937C93AE
:101AB00009C00E5F1F4F800F911FF9019183808332
:101AC000EB2DFA2FE114F10431F0D7011396FC93BA
:101AD000EE93129741C0F0930911E09308113CC0B6
:101AE0006816790608F43C017D0112960D90BC91B0
:101AF000A02DB7CF809106119091071188169906F5
:101B0000E1F466167706C8F4809100029091010214
:101B1000009741F48DB79EB74091040250910502A1
:101B2000841B950BE817F907C8F4F0930711E093AD
:101B30000611F901718360830FC0CB010E94CE0BA7
:101B40007C01009759F0A801BE010E94E836CE0141
:101B50000E94660CC70104C0CE0102C080E090E084
:101B6000CDB7DEB7EEE00C947D361F920F920FB624
:101B70000F9211242F933F938F939F93AF93BF9313
:101B80008091CC0F9091CD0FA091CE0FB091CF0F3F
:101B90003091CB0F23E0230F2D3720F40196A11DA8
:101BA000B11D05C026E8230F0296A11DB11D20938B
:101BB000CB0F8093CC0F9093CD0FA093CE0FB0930B
:101BC000CF0F8091D00F9091D10FA091D20FB091F3
:101BD000D30F0196A11DB11D8093D00F9093D10F0B
:101BE000A093D20FB093D30FBF91AF919F918F91DC
:101BF0003F912F910F900FBE0F901F9018952FB708
:101C0000F8946091CC0F7091CD0F8091CE0F909190
:101C1000CF0F2FBF08953FB7F8948091D00F9091C8
:101C2000D10FA091D20FB091D30F26B5A89B05C0BC
:101C30002F3F19F00196A11DB11D3FBFBA2FA92F4B
:101C4000982F8827820F911DA11DB11DBC01CD01C8
:101C500042E0660F771F881F991F4A95D1F70895B4
:101C6000CF92DF92EF92FF92CF93DF936B017C01D3
:101C70000E940B0EEB01C114D104E104F10479F0D0
:101C80000E940B0E6C1B7D0B683E7340A0F381E03D
:101C9000C81AD108E108F108C851DC4FECCFDF9138
:101CA000CF91FF90EF90DF90CF900895019739F09A
:101CB000880F991F880F991F02970197F1F70895D0
:101CC000789484B5826084BD84B5816084BD85B517
:101CD000826085BD85B5816085BDEEE6F0E08081DE
:101CE00081608083E1E8F0E01082808182608083FF
:101CF000808181608083E0E8F0E080818160808382
:101D0000E1EBF0E0808184608083E0EBF0E08081B3
:101D100081608083E1E9F0E080818260808380815E
:101D200081608083E0E9F0E0808181608083E1EA86
:101D3000F0E0808182608083808181608083E0EA3E
:101D4000F0E0808181608083E1E2F1E08081826067
:101D50008083808181608083E0E2F1E08081816026
:101D60008083EAE7F0E08081846080838081826004
:101D700080838081816080838081806880831092ED
:101D8000C10008951F93CF93DF93EC01188183E086
:101D900090E00E943E3A181729F0612F83E090E00E
:101DA0000E94463A198184E090E00E943E3A18175A
:101DB00029F0612F84E090E00E94463ACE01DF9145
:101DC000CF911F910895089589E89DE00E943D08F4
:101DD00065EE73E089E89DE00E94630860E174E0CD
:101DE00089E89DE00E94630865EE73E089E89DE064
:101DF0000E94630889E89DE00E943D086BE374E05F
:101E000089E89DE00E94630867E574E089E89DE049
:101E10000E9463086BE674E089E89DE00E94630815
:101E200062E974E089E89DE00E94630860EB74E079
:101E300089E89DE00E94630866ED74E089E89DE012
:101E40000E9463086BEF74E089E89DE00E946308DC
:101E500060E175E089E89DE00E94630867E275E053
:101E600089E89DE00E94630865E475E089E89DE0EB
:101E70000E9463086FE575E089E89DE00E946308B1
:101E800066E775E089E89DE00E9463086DE875E00B
:101E900089E89DE00E9463086DEA75E089E89DE0AD
:101EA0000E94630865ED75E089E89DE00E94630883
:101EB0006DEF75E089E89DE00E94630865E176E0DA
:101EC00089E89DE00E94630889E89DE00E943D0842
:101ED00067E376E089E89DE00E9463086CE576E0C0
:101EE00089E89DE00E94630867E876E089E89DE064
:101EF0000E9463086CE576E089E89DE00E94630833
:101F00000895FB01DA01CB01089631912D9132132E
:101F100005C0E817F907C9F781E0089580E0089542
:101F200062EB76E089E89DE00E94320868EE73E09B
:101F300080E090E00E94300E0895CF93C62F60E0BD
:101F40008CE00E94A13561E08CE00E946535C130D3
:101F500019F486E090E002C08CE390E00E94560EF7
:101F600060E08CE00E94653561E08CE00E94A13564
:101F70006AE070E080E090E00E94300ECF9108951A
:101F8000DF92EF92FF920F931F93CF93DF938C0119
:101F90007B0180E090E10E94752880E090E10E9442
:101FA000B12740E061ED80E090E10E944C2860E0C4
:101FB000C8010E949D0F80E090E10E94752880E09A
:101FC00090E10E94B12740E065ED80E090E10E9441
:101FD0004C28E70148E0D42E38E0E32EF12C88812C
:101FE00080FF02C060E001C061E0C8010E949D0F57
:101FF000888190E095958795888381E0E81AF108BB
:1020000071F76DE074E089E89DE00E943208DA948F
:102010002196D110E1CF80E090E10E94B12740E00D
:1020200061ED80E090E10E944C2861E0C8010E94CF
:102030009D0FCDB7DEB7E7E00C948436CF92DF92E8
:10204000EF92FF920F931F936A017B01C901B801C0
:1020500020E030E0A9018AE00E94D830C701B60133
:102060000E94300E8AE00E945C34C701B6010E94D3
:10207000300E1F910F91FF90EF90DF90CF90089559
:10208000CF92DF92EF92FF920F931F936A017B0131
:10209000C901B80120E030E0A9018DE00E94D830EC
:1020A000C701B6010E94300E8DE00E945C34C7016A
:1020B000B6010E94300E1F910F91FF90EF90DF90BC
:1020C000CF90089584E190E10E94C8236093D80FD7
:1020D0007093D90F8093DA0F9093DB0F84E190E136
:1020E0000E9410246093D40F7093D50F8093D60F65
:1020F0009093D70F089583E190E10E94202B40E058
:1021000052EC61E070E089E89DE00E9421060895AC
:102110000F931F93CF93DF938B01FB0184819581F4
:102120008E30910511F0409799F5C0E0D0E0F801AC
:1021300084819581C817D90738F5BE01C8010E946E
:10214000750B80333CF4BE01C8010E94750B8134CD
:1021500044F40DC0BE01C8010E94750B8A33B4F06F
:10216000F2CFBE01C8010E94750B87347CF0BE011E
:10217000C8010E94750B81365CF0BE01C8010E9447
:10218000750B87361CF004C081E003C02196CFCFC9
:1021900080E0DF91CF911F910F9108950F931F93CE
:1021A000CF93DF938B01C0E0D0E0F801848195816B
:1021B000C817D90770F4BE01C8010E94750B80339F
:1021C00054F0BE01C8010E94750B8A3324F4219695
:1021D000ECCF81E001C080E0DF91CF911F910F91A2
:1021E0000895A2E0B0E0E7EFF0E10C946D361A82BA
:1021F000198283E090E00E943E3A898384E090E077
:102200000E943E3A8A8389819A812296E2E00C9468
:102210008936AEE0B0E0EFE0F1E10C9463367B018B
:102220006A010E94F11023E0EE0CFF1C2A95E1F7F1
:10223000EC9C8001ED9C100DFC9C100D1124E00E17
:10224000F11E8E159F050CF47C01CE0101965C01F8
:1022500096ED892E96E0992E0E151F050CF069C09B
:10226000C80187709927892B09F046C0680117FFBC
:1022700003C097E0C90ED11C83E0D594C7948A951A
:10228000E1F789E89DE00E943D086BE777E089E887
:102290009DE00E9432088AE0C816D1041CF46EEC5E
:1022A00076E009C094E6C916D1041CF46FEC76E020
:1022B00002C060E577E089E89DE00E9432084AE0CC
:1022C000B601CE0108960E949D0ABE01685F7F4F4D
:1022D000C5010E94620A61ED76E0C5010E942F0BE4
:1022E000BC0189E89DE00E940708C5010E94C80959
:1022F000CE0108960E94C8091A821982B80182EE9E
:102300009FE00E948A2A1F928F939F928F92BF9282
:10231000AF920E944537B50189E89DE00E943208DE
:102320000F5F1F4F0F900F900F900F900F900F9017
:1023300093CF89E89DE00E943D082E96ECE00C9436
:102340007F360E94F11023E0969587952A95E1F754
:102350009093E10F8093E00F20E032E03093DD0FA7
:102360002093DC0F281B390B3093DF0F2093DE0FF7
:1023700008950F931F93CF93DF93EC0108EE13E0C2
:1023800020E030E04AEF50E060E070E082E29DE063
:102390000E941E1084E190E10E948D2384E190E16F
:1023A0000E949323CE010E947B106CE170E182EECB
:1023B0009FE00E945929CE010E946210CE010E9426
:1023C000A11108EE13E020E030E042EE54E060E0BE
:1023D00070E082E29DE00E941E10DF91CF911F917C
:1023E0000F910895CF93DF93EC0189E89DE00E945F
:1023F0003D08CE010E946210CE010E94A1116BED3A
:1024000076E089E89DE00E94630863E077E089E870
:102410009DE00E9432084091D80F5091D90F6091F1
:10242000DA0F7091DB0F24E030E089E89DE00E9434
:10243000C5096DE077E089E89DE00E94320861E11E
:1024400077E089E89DE00E9432084091D40F5091D6
:10245000D50F6091D60F7091D70F22E030E089E858
:102460009DE00E94C5096AE177E089E89DE00E944D
:10247000630889E89DE00E943D086CE177E089E807
:102480009DE00E94630864E477E089E89DE00E9493
:1024900032086091E00F7091E10F4AE050E089E866
:1024A0009DE00E94FC0861E577E089E89DE00E94DC
:1024B000630869E577E089E89DE00E943208609151
:1024C000DE0F7091DF0F4AE050E089E89DE00E9446
:1024D000FC0861E577E089E89DE00E9463086BE60F
:1024E00077E089E89DE00E9432086091DC0F7091EE
:1024F000DD0F4AE050E089E89DE00E94FC0861E5BC
:1025000077E089E89DE00E94630889E89DE00E94E9
:102510003D08DF91CF910895AEE0B0E0E2E9F2E14D
:102520000C9469360E94A1110091DC0F1091DD0F0F
:10253000E090E00FF090E10F69E777E0CE010896B8
:102540000E94350ABE01685F7F4FCE0101960E944E
:10255000620AB701CE0101960E94560B6EE777E042
:102560000E942F0BB8010E94560B63ED75E00E948C
:102570002F0BBC0189E89DE00E940708CE0101965F
:102580000E94C809CE0108960E94C8092E96E6E06E
:102590000C948536A0E0B0E0E0EDF2E10C946236F8
:1025A000EB0189E090E00E94CE0B5C018C809D8065
:1025B00000E010E0081519050CF095C0B801CE0137
:1025C0000E94750B80330CF460C0B801CE010E94EC
:1025D000750B8A330CF059C0B801CE010E94750BFF
:1025E000782E729460EF7622B801CE010E94750BAE
:1025F00081343CF0B801CE010E94750B87340CF495
:1026000046C0B801CE010E94750B81363CF0B8017E
:10261000CE010E94750B87360CF443C06801C801D7
:1026200001967C0117FD6C01D594C794CA0CDB1C84
:10263000F6017082B701CE010E94750B803334F031
:10264000B701CE010E94750B8A33ACF1B701CE0100
:102650000E94750B813434F0B701CE010E94750BD6
:1026600087348CF1B701CE010E94750B813634F0AE
:10267000B701CE010E94750B87366CF1F60180819F
:10268000780E70820E5F1F4F95CF712CADCFB801C1
:10269000CE010E94750B8295807F50E9752E780ED1
:1026A000B0CFB801CE010E94750B8295807F40E9C2
:1026B000742E780EB3CFB701CE010E94750B30EDAA
:1026C000732E780EC3CFB701CE010E94750B29EC93
:1026D000722E780EC7CFB701CE010E94750B99EA12
:1026E000792E780ECBCFF501E80DF91D1082C501CA
:1026F000CDB7DEB7EDE00C947E3683E190E10E9429
:102700009E2A6CE080E090E10E9487286BE085EED5
:102710009FE00E94482460E582EE9FE00E945629D7
:102720000895A5E1B0E0E7E9F3E10C9467366C01A8
:102730000E94F1108C0160E877E089E89DE00E943A
:10274000630889E89DE00E943D0840E050E060E1B8
:1027500070E0C6010E940911C80117FF02C081582C
:102760009F4F7C01EE0CEF2CEE1CFF0800E010E008
:1027700060E577E0CE010F960E94350A89E89DE07A
:102780000E948103181619060CF04CC069E87DE020
:10279000CE0101960E94BE30BE016F5F7F4FCE0119
:1027A0000F960E944B0ACE0101960E94C8098B89A0
:1027B0009C89019791F460E070E0CE010F960E9431
:1027C000750B8D34D1F160E070E0CE010F960E9460
:1027D000750B8D3609F03FC030C062EC77E0CE015A
:1027E00008960E94350ABE01685F7F4FCE010196B0
:1027F0000E94620ABE01615F7F4FCE0101960E9476
:102800001C0B64ED77E00E942F0BBC0189E89DE072
:102810000E945108CE0101960E94C809CE01089677
:102820000E94C80960E971E080E090E00E94300EEB
:10283000CE010F960E94C8099BCF63EC76E089E831
:102840009DE00E946308CE010F960E94C80965961C
:10285000E8E00C94833660E070E0CE010F960E94B1
:10286000750B823441F060E070E0CE010F960E945B
:10287000750B823631F401151105C1F001501109B3
:1028800015C060E070E0CE010F960E94750B863493
:1028900041F060E070E0CE010F960E94750B863625
:1028A00061F40E151F0514F40F5F1F4FA80160E1BE
:1028B00070E0C6010E940911B5CF62EC77E0CE014D
:1028C00001960E94350ABE01615F7F4FCE010196DD
:1028D0000E941C0B64ED77E00E942F0BBC0189E87D
:1028E0009DE00E945108CE0101960E94C80989E826
:1028F0009DE00E943D0896CFA6E1B0E0E2E8F4E159
:102900000C9468367C0169ED7AE089E89DE00E94CC
:10291000630889E89DE00E943D086EEE77E089E853
:102920009DE00E9463088E010F5F1F4F88E0D82E44
:1029300060E577E0CE0140960E94350A89E89DE087
:102940000E948103181619066CF469E87DE0C8013D
:102950000E94BE30B801CE0140960E944B0AC801C9
:102960000E94C8098C899D898130910551F560E0EC
:1029700070E0CE0140960E94750B8D3409F4BCC006
:1029800060E070E0CE0140960E94750B8D3609F430
:10299000B3C062EC77E0C8010E94350ABE01605FF7
:1029A0007F4FC8010E941C0B64ED77E00E942F0B43
:1029B000BC0189E89DE00E945108C8010E94C80935
:1029C0008AC08031910509F079C06BE178E0CE01D1
:1029D00009960E94350ABE01675F7F4FC8010E94B9
:1029E000620ABE01605F7F4FC8010E941C0B6DE24E
:1029F00078E00E942F0BBC0189E89DE00E945108FD
:102A0000C8010E94C809CE0109960E94C809BE01EA
:102A1000605F7F4FC8010E94620AB801C7010E942F
:102A2000CA12BC01C7010E94C00FC8010E94C80998
:102A3000F8018D2D11928A95E9F7B80180E090E1B7
:102A40000E94BC2881110AC080E090E10E947A288F
:102A500068EC70E080E090E00E94300EBE01605FA4
:102A60007F4FCE0109960E94620ABE01675F7F4FC9
:102A7000C7010E94CA12A801BC01C7010E94810FB0
:102A8000882319F061E378E002C068E378E089E820
:102A90009DE00E943208CE0109960E94C80989E88B
:102AA0009DE00E943D0889E89DE00E943D0869ED97
:102AB0007AE089E89DE00E9463080DC0029750F516
:102AC00060E971E080E090E00E94300ECE01409617
:102AD0000E94C8092DCF89E89DE00E943D0860E46E
:102AE00078E089E89DE00E9463086EEE77E089E86F
:102AF0009DE00E946308E4CF63EC76E089E89DE006
:102B00000E946308CE0140960E94C8096696E7E0DD
:102B10000C94843664E678E0CE0109960E94350A6A
:102B2000BE01675F7F4FC8010E94620ABE01605FFD
:102B30007F4FC8010E941C0B64ED77E00E942F0BB1
:102B4000BC0189E89DE00E945108C8010E94C809A3
:102B5000CE0109960E94C809B3CFAFE1B0E0E3EB24
:102B6000F5E10C945D367C010E94F1108C0162E766
:102B700078E089E89DE00E94630860E478E089E8F5
:102B80009DE00E94630860E877E089E89DE00E948C
:102B9000630889E89DE00E943D0840E050E060E164
:102BA00070E0C7010E940911C80117FF02C08158D7
:102BB0009F4F1C01220C232C221C3308C12CD12C2A
:102BC0008E010F5F1F4F2E012EE1420E511C60E55A
:102BD00077E0CE0147960E94350A89E89DE00E9481
:102BE0008103181619060CF065C169E87DE0C8017B
:102BF0000E94BE30B801CE0147960E944B0AC80120
:102C00000E94C8098B8D9C8D8130910599F460E0FC
:102C100070E0CE0147960E94750B8D3409F455C1C2
:102C200060E070E0CE0147960E94750B8D3609F08A
:102C30005AC14BC1039709F0A6C1C7010E94F11008
:102C40005C01BE01695E7F4FC8010E94620AB80143
:102C5000C7010E94CE10982EC8010E94C809911089
:102C600015C06BEB78E0CE0109960E94350ABE01D3
:102C7000675F7F4FC8010E94620ABE01695E7F4F95
:102C8000C8010E941C0B64ED77E026C08F89988DE7
:102C90000E94A3363C0197FD0BC0C501B7FC079607
:102CA00023E0959587952A95E1F7681679060CF14A
:102CB00061ED78E0CE0109960E94350ABE01675F9A
:102CC0007F4FC8010E94620ABE01695E7F4FC80142
:102CD0000E941C0B6FED78E00E942F0BBC0189E86D
:102CE0009DE00E945108C8010E94C809CE010996C2
:102CF000C1C060E577E0CE0140960E94350A5301DD
:102D000083E0AA0CBB1C8A95E1F74501E8E08E0E32
:102D1000911CA814B904BCF51F8E1E8EB50182EE5D
:102D20009FE00E948A2A1F928F9386ED96E09F93E0
:102D30008F935F924F920E944537BE01605F7F4F35
:102D4000CE0109960E94620AB201CE0109960E9444
:102D50002F0BBC01C8010E94620AB801CE01409647
:102D60000E944B0AC8010E94C809CE0109960E9420
:102D7000C809FFEFAF1ABF0A0F900F900F900F9086
:102D80000F900F90C6CF69E079E0CE0109960E94BE
:102D9000350ABE01675F7F4FC8010E94620AB30116
:102DA000C8010E94560B6BE777E00E942F0BBE0113
:102DB000605F7F4F0E941C0B6EE179E00E942F0B39
:102DC000BC0189E89DE00E940708C8010E94C8096B
:102DD000CE0109960E94C809BE01605F7F4FC801FD
:102DE0000E94620AB801C7010E94CA12BC01C70151
:102DF0000E94C00FC8010E94C809F80128E0119282
:102E00002A95E9F7B80180E090E10E94BC28811181
:102E10000AC080E090E10E947A2868EC70E080E0CF
:102E200090E00E94300EBE01605F7F4FCE01099698
:102E30000E94620ABE01675F7F4FC7010E94CA12EB
:102E4000A801BC01C7010E94810F882319F061E32A
:102E500078E002C068E378E089E89DE00E943208EB
:102E6000CE0109960E94C80989E89DE00E943D08AC
:102E7000CE0140960E94C80989E89DE00E943D0865
:102E800089E89DE00E943D0869ED7AE089E89DE0CF
:102E90000E94630889E89DE00E943D0860E478E0B4
:102EA00089E89DE00E94630862E778E089E89DE098
:102EB0000E94630860E971E080E090E00E94300EBB
:102EC000CE0147960E94C80982CE63EC76E089E87D
:102ED0009DE00E946308CE0147960E94C8096F9644
:102EE000E2E10C94793660E070E0CE0147960E94F2
:102EF000750B823441F060E070E0CE0147960E948D
:102F0000750B823639F4C114D104D1F081E0C81AAE
:102F1000D10816C060E070E0CE0147960E94750BA4
:102F2000863441F060E070E0CE0147960E94750B58
:102F3000863669F4C214D3041CF49FEFC91AD90A67
:102F4000A60160E170E0C7010E940911B3CF62ECF5
:102F500077E0C8010E94350ABE01695E7F4FC80153
:102F60000E941C0B64ED77E00E942F0BBC0189E8E6
:102F70009DE00E945108C8010E94C80989E89DE0AF
:102F80000E943D0897CF62EC77E0CE0109960E943F
:102F9000350ABE01675F7F4FC8010E94620ABE0109
:102FA000695E7F4FC8010E941C0B64ED77E00E94B0
:102FB0002F0BBC0189E89DE00E945108C8010E94C6
:102FC000C809CE0109960E94C80974CFA5E1B0E0F6
:102FD000ECEEF7E10C946B368C0169ED7AE089E850
:102FE0009DE00E94630889E89DE00E943D0863E23D
:102FF00079E089E89DE00E94630860E577E0CE0112
:103000000F960E94350A89E89DE00E9481031816F8
:1030100019068CF469E87DE0CE0101960E94BE306D
:10302000BE016F5F7F4FCE010F960E944B0ACE010B
:1030300001960E94C8098B899C898130910569F5A8
:1030400060E070E0CE010F960E94750B8D3409F49C
:1030500095C060E070E0CE010F960E94750B8D3632
:1030600009F48CC062EC77E0CE0101960E94350A2B
:10307000BE01615F7F4FCE0101960E941C0B64ED83
:1030800077E00E942F0BBC0189E89DE00E94510867
:10309000CE0101960E94C80966C08031910509F0F1
:1030A00055C060E579E0CE0108960E94350ABE0160
:1030B000685F7F4FCE0101960E94620ABE01615F88
:1030C0007F4FCE0101960E941C0B60E679E00E94C2
:1030D0002F0BBC0189E89DE00E945108CE010196AA
:1030E0000E94C809CE0108960E94C809BE01615F0E
:1030F0007F4FCE0101960E94620ABE016F5F7F4F33
:10310000C8010E94CA12BC0185EE9FE00E94702691
:10311000CE0101960E94C80961E085EE9FE00E9401
:10312000562765E679E089E89DE00E94320889E843
:103130009DE00E943D0889E89DE00E943D0869ED00
:103140007AE089E89DE00E9463080DC0029720F5AF
:1031500060E971E080E090E00E94300ECE010F96B1
:103160000E94C8094ACF89E89DE00E943D0863E2B9
:1031700079E089E89DE00E946308EACF63EC76E09D
:1031800089E89DE00E946308CE010F960E94C8095D
:103190006596E4E00C94873664E678E0CE01089604
:1031A0000E94350ABE01685F7F4FCE0101960E94E2
:1031B000620ABE01615F7F4FCE0101960E941C0B27
:1031C00064ED77E00E942F0BBC0189E89DE00E942E
:1031D0005108CE0101960E94C809CE0108960E94AE
:1031E000C809B6CFAEE1B0E0E8EFF8E10C945D3687
:1031F0007C010E94F1108C016EE679E089E89DE087
:103200000E94630860E877E089E89DE00E94630817
:1032100089E89DE00E943D0840E050E060E170E0F8
:10322000C7010E940911180117FF03C08FE7280E7C
:10323000311C220C232C221C330800E010E046ED48
:10324000442E46E0542E3E018DE1680E711C60E56F
:1032500077E0CE0146960E94350A89E89DE00E94FB
:103260008103181619060CF04CC169E87DE0CE0107
:1032700001960E94BE30BE016F5F7F4FCE01469621
:103280000E944B0ACE0101960E94C8098A8D9B8D2F
:103290008130910599F460E070E0CE0146960E947D
:1032A000750B8D3409F438C160E070E0CE014696AC
:1032B0000E94750B8D3609F03DC12EC1039709F0B0
:1032C00086C1C7010E94F1106C01BE016A5E7F4F8A
:1032D000CE0101960E94620ABE016F5F7F4FC70157
:1032E0000E94CE10B82ECE0101960E94C809B110DE
:1032F00017C06BEB78E0CE0108960E94350ABE013C
:10330000685F7F4FCE0101960E94620ABE016A5E2D
:103310007F4FCE0101960E941C0B64ED77E028C020
:103320008E899F890E94A3365C0197FD0BC0C60160
:10333000D7FC079623E0959587952A95E1F7A8167F
:10334000B90624F161ED78E0CE0108960E94350AB5
:10335000BE01685F7F4FCE0101960E94620ABE01E6
:103360006A5E7F4FCE0101960E941C0B6FED78E0E4
:103370000E942F0BBC0189E89DE00E945108CE01FC
:1033800001960E94C809CE010896A5C060E577E0C5
:10339000CE010F960E94350A650183E0CC0CDD1C3E
:1033A0008A95E1F7460188E0880E911CC814D9047B
:1033B000CCF51E8E1D8EB60182EE9FE00E948A2AF9
:1033C0001F928F935F924F927F926F920E94453728
:1033D000BE01615F7F4FCE0108960E94620AB30171
:1033E000CE0108960E942F0BBC01CE0101960E94CF
:1033F000620ABE016F5F7F4FCE010F960E944B0A9B
:10340000CE0101960E94C809CE0108960E94C80903
:103410008FEFC81AD80A0F900F900F900F900F904F
:103420000F90C4CF67EB79E0CE0108960E94350A71
:10343000BE01685F7F4FCE0101960E94620AB5010E
:10344000CE0101960E94560B6BE777E00E942F0B8E
:10345000BE01615F7F4F0E941C0B60E679E00E9415
:103460002F0BBC0189E89DE00E945108CE01019616
:103470000E94C809CE0108960E94C80969ED7AE049
:1034800089E89DE00E94630889E89DE00E943D086C
:10349000BE01615F7F4FCE0101960E94620ABE01AC
:1034A0006F5F7F4FC7010E94CA12BC0185EE9FE08B
:1034B0000E947026CE0101960E94C80961E085EE47
:1034C0009FE00E94562765E679E089E89DE00E942A
:1034D0003208CE010F960E94C80989E89DE00E943B
:1034E0003D086EE679E089E89DE00E9463086AEC99
:1034F00079E089E89DE00E94630889E89DE00E94E8
:103500003D0860E971E080E090E00E94300ECE015D
:1035100046960E94C8099BCE63EC76E089E89DE060
:103520000E946308CE0146960E94C8096E96E2E1A9
:103530000C94793660E070E0CE0146960E94750BDF
:10354000823441F060E070E0CE0146960E94750B37
:10355000823631F401151105C1F00150110915C071
:1035600060E070E0CE0146960E94750B863441F013
:1035700060E070E0CE0146960E94750B863661F4DD
:103580000215130514F40F5F1F4FA80160E170E0EE
:10359000C7010E940911B5CF62EC77E0CE01019618
:1035A0000E94350ABE016A5E7F4FCE0101960E94DD
:1035B0001C0B64ED77E00E942F0BBC0189E89DE0B5
:1035C0000E945108CE0101960E94C80996CF62EC74
:1035D00077E0CE0108960E94350ABE01685F7F4FF2
:1035E000CE0101960E94620ABE016A5E7F4FCE0143
:1035F00001960E941C0B64ED77E00E942F0BBC012A
:1036000089E89DE00E945108CE0101960E94C809F8
:10361000CE0108960E94C80974CFACE1B0E0E3E1A6
:10362000FBE10C946A368C0169ED7AE089E89DE053
:103630000E94630889E89DE00E943D086CE07AE002
:1036400089E89DE00E94630860E577E0CE01469638
:103650000E94350A60E577E0CE010F960E94350A98
:1036600089E89DE00E948103181619068CF469E828
:103670007DE0CE0101960E94BE30BE016F5F7F4F9C
:10368000CE0146960E944B0ACE0101960E94C809BF
:103690008A8D9B8D8130910589F560E070E0CE01C7
:1036A00046960E94750B8D3409F4EAC060E070E024
:1036B000CE0146960E94750B8D3609F4E1C089E86B
:1036C0009DE00E943D0862EC77E0CE0101960E94E9
:1036D000350ABE016A5E7F4FCE0101960E941C0B27
:1036E00064ED77E00E942F0BBC0189E89DE00E9409
:1036F0005108CE0101960E94C809B7C0029708F48C
:10370000A5C02EE030E040E050E0BE016A5E7F4F91
:10371000CE0101960E94780BBE016F5F7F4FCE01F4
:103720000F960E944B0ACE0101960E94C809BE0165
:10373000615F7F4FCE0101960E94620ABE016F5FFA
:103740007F4FC8010E948810F82ECE0101960E947A
:10375000C809FF2009F455C089E89DE00E943D0892
:1037600063E47AE0CE0108960E94350ABE01685FE4
:103770007F4FCE0101960E94620ABE01615F7F4FBA
:10378000CE0101960E941C0B6DE57AE00E942F0B82
:10379000BC0189E89DE00E940708CE0101960E94C5
:1037A000C809CE0108960E94C80963E67AE089E854
:1037B0009DE00E943208BE01615F7F4FCE010196FD
:1037C0000E94620ABE016F5F7F4FC8010E94CA1249
:1037D00067E00E943C2940E150E0682F89E89DE0C5
:1037E0000E94BD08CE0101960E94C80989E89DE0AB
:1037F0000E943D0869ED7AE089E89DE00E94630837
:1038000034C064E678E0CE0108960E94350ABE0115
:10381000685F7F4FCE0101960E94620ABE016A5E18
:103820007F4FCE0101960E941C0B64ED77E00E9451
:103830002F0BBC0189E89DE00E945108CE01019642
:103840000E94C809CE0108960E94C80960E971E08B
:1038500080E090E00E94300ECE010F960E94C809D1
:10386000CE0146960E94C809EFCE89E89DE00E94ED
:103870003D086CE07AE089E89DE00E946308E6CFAD
:1038800063EC76E089E89DE00E946308CE010F9624
:103890000E94C809CE0146960E94C8096C96E5E0D0
:1038A0000C948636A5E1B0E0E8E5FCE10C946736BF
:1038B0008C0189E89DE00E943D08E090E00FF090C7
:1038C000E10F81E0E81AF1086AE67AE0CE01089695
:1038D0000E94350ABE01685F7F4FCE0101960E94AB
:1038E000620AB701CE0101960E94560B67E87AE0A2
:1038F0000E942F0BBC0189E89DE00E945108CE0177
:1039000001960E94C809CE0108960E94C80989E85C
:103910009DE00E94810318161906CCF769E87DE046
:10392000CE010F960E94BE308B899C89019749F089
:1039300060E070E0CE010F960E94750B8D3691F419
:1039400008C060E070E0CE010F960E94750B8D34C8
:1039500079F763EC76E089E89DE00E9463080FEF59
:103960001FEF74C0BE01615F7F4FCE0101960E94C0
:10397000620ABE016F5F7F4FC8010E94CE10F82E11
:10398000CE0101960E94C809F11017C069EA7AE0D9
:10399000CE0108960E94350ABE01685F7F4FCE01B6
:1039A00001960E94620ABE01615F7F4FCE010196BF
:1039B0000E941C0B64ED77E02DC0CE010F960E9493
:1039C000B50B97FD11C0CE010F960E94B50B20914B
:1039D000E00F3091E10F6901330FEE08FF086C151D
:1039E0007D058E059F0544F161ED78E0CE010896D6
:1039F0000E94350ABE01685F7F4FCE0101960E948A
:103A0000620ABE01615F7F4FCE0101960E941C0BCE
:103A10006FED78E00E942F0BBC0189E89DE00E94C9
:103A20005108CE0101960E94C809CE0108960E9455
:103A3000C809CE010F9669CFCE010F960E94B50B33
:103A40008B0183E0000F111F8A95E1F7CE010F96DD
:103A50000E94C809C8016596E8E00C9483368F92ED
:103A60009F92BF92CF92DF92EF92FF920F931F939C
:103A7000CF93DF93CDB7DEB769970FB6F894DEBF6B
:103A80000FBECDBF7C01B62E89E89DE00E943D08A7
:103A90006AEB7AE089E89DE00E94630819E0CE01B4
:103AA00001966C0160E577E0CE0141960E94350AEF
:103AB000F601212F11922A95E9F789E89DE00E94ED
:103AC00081031816190634F58E01065F1F4F69E849
:103AD0007DE0C8010E94BE30B801CE0141960E942F
:103AE0004B0AC8010E94C8098D899E89019749F037
:103AF00060E070E0CE0141960E94750B8D3659F55D
:103B00000EC060E070E0CE0141960E94750B8D34CE
:103B100079F705C0CE0141960E94C809C3CF63EC76
:103B200076E089E89DE00E946308CE0141960E94FC
:103B3000C80969960FB6F894DEBF0FBECDBFDF91FE
:103B4000CF911F910F91FF90EF90DF90CF90BF909A
:103B50009F908F900895BE016F5E7F4FC8010E94B5
:103B6000620AB801C7010E948810982EC8010E94FD
:103B7000C809911003C060EF7AE0D3CFBE016F5E39
:103B80007F4FC8010E94620AB801C7010E94CA1291
:103B9000BC01C6010E94F136C8010E94C809F601A5
:103BA00001900020E9F7CF0108978C159D05C9F415
:103BB00089E89DE00E943D0865E27BE089E89DE0A0
:103BC0000E94320867E0C6010E943C29888762E3B0
:103BD00078E089E89DE00E94320889E89DE00E9433
:103BE0003D08BB2099F0C7010E94A1118091E00F10
:103BF0009091E10F892B51F489E89DE00E943D08E6
:103C000068E37BE089E89DE00E9463088091E00F13
:103C10009091E10F1816190634F4BB2021F0C7016A
:103C20000E94521C03C0C7010E94F110998F888F17
:103C30008F3FEFEF9E0709F478CF2091E00F30918E
:103C4000E10F232B11F0B1100AC020E030E1281B56
:103C5000390B223031051CF461E77BE062CF28E0AC
:103C600030E0A601BC0182EE9FE00E948129888C91
:103C7000998C86EDC82E86E0D82E888D998D9C0172
:103C8000295F3F4F28153905F4F01B861A86B401C9
:103C900082EE9FE00E948A2A1F928F93DF92CF923A
:103CA0001F930F930E944537B80189E89DE00E9459
:103CB0003208FFEF8F1A9F0A0F900F900F900F900E
:103CC0000F900F90DACF2091E00F3091E10F232B6E
:103CD00011F0B1100AC00896998F888FCE014896CE
:103CE0000E94C20EC7010E948C1289E89DE00E94CA
:103CF0003D0861E87BE089E89DE00E94630860E997
:103D000071E080E090E00E94300E0FCFAEE1B0E0B5
:103D1000ECE8FEE10C9463367C016B0189E89DE0E0
:103D20000E943D0862E97BE089E89DE00E9463080B
:103D30005E0189E0A80EB11C88E0F50111928A9518
:103D4000E9F76CED75E080E090E00E94300E8E01A6
:103D50000F5F1F4F88E0882E89E89DE00E94810355
:103D6000181619069CF589E89DE00E94AD03982E6F
:103D70008F7D8D3409F4C7C062EC77E0CE014196A7
:103D80000E94350ABE016F5E7F4FC8010E94620A21
:103D9000692DC8010E94480B64ED77E00E942F0B4B
:103DA000BC0189E89DE00E945108C8010E94C80931
:103DB000CE0141960E94C80989E89DE00E943D0815
:103DC0006EEB7BE089E89DE00E946308F801882D96
:103DD00011928A95E9F7B50180E090E10E94BC2834
:103DE00081110BC080E090E10E947A2868EC70E0BD
:103DF00080E090E00E94300E7FC06BE178E0CE0161
:103E000048960E94350ABE01685E7F4FCE014196FA
:103E10000E94620AB601CE0141960E941C0B6CED15
:103E20007BE00E942F0BBC0189E89DE00E945108B5
:103E3000CE0141960E94C809CE0148960E94C80949
:103E4000B601CE0141960E94620ABE016F5E7F4FAD
:103E5000C7010E94CA12BC01C7010E94C00FCE0157
:103E600041960E94C80968EC70E080E090E00E94F2
:103E7000300EB80180E090E10E94BC28811105C09D
:103E800080E090E10E947A28EECFB601CE01419603
:103E90000E94620ABE016F5E7F4FC7010E94CA1274
:103EA000A801BC01C7010E94810F882319F061E3BA
:103EB00078E002C068E378E089E89DE00E9432087B
:103EC000CE0141960E94C80989E89DE00E943D0804
:103ED00089E89DE00E943D0869ED7AE089E89DE06F
:103EE0000E94630889E89DE00E943D0862EE7BE045
:103EF00089E89DE00E9463086CED75E080E090E049
:103F00000E94300E29CF6E96ECE00C947F36A6E22C
:103F1000B0E0EDE8FFE10C9460364C0169ED7AE029
:103F200089E89DE00E94630889E89DE00E943D08C1
:103F300065E07CE089E89DE00E9463088E010F5FE8
:103F40001F4F88E0582E7E0189E0E80EF11C96EDA7
:103F5000692E96E0792E6E01E5E2CE0ED11C60E569
:103F600077E0CE014E960E94350A89E89DE00E94D6
:103F70008103181619066CF469E87DE0C8010E94F7
:103F8000BE30B801CE014E960E944B0AC8010E9475
:103F9000C8098AA19BA1019799F560E070E0CE0164
:103FA0004E960E94750B8D3409F4E9C060E070E014
:103FB000CE014E960E94750B8D3609F4E0C062EC7E
:103FC00077E0C8010E94350ABE01625E7F4FC801DA
:103FD0000E941C0B64ED77E00E942F0BBC0189E866
:103FE0009DE00E945108C8010E94C80989E89DE02F
:103FF0000E943D0865E07CE089E89DE00E9463083E
:10400000F801852D11928A95E9F760E577E0CE01F8
:1040100047960E94350AB80180E090E10E94BC28D2
:1040200081110BC080E090E10E947A2868EC70E07A
:1040300080E090E00E94300E93C067E0C8010E94CB
:104040003C299885891751F089E89DE00E943D0838
:104050006EE27CE089E89DE00E94630889E89DE0CB
:104060000E943D0858011EA21DA2F50181915F0129
:104070001F928F937F926F92DF92CF920E9445376B
:10408000BE01695E7F4FCE0140960E94620AB60172
:10409000CE0140960E942F0BBC01C7010E94620A0C
:1040A000B701CE0147960E944B0AC7010E94C8097A
:1040B000CE0140960E94C8090F900F900F900F906C
:1040C0000F900F90AE14BF0471F660E47CE0CE0157
:1040D00040960E94350ABE01605F7F4FC7010E9473
:1040E000620ABE01695E7F4FC7010E941C0B63ED2F
:1040F00075E00E942F0BBC0189E89DE00E945108E9
:10410000C7010E94C809CE0140960E94C80980E0FC
:1041100090E10E94B127BE01695E7F4FC7010E94F6
:10412000620AB701C4010E94861EC7010E94C80925
:1041300089E89DE00E943D0889E89DE00E943D08D5
:1041400069ED7AE089E89DE00E94630889E89DE0D6
:104150000E943D0865E07CE089E89DE00E946308DC
:10416000CE0147960E94C80960E971E080E090E0C6
:104170000E94300ECE014E960E94C809F0CE63EC2C
:1041800076E089E89DE00E946308CE014E960E9489
:10419000C809A696EFE00C947C36CF92DF92FF928E
:1041A0000F931F93CF93DF93CDB7DEB72E970FB644
:1041B000F894DEBF0FBECDBF6C010E94F11097FDD9
:1041C00007968C0183E0159507958A95E1F765E5DB
:1041D0007CE0CE0108960E94350ABE01685F7F4FE1
:1041E000CE0101960E94620AB801CE0101960E949A
:1041F000560B64E67CE00E942F0BBC0189E89DE031
:104200000E945108CE0101960E94C809CE0108966D
:104210000E94C80989E89DE00E94810318161906CA
:10422000CCF789E89DE00E94AD03F82E982F9F7D82
:10423000993589F56AE77CE089E89DE00E9463088A
:1042400040E050E060E072E0C6010E94091165E8BC
:104250007CE0CE0108960E94350ABE01685F7F4F60
:10426000CE0101960E94620AB801CE0101960E9419
:10427000560B6CE87CE00E942F0BBC0189E89DE0A6
:104280000E945108CE0101960E94C809CE010896ED
:104290000E94C80918C09D549230A8F062EC77E0E3
:1042A000CE0108960E94350ABE01685F7F4FCE019D
:1042B00001960E94620A6F2DCE0101960E94480B62
:1042C00064ED77E098CF2E960FB6F894DEBF0FBE60
:1042D000CDBFDF91CF911F910F91FF90DF90CF90D5
:1042E0000895AEE0B0E0E7E7F1E20C9467367C01B8
:1042F00069ED7AE089E89DE00E94630889E89DE025
:104300000E9481031816190664F589E89DE00E9451
:10431000AD03182F8F7D8D3409F44CC062EC77E02B
:10432000CE0108960E94350ABE01685F7F4FCE011C
:1043300001960E94620A612FCE0101960E94480BED
:1043400064ED77E00E942F0BBC0189E89DE00E949C
:104350005108CE0101960E94C809CE0108960E941C
:10436000C80908EE13E020E030E044EC59E060E0DA
:1043700070E0C7010E94401083E0C82ED12C08EEE7
:1043800013E020E030E04AEF50E060E070E0C70169
:104390000E941E1081E0C81AD10889F708EE13E0C8
:1043A00020E030E048EE53E060E070E0C7010E949A
:1043B0001E10A4CF2E96E8E00C948336AFE0B0E058
:1043C000E4EEF1E20C945E366C01462E542E69ED5B
:1043D0007AE089E89DE00E9463088E01075F1F4F25
:1043E000CE0101967C0188E0382E96ED692E96E08C
:1043F000792E812C20E1922E89E89DE00E94810394
:10440000181619062CF589E89DE00E94AD03B82E18
:104410008F7D8D3409F4E4C062EC77E0C8010E941E
:10442000350AB801C7010E94620A6B2DC7010E94BC
:10443000480B64ED77E00E942F0BBC0189E89DE0FA
:104440000E945108C7010E94C809C8010E94C809FA
:10445000F701232D11922A95E9F7B70180E090E149
:104460000E94BC2881110BC080E090E10E947A2854
:1044700068EC70E080E090E00E94300EAAC067E037
:10448000C7010E943C299885891751F089E89DE071
:104490000E943D086EE27CE089E89DE00E9463088E
:1044A0004420A9F0552099F0C6010E94A1118091E5
:1044B000E00F9091E10F892B51F489E89DE00E9473
:1044C0003D0868E37BE089E89DE00E94630889E895
:1044D0009DE00E943D0857011A861986F5018191D9
:1044E0005F011F928F937F926F921F930F930E9491
:1044F0004537B80189E89DE00E9432080F900F907F
:104500000F900F900F900F90A016B10629F744203E
:1045100009F447C08091E00F9091E10F1816190639
:1045200034F4552021F0C6010E94521C03C0C6017C
:104530000E94F1109A8789878F3FFFEF9F0709F448
:104540004FC02091E00F3091E10F232B11F051105B
:104550000DC09401281B390B223031053CF461E772
:104560007BE089E89DE00E94630833C028E030E0EA
:10457000A701BC0182EE9FE00E9481298091E00F9B
:104580009091E10F892B11F051100BC089859A850C
:1045900008969A878987C8010E94C20EC6010E94A8
:1045A0008C1280E090E10E94B127552009F450CF91
:1045B00089E89DE00E943D0861E87BE089E89DE094
:1045C0000E94630860E971E080E090E00E94300E94
:1045D00007C060E971E080E090E00E94300E0CCFEF
:1045E0002F96E1E10C947A36AEE0B0E0EAEFF2E229
:1045F0000C946B3668EA7CE089E89DE00E946308D1
:1046000089E89DE00E94810318161906CCF789E815
:104610009DE00E94AD03182F8F7D893581F56EECEA
:104620007CE089E89DE00E94630800E010E04FEF25
:10463000B80182EE9FE00E94152AC8018F77992762
:10464000892B31F46EE074E089E89DE00E94320825
:104650000F5F1F4F011580E1180749F789E89DE0BA
:104660000E943D081A821982CE0101960E94C20E54
:104670006DED7CE089E89DE00E94630827C08D54C1
:10468000823020F162EC77E0CE0108960E94350A74
:10469000BE01685F7F4FCE0101960E94620A612FC2
:1046A000CE0101960E94480B64ED77E00E942F0B2B
:1046B000BC0189E89DE00E945108CE0101960E944C
:1046C000C809CE0108960E94C8099ACF2E96E4E048
:1046D0000C9487361F93CF93DF93162FD42FC22FBE
:1046E00066E370E08CE190E10E94612E612F8CE125
:1046F00090E10E94F72D6D2F8CE190E10E94F72D43
:104700006C2F8CE190E10E94F72D8CE190E10E94EA
:10471000772EDF91CF911F91089524E540E06EEF51
:104720000E946A23089520E040E466E00E946A2324
:104730000895FF920F931F93CF93DF93F62E8A0174
:10474000E90166E370E08CE190E10E94612E6F2D3B
:104750008CE190E10E94F72D8CE190E10E94772E90
:1047600042E050E066E370E08CE190E10E94532E5D
:104770008CE190E10E94AC2DF80180838CE190E106
:104780000E94AC2D8883CDB7DEB7E5E00C94863669
:10479000A2E0B0E0EEECF3E20C9465361A821982E6
:1047A0009E012F5F3F4FAE014E5F5F4F62E00E9460
:1047B00099236A8180E1689F900111248981682F83
:1047C00070E084E0759567958A95E1F7622B732B0D
:1047D000072E000C880B990B1F921F9223EC2F932E
:1047E00020E52F93A12CB12C6501EE24EA941FE063
:1047F000F12E00E010E020E030E0A9010E94D23468
:104800000E947D2C20E030E44CE156E40E94D32B42
:104810000F900F900F900F902296EAE00C94813643
:10482000CF92DF92EF92FF92CF93DF931F921F926E
:10483000CDB7DEB71A8219829E012F5F3F4FAE01BE
:104840004E5F5F4F64E00E949923698170E080E0D1
:1048500090E00E947D2C20E030E040E85BE30E9485
:10486000322D6B017C016A8170E080E090E00E9453
:104870007D2C9B01AC01C701B6010E94622B0F90F9
:104880000F90DF91CF91FF90EF90DF90CF90089540
:10489000CF93DF93EC01862F60931B1060E00E94A2
:1048A000653580911B1090E0FC01E75BFC4FE491C3
:1048B000E883FC01E157FC4FE491F0E0EE0FFF1FAD
:1048C000EB52FC4F859194919A838983DF91CF912C
:1048D0000895A0E0B0E0EFE6F4E20C946636EC0157
:1048E0007B01B88009811A811A8EF894F8018181C0
:1048F0009B2D9095892381837894672B49F10E94A1
:104900000B0E48EE53E0E49E9001E59E300DF49EC0
:10491000300D11246B017C01C20ED31EE11CF11C71
:10492000F80180818B2159F40E940B0E6B017C01F0
:10493000FCE1CF0EF2E0DF1EE11CF11C0EC00E9474
:104940000B0EC616D706E806F90650F783E011C02D
:10495000F80180818B21E1F7E7CFF80180818B217D
:1049600059F40E940B0EC616D706E806F906A8F7FA
:1049700084E08A8F80E013C00E940B0EC61AD70A0B
:10498000E80AF90AF7E4CF16D104E104F10410F0C3
:1049900085E0EFCF8EE190E00E94560E81E0CDB72A
:1049A000DEB7E9E00C948236FF920F931F93CF930A
:1049B000DF93FC01F62E1081C181D281128EF89412
:1049C0008A81012F009580238A838981812B8983A5
:1049D00078948DE790E00E94560EF8948981082320
:1049E000098378948CE291E08F1991090E94560E08
:1049F00088818123E9F309E188810150812339F419
:104A00000111FACF82E090E00E94560EF5CFCDB7AB
:104A1000DEB7E5E00C94863669E10E94D42408955F
:104A2000DC013C911196ED91FC91129780EC90E0A5
:104A30002081232321F40197D9F78AE0089580810A
:104A40008323E9F781E00895FF920F931F93CF939B
:104A5000DF93EC01F88009811A81F894F8018181D3
:104A60009F2D909589238183CE010E94102581304E
:104A700049F08A3011F487E001C088E08A8F789489
:104A800080E00BC08EE190E00E94560EF80190810C
:104A90009F2181E009F480E07894CDB7DEB7E5E0AE
:104AA0000C948636EF92FF920F931F93CF93DF9370
:104AB0007C01FC01128E08E010E0D1E0C0E0F701BB
:104AC000828D811109C0C7010E9424258111CD2B3F
:104AD000DD0F0150110999F78C2FCDB7DEB7E6E055
:104AE0000C948536A0E0B0E0E8E7F5E20C94663679
:104AF0006C018B01C0E0D0E0E42EF12CBC2ECE1571
:104B0000DF0564F4C6010E945225F80181938F01EC
:104B1000F601828D811102C02196F0CF8B2DCDB789
:104B2000DEB7E9E00C948236DF92EF92FF920F93AA
:104B30001F93CF93DF938C01D62EFC01E080C181BF
:104B4000D281F8948981FE2CF0948F218983C80149
:104B50000E941025813041F08A3011F487E001C0B5
:104B600088E0F801828F16C0D0FE05C08EE190E08B
:104B70000E94560E0FC0F8948A81F822FA82898129
:104B80008E2989838EE190E00E94560E8A818E29BB
:104B90008A8378947894CDB7DEB7E7E00C948436B6
:104BA000EF92FF920F931F93CF93DF937C01062F19
:104BB000FC01128EC8E0D0E011E0F701828D811176
:104BC0000BC061E0802F812309F460E0C7010E94DF
:104BD0009425110F219789F7CDB7DEB7E6E00C9445
:104BE0008536A0E0B0E0E7EFF5E20C9466366C01A4
:104BF0008B01C0E0D0E0E42EF12CBC2ECE15DF05F9
:104C000064F4F80161918F01C6010E94D025F6017C
:104C1000828D811102C02196F0CF8B2DCDB7DEB7EA
:104C2000E9E00C948236A0E0B0E0E9E1F6E20C9411
:104C30006336EC018C014C0188E0880E911C88E001
:104C4000C82ED12CBB24B394F801E4800E2C000CA8
:104C5000FF088B2D90E0E822F922AA24A394E11406
:104C6000F10409F4A12C6A2DCE010E94942561E083
:104C7000E114F10409F060E0CE010E949425CE0118
:104C80000E9424259A8D91110EC0A8120CC0BB0C55
:104C9000F1E0CF1AD108C1F60F5F1F4F80169106C1
:104CA00071F681E001C080E0CDB7DEB7ECE00C9496
:104CB0007F36FB0180E06CE8415088F0519198E02C
:104CC000782F7527282F30E035952795822F70FF94
:104CD00002C0862F82275695915091F7EDCF089507
:104CE000CF93DF93EC01DB01FC0134960B96BF01FF
:104CF0002D912193E817F907D9F747E0CE010E94DB
:104D000059268B87DF91CF910895CF93DF93EC01E4
:104D1000FB0180818E8781818F878281888BBE0194
:104D2000645F7F4F48E0CE010E9459268C8BDF9153
:104D3000CF9108950F931F93CF93DF93EC010E94BF
:104D400052258E3441F148F48434D1F0883491F501
:104D5000E0911710F09118101CC0883BB1F08E3B09
:104D600039F0843B39F56B81CE010E9494251FC038
:104D7000BE01645F7F4F49E0CE010E94F12517C05C
:104D8000E0911910F0911A1004C0E0911510F09103
:104D9000161019950CC08E010B5E1F4F43E0B80131
:104DA000CE010E947225B801CE010E9485268A8D0F
:104DB000811101C001C080E0DF91CF911F910F915F
:104DC0000895A8E0B0E0E7EEF6E20C9469368C01B5
:104DD0007C0184E0E80EF11CC8010E9452258C3C45
:104DE00009F451C028F4833369F1853589F154C041
:104DF0008C3E19F0803F09F14FC0F8018585082EDF
:104E0000000C990B982F88272485022E000C330B59
:104E1000822B932B34E0959587953A95E1F727857A
:104E2000022E000C330B2817390738F42685022E82
:104E3000000C330B8217930718F0C8010E94132649
:104E400080E030C048E0B701C8010E94F12524C0CD
:104E500048E0BE016F5F7F4FC8010E947225F801D4
:104E6000828D8111EDCFD8011496FE013196C801D3
:104E70000C963D9121913213E3CFA817B907C9F7DA
:104E8000C8010E949A26C8010E949A2681E0F80172
:104E9000928D992339F0D4CFF801828D882309F4BB
:104EA0009BCFCECF2896E6E00C948536AEE0B0E0FE
:104EB000ECE5F7E20C9469368C01E62EFC01128ECB
:104EC00089E89DE00E948103181619066CF589E8AF
:104ED0009DE00E94AD03F82E8F7D8D3411F481E0AA
:104EE0003CC062EC77E0CE0108960E94350ABE0114
:104EF000685F7F4FCE0101960E94620A6F2DCE013E
:104F000001960E94480B64ED77E00E942F0BBC01D4
:104F100089E89DE00E945108CE0101960E94C809CF
:104F2000CE0108960E94C80960E070E0C8010E94A6
:104F30006924882329F2C8010E940C25882309F4DA
:104F4000BFCFC8010E94E1268111C9CFF801928D1F
:104F5000992309F4B5CFE110B3CF2E96E6E00C9477
:104F600085360F931F93CF938C0160E0FC018285FF
:104F70000E946535CEE7C15069F182E090E00E9461
:104F8000560EF80182850E94D035892BA1F360E08E
:104F9000F80182850E94A13561E0F80182850E94B6
:104FA000653584EF91E00E94560E60E0F80182853D
:104FB0000E94653581E490E00E94560EF8018285DA
:104FC0000E94D035C1E0892B09F0C0E08AEE91E063
:104FD0000E94560E8C2FCF911F910F9108950F9321
:104FE0001F93CF93DF93EC01E989FA8990818C8537
:104FF000892B8083ED85FE8590818C858095892322
:105000008083062F017010E0F801E151F34F808199
:1050100090E00E94560EED85FE8590818C85892B4F
:105020008083F801E351F34F808190E00E94560E97
:10503000DF91CF911F910F910895CF93DF93EC01F2
:10504000E989FA8990818C85892B8083ED85FE859D
:1050500090818C8580958923808381E090E00E94F7
:10506000560EE989FA8990818C8580958923808301
:1050700085E090E00E94560EEF85F88990818C853E
:105080008923C1E009F4C0E082E390E00E94560E5B
:105090008C2FDF91CF910895DF92EF92FF920F93C3
:1050A0001F93CF93DF93EC01D62EE42E08E010E09F
:1050B000FF24F39461E08D2D8F2109F460E0CE018F
:1050C0000E94EF27FF0C01501109A1F7E11008C061
:1050D00060E08A850E94653560E08A850E94A1357E
:1050E000CDB7DEB7E7E00C94843640E06CEC0E946C
:1050F0004C280895FC018FEF808711861782168255
:105100001582148213821282118210820895DC01AA
:105110001A966C931A9770E0FB01E157FC4F2491AB
:105120001B962C931B97FB01E75BFC4F64911C962D
:105130006C931C9730E0220F331FF901E151FC4FB3
:10514000859194911E969C938E931D97F901EB5235
:10515000FC4F8591949150969C938E931F97F901E3
:10516000E75FFB4F8591949152969C938E93519754
:10517000CD010E947A280895A0E0B0E0E2ECF8E2C8
:105180000C946436FC012185222311F080E06FC06D
:105190006B01EC010E94B1278823C1F340E060EF6E
:1051A000CE010E944C2800E010E0BB24B394992467
:1051B0009A94EE24E394F12CCE010E941D28A82E8F
:1051C000CE010E941D28402F469546954695902F6A
:1051D0009770970101C0220F9A95EAF7AA2019F05B
:1051E000882311F1D3CFE42FF0E0811123C088850B
:1051F000082E000C990B0817190711F498860EC099
:10520000081719073CF4DE01AE0FBF1F8C918223F3
:1052100029F402C0088780E0B12C01C081E0902E03
:10522000882341F0AA24A394FE01E40FF11D80819C
:10523000282B05C0EC0FFD1F20958081282320839B
:105240006A2DCE010E94EF270F5F1F4F003411051A
:1052500009F0B2CFBB2011F081E08987F601CE01C1
:105260000896299121938C179D07D9F781E0CDB736
:10527000DEB7EBE00C948036582FFC0180E07CE830
:105280009E2F951B961788F4419198E0A82FA4278C
:10529000282F30E035952795822FA0FF02C0872F59
:1052A00082274695915091F7EBCF0895FC016283D8
:1052B0000895CF93DF93EC01CB01798368830E943B
:1052C000372E6A81888199810E94572E8881998121
:1052D000DC01ED91FC910190F081E02D60E01995E9
:1052E00088819981DC01ED91FC910190F081E02DA4
:1052F00060E01995888199810E94772EDF91CF9186
:105300000895A0E0B0E0E7E8F9E20C9463368C0180
:105310006B015A017901CB01820F931F81309041BB
:1053200008F07BC090E2892EE114F10409F477C003
:105330009C2C8C2D8F71C82DC81BD0E0EC16FD065F
:1053400008F4E701D80112966C9112978D919C9107
:105350000E94572EF80180819181DC01ED91FC9132
:105360000190F081E02D6D2D1995F80180819181DA
:10537000DC01ED91FC910190F081E02D692D1995F2
:10538000F80180819181CF3108F0CEE1D0E0DC01DD
:10539000ED91FC910280F381E02DAE01B5011995EC
:1053A000F801808191810E94772E811139C084E6B5
:1053B000982E84EF91E00E94560ED80112966C91BF
:1053C00012978D919C910E94572EF80180819181B6
:1053D000DC01ED91FC910190F081E02D60E01995E8
:1053E000F80180819181DC01ED91FC910190F081C7
:1053F000E02D60E01995F801808191810E94772E5F
:10540000882321F09A949110D4CF0AC0CC0EDD1ECF
:10541000AC0EBD1EEC1AFD0A87CF89E001C080E00A
:10542000CDB7DEB7ECE00C947F36A1E0B0E0EBE165
:10543000FAE20C946D36498321E030E0AE014F5F13
:105440005F4F0E9481292196E2E00C948936A0E00A
:10545000B0E0EDE2FAE20C946136EC015B016A0126
:105460008901CB01820F931F8130904108F04AC01F
:105470000115110509F448C078010132110518F031
:1054800080E2E82EF12C7E2C6A81888199810E942D
:10549000572E88819981DC01ED91FC910190F0817A
:1054A000E02D6B2D199588819981DC01ED91FC919E
:1054B0000190F081E02D6A2D1995888199810E94D3
:1054C000772E811122C04E2D6A81888199810E9498
:1054D0004F2E6C2C460188819981DC01ED91FC9165
:1054E0000680F781E02D1995F40181934F018E2FED
:1054F0008619871580F3AE0CBF1CCE0CDF1C0E196D
:105500001F09B6CF89E001C080E0CDB7DEB7EEE07D
:105510000C947D36A1E0B0E0E0E9FAE20C946D363F
:1055200021E030E0AE014F5F5F4F0E94272A8111DA
:1055300001C089812196E2E00C94893661E082E025
:105540000E94653561E085E00E946535089540E080
:1055500056E960E070E089E89DE00E94210661EF75
:105560007CE089E89DE00E94630864E670E080E0EA
:1055700090E00E94300E66E07DE089E89DE00E94A8
:1055800063086CE271E080E090E00E94300E89E8F0
:105590009DE00E94A506089560E085E00E94A13587
:1055A000089561E085E00E94A135089561E082E000
:1055B0000E94A135089560E082E00E94A13508951F
:1055C000CF93DF93EC010E94DB2A64E670E080E079
:1055D00090E00E94300ECE010E94D12A6AE070E075
:1055E00080E090E00E94300ECE010E94D62A68EB47
:1055F0007BE080E090E00E94300EDF91CF91089533
:10560000CF93DF93EC010E94DB2A64E670E080E038
:1056100090E00E94300ECE010E94CC2A6AE070E039
:1056200080E090E00E94300ECE010E94D62A6CE20B
:1056300071E080E090E00E94300EDF91CF910895FC
:10564000A2E0B0E0E6E2FBE20C946B368C011A8239
:10565000198281E090E00E943E3A898382E090E0E6
:105660000E943E3A8A8389819A818A3A910511F192
:10567000C8010E94E02AC8010E94A72A81E090E0A8
:105680000E943E3A8A3A29F06AEA81E090E00E945C
:10569000463A82E090E00E943E3A882329F060E09A
:1056A00082E090E00E94463A6AE070E080E090E09C
:1056B0000E94300EC8010E94002B2296E4E00C9458
:1056C00087365058BB27AA270E94792B0C94F32CBD
:1056D0000E94E52C38F00E94EC2C20F039F49F3F1A
:1056E00019F426F40C94E22C0EF4E095E7FB0C94EC
:1056F000DC2CE92F0E94042D58F3BA1762077307B8
:105700008407950720F079F4A6F50C94262D0EF465
:10571000E0950B2EBA2FA02D0B01B90190010C01C1
:10572000CA01A0011124FF27591B99F0593F50F4D9
:10573000503E68F11A16F040A22F232F342F442731
:10574000585FF3CF469537952795A795F040539529
:10575000C9F77EF41F16BA0B620B730B840BBAF0F9
:105760009150A1F0FF0FBB1F661F771F881FC2F764
:105770000EC0BA0F621F731F841F48F48795779578
:105780006795B795F7959E3F08F0B0CF9395880F32
:1057900008F09927EE0F9795879508950E94B82CE9
:1057A00008F481E008950E94E72B0C94F32C0E94EA
:1057B000EC2C58F00E94E52C40F029F45F3F29F0D2
:1057C0000C94DC2C51110C94272D0C94E22C0E948B
:1057D000042D68F39923B1F3552391F3951B550BD1
:1057E000BB27AA2762177307840738F09F5F5F4FB4
:1057F000220F331F441FAA1FA9F335D00E2E3AF0F3
:10580000E0E832D091505040E695001CCAF72BD00A
:10581000FE2F29D0660F771F881FBB1F261737075B
:105820004807AB07B0E809F0BB0B802DBF01FF278D
:1058300093585F4F3AF09E3F510578F00C94DC2C62
:105840000C94272D5F3FE4F3983ED4F3869577952B
:105850006795B795F7959F5FC9F7880F911D969546
:10586000879597F90895E1E0660F771F881FBB1FA2
:10587000621773078407BA0720F0621B730B840B4F
:10588000BA0BEE1F88F7E09508950E944C2C68949F
:10589000B1110C94272D08950E940C2D88F09F576C
:1058A00098F0B92F9927B751B0F0E1F0660F771F44
:1058B000881F991F1AF0BA95C9F714C0B13091F03A
:1058C0000E94262DB1E008950C94262D672F782F85
:1058D0008827B85F39F0B93FCCF3869577956795FF
:1058E000B395D9F73EF490958095709561957F4F6B
:1058F0008F4F9F4F0895E89409C097FB3EF4909511
:105900008095709561957F4F8F4F9F4F9923A9F098
:10591000F92F96E9BB279395F69587957795679527
:10592000B795F111F8CFFAF4BB0F11F460FF1BC06B
:105930006F5F7F4F8F4F9F4F16C0882311F096E9FE
:1059400011C0772321F09EE8872F762F05C06623AC
:1059500071F096E8862F70E060E02AF09A95660F65
:10596000771F881FDAF7880F9695879597F908951E
:10597000990F0008550FAA0BE0E8FEEF1616170660
:10598000E807F907C0F012161306E407F50798F0C8
:10599000621B730B840B950B39F40A2661F0232BE1
:1059A000242B252B21F408950A2609F4A140A6955D
:1059B0008FEF811D811D089597F99F6780E870E042
:1059C00060E008959FEF80EC089500240A94161675
:1059D000170618060906089500240A9412161306DD
:1059E000140605060895092E0394000C11F488236B
:1059F00052F0BB0F40F4BF2B11F460FF04C06F5F87
:105A00007F4F8F4F9F4F089557FD9058440F551F5C
:105A100059F05F3F71F04795880F97FB991F61F030
:105A20009F3F79F087950895121613061406551FA7
:105A3000F2CF4695F1DF08C0161617061806991F13
:105A4000F1CF86957105610508940895E894BB2708
:105A500066277727CB0197F908950E94B82C08F4A0
:105A60008FEF08950E94452D0C94F32C0E94E52C95
:105A700038F00E94EC2C20F0952311F00C94DC2CD3
:105A80000C94E22C11240C94272D0E94042D70F309
:105A9000959FC1F3950F50E0551F629FF001729FD3
:105AA000BB27F00DB11D639FAA27F00DB11DAA1FE2
:105AB000649F6627B00DA11D661F829F2227B00D2F
:105AC000A11D621F739FB00DA11D621F839FA00DBA
:105AD000611D221F749F3327A00D611D231F849F0A
