:100000000C942D020C945E020C945E020C945E0221
:100010000C945E020C945E020C945E020C945E02E0
:100020000C945E020C945E020C945E020C945E02D0
:100030000C945E020C94F2370C945E020C945E02F7
:100040000C945E020C945E020C945E020C945E02B0
:100050000C945E020C945E020C945E020C94240ECE
:100060000C945E020C94A4040C9494050C945E020F
:100070000C945E020C945E020C945E020C945E0280
:100080000C945E020C945E020C945E020C945E0270
:100090000C94D8040C94D3050C945E020C94DD32BD
:1000A0000C945E020C945E020C945E020C945E0250
:1000B0000C945E020C945E020C945E020C945E0240
:1000C0000C945E020C945E020C945E020C940C057F
:1000D0000C9412060C945E020C9440050C9451068C
:1000E0000C945E02A102B002BD02CE02DA02E90265
:1000F000F802070313032303B003B003B003B003F4
:10010000B0039C02B0033203410350035F036E034C
:100110007D038C039C02B003B003B003B0039C02C8
:10012000B003B003B003B003B003B003A103B00346
:10013000B003B003B003B003B003B003B003B00327
:10014000B003B003B0033203410350035F036E03F7
:100150007D038C039C02B003B003B003B0039C0288
:10016000B003B003B003B003B003B003A103AA38D7
:10017000AD38A038A438E438B138B538BB38BF380A
:10018000C338C938CD38D138E438D738DB38DF3810
:100190000C942C2C0C94A9210C948F2C0C942431AD
:1001A0000C9456310C945B290C9432030C947B15FF
:1001B0000C94D7380C94CE020C94BF380C94710B6D
:1001C0000C946C070C9423030C9440310C94BD02E6
:1001D0000C947E2E0C9473050C94DF380C94B1387B
:1001E0000C949C020C9479090C94E6280C947302EC
:1001F0000C94F6270C947D030C9418280C94782DFD
:100200000C94EE100C944F310C94DA020C944F1EA7
:100210000C94DA230C946E030C943C040C94751427
:100220000C94120B0C94AA380C9477270C94A438D5
:100230000C9411110C94ED0B0C947D310C943A0933
:100240000C94CD250C9493230C94640D0C94C93814
:100250000C94A1020C945E0B0C94E4380C941A2CB0
:100260000C9400040C945D150C94CD380C94601221
:100270000C942C310C945E340C943E080C947E0249
:100280000C94E9020C94FB310C94AA170C94F8021C
:100290000C9413030C94B5380C94C3380C94773138
:1002A0000C94E3190C9450310C9479160C94B014FE
:1002B0000C94A8200C94B0020C948C030C94F003C2
:1002C0000C94D1380C94B0030C949B110C94C12A5B
:1002D0000C94862B0C9444080C94B0110C94F90ADD
:1002E0000C94A1030C94AD380C94EF1A0C945F039A
:1002F0000C946E260C94CA100C949E120C94070356
:100300000C94BB380C94A0380C9447040C940A1D30
:100310000C9450030C94DB380C94F6240C94410399
:100320000C941C040C947C080C940C130C94EA0898
:10033000020000090A02080B0C0D07060304010065
:1003400000000000000000000000000000000000AD
:100350000000000000000000000000000011100F6D
:10036000000000000000000000000000000000008D
:1003700000000000000000010210202008081020EA
:100380004010204080020102010804020101020421
:1003900008102040808040201008040201800402E0
:1003A0000180402010080402010804020101020437
:1003B0000810204080010204081020408005050537
:1003C00005070508080808020202020A0A080804CC
:1003D00004040401010101010101010303030303FA
:1003E000030303040707070C0C0C0C0C0C0C0C0289
:1003F00002020206060606060606060B0B0B0B0B90
:100400000B0B0B000020002300260029002C002FDE
:100410000032000001000003010601090100002272
:1004200000250028002B002E0031003400020100BE
:1004300000050108010B0100002100240027002A0B
:10044000002D003000330001010000040107010A03
:10045000010073026C075D15FB3111241FBECFEF45
:10046000D1E2DEBFCDBF00E00CBF1FE0A0E0B2E0F4
:10047000EAEBFBE700E00BBF02C007900D92AE3540
:10048000B107D9F723E1AEE5BFE001C01D92AE345C
:10049000B207E1F712E0CDE2D2E000E006C021971A
:1004A0000109802FFE010E94CA39C932D10780E0BC
:1004B0000807A9F70E94300C0C94DB3D0C94000057
:1004C00080E692E10E94B7318EE59FE00E94EC1237
:1004D00068EE73E080E090E00E949F0E8EE59FE062
:1004E0000E94710F08958EE59FE00E94700F08959D
:1004F000A5E1B0E0EEE7F2E00C94EC3983EA9FE08E
:100500000E94F003181619060CF066C183EA9FE0FA
:100510000E941C04182F082E000C990BAA0BBB0B71
:10052000FC01F097E534F10508F01AC18827EE5870
:10053000FF4F8F4F0C94CA398EE59FE00E94710FD8
:1005400041C183EA9FE00E94AC0867E072E083EA61
:100550009FE00E94D2088EE59FE00E94061332C100
:1005600083EA9FE00E94AC0866E172E083EA9FE0C4
:100570000E94D20840E060E00CC083EA9FE00E9445
:10058000AC0864E272E083EA9FE00E94D20840E097
:1005900061E08EE59FE00E94D42314C183EA9FE0CE
:1005A0000E94AC0864E472E083EA9FE00E94D208F3
:1005B00041E0EECF83EA9FE00E94AC0867E672E07C
:1005C00083EA9FE00E94D2088EE59FE00E94E92224
:1005D000F9C083EA9FE00E94AC086EE772E083EA0C
:1005E0009FE00E94D2088EE59FE00E94DD19EAC0DC
:1005F00083EA9FE00E94AC086DE972E083EA9FE025
:100600000E94D2088EE59FE00E94E91ADBC083EACF
:100610009FE00E94AC086CEB72E083EA9FE00E94CE
:10062000D20860E00BC083EA9FE00E94AC086DED49
:1006300072E083EA9FE00E94D20861E08EE59FE0CD
:100640000E94261FBFC083EA9FE00E94AC0861E0C1
:1006500073E083EA9FE00E94D2088EE59FE00E944B
:100660007515B0C083EA9FE00E94AC0866E173E0B4
:1006700083EA9FE00E94D2088EE59FE00E948D23CE
:10068000A1C083EA9FE00E94AC0864E273E083EAC1
:100690009FE00E94D2088EE59FE00E94F02492C065
:1006A00083EA9FE00E94AC0862E373E083EA9FE084
:1006B0000E94D2088EE59FE00E94041D83C083EA59
:1006C0009FE00E94AC0869E473E083EA9FE00E9427
:1006D000D2088EE59FE00E94731674C083EA9FE003
:1006E0000E94AC0866E673E083EA9FE00E94D208AD
:1006F0008EE59FE00E94A41765C083EA9FE00E94F8
:10070000AC0863E873E083EA9FE00E94D2088EE5BC
:100710009FE00E94A32156C083EA9FE00E94AC089C
:100720006AE576E083EA9FE00E94D20862E973E01E
:1007300083EA9FE00E94D2088EE59FE00E941D1090
:1007400041C083EA9FE00E94AC0861EB73E083EA5A
:100750009FE00E94D2088EE59FE00E946F1432C095
:1007600083EA9FE00E94AC08612FCE0108960E94A8
:10077000F30A64EC73E0CE010F960E94A40ABE0156
:10078000615F7F4FCE0101960E94D10ABE01685F72
:100790007F4FCE0101960E948B0B67ED73E00E94A4
:1007A0009E0BBC0183EA9FE00E94C008CE01019627
:1007B0000E94370ACE010F960E94370ACE01089692
:1007C0000E94370A68EE73E080E090E00E949F0E7E
:1007D0008EE59FE00E94710F6596E3E00C94083A65
:1007E000FC0124853585F901E05CFF4F8081918112
:1007F000329620813181821B930B8F739927089544
:10080000DC011C96ED91FC911D97DF01A05CBF4FB0
:100810002D913C91119712968D919C9111972817CB
:10082000390739F08D919C91E80FF91F808190E094
:1008300008958FEF9FEF0895FC01A485B585FD0114
:10084000E05CFF4F208131813296808191812817B1
:10085000390779F080819181A80FB91F8C9120818F
:1008600031812F5F3F4F2F7333273183208390E0F7
:1008700008958FEF9FEF0895FC0181A1882329F04F
:10088000A489B5898C9186FFFBCF11A208950F939F
:100890001F93CF93DF93FC01A685B7858D01005C84
:1008A0001F4FE8018881998101968F739927AD01C7
:1008B0004E5B5F4FEA012881398128173907D1F350
:1008C000E80128813981A20FB31F6C93A685B785F3
:1008D000A05CBF4F11969C938E93A689B7892C91EB
:1008E00081E090E0078C02C0880F991F0A94E2F71C
:1008F000822B8C9381E081A30488F589E02D80818F
:100900008064808381E090E0DF91CF911F910F910F
:100910000895FB01E05CFF4F20813181DB01AE5B7C
:10092000BF4F4D915C912F5F3F4F2F73332742177D
:10093000530741F040815181DB01A40FB51F8C9317
:1009400031832083089508951F920F920FB60F925E
:1009500011240BB60F922F933F934F935F936F9396
:100960007F938F939F93AF93BF93EF93FF93809168
:10097000C00082FD07C08091C60063EC71E10E9457
:10098000890402C08091C600FF91EF91BF91AF91A1
:100990009F918F917F916F915F914F913F912F9197
:1009A0000F900BBE0F900FBE0F901F9018950895DB
:1009B0001F920F920FB60F9211240BB60F922F9326
:1009C0003F934F935F936F937F938F939F93AF93D7
:1009D000BF93EF93FF938091C80082FD07C0809181
:1009E000CE006BE371E10E94890402C08091CE00C9
:1009F000FF91EF91BF91AF919F918F917F916F91F7
:100A00005F914F913F912F910F900BBE0F900FBEB2
:100A10000F901F90189508951F920F920FB60F9286
:100A200011240BB60F922F933F934F935F936F93C5
:100A30007F938F939F93AF93BF93EF93FF93809197
:100A4000D00082FD07C08091D60063EB70E10E9468
:100A5000890402C08091D600FF91EF91BF91AF91C0
:100A60009F918F917F916F915F914F913F912F91C6
:100A70000F900BBE0F900FBE0F901F90189508950A
:100A80001F920F920FB60F9211240BB60F922F9355
:100A90003F934F935F936F937F938F939F93AF9306
:100AA000BF93EF93FF938091300182FD07C0809147
:100AB00036016BE270E10E94890402C08091360128
:100AC000FF91EF91BF91AF919F918F917F916F9126
:100AD0005F914F913F912F910F900BBE0F900FBEE2
:100AE0000F901F90189585EC9FE00E94F003892BD2
:100AF00011F00E94A30483EA9FE00E94F003892B77
:100B000011F00E94D70481E89FE00E94F003892B36
:100B100011F00E940B058FE59FE00E94F003892BE6
:100B200011F00E943F0508951F920F920FB60F9289
:100B300011240BB60F922F933F938F939F93EF93B4
:100B4000FF932091BF113091C0118091C1119091FC
:100B5000C2112817390731F48091C1008F7D80932D
:100B6000C10014C0E091C111F091C211E158FE4ED4
:100B700020818091C1119091C21101968F739927A4
:100B80009093C2118093C1112093C600FF91EF9101
:100B90009F918F913F912F910F900BBE0F900FBEA1
:100BA0000F901F9018951F920F920FB60F9211245D
:100BB0000BB60F922F933F938F939F93EF93FF93D7
:100BC00020913711309138118091391190913A115B
:100BD0002817390731F48091C9008F7D8093C900AF
:100BE00014C0E0913911F0913A11E950FF4E208183
:100BF0008091391190913A1101968F7399279093B2
:100C00003A11809339112093CE00FF91EF919F917B
:100C10008F913F912F910F900BBE0F900FBE0F90B1
:100C20001F9018951F920F920FB60F9211240BB6BA
:100C30000F922F933F938F939F93EF93FF93209166
:100C4000AF103091B0108091B1109091B210281770
:100C5000390731F48091D1008F7D8093D10014C089
:100C6000E091B110F091B210E159FF4E20818091D6
:100C7000B1109091B21001968F7399279093B21092
:100C80008093B1102093D600FF91EF919F918F91A7
:100C90003F912F910F900BBE0F900FBE0F901F90A2
:100CA00018951F920F920FB60F9211240BB60F9248
:100CB0002F933F938F939F93EF93FF932091271050
:100CC000309128108091291090912A102817390707
:100CD00031F4809131018F7D8093310114C0E09116
:100CE0002910F0912A10E951F04F208180912910AC
:100CF00090912A1001968F73992790932A108093D0
:100D0000291020933601FF91EF919F918F913F9190
:100D10002F910F900BBE0F900FBE0F901F90189544
:100D2000CF92DF92EF92FF92CF93DF93EC016A01B3
:100D30007B014115514E6105710509F1EC89FD8971
:100D400081E090E008A002C0880F991F0A94E2F7A2
:100D5000808360E079E08DE390E0A70196010E9436
:100D60008939DA01C9010197A109B109B695A79599
:100D7000979587959C01211580E13807A8F0EC89AB
:100D8000FD89108260E874E88EE190E0A701960189
:100D90000E948939DA01C9010197A109B109B69503
:100DA000A795979587959C01E889F9893083EA8909
:100DB000FB89208319A2EE89FF89408181E090E0C0
:100DC0009C010C8C02C0220F331F0A94E2F7242BE3
:100DD0002083EE89FF8940819C010D8C02C0220F87
:100DE000331F0A94E2F7242B2083EE89FF89408188
:100DF0009C010E8C02C0220F331F0A94E2F7242BB1
:100E00002083EE89FF8920810F8C02C0880F991FF3
:100E10000A94E2F7809582238083DF91CF91FF903F
:100E2000EF90DF90CF900895CF93DF93FC018685FC
:100E30009785DC01A05CBF4FEC01CE5BDF4F4D918D
:100E40005C9111972881398142175307C1F7A68910
:100E5000B7893C9181E090E0AC01048C02C0440F62
:100E6000551F0A94E2F7242F209523232C93A6895B
:100E7000B7893C91AC01058C02C0440F551F0A9400
:100E8000E2F7242F209523232C93A689B7893C9140
:100E9000AC01068C02C0440F551F0A94E2F7242FC0
:100EA000209523232C93A689B7892C91078C02C007
:100EB000880F991F0A94E2F7809582238C9384858A
:100EC0009585FC01EE5BFF4F2081318132973183A4
:100ED0002083DF91CF910895CF92DF92EF92FF921E
:100EE000E5ECFFE01382128288EEC82E83E0D82E54
:100EF000E12CF12CC482D582E682F7826EED73E09C
:100F00007183608383EC91E1958784878FE791E11A
:100F10009787868785EC90E0918B808B84EC90E0BE
:100F2000938B828B80EC90E0958B848B81EC90E0AE
:100F3000978B868B82EC90E0918F808F86EC90E08F
:100F4000938F828F44E0448F33E0358F27E0268FE4
:100F500095E0978F81E080A3E3EAFFE0138212829D
:100F6000C482D582E682F78271836083ABE3B1E10C
:100F7000B587A487A7EFB0E1B787A687ADECB0E04F
:100F8000B18BA08BACECB0E0B38BA28BA8ECB0E043
:100F9000B58BA48BA9ECB0E0B78BA68BAAECB0E024
:100FA000B18FA08FAEECB0E0B38FA28F448F358F9E
:100FB000268F978F80A3E1E8FFE013821282C4821C
:100FC000D582E682F78271836083A3EBB0E1B587B7
:100FD000A487AFE6B0E1B787A687A5EDB0E0B18BF7
:100FE000A08BA4EDB0E0B38BA28BA0EDB0E0B58BED
:100FF000A48BA1EDB0E0B78BA68BA2EDB0E0B18FD2
:10100000A08FA6EDB0E0B38FA28F448F358F268FCF
:10101000978F80A3EFE5FFE013821282C482D5820E
:10102000E682F782718360836BE270E17587648783
:1010300067EE7FE07787668765E371E0718B608B91
:1010400064E371E0738B628B60E371E0758B648B9A
:1010500061E371E0778B668B62E371E0718F608F83
:1010600066E371E0738F628F448F358F268F978F81
:1010700080A3FF90EF90DF90CF900895A0E0B0E0C4
:10108000E4E4F8E00C94E7396C01EB017B01E40E39
:10109000F51E00E010E0CE15DF0561F06991D60184
:1010A000ED91FC910190F081E02DC6011995080F9A
:1010B000191FF1CFC801CDB7DEB7E8E00C94033AB1
:1010C0006115710581F0FB0101900020E9F731976E
:1010D000AF01461B570BDC01ED91FC910280F381BF
:1010E000E02D1995089580E090E00895A0E0B0E02B
:1010F000ECE7F8E00C94E5397C016B01C0E0D0E04E
:1011000000E010E0D60114968D919C911597C817B8
:10111000D90788F4D701ED91FC91A080B180BE0180
:10112000C6010E94D30B682FC701F5011995080F5E
:10113000191F2196E7CFC801CDB7DEB7EAE00C94BE
:10114000013A0E9460080895DC01ED91FC91019044
:10115000F081E02D199508950F931F93CF93DF939E
:10116000EC016DE00E94A4088C016AE0CE010E94AF
:10117000A408800F911FDF91CF911F910F910895C7
:101180000F931F93CF93DF93EC010E9476088C019D
:10119000CE010E94AC08800F911FDF91CF911F916B
:1011A0000F9108950F931F93CF93DF93EC010E944B
:1011B00060088C01CE010E94AC08800F911FDF9166
:1011C000CF911F910F910895A1E2B0E0EAEEF8E00F
:1011D0000C94E3396C01142FE52FCB01022F19A2D7
:1011E000223008F40AE07E0121E2E20EF11C802E9A
:1011F000912CA12CB12C612F7E2FA50194010E946E
:101200008939029F1019112481E0E81AF1081A3077
:1012100014F4105D01C0195CF7011083122FE32F45
:10122000CA01232B242B252B31F7B701C6010E94BD
:101230006008A196ECE00C94FF392115310549F4C2
:10124000DC01ED91FC910190F081E02D642F199566
:1012500008950E94E40808959A01462F50E060E046
:1012600070E00E941D090895A0E0B0E0EAE3F9E013
:101270000C94E7398C016A017B012115310549F491
:10128000DC01ED91FC910190F081E02D642F199526
:101290001DC02A303105A9F477FF12C06DE20E940B
:1012A000A408EC0144275527BA014C195D096E09C1
:1012B0007F092AE0C8010E94E4088C0F9D1F06C028
:1012C0002AE0B701A601C8010E94E408CDB7DEB745
:1012D000E8E00C94033A9A01AB01770F660B770BA9
:1012E0000E9434090895A0E0B0E0E9E7F9E00C9429
:1012F000E2398C016A017B01722E9A01AB01C701B0
:10130000B6010E941F31882319F06AEE73E027C0EE
:1013100046015701E894B7F82FEF3FEF4FE75FE73B
:10132000C501B4010E941F3181110DC02FEF3FEFA5
:101330004FE75FE7C501B4010E944E2F18161CF459
:101340006EEE73E00CC02FEF3FEF4FE75FE4C70195
:10135000B6010E94AD30181634F462EF73E0C80194
:101360000E9460087CC02FEF3FEF4FE75FECC701A2
:10137000B6010E944E2F87FDF0CF20E030E0A9019A
:10138000C701B6010E944E2F87FF0AC06DE2C80157
:101390000E94A408EC01F7FAF094F7F8F09402C068
:1013A000C0E0D0E0B12C60E070E080E09FE37B140F
:1013B00041F020E030E040E251E40E94532FB3942A
:1013C000F6CFA70196010E94E22E6B017C010E94DC
:1013D000CC2F4B015C012AE0AB01BC01C8010E948B
:1013E000E408C80FD91F7720C9F1C501B4010E94D4
:1013F000FB2F9B01AC01C701B6010E94E12E6B01DE
:101400007C016CE97CE0C8010E946008C80FD91F0C
:1014100020E030E040E251E4C701B6010E94B23062
:101420004B015C010E94C52F6B017C014AE050E03A
:10143000C8010E946B09C80FD91FB601DD0C880BCB
:10144000990B0E94FD2F9B01AC01C501B4010E94C4
:10145000E12E6B017C017A947110DACFCE01CDB709
:10146000DEB7EDE00C94FE390E9473090895FC018B
:10147000808191810E94D50C0895CF93DF93EC0178
:1014800088819981009711F00E94D50C19821882E9
:101490001D821C821B821A82DF91CF9108950F93C7
:1014A0001F93CF93DF93EC018B016F5F7F4F888198
:1014B00099810E945E0D009731F0998388831B8388
:1014C0000A8381E001C080E0DF91CF911F910F91ED
:1014D0000895CF93DF93EC0188819981892B29F0BE
:1014E0008A819B818617970760F4CE010E944F0A7C
:1014F000882341F08C819D81892B19F4E881F98141
:10150000108281E0DF91CF910895EF92FF920F93C7
:101510001F93CF93DF93EC017B018A01BA010E94F4
:10152000690A811104C0CE010E943D0A07C01D83D3
:101530000C83B701888199810E94783ACE01CDB79A
:10154000DEB7E6E00C94053AFC01118210821382AA
:1015500012821582148216826115710551F0FB0109
:1015600001900020E9F73197AF01461B570B0E940D
:10157000850A0895CF93DF93EC01FB018617970747
:1015800061F0608171816115710529F04481558197
:101590000E94850A02C00E943D0ACE01DF91CF91D0
:1015A0000895FC0111821082138212821582148226
:1015B00016820E94BA0A0895CF93DF93EC01611559
:1015C000710559F0FB0101900020E9F73197AF0157
:1015D000461B570B0E94850A02C00E943D0ACE019D
:1015E000DF91CF910895A2E0B0E0E9EFFAE00C942A
:1015F000ED39FC011182108213821282158214824D
:10160000168269831A82BE016F5F7F4F0E94DC0AD7
:101610002296E2E00C94093AA2E1B0E0E2E1FBE0BC
:101620000C94EB398C01CB01F801118210821382EA
:10163000128215821482168250E0BE016F5F7F4FC6
:101640000E947F3ABE016F5F7F4FC8010E94DC0A93
:101650006296E4E00C94073AEF92FF920F931F9387
:10166000CF93DF936115710511F480E01CC0411523
:101670005105C1F07B01EC018C819D818A01080F2D
:10168000191FB801CE010E94690A882371F32881CD
:1016900039818C819D81B701820F931F0E94783A16
:1016A0001D830C8381E0CDB7DEB7E6E00C94053AEC
:1016B000A2E0B0E0EEE5FBE00C94ED3969831A821C
:1016C00041E050E0BE016F5F7F4F0E942C0B2296DD
:1016D000E2E00C94093AA7E0B0E0E1E7FBE00C940B
:1016E000E9397C01CB014AE050E08E010F5F1F4FCA
:1016F000B8010E947F3AF80101900020E9F7319784
:10170000AF01401B510BB801C7010E942C0B27965B
:10171000E6E00C94053ACF93DF93EC01FB014481A2
:101720005581608171810E942C0B811103C0CE0113
:101730000E943D0ACE01DF91CF910895CF93DF93B0
:10174000EC016115710561F0FB0101900020E9F7E2
:101750003197AF01461B570B0E942C0B811103C020
:10176000CE010E943D0ACE01DF91CF910895CF9323
:10177000DF93EC010E94580B811103C0CE010E943F
:101780003D0ACE01DF91CF910895CF93DF93EC0115
:101790000E946B0B811103C0CE010E943D0ACE0155
:1017A000DF91CF910895FC01248135816217730781
:1017B00048F480819181009729F0FC01E60FF71F22
:1017C0008081089580E008950E94D30B0895A0E0E1
:1017D000B0E0EDEEFBE00C94E6397C016B018A0190
:1017E000E9012417350720F4812F8901C42FD82F50
:1017F0006DEA7EE0C7010E94A40AD60114968D917D
:101800009C91159780179107C8F08C179D0708F4D5
:10181000EC01D601ED91FC911197EC0FFD1FB0800A
:1018200010826D917C91600F711FC7010E94DC0ACC
:10183000D601ED91FC91EC0FFD1FB082C701CDB731
:10184000DEB7E9E00C94023AFC01808191810097B7
:1018500019F00E94413A089560E070E0CB010895CC
:101860000E94CF0E0E946002C3E7D5E00E9478027A
:101870002097E1F30E947305F9CF0F931F93CF9345
:10188000DF938230910510F482E090E0E0914C13F8
:10189000F0914D1320E030E0A0E0B0E0309719F176
:1018A000408151810281138148175907C8F084177C
:1018B000950769F4109731F012960C9312971396CE
:1018C0001C9327C000934C1310934D1322C0211575
:1018D000310519F04217530718F49A01BD01EF01C1
:1018E000DF01F801DBCF21153105F9F0281B390B99
:1018F0002430310580F48A819B816115710521F0C6
:10190000FB019383828304C090934D1380934C1307
:10191000FE01329644C0FE01E20FF31F81939193C2
:1019200022503109398328833AC020914A133091DB
:101930004B13232B41F42091020230910302309388
:101940004B1320934A13209100023091010221157C
:10195000310541F42DB73EB7409104025091050284
:10196000241B350BE0914A13F0914B13E217F30758
:10197000A0F42E1B3F0B2817390778F0AC014E5FFF
:101980005F4F2417350748F04E0F5F1F50934B13DE
:1019900040934A138193919302C0E0E0F0E0CF01BD
:1019A000DF91CF911F910F910895CF93DF9300970F
:1019B00009F481C0FC01329713821282A0914C136A
:1019C000B0914D13109781F420813181820F931FC4
:1019D00020914A1330914B132817390751F5F09392
:1019E0004B13E0934A1367C0ED0120E030E0CE17BF
:1019F000DF0740F44A815B819E0141155105F1F0FA
:101A0000EA01F5CFD383C28340815181840F951FB2
:101A1000C817D90759F488819981840F951F0296B8
:101A2000918380838A819B819383828321153105F1
:101A300029F4F0934D13E0934C133DC0E901FB836F
:101A4000EA8349915991C40FD51FEC17FD0761F442
:101A500080819181840F951F0296E9019983888383
:101A6000828193819B838A83E0E0F0E012968D91DE
:101A70009C911397009719F0FD01DC01F7CF8D9130
:101A80009C9111979D012E5F3F4F820F931F2091D4
:101A90004A1330914B132817390769F4309729F40A
:101AA00010924D1310924C1302C013821282B09305
:101AB0004B13A0934A13DF91CF910895A0E0B0E0BB
:101AC000E4E6FDE00C94E139EC01009721F4CB0150
:101AD0000E943D0CB4C0FC01E60FF71F9C01225090
:101AE0003109E217F30708F4A8C0D9010D911C9140
:101AF000119706171707B0F00530110508F49BC0C1
:101B0000C80104978617970708F495C00250110979
:101B1000061B170B019311936D937C93CF010E94C9
:101B2000D50C89C05B01A01AB10A4C01800E911E30
:101B3000A0914C13B0914D13612C712CE12CF12C20
:101B4000109709F446C08D919C911197A815B9057D
:101B5000B1F56C0142E0C40ED11CCA14DB0478F16B
:101B60004C018A189B08640142E0C40ED11C1296F5
:101B7000BC9012971396AC91B5E0CB16D10440F00F
:101B8000B282A38391828082D9016D937C9309C034
:101B90000E5F1F4F800F911FF90191838083EB2D02
:101BA000FA2FE114F10431F0D7011396FC93EE9370
:101BB000129741C0F0934D13E0934C133CC068164C
:101BC000790608F43C017D0112960D90BC91A02D80
:101BD000B7CF80914A1390914B1388169906E1F480
:101BE00066167706C8F48091000290910102009772
:101BF00041F48DB79EB74091040250910502841BB9
:101C0000950BE817F907C8F4F0934B13E0934A13C8
:101C1000F901718360830FC0CB010E943D0C7C01F0
:101C2000009759F0A801BE010E94683ACE010E94B7
:101C3000D50CC70104C0CE0102C080E090E0CDB752
:101C4000DEB7EEE00C94FD391F920F920FB60F92A3
:101C500011242F933F938F939F93AF93BF938091C2
:101C6000081290910912A0910A12B0910B123091B2
:101C7000071223E0230F2D3720F40196A11DB11D7B
:101C800005C026E8230F0296A11DB11D209307125F
:101C90008093081290930912A0930A12B0930B122A
:101CA00080910C1290910D12A0910E12B0910F1212
:101CB0000196A11DB11D80930C1290930D12A0935B
:101CC0000E12B0930F12BF91AF919F918F913F91E0
:101CD0002F910F900FBE0F901F9018952FB7F8946B
:101CE000609108127091091280910A1290910B1262
:101CF0002FBF08953FB7F89480910C1290910D1268
:101D0000A0910E12B0910F1226B5A89B05C02F3FCF
:101D100019F00196A11DB11D3FBFBA2FA92F982F11
:101D20008827820F911DA11DB11DBC01CD0142E08C
:101D3000660F771F881F991F4A95D1F70895CF9294
:101D4000DF92EF92FF92CF93DF936B017C010E94B1
:101D50007A0EEB01C114D104E104F10479F00E9480
:101D60007A0E6C1B7D0B683E7340A0F381E0C81AAD
:101D7000D108E108F108C851DC4FECCFDF91CF91D9
:101D8000FF90EF90DF90CF900895019739F0880F82
:101D9000991F880F991F02970197F1F7089578947A
:101DA00084B5826084BD84B5816084BD85B5826060
:101DB00085BD85B5816085BDEEE6F0E080818160FE
:101DC0008083E1E8F0E010828081826080838081FE
:101DD00081608083E0E8F0E0808181608083E1EBD6
:101DE000F0E0808184608083E0EBF0E080818160BE
:101DF0008083E1E9F0E0808182608083808181607E
:101E00008083E0E9F0E0808181608083E1EAF0E0B6
:101E1000808182608083808181608083E0EAF0E05D
:101E2000808181608083E1E2F1E080818260808353
:101E3000808181608083E0E2F1E080818160808345
:101E4000EAE7F0E080818460808380818260808323
:101E50008081816080838081806880831092C1004E
:101E60000895AF92BF92DF92EF92FF920F931F936C
:101E7000CF93DF93EC017B018B015C0182E0A80E24
:101E8000B11CF801D1908F01CE010E94C53DD8163A
:101E900021F06D2DCE010E94CD3D2196CA15DB05A6
:101EA00081F7C701DF91CF911F910F91FF90EF90C4
:101EB000DF90BF90AF9008950F931F93CF93DF9360
:101EC0008C01EB010E94C53D8883C80101960E94E8
:101ED000C53D8983CE01DF91CF911F910F91089568
:101EE000089583EA9FE00E94AC0866EF73E083EAFE
:101EF0009FE00E94D20861E274E083EA9FE00E94C2
:101F0000D20866EF73E083EA9FE00E94D20883EA7A
:101F10009FE00E94AC086CE474E083EA9FE00E94BA
:101F2000D20867E674E083EA9FE00E94D2086BE77C
:101F300074E083EA9FE00E94D20861EA74E083EAD9
:101F40009FE00E94D2086AEC74E083EA9FE00E945E
:101F5000D20867EE74E083EA9FE00E94D2086DE049
:101F600075E083EA9FE00E94D20862E375E083EAAD
:101F70009FE00E94D20869E575E083EA9FE00E9435
:101F8000D20863E875E083EA9FE00E94D2086EE918
:101F900075E083EA9FE00E94D20865EB75E083EA72
:101FA0009FE00E94D2086CEC75E083EA9FE00E94FB
:101FB000D2086CEE75E083EA9FE00E94D20862E1ED
:101FC00076E083EA9FE00E94D20868E376E083EA45
:101FD0009FE00E94D20860E576E083EA9FE00E94DD
:101FE000D20883EA9FE00E94AC0862E776E083EAC9
:101FF0009FE00E94D20867E976E083EA9FE00E94B2
:10200000D20862EC76E083EA9FE00E94D20867E99A
:1020100076E083EA9FE00E94D2080895FB01DA018E
:10202000CB01089631912D91321305C0E817F907BD
:10203000C9F781E0089580E008956DEE76E083EAC7
:102040009FE00E94A10868EE73E080E090E00E94AB
:102050009F0E0895CF93C62F60E08CE00E94213937
:1020600061E08CE00E94E538C13019F486E090E030
:1020700002C08CE390E00E94C50E60E08CE00E94FC
:10208000E53861E08CE00E9421396AE070E080E090
:1020900090E00E949F0ECF910895DF92EF92FF9201
:1020A0000F931F93CF93DF938C017B0183E492E125
:1020B0000E94742A83E492E10E94B02940E061ED1D
:1020C00083E492E10E944B2A60E0C8010E942A103A
:1020D00083E492E10E94742A83E492E10E94B02991
:1020E00040E065ED83E492E10E944B2AE70148E07D
:1020F000D42E38E0E32EF12C888180FF02C060E00E
:1021000001C061E0C8010E942A10888190E0959585
:102110008795888381E0E81AF10871F76EE174E031
:1021200083EA9FE00E94A108DA942196D110E1CFC2
:1021300083E492E10E94B02940E061ED83E492E102
:102140000E944B2A61E0C8010E942A10CDB7DEB779
:10215000E7E00C94043A88E592E10E94C725609379
:10216000141270931512809316129093171288E52B
:1021700092E10E940F2660931012709311128093C7
:102180001212909313120895A2E0B0E0EAECF0E18D
:102190000C94ED39BE016F5F7F4F88E090E00E94A4
:1021A0005C0F60E672E18EE192E10E94712E229650
:1021B000E2E00C94093A87E592E10E94722D40E03A
:1021C00052EC61E070E083EA9FE00E94900608957F
:1021D000A2E0B0E0EEEEF0E10C94EB398C01CA0124
:1021E0002DED30E03A832983BE016F5F7F4F0E945F
:1021F0005C0F89819A818D3D910519F06AE077E045
:1022000002C069E077E0C8010E94A40AC8012296D2
:10221000E4E00C94073AA2E0B0E0E1E1F1E10C94D3
:10222000EB398C0188E592E10E948C2588E592E1EA
:102230000E949225C8010E94AB108AEA90E09A831E
:102240008983BE016F5F7F4F80E090E00E94310F75
:102250002296E4E00C94073A0F931F93CF93DF93F9
:102260008B01FB01848195818C30910511F04097A1
:1022700099F5C0E0D0E0F80184819581C817D907AD
:1022800038F5BE01C8010E94E40B80333CF4BE0166
:10229000C8010E94E40B813444F40DC0BE01C801A2
:1022A0000E94E40B8A33B4F0F2CFBE01C8010E9451
:1022B000E40B87347CF0BE01C8010E94E40B813638
:1022C0005CF0BE01C8010E94E40B87361CF004C01C
:1022D00081E003C02196CFCF80E0DF91CF911F91A5
:1022E0000F9108950F931F93CF93DF938B01C0E05D
:1022F000D0E0F80184819581C817D90770F4BE0138
:10230000C8010E94E40B803354F0BE01C8010E9452
:10231000E40B8A3324F42196ECCF81E001C080E005
:10232000DF91CF911F910F910895A2E0B0E0EBE90A
:10233000F1E10C94ED391A821982BE016F5F7F4F73
:1023400086E090E00E945C0F89819A812296E2E00B
:102350000C94093AAEE0B0E0E0EBF1E10C94E33923
:102360007B016A010E94951123E0EE0CFF1C2A9567
:10237000E1F7EC9C8001ED9C100DFC9C100D1124EC
:10238000E00EF11E8E159F050CF47C01CE01019626
:102390005C0195E1892E97E0992E0E151F050CF032
:1023A00069C0C80187709927892B09F046C0680168
:1023B00017FF03C097E0C90ED11C83E0D594C794E2
:1023C0008A95E1F783EA9FE00E94AC086CE177E030
:1023D00083EA9FE00E94A1088AE0C816D1041CF499
:1023E0006DE077E009C094E6C916D1041CF468ECEE
:1023F0007EE002C06DEA7EE083EA9FE00E94A108D1
:102400004AE0B601CE0108960E940C0BBE01685F3F
:102410007F4FC5010E94D10A60E177E0C5010E94AB
:102420009E0BBC0183EA9FE00E947608C5010E94D2
:10243000370ACE0108960E94370A1A821982B8011B
:1024400085E292E10E94892C1F928F939F928F9236
:10245000BF92AF920E94CC3AB50183EA9FE00E94FE
:10246000A1080F5F1F4F0F900F900F900F900F90CC
:102470000F9093CF83EA9FE00E94AC082E96ECE089
:102480000C94FF390E94951123E0969587952A9523
:10249000E1F790931D1280931C1220E032E03093FC
:1024A000191220931812281B390B30931B122093FA
:1024B0001A120895AEE0B0E0E0E6F2E10C94E939DA
:1024C0000E9442120091181210911912E0901C12F1
:1024D000F0901D126AE177E0CE0108960E94A40AEE
:1024E000BE01685F7F4FCE0101960E94D10AB701FD
:1024F000CE0101960E94C50B6FE177E00E949E0B12
:10250000B8010E94C50B6FE974E00E949E0BBC01EC
:1025100083EA9FE00E947608CE0101960E94370A66
:10252000CE0108960E94370A2E96E6E00C94053AF2
:10253000A4E0B0E0EEE9F2E10C94E9397C01BE01DF
:102540006D5F7F4F84E090E00E945C0F60E672E177
:1025500085E292E10E94582B8B819C818A3A9105F9
:10256000A1F100E010E04FEFB80185E292E10E9496
:10257000142C0F5F1F4F011580E11807A1F76AE0C7
:1025800070E080E090E00E949F0E1A821982BE01E6
:102590006F5F7F4F86E090E00E94310F6AE070E04D
:1025A00080E090E00E949F0E8AEA90E09A838983FF
:1025B000BE016F5F7F4F84E090E00E94310F6AE0C0
:1025C00070E080E090E00E949F0EC7010E944212DE
:1025D0002496E6E00C94053ACF93DF93EC0186E570
:1025E00092E10E94E82DCE010E940B11CE010E94C3
:1025F000DB10CE010E949812CE010E94C41086E525
:1026000092E10E94032EDF91CF910895AEE0B0E0F9
:10261000ECE0F3E10C94EB398C0183EA9FE00E943B
:10262000AC08C8010E94AB10C8010E94421261E2CE
:1026300077E083EA9FE00E94D2086CE477E083EAC7
:102640009FE00E94A10840911412509115126091D0
:1026500016127091171224E030E083EA9FE00E9486
:10266000340A6FE677E083EA9FE00E94A10883EADC
:102670009FE00E94AC0861E777E083EA9FE00E9458
:10268000A108409110125091111260911212709194
:10269000131222E030E083EA9FE00E94340A64E9EA
:1026A00077E083EA9FE00E94A10883EA9FE00E940E
:1026B000AC0883EA9FE00E94AC0866E977E083EA11
:1026C0009FE00E94D20861EC77E083EA9FE00E94DD
:1026D000A10860911C1270911D124AE050E083EA3B
:1026E0009FE00E946B0961EE74E083EA9FE00E9424
:1026F000A10883EA9FE00E94AC0862EE77E083EADB
:102700009FE00E94A10860911A1270911B124AE08A
:1027100050E083EA9FE00E946B0961EE74E083EA77
:102720009FE00E94A10883EA9FE00E94AC0862E05B
:1027300078E083EA9FE00E94A108609118127091EE
:1027400019124AE050E083EA9FE00E946B0961EEB3
:1027500074E083EA9FE00E94A10883EA9FE00E9460
:10276000AC0883EA9FE00E94AC0863E278E083EA69
:102770009FE00E94D20840E050E0B801CE010896E8
:102780000E94E8106EE478E0CE0101960E94A40A4F
:10279000BE01685F7F4FCE0101960E948B0BBC018A
:1027A00083EA9FE00E94C008CE0101960E94370A8A
:1027B000CE0108960E94370A42E050E0B801CE01EF
:1027C00008960E94E81065E778E0CE0101960E9425
:1027D000A40ABE01685F7F4FCE0101960E948B0B59
:1027E000BC0183EA9FE00E94C008CE0101960E94CE
:1027F000370ACE0108960E94370A44E050E0B8013B
:10280000CE0108960E94E8106CE978E0CE010196AE
:102810000E94A40ABE01685F7F4FCE0101960E940C
:102820008B0BBC0183EA9FE00E94C008CE01019699
:102830000E94370ACE0108960E94370AC8010E94FA
:1028400095114AE0BC01CE0108960E940C0B63EC86
:1028500078E0CE0101960E94A40ABE01685F7F4F16
:10286000CE0101960E948B0BBC0183EA9FE00E947F
:10287000C008CE0101960E94370ACE0108960E9438
:10288000370A83EA9FE00E94AC086AEE78E0CE0146
:1028900008960E94A40A65EF78E0CE0101960E9496
:1028A000A40ABE01685F7F4FCE0101960E948B0B88
:1028B000BC0183EA9FE00E94C008CE0101960E94FD
:1028C000370ACE0108960E94370A60E971E080E07D
:1028D00090E00E949F0E2E96E4E00C94073AA5E04B
:1028E000B0E0E5E7F4E10C94E93905E09E012F5FE3
:1028F0003F4F40E450E060E070E08EE192E10E94E2
:10290000782E64E179E083EA9FE00E94A1084AE022
:1029100050E065E070E083EA9FE00E946B0966E2A8
:1029200079E083EA9FE00E94A1088E010F5F1F4FAC
:102930007E0186E0E80EF11CF80161918F0183EAC7
:102940009FE00E94A4080E151F05B1F72596E6E04A
:102950000C94053AA0E0B0E0E0EBF4E10C94E2392D
:10296000EB0189E090E00E943D0C5C018C809D8031
:1029700000E010E0081519050CF095C0B801CE0173
:102980000E94E40B80330CF460C0B801CE010E94B9
:10299000E40B8A330CF059C0B801CE010E94E40B5D
:1029A000782E729460EF7622B801CE010E94E40B7B
:1029B00081343CF0B801CE010E94E40B87340CF462
:1029C00046C0B801CE010E94E40B81363CF0B8014C
:1029D000CE010E94E40B87360CF443C06801C801A5
:1029E00001967C0117FD6C01D594C794CA0CDB1CC1
:1029F000F6017082B701CE010E94E40B803334F0FF
:102A0000B701CE010E94E40B8A33ACF1B701CE01CD
:102A10000E94E40B813434F0B701CE010E94E40B34
:102A200087348CF1B701CE010E94E40B813634F07B
:102A3000B701CE010E94E40B87366CF1F60180816C
:102A4000780E70820E5F1F4F95CF712CADCFB801FD
:102A5000CE010E94E40B8295807F50E9752E780E9E
:102A6000B0CFB801CE010E94E40B8295807F40E98F
:102A7000742E780EB3CFB701CE010E94E40B30ED77
:102A8000732E780EC3CFB701CE010E94E40B29EC60
:102A9000722E780EC7CFB701CE010E94E40B99EADF
:102AA000792E780ECBCFF501E80DF91D1082C50106
:102AB000CDB7DEB7EDE00C94FE3987E592E10E94D8
:102AC0009D2C86E592E10E94C12D6CE083E492E1A9
:102AD0000E94862A6BE088E292E10E94472660E528
:102AE00085E292E10E94552B0895A5E1B0E0EBE765
:102AF000F5E10C94E7396C010E9495118C01892B4A
:102B000089F469E279E083EA9FE00E94D20883EACF
:102B10009FE00E94AC0860E971E080E090E00E94D4
:102B20009F0EDDC065E479E083EA9FE00E94D20851
:102B300083EA9FE00E94AC0840E050E060E170E072
:102B4000C6010E94AA11C80117FF02C081589F4FF9
:102B50007C01EE0CEF2CEE1CFF0800E010E06DEAAB
:102B60007EE0CE010F960E94A40A83EA9FE00E94B5
:102B7000F003181619060CF04BC063EA7FE0CE0193
:102B800001960E943E34BE016F5F7F4FCE010F96CB
:102B90000E94BA0ACE0101960E94370A8B899C894D
:102BA000019789F460E070E0CE010F960E94E40B7B
:102BB0008D34C9F160E070E0CE010F960E94E40B05
:102BC0008D36E1F530C067E879E0CE0108960E94C5
:102BD000A40ABE01685F7F4FCE0101960E94D10A10
:102BE000BE01615F7F4FCE0101960E948B0B69E9A8
:102BF00079E00E949E0BBC0183EA9FE00E94C0081E
:102C0000CE0101960E94370ACE0108960E94370A2B
:102C100060E971E080E090E00E949F0ECE010F9687
:102C20000E94370A9CCF6EEF76E083EA9FE00E9415
:102C3000D208CE010F960E94370A51C060E070E0C2
:102C4000CE010F960E94E40B823441F060E070E008
:102C5000CE010F960E94E40B823631F40115110566
:102C6000C1F00150110915C060E070E0CE010F966F
:102C70000E94E40B863441F060E070E0CE010F96D4
:102C80000E94E40B863661F40E151F0514F40F5FE5
:102C90001F4FA80160E170E0C6010E94AA11B8CFE1
:102CA00067E879E0CE0101960E94A40ABE01615F47
:102CB0007F4FCE0101960E948B0B69E979E00E945B
:102CC0009E0BBC0183EA9FE00E94C008CE010196E2
:102CD0000E94370A83EA9FE00E94AC0899CF65966C
:102CE000E8E00C94033AA6E1B0E0E9E7F6E10C94E1
:102CF000E8397C016CE979E083EA9FE00E94D20820
:102D000083EA9FE00E94AC0863EB79E083EA9FE0EE
:102D10000E94D2088E010F5F1F4F88E0D82E6DEA07
:102D20007EE0CE0140960E94A40A83EA9FE00E94C2
:102D3000F003181619066CF463EA7FE0C8010E94DC
:102D40003E34B801CE0140960E94BA0AC8010E94E2
:102D5000370A8C899D898130910551F560E070E0DA
:102D6000CE0140960E94E40B8D3409F4BCC060E0B3
:102D700070E0CE0140960E94E40B8D3609F4B3C09A
:102D800067E879E0C8010E94A40ABE01605F7F4F36
:102D9000C8010E948B0B69E979E00E949E0BBC017F
:102DA00083EA9FE00E94C008C8010E94370A8AC0D7
:102DB0008031910509F079C060EE79E0CE01099685
:102DC0000E94A40ABE01675F7F4FC8010E94D10A1A
:102DD000BE01605F7F4FC8010E948B0B62EF79E0FC
:102DE0000E949E0BBC0183EA9FE00E94C008C801BC
:102DF0000E94370ACE0109960E94370ABE01605F21
:102E00007F4FC8010E94D10AB801C7010E94AA14CD
:102E1000BC01C7010E944D10C8010E94370AF80189
:102E20008D2D11928A95E9F7B80183E492E10E9411
:102E3000BB2A81110AC083E492E10E94792A68ECDE
:102E400070E080E090E00E949F0EBE01605F7F4FC7
:102E5000CE0109960E94D10ABE01675F7F4FC7016C
:102E60000E94AA14A801BC01C7010E940E10882369
:102E700019F066EF79E002C06DEF79E083EA9FE038
:102E80000E94A108CE0109960E94370A83EA9FE0BA
:102E90000E94AC0883EA9FE00E94AC086CE979E0EC
:102EA00083EA9FE00E94D2080DC0029750F560E9C6
:102EB00071E080E090E00E949F0ECE0140960E945B
:102EC000370A2DCF83EA9FE00E94AC0865E07AE0E4
:102ED00083EA9FE00E94D20863EB79E083EA9FE0F7
:102EE0000E94D208E4CF6EEF76E083EA9FE00E9472
:102EF000D208CE0140960E94370A6696E7E00C940D
:102F0000043A69E27AE0CE0109960E94A40ABE0161
:102F1000675F7F4FC8010E94D10ABE01605F7F4F8B
:102F2000C8010E948B0B69E979E00E949E0BBC01ED
:102F300083EA9FE00E94C008C8010E94370ACE01C0
:102F400009960E94370AB3CFAFE1B0E0EAEAF7E1B1
:102F50000C94DD397C010E9495118C0167E37AE0C5
:102F600083EA9FE00E94D20865E07AE083EA9FE06E
:102F70000E94D20865E479E083EA9FE00E94D208CB
:102F800083EA9FE00E94AC0840E050E060E170E01E
:102F9000C7010E94AA11C80117FF02C081589F4FA4
:102FA0001C01220C232C221C3308C12CD12C8E0195
:102FB0000F5F1F4F2E012EE1420E511C6DEA7EE085
:102FC000CE0147960E94A40A83EA9FE00E94F00384
:102FD000181619060CF065C163EA7FE0C8010E946B
:102FE0003E34B801CE0147960E94BA0AC8010E9439
:102FF000370A8B8D9C8D8130910599F460E070E0EB
:10300000CE0147960E94E40B8D3409F455C160E06F
:1030100070E0CE0147960E94E40B8D3609F05AC14C
:103020004BC1039709F0A6C1C7010E9495115C012D
:10303000BE01695E7F4FC8010E94D10AB801C70175
:103040000E947211982EC8010E94370A911015C073
:1030500060E87AE0CE0109960E94A40ABE01675F8B
:103060007F4FC8010E94D10ABE01695E7F4FC8012F
:103070000E948B0B69E979E026C08F89988D0E94A8
:10308000233A3C0197FD0BC0C501B7FC079623E02E
:10309000959587952A95E1F7681679060CF166E90A
:1030A0007AE0CE0109960E94A40ABE01675F7F4FB5
:1030B000C8010E94D10ABE01695E7F4FC8010E940B
:1030C0008B0B64EA7AE00E949E0BBC0183EA9FE0CE
:1030D0000E94C008C8010E94370ACE010996C1C0EB
:1030E0006DEA7EE0CE0140960E94A40A530183E07F
:1030F000AA0CBB1C8A95E1F74501E8E08E0E911CF5
:10310000A814B904BCF51F8E1E8EB50185E292E1AC
:103110000E94892C1F928F9385E197E09F938F9354
:103120005F924F920E94CC3ABE01605F7F4FCE010A
:1031300009960E94D10AB201CE0109960E949E0B07
:10314000BC01C8010E94D10AB801CE0140960E947C
:10315000BA0AC8010E94370ACE0109960E94370AAE
:10316000FFEFAF1ABF0A0F900F900F900F900F90C4
:103170000F90C6CF6EEC7AE0CE0109960E94A40AA9
:10318000BE01675F7F4FC8010E94D10AB301C80129
:103190000E94C50B6CE177E00E949E0BBE01605F50
:1031A0007F4F0E948B0B63EE7AE00E949E0BBC0166
:1031B00083EA9FE00E947608C8010E94370ACE0188
:1031C00009960E94370ABE01605F7F4FC8010E94C6
:1031D000D10AB801C7010E94AA14BC01C7010E940C
:1031E0004D10C8010E94370AF80128E011922A9573
:1031F000E9F7B80183E492E10E94BB2A81110AC079
:1032000083E492E10E94792A68EC70E080E090E02B
:103210000E949F0EBE01605F7F4FCE0109960E9403
:10322000D10ABE01675F7F4FC7010E94AA14A8019F
:10323000BC01C7010E940E10882319F066EF79E0E7
:1032400002C06DEF79E083EA9FE00E94A108CE0101
:1032500009960E94370A83EA9FE00E94AC08CE01DB
:1032600040960E94370A83EA9FE00E94AC0883EAF6
:103270009FE00E94AC086CE979E083EA9FE00E943D
:10328000D20883EA9FE00E94AC0865E07AE083EA16
:103290009FE00E94D20867E37AE083EA9FE00E9401
:1032A000D20860E971E080E090E00E949F0ECE01BC
:1032B00047960E94370A82CE6EEF76E083EA9FE05F
:1032C0000E94D208CE0147960E94370A6F96E2E12B
:1032D0000C94F93960E070E0CE0147960E94E40B4F
:1032E000823441F060E070E0CE0147960E94E40B2A
:1032F000823639F4C114D104D1F081E0C81AD10862
:1033000016C060E070E0CE0147960E94E40B863460
:1033100041F060E070E0CE0147960E94E40B8636F3
:1033200069F4C214D3041CF49FEFC91AD90AA60188
:1033300060E170E0C7010E94AA11B3CF67E879E0AD
:10334000C8010E94A40ABE01695E7F4FC8010E94A5
:103350008B0B69E979E00E949E0BBC0183EA9FE038
:103360000E94C008C8010E94370A83EA9FE00E94B9
:10337000AC0897CF67E879E0CE0109960E94A40ACD
:10338000BE01675F7F4FC8010E94D10ABE01695E1E
:103390007F4FC8010E948B0B69E979E00E949E0B68
:1033A000BC0183EA9FE00E94C008C8010E94370A5E
:1033B000CE0109960E94370A74CFA5E1B0E0E3EE92
:1033C000F9E10C94EB398C016CE979E083EA9FE038
:1033D0000E94D20883EA9FE00E94AC0868EE7AE07F
:1033E00083EA9FE00E94D2086DEA7EE0CE010F964C
:1033F0000E94A40A83EA9FE00E94F00318161906AF
:103400008CF463EA7FE0CE0101960E943E34BE0157
:103410006F5F7F4FCE010F960E94BA0ACE010196D0
:103420000E94370A8B899C898130910569F560E09B
:1034300070E0CE010F960E94E40B8D3409F495C024
:1034400060E070E0CE010F960E94E40B8D3609F427
:103450008CC067E879E0CE0101960E94A40ABE0103
:10346000615F7F4FCE0101960E948B0B69E979E085
:103470000E949E0BBC0183EA9FE00E94C008CE011F
:1034800001960E94370A66C08031910509F055C047
:1034900065E17BE0CE0108960E94A40ABE01685F48
:1034A0007F4FCE0101960E94D10ABE01615F7F4F1E
:1034B000CE0101960E948B0B65E27BE00E949E0B81
:1034C000BC0183EA9FE00E94C008CE0101960E94E1
:1034D000370ACE0108960E94370ABE01615F7F4F0E
:1034E000CE0101960E94D10ABE016F5F7F4FC801D5
:1034F0000E94AA14BC0188E292E10E946F28CE01CA
:1035000001960E94370A61E088E292E10E94552903
:103510006AE27BE083EA9FE00E94A10883EA9FE0E1
:103520000E94AC0883EA9FE00E94AC086CE979E055
:1035300083EA9FE00E94D2080DC0029720F560E95F
:1035400071E080E090E00E949F0ECE010F960E94F5
:10355000370A4ACF83EA9FE00E94AC0868EE7AE01F
:1035600083EA9FE00E94D208EACF6EEF76E083EA1A
:103570009FE00E94D208CE010F960E94370A6596FE
:10358000E4E00C94073A69E27AE0CE0108960E94E2
:10359000A40ABE01685F7F4FCE0101960E94D10A46
:1035A000BE01615F7F4FCE0101960E948B0B69E9DE
:1035B00079E00E949E0BBC0183EA9FE00E94C00854
:1035C000CE0101960E94370ACE0108960E94370A62
:1035D000B6CFAEE1B0E0EFEEFAE10C94DD397C015C
:1035E0000E9495118C0163E37BE083EA9FE00E94D7
:1035F000D20865E479E083EA9FE00E94D20883EA7A
:103600009FE00E94AC0840E050E060E170E0C7013C
:103610000E94AA11180117FF03C08FE7280E311C62
:10362000220C232C221C330800E010E045E1442E3C
:1036300047E0542E3E018DE1680E711C6DEA7EE07C
:10364000CE0146960E94A40A83EA9FE00E94F003FE
:10365000181619060CF04CC163EA7FE0CE01019602
:103660000E943E34BE016F5F7F4FCE0146960E949E
:10367000BA0ACE0101960E94370A8A8D9B8D81304D
:10368000910599F460E070E0CE0146960E94E40B4B
:103690008D3409F438C160E070E0CE0146960E9496
:1036A000E40B8D3609F03DC12EC1039709F086C1A8
:1036B000C7010E9495116C01BE016A5E7F4FCE0169
:1036C00001960E94D10ABE016F5F7F4FC7010E9421
:1036D0007211B82ECE0101960E94370AB11017C0A0
:1036E00060E87AE0CE0108960E94A40ABE01685FF5
:1036F0007F4FCE0101960E94D10ABE016A5E7F4FC4
:10370000CE0101960E948B0B69E979E028C08E8971
:103710009F890E94233A5C0197FD0BC0C601D7FC2C
:10372000079623E0959587952A95E1F7A816B9069F
:1037300024F166E97AE0CE0108960E94A40ABE014F
:10374000685F7F4FCE0101960E94D10ABE016A5E7A
:103750007F4FCE0101960E948B0B64EA7AE00E94B3
:103760009E0BBC0183EA9FE00E94C008CE01019637
:103770000E94370ACE010896A5C06DEA7EE0CE0110
:103780000F960E94A40A650183E0CC0CDD1C8A958B
:10379000E1F7460188E0880E911CC814D904CCF5E5
:1037A0001E8E1D8EB60185E292E10E94892C1F9229
:1037B0008F935F924F927F926F920E94CC3ABE019C
:1037C000615F7F4FCE0108960E94D10AB301CE01FE
:1037D00008960E949E0BBC01CE0101960E94D10A60
:1037E000BE016F5F7F4FCE010F960E94BA0ACE01D5
:1037F00001960E94370ACE0108960E94370A8FEF81
:10380000C81AD80A0F900F900F900F900F900F903A
:10381000C4CF6CE77BE0CE0108960E94A40ABE01EB
:10382000685F7F4FCE0101960E94D10AB501CE019B
:1038300001960E94C50B6CE177E00E949E0BBE01D1
:10384000615F7F4F0E948B0B65E27BE00E949E0BC5
:10385000BC0183EA9FE00E94C008CE0101960E944D
:10386000370ACE0108960E94370A6CE979E083EAAC
:103870009FE00E94D20883EA9FE00E94AC08BE014C
:10388000615F7F4FCE0101960E94D10ABE016F5F3A
:103890007F4FC7010E94AA14BC0188E292E10E94F6
:1038A0006F28CE0101960E94370A61E088E292E11A
:1038B0000E9455296AE27BE083EA9FE00E94A1080A
:1038C000CE010F960E94370A83EA9FE00E94AC085F
:1038D00063E37BE083EA9FE00E94D2086FE87BE02D
:1038E00083EA9FE00E94D20883EA9FE00E94AC082E
:1038F00060E971E080E090E00E949F0ECE01469664
:103900000E94370A9BCE6EEF76E083EA9FE00E942A
:10391000D208CE0146960E94370A6E96E2E10C94D8
:10392000F93960E070E0CE0146960E94E40B8234E3
:1039300041F060E070E0CE0146960E94E40B8236D2
:1039400031F401151105C1F00150110915C060E0F5
:1039500070E0CE0146960E94E40B863441F060E0B0
:1039600070E0CE0146960E94E40B863661F40215A3
:10397000130514F40F5F1F4FA80160E170E0C70149
:103980000E94AA11B5CF67E879E0CE0101960E94A6
:10399000A40ABE016A5E7F4FCE0101960E948B0B86
:1039A00069E979E00E949E0BBC0183EA9FE00E94D6
:1039B000C008CE0101960E94370A96CF67E879E0E9
:1039C000CE0108960E94A40ABE01685F7F4FCE0117
:1039D00001960E94D10ABE016A5E7F4FCE01019618
:1039E0000E948B0B69E979E00E949E0BBC0183EA7F
:1039F0009FE00E94C008CE0101960E94370ACE01C6
:103A000008960E94370A74CFACE1B0E0EAE0FDE12D
:103A10000C94EA398C016CE979E083EA9FE00E941A
:103A2000D20883EA9FE00E94AC0861ED7BE083EA64
:103A30009FE00E94D2086DEA7EE0CE0146960E9489
:103A4000A40A6DEA7EE0CE010F960E94A40A83EAE2
:103A50009FE00E94F003181619068CF463EA7FE0D9
:103A6000CE0101960E943E34BE016F5F7F4FCE01B2
:103A700046960E94BA0ACE0101960E94370A8A8DA4
:103A80009B8D8130910589F560E070E0CE0146960E
:103A90000E94E40B8D3409F4EAC060E070E0CE01CE
:103AA00046960E94E40B8D3609F4E1C083EA9FE05C
:103AB0000E94AC0867E879E0CE0101960E94A40A52
:103AC000BE016A5E7F4FCE0101960E948B0B69E9B1
:103AD00079E00E949E0BBC0183EA9FE00E94C0082F
:103AE000CE0101960E94370AB7C0029708F4A5C01C
:103AF0002EE030E040E050E0BE016A5E7F4FCE0134
:103B000001960E94E70BBE016F5F7F4FCE010F96BB
:103B10000E94BA0ACE0101960E94370ABE01615F77
:103B20007F4FCE0101960E94D10ABE016F5F7F4F89
:103B3000C8010E942C11F82ECE0101960E94370A6E
:103B4000FF2009F455C083EA9FE00E94AC0868E0BA
:103B50007CE0CE0108960E94A40ABE01685F7F4FF8
:103B6000CE0101960E94D10ABE01615F7F4FCE0156
:103B700001960E948B0B62E27CE00E949E0BBC01CE
:103B800083EA9FE00E947608CE0101960E94370AE0
:103B9000CE0108960E94370A68E27CE083EA9FE043
:103BA0000E94A108BE01615F7F4FCE0101960E9475
:103BB000D10ABE016F5F7F4FC8010E94AA1467E05F
:103BC0000E943B2B40E150E0682F83EA9FE00E9477
:103BD0002C09CE0101960E94370A83EA9FE00E94D9
:103BE000AC086CE979E083EA9FE00E94D20834C017
:103BF00069E27AE0CE0108960E94A40ABE01685FDD
:103C00007F4FCE0101960E94D10ABE016A5E7F4FAE
:103C1000CE0101960E948B0B69E979E00E949E0B10
:103C2000BC0183EA9FE00E94C008CE0101960E9479
:103C3000370ACE0108960E94370A60E971E080E0F9
:103C400090E00E949F0ECE010F960E94370ACE018F
:103C500046960E94370AEFCE83EA9FE00E94AC08A6
:103C600061ED7BE083EA9FE00E94D208E6CF6EEF31
:103C700076E083EA9FE00E94D208CE010F960E9470
:103C8000370ACE0146960E94370A6C96E5E00C94FE
:103C9000063AA5E1B0E0EFE4FEE10C94E7398C01CF
:103CA00083EA9FE00E94AC08E0901C12F0901D1285
:103CB00081E0E81AF1086FE27CE0CE0108960E94EC
:103CC000A40ABE01685F7F4FCE0101960E94D10A0F
:103CD000B701CE0101960E94C50B6CE47CE00E9406
:103CE0009E0BBC0183EA9FE00E94C008CE010196B2
:103CF0000E94370ACE0108960E94370A83EA9FE0A5
:103D00000E94F00318161906CCF763EA7FE0CE0193
:103D10000F960E943E348B899C89019749F060E0A0
:103D200070E0CE010F960E94E40B8D3691F408C02E
:103D300060E070E0CE010F960E94E40B8D3479F7BD
:103D40006EEF76E083EA9FE00E94D2080FEF1FEF4C
:103D500074C0BE01615F7F4FCE0101960E94D10AFF
:103D6000BE016F5F7F4FC8010E947211F82ECE0115
:103D700001960E94370AF11017C06EE67CE0CE0172
:103D800008960E94A40ABE01685F7F4FCE0101968B
:103D90000E94D10ABE01615F7F4FCE0101960E9451
:103DA0008B0B69E979E02DC0CE010F960E94240C9F
:103DB00097FD11C0CE010F960E94240C20911C1279
:103DC00030911D126901330FEE08FF086C157D0557
:103DD0008E059F0544F166E97AE0CE0108960E94BF
:103DE000A40ABE01685F7F4FCE0101960E94D10AEE
:103DF000BE01615F7F4FCE0101960E948B0B64EA8A
:103E00007AE00E949E0BBC0183EA9FE00E94C008FA
:103E1000CE0101960E94370ACE0108960E94370A09
:103E2000CE010F9669CFCE010F960E94240C8B0114
:103E300083E0000F111F8A95E1F7CE010F960E94D3
:103E4000370AC8016596E8E00C94033A8F929F9276
:103E5000BF92CF92DF92EF92FF920F931F93CF9377
:103E6000DF93CDB7DEB76E970FB6F894DEBF0FBE07
:103E7000CDBF7C01B62E83EA9FE00E94AC086FE7BD
:103E80007CE083EA9FE00E94D2086CE979E083EA53
:103E90009FE00E94D20819E0CE0101966C016DEA04
:103EA0007EE0CE0148960E94A40AF601212F1192CD
:103EB0002A95E9F783EA9FE00E94F0031816190695
:103EC00034F58E01065F1F4F63EA7FE0C8010E9450
:103ED0003E34B801CE0148960E94BA0AC8010E9439
:103EE000370A8C8D9D8D019749F060E070E0CE011E
:103EF00048960E94E40B8D3659F50EC060E070E0E4
:103F0000CE0148960E94E40B8D3479F705C0CE01AE
:103F100048960E94370AC3CF6EEF76E083EA9FE0AF
:103F20000E94D208CE0148960E94370A6E960FB6BC
:103F3000F894DEBF0FBECDBFDF91CF911F910F91DF
:103F4000FF90EF90DF90CF90BF909F908F9008955B
:103F5000BE01685E7F4FC8010E94D10AB801C70147
:103F60000E942C11982EC8010E94370A911003C09C
:103F70006EE97CE0D3CF8C8D9D8D0C97D1F563EDF0
:103F80007CE0CE0141960E94A40ABE01685E7F4F8C
:103F9000CE0141960E948B0BBC01C8010E94D10A40
:103FA000B801C7010E94AA14BC01C6010E94783A58
:103FB000C8010E94370ACE0141960E94370A83EA5F
:103FC0009FE00E94AC0866ED7CE083EA9FE00E94DF
:103FD000A10867E0C6010E943B2B888767EF79E064
:103FE00083EA9FE00E94A10883EA9FE00E94AC0858
:103FF00011C0BE01685E7F4FC8010E94D10AB8019E
:10400000C7010E94AA14BC01C6010E94783AC801E7
:104010000E94370ABB2099F0C7010E94421280918A
:104020001C1290911D12892B51F483EA9FE00E948B
:10403000AC0869EE7CE083EA9FE00E94D2088091A0
:104040001C1290911D121816190634F4BB2021F091
:10405000C7010E94491E03C0C7010E9495119A8B97
:10406000898B8F3FEFEF9E0709F45CCF20911C12E4
:1040700030911D12232B11F0B1100AC020E030E165
:10408000281B390B223031051CF462E27DE046CF5B
:1040900028E030E0A601BC0185E292E10E94802B7D
:1040A00089889A8885E1C82E87E0D82E89899A89DF
:1040B0009C01295F3F4F28153905F4F01B861A86AD
:1040C000B40185E292E10E94892C1F928F93DF92C6
:1040D000CF921F930F930E94CC3AB80183EA9FE0DE
:1040E0000E94A108FFEF8F1A9F0A0F900F900F9068
:1040F0000F900F900F90DACF20911C1230911D126B
:10410000232B11F0B1100DC008969A8B898BBE013C
:104110006F5E7F4F86E090E00E94310FC7010E94E2
:104120005A1283EA9FE00E94AC0862E37DE083EAD2
:104130009FE00E94D20860E971E080E090E00E9478
:104140009F0EF0CEAEE1B0E0E8EAF0E20C94E33985
:104150007C016B0183EA9FE00E94AC0863E47DE090
:1041600083EA9FE00E94D2085E0189E0A80EB11C9C
:1041700088E0F50111928A95E9F76CED75E080E031
:1041800090E00E949F0E8E010F5F1F4F88E0882EE7
:1041900083EA9FE00E94F003181619069CF583EA53
:1041A0009FE00E941C04982E8F7D8D3409F4C7C0B7
:1041B00067E879E0CE0141960E94A40ABE016F5ED5
:1041C0007F4FC8010E94D10A692DC8010E94B70B18
:1041D00069E979E00E949E0BBC0183EA9FE00E949E
:1041E000C008C8010E94370ACE0141960E94370AD2
:1041F00083EA9FE00E94AC086FE67DE083EA9FE0DF
:104200000E94D208F801882D11928A95E9F7B5012C
:1042100083E492E10E94BB2A81110BC083E492E106
:104220000E94792A68EC70E080E090E00E949F0E86
:104230007FC060EE79E0CE0148960E94A40ABE01DC
:10424000685E7F4FCE0141960E94D10AB601CE0131
:1042500041960E948B0B6DE87DE00E949E0BBC0195
:1042600083EA9FE00E94C008CE0141960E94370A6F
:10427000CE0148960E94370AB601CE0141960E94AF
:10428000D10ABE016F5E7F4FC7010E94AA14BC0114
:10429000C7010E944D10CE0141960E94370A68EC7A
:1042A00070E080E090E00E949F0EB80183E492E10C
:1042B0000E94BB2A811105C083E492E10E94792A01
:1042C000EECFB601CE0141960E94D10ABE016F5ECB
:1042D0007F4FC7010E94AA14A801BC01C7010E9418
:1042E0000E10882319F066EF79E002C06DEF79E0D7
:1042F00083EA9FE00E94A108CE0141960E94370AFE
:1043000083EA9FE00E94AC0883EA9FE00E94AC0829
:104310006CE979E083EA9FE00E94D20883EA9FE09B
:104320000E94AC0863E97DE083EA9FE00E94D20826
:104330006CED75E080E090E00E949F0E29CF6E96B4
:10434000ECE00C94FF39A6E2B0E0E9EAF1E20C946B
:10435000E0394C016CE979E083EA9FE00E94D208E1
:1043600083EA9FE00E94AC0866EB7DE083EA9FE071
:104370000E94D2088E010F5F1F4F88E0582E7E01E9
:1043800089E0E80EF11C95E1692E97E0792E6E0127
:10439000E5E2CE0ED11C6DEA7EE0CE014E960E9483
:1043A000A40A83EA9FE00E94F003181619066CF431
:1043B00063EA7FE0C8010E943E34B801CE014E9608
:1043C0000E94BA0AC8010E94370A8AA19BA10197DC
:1043D00099F560E070E0CE014E960E94E40B8D34BA
:1043E00009F4E9C060E070E0CE014E960E94E40B53
:1043F0008D3609F4E0C067E879E0C8010E94A40A9C
:10440000BE01625E7F4FC8010E948B0B69E979E0B3
:104410000E949E0BBC0183EA9FE00E94C008C80175
:104420000E94370A83EA9FE00E94AC0866EB7DE0B9
:1044300083EA9FE00E94D208F801852D11928A95A7
:10444000E9F76DEA7EE0CE0147960E94A40AB80122
:1044500083E492E10E94BB2A81110BC083E492E1C4
:104460000E94792A68EC70E080E090E00E949F0E44
:1044700093C067E0C8010E943B2B9885891751F0D3
:1044800083EA9FE00E94AC086FED7DE083EA9FE045
:104490000E94D20883EA9FE00E94AC0858011EA245
:1044A0001DA2F50181915F011F928F937F926F9200
:1044B000DF92CF920E94CC3ABE01695E7F4FCE015F
:1044C00040960E94D10AB601CE0140960E949E0BF2
:1044D000BC01C7010E94D10AB701CE0147960E94D4
:1044E000BA0AC7010E94370ACE0140960E94370AD5
:1044F0000F900F900F900F900F900F90AE14BF047D
:1045000071F661EF7DE0CE0140960E94A40ABE01E3
:10451000605F7F4FC7010E94D10ABE01695E7F4F75
:10452000C7010E948B0B6FE974E00E949E0BBC01D7
:1045300083EA9FE00E94C008C7010E94370ACE01AB
:1045400040960E94370A83E492E10E94B029BE019E
:10455000695E7F4FC7010E94D10AB701C4010E9462
:10456000A220C7010E94370A83EA9FE00E94AC089C
:1045700083EA9FE00E94AC086CE979E083EA9FE05F
:104580000E94D20883EA9FE00E94AC0866EB7DE0BF
:1045900083EA9FE00E94D208CE0147960E94370A24
:1045A00060E971E080E090E00E949F0ECE014E969F
:1045B0000E94370AF0CE6EEF76E083EA9FE00E9419
:1045C000D208CE014E960E94370AA696EFE00C94D0
:1045D000FC39CF92DF92FF920F931F93CF93DF931B
:1045E000CDB7DEB72E970FB6F894DEBF0FBECDBFA6
:1045F0006C010E94951197FD07968C0183E015953B
:1046000007958A95E1F766E07EE0CE0108960E9464
:10461000A40ABE01685F7F4FCE0101960E94D10AB5
:10462000B801CE0101960E94C50B65E17EE00E94B3
:104630009E0BBC0183EA9FE00E94C008CE01019658
:104640000E94370ACE0108960E94370A83EA9FE04B
:104650000E94F00318161906CCF783EA9FE00E9427
:104660001C04F82E982F9F7D993589F56BE27EE02A
:1046700083EA9FE00E94D20840E050E060E072E0F0
:10468000C6010E94AA1166E37EE0CE0108960E9450
:10469000A40ABE01685F7F4FCE0101960E94D10A35
:1046A000B801CE0101960E94C50B6DE37EE00E9429
:1046B0009E0BBC0183EA9FE00E94C008CE010196D8
:1046C0000E94370ACE0108960E94370A18C09D54EE
:1046D0009230A8F067E879E0CE0108960E94A40A1B
:1046E000BE01685F7F4FCE0101960E94D10A6F2DF7
:1046F000CE0101960E94B70B69E979E098CF2E961A
:104700000FB6F894DEBF0FBECDBFDF91CF911F91E2
:104710000F91FF90DF90CF900895AEE0B0E0E3E915
:10472000F3E20C94EC396CE979E083EA9FE00E94B3
:10473000D20883EA9FE00E94F003181619065CF580
:1047400083EA9FE00E941C04182F8F7D8D3441F175
:1047500067E879E0CE0108960E94A40ABE01685F6E
:104760007F4FCE0101960E94D10A612FCE010196A2
:104770000E94B70B69E979E00E949E0BBC0183EAB5
:104780009FE00E94C008CE0101960E94370ACE0128
:1047900008960E94370A86E592E10E94422EC9CF10
:1047A0002E96E3E00C94083AAFE0B0E0EAEDF3E2D5
:1047B0000C94DE396C01462E542E6CE979E083EAC4
:1047C0009FE00E94D2088E01075F1F4FCE01019625
:1047D0007C0188E0382E95E1692E97E0792E812CB6
:1047E00020E1922E83EA9FE00E94F003181619063A
:1047F0002CF583EA9FE00E941C04B82E8F7D8D3437
:1048000009F4EAC067E879E0C8010E94A40AB80187
:10481000C7010E94D10A6B2DC7010E94B70B69E93D
:1048200079E00E949E0BBC0183EA9FE00E94C008D1
:10483000C7010E94370AC8010E94370AF701232DD9
:1048400011922A95E9F7B70183E492E10E94BB2A0D
:1048500081110BC083E492E10E94792A68EC70E038
:1048600080E090E00E949F0EB0C067E0C7010E9408
:104870003B2B9885891751F083EA9FE00E94AC0892
:104880006FED7DE083EA9FE00E94D2084420A9F00A
:10489000552099F0C6010E94421280911C129091FD
:1048A0001D12892B51F483EA9FE00E94AC0869EE47
:1048B0007CE083EA9FE00E94D20883EA9FE00E94A6
:1048C000AC0857011A861986F50181915F011F9284
:1048D0008F937F926F921F930F930E94CC3AB801EF
:1048E00083EA9FE00E94A1080F900F900F900F9015
:1048F0000F900F90A016B10629F7442009F44DC07F
:1049000080911C1290911D121816190634F455202E
:1049100021F0C6010E94491E03C0C6010E949511E4
:104920009A8789878F3FFFEF9F0709F455C0209131
:104930001C1230911D12232B11F051100DC0940147
:10494000281B390B223031053CF462E27DE083EA1A
:104950009FE00E94D20839C028E030E0A701BC01E6
:1049600085E292E10E94802B80911C1290911D1291
:10497000892B11F0511011C089859A8508969A8764
:104980008987B80186E090E00E94310F86E592E1C8
:104990000E942D2EC6010E945A1283E492E10E94C9
:1049A000B029552009F44ACF83EA9FE00E94AC0861
:1049B00062E37DE083EA9FE00E94D20860E971E053
:1049C00080E090E00E949F0E07C060E971E080E007
:1049D00090E00E949F0E06CF2F96E1E10C94FA39E9
:1049E000AEE0B0E0E6EFF4E20C94EB3969E57EE08E
:1049F00083EA9FE00E94D20883EA9FE00E94F003CE
:104A000018161906CCF783EA9FE00E941C04182FA1
:104A10008F7D893599F56FE77EE083EA9FE00E94FC
:104A2000D20800E010E04FEFB80185E292E10E9469
:104A3000142CC8018F779927892B31F46FE174E02A
:104A400083EA9FE00E94A1080F5F1F4F011580E1DC
:104A5000180749F783EA9FE00E94AC081A8219827E
:104A6000BE016F5F7F4F86E090E00E94310F6EE8DD
:104A70007EE083EA9FE00E94D20827C08D548230F6
:104A800020F167E879E0CE0108960E94A40ABE01F1
:104A9000685F7F4FCE0101960E94D10A612FCE013F
:104AA00001960E94B70B69E979E00E949E0BBC0158
:104AB00083EA9FE00E94C008CE0101960E94370A57
:104AC000CE0108960E94370A97CF2E96E4E00C9408
:104AD000073A1F93CF93DF93162FD42FC22F66E38D
:104AE00070E080E692E10E94E131612F80E692E180
:104AF0000E9477316D2F80E692E10E9477316C2F12
:104B000080E692E10E94773180E692E10E94F731DF
:104B1000DF91CF911F91089524E540E06EEF0E9450
:104B20006925089520E040E466E00E946925089523
:104B3000FF920F931F93CF93DF93F62E8A01E90123
:104B400066E370E080E692E10E94E1316F2D80E63D
:104B500092E10E94773180E692E10E94F73142E0D3
:104B600050E066E370E080E692E10E94D33180E697
:104B700092E10E942C31F801808380E692E10E944C
:104B80002C318883CDB7DEB7E5E00C94063AA2E07D
:104B9000B0E0EDECF5E20C94E5391A8219829E0141
:104BA0002F5F3F4FAE014E5F5F4F62E00E9498253E
:104BB0006A8180E1689F900111248981682F70E0EB
:104BC00084E0759567958A95E1F7622B732B072E24
:104BD000000C880B990B1F921F9223EC2F9320E55A
:104BE0002F93A12CB12C6501EE24EA941FE0F12E45
:104BF00000E010E020E030E0A9010E9452380E945D
:104C0000FD2F20E030E44CE156E40E94532F0F903A
:104C10000F900F900F902296EAE00C94013ACF92F9
:104C2000DF92EF92FF92CF93DF931F921F92CDB747
:104C3000DEB71A8219829E012F5F3F4FAE014E5F91
:104C40005F4F64E00E949825698170E080E090E009
:104C50000E94FD2F20E030E040E85BE30E94B2308C
:104C60006B017C016A8170E080E090E00E94FD2F82
:104C70009B01AC01C701B6010E94E22E0F900F907C
:104C8000DF91CF91FF90EF90DF90CF900895CF9379
:104C9000DF93EC01862F60935F1260E00E94E5389D
:104CA00080915F1290E0FC01E958FC4FE491E883A9
:104CB000FC01E354FC4FE491F0E0EE0FFF1FED5FC9
:104CC000FB4F859194919A838983DF91CF910895C9
:104CD000A0E0B0E0EEE6F6E20C94E639EC017B01F0
:104CE000B88009811A811A8EF894F80181819B2D70
:104CF0009095892381837894672B49F10E947A0EDD
:104D000048EE53E0E49E9001E59E300DF49E300D98
:104D100011246B017C01C20ED31EE11CF11CF801B1
:104D200080818B2159F40E947A0E6B017C01FCE199
:104D3000CF0EF2E0DF1EE11CF11C0EC00E947A0EC5
:104D4000C616D706E806F90650F783E011C0F80149
:104D500080818B21E1F7E7CFF80180818B2159F425
:104D60000E947A0EC616D706E806F906A8F784E070
:104D70008A8F80E013C00E947A0EC61AD70AE80A0A
:104D8000F90AF7E4CF16D104E104F10410F085E04C
:104D9000EFCF8EE190E00E94C50E81E0CDB7DEB787
:104DA000E9E00C94023AFF920F931F93CF93DF93A5
:104DB000FC01F62E1081C181D281128EF8948A8175
:104DC000012F009580238A838981812B89837894A0
:104DD0008DE790E00E94C50EF8948981082309832D
:104DE00078948CE291E08F1991090E94C50E888118
:104DF0008123E9F309E188810150812339F401110C
:104E0000FACF82E090E00E94C50EF5CFCDB7DEB7B5
:104E1000E5E00C94063A69E10E94D3260895DC018E
:104E20003C911196ED91FC91129780EC90E02081DD
:104E3000232321F40197D9F78AE008958081832301
:104E4000E9F781E00895FF920F931F93CF93DF93CB
:104E5000EC01F88009811A81F894F80181819F2D75
:104E6000909589238183CE010E940F27813049F0DC
:104E70008A3011F487E001C088E08A8F789480E05E
:104E80000BC08EE190E00E94C50EF80190819F2139
:104E900081E009F480E07894CDB7DEB7E5E00C94CA
:104EA000063AEF92FF920F931F93CF93DF937C010B
:104EB000FC01128E08E010E0D1E0C0E0F701828D25
:104EC000811109C0C7010E9423278111CD2BDD0F5D
:104ED0000150110999F78C2FCDB7DEB7E6E00C949D
:104EE000053AA0E0B0E0E7E7F7E20C94E6396C01A0
:104EF0008B01C0E0D0E0E42EF12CBC2ECE15DF05F6
:104F000064F4C6010E945127F80181938F01F601D4
:104F1000828D811102C02196F0CF8B2DCDB7DEB7E7
:104F2000E9E00C94023ADF92EF92FF920F931F9305
:104F3000CF93DF938C01D62EFC01E080C181D2811A
:104F4000F8948981FE2CF0948F218983C8010E94F6
:104F50000F27813041F08A3011F487E001C088E0EA
:104F6000F801828F16C0D0FE05C08EE190E00E944D
:104F7000C50E0FC0F8948A81F822FA8289818E29A1
:104F800089838EE190E00E94C50E8A818E298A83F2
:104F900078947894CDB7DEB7E7E00C94043AEF92BA
:104FA000FF920F931F93CF93DF937C01062FFC0199
:104FB000128EC8E0D0E011E0F701828D81110BC0A4
:104FC00061E0802F812309F460E0C7010E949327EC
:104FD000110F219789F7CDB7DEB7E6E00C94053ABB
:104FE000A0E0B0E0E6EFF7E20C94E6396C018B014B
:104FF000C0E0D0E0E42EF12CBC2ECE15DF0564F429
:10500000F80161918F01C6010E94CF27F601828DC0
:10501000811102C02196F0CF8B2DCDB7DEB7E9E02C
:105020000C94023AA0E0B0E0E8E1F8E20C94E33935
:10503000EC018C014C0188E0880E911C88E0C82EA0
:10504000D12CBB24B394F801E4800E2C000CFF0893
:105050008B2D90E0E822F922AA24A394E114F10414
:1050600009F4A12C6A2DCE010E94932761E0E1147E
:10507000F10409F060E0CE010E949327CE010E9466
:1050800023279A8D91110EC0A8120CC0BB0CF1E021
:10509000CF1AD108C1F60F5F1F4F8016910671F627
:1050A00081E001C080E0CDB7DEB7ECE00C94FF39C1
:1050B000FB0180E06CE8415088F0519198E0782F36
:1050C0007527282F30E035952795822F70FF02C075
:1050D000862F82275695915091F7EDCF0895CF9363
:1050E000DF93EC01DB01FC0134960B96BF012D919F
:1050F0002193E817F907D9F747E0CE010E94582815
:105100008B87DF91CF910895CF93DF93EC01FB0163
:1051100080818E8781818F878281888BBE01645FC9
:105120007F4F48E0CE010E9458288C8BDF91CF91B1
:1051300008950F931F93CF93DF93EC010E945127A3
:105140008E3441F148F48434D1F0883491F5E09103
:105150005B12F0915C121CC0883BB1F08E3B39F0C1
:10516000843B39F56B81CE010E9493271FC0BE019D
:10517000645F7F4F49E0CE010E94F02717C0E091A5
:105180005D12F0915E1204C0E0915912F0915A1232
:1051900019950CC08E010B5E1F4F43E0B801CE0184
:1051A0000E947127B801CE010E9484288A8D811146
:1051B00001C001C080E0DF91CF911F910F91089550
:1051C000A8E0B0E0E6EEF8E20C94E9398C017C014D
:1051D00084E0E80EF11CC8010E9451278C3C09F4C0
:1051E00051C028F4833369F1853589F154C08C3E70
:1051F00019F0803F09F14FC0F8018585082E000C99
:10520000990B982F88272485022E000C330B822BB4
:10521000932B34E0959587953A95E1F72785022EF3
:10522000000C330B2817390738F42685022E000CA2
:10523000330B8217930718F0C8010E94122880E0F0
:1052400030C048E0B701C8010E94F02724C048E000
:10525000BE016F5F7F4FC8010E947127F801828DE8
:105260008111EDCFD8011496FE013196C8010C963C
:105270003D9121913213E3CFA817B907C9F7C801AF
:105280000E949928C8010E94992881E0F801928D16
:10529000992339F0D4CFF801828D882309F49BCF6C
:1052A000CECF2896E6E00C94053AAEE0B0E0EBE510
:1052B000F9E20C94E9398C01E62EFC01128E83EAA6
:1052C0009FE00E94F003181619066CF583EA9FE030
:1052D0000E941C04F82E8F7D8D3411F481E03CC0B7
:1052E00067E879E0CE0108960E94A40ABE01685FD3
:1052F0007F4FCE0101960E94D10A6F2DCE010196FB
:105300000E94B70B69E979E00E949E0BBC0183EA19
:105310009FE00E94C008CE0101960E94370ACE018C
:1053200008960E94370A60E070E0C8010E94682673
:10533000882329F2C8010E940B27882309F4BFCFD4
:10534000C8010E94E0288111C9CFF801928D9923EC
:1053500009F4B5CFE110B3CF2E96E6E00C94053AF0
:105360000F931F93CF938C0160E0FC0182850E9414
:10537000E538CEE7C15069F182E090E00E94C50EA9
:10538000F80182850E945039892BA1F360E0F80171
:1053900082850E94213961E0F80182850E94E5380A
:1053A00084EF91E00E94C50E60E0F80182850E94C2
:1053B000E53881E490E00E94C50EF80182850E94E4
:1053C0005039C1E0892B09F0C0E08AEE91E00E94DB
:1053D000C50E8C2FCF911F910F9108950F931F939E
:1053E000CF93DF93EC01E989FA8990818C85892B31
:1053F0008083ED85FE8590818C85809589238083CF
:10540000062F017010E0F801E056F14F808190E026
:105410000E94C50EED85FE8590818C85892B808349
:10542000F801E256F14F808190E00E94C50EDF91B5
:10543000CF911F910F910895CF93DF93EC01E989EC
:10544000FA8990818C85892B8083ED85FE859081FA
:105450008C8580958923808381E090E00E94C50E31
:10546000E989FA8990818C8580958923808385E0FC
:1054700090E00E94C50EEF85F88990818C85892384
:10548000C1E009F4C0E082E390E00E94C50E8C2FD9
:10549000DF91CF910895DF92EF92FF920F931F93C8
:1054A000CF93DF93EC01D62EE42E08E010E0FF242A
:1054B000F39461E08D2D8F2109F460E0CE010E940C
:1054C000EE29FF0C01501109A1F7E11008C060E0BE
:1054D0008A850E94E53860E08A850E942139CDB72F
:1054E000DEB7E7E00C94043A40E06CEC0E944B2AF3
:1054F0000895FC018FEF808711861782168215822E
:10550000148213821282118210820895DC011A968D
:105510006C931A9770E0FB01E354FC4F24911B96A7
:105520002C931B97FB01E958FC4F64911C966C93DC
:105530001C9730E0220F331FF901E35EFB4F85918A
:1055400094911E969C938E931D97F901ED5FFB4FEE
:105550008591949150969C938E931F97F901E95CE5
:10556000FB4F8591949152969C938E935197CD01C8
:105570000E94792A0895A0E0B0E0E1ECFAE20C94F0
:10558000E439FC012185222311F080E06FC06B011A
:10559000EC010E94B0298823C1F340E060EFCE0106
:1055A0000E944B2A00E010E0BB24B39499249A9403
:1055B000EE24E394F12CCE010E941C2AA82ECE01E9
:1055C0000E941C2A402F469546954695902F97702D
:1055D000970101C0220F9A95EAF7AA2019F08823B3
:1055E00011F1D3CFE42FF0E0811123C08885082E7C
:1055F000000C990B0817190711F498860EC00817AC
:1056000019073CF4DE01AE0FBF1F8C91822329F4F1
:1056100002C0088780E0B12C01C081E0902E882371
:1056200041F0AA24A394FE01E40FF11D8081282BF0
:1056300005C0EC0FFD1F20958081282320836A2D53
:10564000CE010E94EE290F5F1F4F0034110509F0B3
:10565000B2CFBB2011F081E08987F601CE01089618
:10566000299121938C179D07D9F781E0CDB7DEB73B
:10567000EBE00C94003A582FFC0180E07CE89E2F70
:10568000951B961788F4419198E0A82FA427282FFE
:1056900030E035952795822FA0FF02C0872F822703
:1056A0004695915091F7EBCF0895FC0162830895E0
:1056B000CF93DF93EC01CB01798368830E94B731EC
:1056C0006A81888199810E94D73188819981DC0122
:1056D000ED91FC910190F081E02D60E019958881B9
:1056E0009981DC01ED91FC910190F081E02D60E069
:1056F0001995888199810E94F731DF91CF910895A2
:10570000A0E0B0E0E6E8FBE20C94E3398C016B0129
:105710005A017901CB01820F931F8130904108F02B
:105720007BC090E2892EE114F10409F477C09C2C2F
:105730008C2D8F71C82DC81BD0E0EC16FD0608F427
:10574000E701D80112966C9112978D919C910E945D
:10575000D731F80180819181DC01ED91FC910190BC
:10576000F081E02D6D2D1995F80180819181DC018A
:10577000ED91FC910190F081E02D692D1995F801D2
:1057800080819181CF3108F0CEE1D0E0DC01ED9154
:10579000FC910280F381E02DAE01B5011995F8016D
:1057A000808191810E94F731811139C084E6982E61
:1057B00084EF91E00E94C50ED80112966C91129769
:1057C0008D919C910E94D731F80180819181DC01FB
:1057D000ED91FC910190F081E02D60E01995F801C8
:1057E00080819181DC01ED91FC910190F081E02DAF
:1057F00060E01995F801808191810E94F73188233A
:1058000021F09A949110D4CF0AC0CC0EDD1EAC0EBC
:10581000BD1EEC1AFD0A87CF89E001C080E0CDB73C
:10582000DEB7ECE00C94FF39A1E0B0E0EAE1FCE285
:105830000C94ED39498321E030E0AE014F5F5F4FBA
:105840000E94802B2196E2E00C94093AA0E0B0E09F
:10585000ECE2FCE20C94E139EC015B016A018901A4
:10586000CB01820F931F8130904108F04AC001158F
:10587000110509F448C078010132110518F080E2E1
:10588000E82EF12C7E2C6A81888199810E94D73183
:1058900088819981DC01ED91FC910190F081E02DEE
:1058A0006B2D199588819981DC01ED91FC91019016
:1058B000F081E02D6A2D1995888199810E94F73138
:1058C000811122C04E2D6A81888199810E94CF3139
:1058D0006C2C460188819981DC01ED91FC91068058
:1058E000F781E02D1995F40181934F018E2F8619D0
:1058F000871580F3AE0CBF1CCE0CDF1C0E191F09E0
:10590000B6CF89E001C080E0CDB7DEB7EEE00C9401
:10591000FD39A1E0B0E0EFE8FCE20C94ED3921E0C4
:1059200030E0AE014F5F5F4F0E94262C811101C015
:1059300089812196E2E00C94093A61E082E00E94BC
:10594000E53861E085E00E94E5380895CF93DF9364
:10595000EB0140E056E960E070E083EA9FE00E94DE
:10596000900662EA7EE083EA9FE00E94A108BE0101
:1059700083EA9FE00E9476086BEA7EE083EA9FE07C
:105980000E94A10864E670E080E090E00E949F0E13
:105990006EEA7EE083EA9FE00E94A1086BEA7EE067
:1059A00083EA9FE00E94A10864E670E080E090E056
:1059B0000E949F0E68EC70E080E090E00E949F0ED5
:1059C00083EA9FE00E941407DF91CF91089540E0A1
:1059D00056E960E070E083EA9FE00E94900667EB82
:1059E0007EE083EA9FE00E94A1086BEA7EE083EA02
:1059F0009FE00E94A10864E670E080E090E00E94D1
:105A00009F0E6AEC7EE083EA9FE00E94A1086BEAA9
:105A10007EE083EA9FE00E94A10864E670E080E0F7
:105A200090E00E949F0E68EC70E080E090E00E94A1
:105A30009F0E83EA9FE00E941407089560E085E0CE
:105A40000E942139089561E085E00E94213908957E
:105A500061E082E00E942139089560E082E00E94C6
:105A600021390895CF93DF93EC010E942D2D64E638
:105A700070E080E090E00E949F0ECE010E94232DF6
:105A80006AE070E080E090E00E949F0ECE010E94EC
:105A9000282D68EB7BE080E090E00E949F0EDF9174
:105AA000CF910895CF93DF93EC010E942D2D64E6F2
:105AB00070E080E090E00E949F0ECE010E941E2DBB
:105AC0006AE070E080E090E00E949F0ECE010E94AC
:105AD000282D6CE271E080E090E00E949F0EDF9143
