:100000000C941E020C944F020C944F020C944F025D
:100010000C944F020C944F020C944F020C944F021C
:100020000C944F020C944F020C944F020C944F020C
:100030000C944F020C940F370C944F020C944F0207
:100040000C944F020C944F020C944F020C944F02EC
:100050000C944F020C944F020C944F020C94060E19
:100060000C944F020C9486040C9476050C944F0269
:100070000C944F020C944F020C944F020C944F02BC
:100080000C944F020C944F020C944F020C944F02AC
:100090000C94BA040C94B5050C944F020C94FA31EC
:1000A0000C944F020C944F020C944F020C944F028C
:1000B0000C944F020C944F020C944F020C944F027C
:1000C0000C944F020C944F020C944F020C94EE04CB
:1000D0000C94F4050C944F020C9422050C943306F6
:1000E0000C944F029202A102AE02BF02CB02DA02CE
:1000F000E902F802040314039203920392039203A9
:1001000092038D02920323033203410350035F03E2
:100110006E037D038D0292039203920392038D027C
:100120009203920392039203920392039203920327
:100130009203920392039203920392039203920317
:1001400092039203920323033203410350035F039C
:100150006E037D038D0292039203920392038D023C
:10016000C737CA37BD37C1370138CE37D237D8374E
:10017000DC37E037E637EA37EE370138F437F8375F
:10018000FC370C94C1370C9420230C94B9100C94B8
:1001900018310C9466110C9423030C94052D0C94C7
:1001A0006D300C9437170C94D8370C9473300C9432
:1001B000BF020C94530B0C944E070C9449300C94D2
:1001C00014030C94F4370C94AE020C9455050C9463
:1001D000D4120C948D020C94E8280C94CA370C9419
:1001E0004E2A0C945B090C947B330C9464020C949F
:1001F0009A300C946E030C942B120C94DC100C941B
:10020000CB020C9435200C94E0370C945F030C94D3
:100210001E040C94F40A0C94A5270C9483270C94C8
:10022000BD370C9494300C9401380C94CF0B0C9483
:100230001C090C94FB250C9483240C94460D0C94FF
:1002400092020C94400B0C9404270C94A72B0C9452
:100250005A250C94FC370C94E2030C9469120C940C
:100260005D300C94F8370C94DC370C9420080C9417
:10027000B92B0C946F020C94DA020C94EA370C94AC
:1002800073280C947C1A0C94E9020C9404030C94CB
:1002900008150C9467230C94971C0C9470190C94FB
:1002A000E6370C94A1020C947D030C94D2030C94B9
:1002B000D2370C9406160C94EA140C947B110C940F
:1002C0001C2C0C9426080C94DB0A0C9492030C94BE
:1002D00041300C94DC1D0C9450030C94F8020C94E7
:1002E000CE370C946C300C9429040C9436210C9469
:1002F000EE370C9441030C9432030C94FE030C94DF
:10030000C7370C945E080C943D140C94CC080C94E4
:10031000132B020000090A02080B0C0D0706030448
:1003200001000000000000000000000000000000CC
:1003300000000000000000000000000000000011AC
:10034000100F00000000000000000000000000008E
:10035000000000000000000000010210202008083A
:100360001020401020408002010201080402010117
:100370000204081020408080402010080402018000
:100380000402018040201008040201080402010157
:10039000020408102040800102040810204080055B
:1003A000050505070508080808020202020A0A08EE
:1003B0000804040404010101010101010103030314
:1003C0000303030303040707070C0C0C0C0C0C0CB1
:1003D0000C0202020206060606060606060B0B0BB8
:1003E0000B0B0B0B0B000020002300260029002C18
:1003F000002F003200000100000301060109010086
:10040000002200250028002B002E003100340002BD
:10041000010000050108010B010000210024002754
:10042000002A002D00300033000101000004010704
:10043000010A010064024E07EA14183111241FBE9C
:10044000CFEFD1E2DEBFCDBF00E00CBF1EE0A0E0E9
:10045000B2E0E6EEF9E700E00BBF02C007900D92B4
:10046000A63CB107D9F722E1A6ECBEE001C01D927F
:10047000AF3AB207E1F712E0CEE1D2E000E006C009
:1004800021970109802FFE010E94E738CA31D10768
:1004900080E00807A9F70E94120C0C94F13C0C9420
:1004A000000081EC91E10E94D43086EC9EE00E9435
:1004B000B71268EE73E080E090E00E94810E86EC57
:1004C0009EE00E94530F089586EC9EE00E94520F1A
:1004D0000895A5E1B0E0EFE6F2E00C9409398DE271
:1004E0009FE00E94D203181619060CF057C18DE246
:1004F0009FE00E94FE03182F082E000C990BAA0BF8
:10050000BB0BFC01F097EE33F10508F00BC1882717
:10051000EE58FF4F8F4F0C94E73886EC9EE00E9418
:10052000530F32C18DE29FE00E948E0867E072E0B7
:100530008DE29FE00E94B40886EC9EE00E94CE12FD
:1005400023C18DE29FE00E948E0866E172E08DE299
:100550009FE00E94B40840E060E00CC08DE29FE0A4
:100560000E948E0864E272E08DE29FE00E94B4086F
:1005700040E061E086EC9EE00E94612305C18DE2CF
:100580009FE00E948E0864E472E08DE29FE00E948A
:10059000B40841E0EECF8DE29FE00E948E0867E64E
:1005A00072E08DE29FE00E94B40886EC9EE00E941B
:1005B0007622EAC08DE29FE00E948E086EE772E02C
:1005C0008DE29FE00E94B40886EC9EE00E946A19CA
:1005D000DBC08DE29FE00E948E086DE972E08DE243
:1005E0009FE00E94B40886EC9EE00E94761ACCC080
:1005F0008DE29FE00E948E086CEB72E08DE29FE03E
:100600000E94B40860E00BC08DE29FE00E948E085B
:100610006DED72E08DE29FE00E94B40861E086EC2F
:100620009EE00E94B31EB0C08DE29FE00E948E0843
:1006300061E073E08DE29FE00E94B40886EC9EE0EA
:100640000E940215A1C08DE29FE00E948E0866E123
:1006500073E08DE29FE00E94B40886EC9EE00E9469
:100660001A2392C08DE29FE00E948E0864E273E03C
:100670008DE29FE00E94B40886EC9EE00E947D24FB
:1006800083C08DE29FE00E948E0862E373E08DE2FA
:100690009FE00E94B40886EC9EE00E94911C74C00A
:1006A0008DE29FE00E948E0869E473E08DE29FE096
:1006B0000E94B40886EC9EE00E94001665C08DE2A0
:1006C0009FE00E948E0866E673E08DE29FE00E9444
:1006D000B40886EC9EE00E94311756C08DE29FE080
:1006E0000E948E0863E873E08DE29FE00E94B408E8
:1006F00086EC9EE00E94302147C08DE29FE00E9480
:100700008E0867E476E08DE29FE00E94B40862E91B
:1007100073E08DE29FE00E94B40886EC9EE00E94A8
:10072000FF0F32C08DE29FE00E948E08612FCE0144
:1007300008960E94D50A61EB73E0CE010F960E94E5
:10074000860ABE01615F7F4FCE0101960E94B30A07
:10075000BE01685F7F4FCE0101960E946D0B64EC75
:1007600073E00E94800BBC018DE29FE00E94A20812
:10077000CE0101960E94190ACE010F960E94190A15
:10078000CE0108960E94190A68EE73E080E090E0BE
:100790000E94810E86EC9EE00E94530F6596E3E076
:1007A0000C942539FC0124853585F901E05CFF4F67
:1007B00080819181329620813181821B930B8F73CE
:1007C00099270895DC011C96ED91FC911D97DF019E
:1007D000A05CBF4F2D913C91119712968D919C91E9
:1007E00011972817390739F08D919C91E80FF91F5F
:1007F000808190E008958FEF9FEF0895FC01A4851C
:10080000B585FD01E05CFF4F20813181329680810A
:1008100091812817390779F080819181A80FB91F3C
:100820008C91208131812F5F3F4F2F73332731838C
:10083000208390E008958FEF9FEF0895FC0181A140
:10084000882329F0A489B5898C9186FFFBCF11A25A
:1008500008950F931F93CF93DF93FC01A685B7856F
:100860008D01005C1F4FE8018881998101968F738B
:100870009927AD014E5B5F4FEA0128813981281726
:100880003907D1F3E80128813981A20FB31F6C9396
:10089000A685B785A05CBF4F11969C938E93A689C1
:1008A000B7892C9181E090E0078C02C0880F991FD6
:1008B0000A94E2F7822B8C9381E081A30488F58966
:1008C000E02D80818064808381E090E0DF91CF9192
:1008D0001F910F910895FB01E05CFF4F2081318152
:1008E000DB01AE5BBF4F4D915C912F5F3F4F2F738C
:1008F00033274217530741F040815181DB01A40F98
:10090000B51F8C9331832083089508951F920F9211
:100910000FB60F9211240BB60F922F933F934F9364
:100920005F936F937F938F939F93AF93BF93EF9357
:10093000FF938091C00082FD07C08091C6006BE2EA
:1009400071E10E946B0402C08091C600FF91EF919B
:10095000BF91AF919F918F917F916F915F914F91D7
:100960003F912F910F900BBE0F900FBE0F901F90D5
:10097000189508951F920F920FB60F9211240BB67F
:100980000F922F933F934F935F936F937F938F9328
:100990009F93AF93BF93EF93FF938091C80082FD25
:1009A00007C08091CE0063EA70E10E946B0402C030
:1009B0008091CE00FF91EF91BF91AF919F918F9168
:1009C0007F916F915F914F913F912F910F900BBE4F
:1009D0000F900FBE0F901F90189508951F920F92C1
:1009E0000FB60F9211240BB60F922F933F934F9394
:1009F0005F936F937F938F939F93AF93BF93EF9387
:100A0000FF938091D00082FD07C08091D6006BE1FA
:100A100070E10E946B0402C08091D600FF91EF91BB
:100A2000BF91AF919F918F917F916F915F914F9106
:100A30003F912F910F900BBE0F900FBE0F901F9004
:100A4000189508951F920F920FB60F9211240BB6AE
:100A50000F922F933F934F935F936F937F938F9357
:100A60009F93AF93BF93EF93FF938091300182FDEB
:100A700007C08091360163E97FE00E946B0402C0E9
:100A800080913601FF91EF91BF91AF919F918F912E
:100A90007F916F915F914F913F912F910F900BBE7E
:100AA0000F900FBE0F901F9018958DE29FE00E944F
:100AB000D203892B11F00E9485048BE09FE00E94F5
:100AC000D203892B11F00E94B90489EE9EE00E94A6
:100AD000D203892B11F00E94ED0487EC9EE00E9466
:100AE000D203892B11F00E94210508951F920F92C5
:100AF0000FB60F9211240BB60F922F933F938F9343
:100B00009F93EF93FF9320912711309128118091AB
:100B1000291190912A112817390731F48091C100C9
:100B20008F7D8093C10014C0E0912911F0912A11AA
:100B3000E951FF4E20818091291190912A1101964F
:100B40008F73992790932A11809329112093C600BF
:100B5000FF91EF919F918F913F912F910F900BBE3D
:100B60000F900FBE0F901F9018951F920F920FB607
:100B70000F9211240BB60F922F933F938F939F9355
:100B8000EF93FF9320919F103091A0108091A110BE
:100B90009091A2102817390731F48091C9008F7DF8
:100BA0008093C90014C0E091A110F091A210E15A05
:100BB000FF4E20818091A1109091A21001968F7319
:100BC00099279093A2108093A1102093CE00FF91BB
:100BD000EF919F918F913F912F910F900BBE0F90AE
:100BE0000FBE0F901F9018951F920F920FB60F9285
:100BF00011240BB60F922F933F938F939F93EF93F4
:100C0000FF93209117103091181080911910909136
:100C10001A102817390731F48091D1008F7D809305
:100C2000D10014C0E0911910F0911A10E952F04F60
:100C300020818091191090911A1001968F73992735
:100C400090931A10809319102093D600FF91EF9182
:100C50009F918F913F912F910F900BBE0F900FBEE0
:100C60000F901F9018951F920F920FB60F9211249C
:100C70000BB60F922F933F938F939F93EF93FF9316
:100C800020918F0F3091900F8091910F9091920F42
:100C90002817390731F4809131018F7D809331011C
:100CA00014C0E091910FF091920FE15BF04F208121
:100CB0008091910F9091920F01968F739927909345
:100CC000920F8093910F20933601FF91EF919F91A6
:100CD0008F913F912F910F900BBE0F900FBE0F90F1
:100CE0001F901895CF92DF92EF92FF92CF93DF93F0
:100CF000EC016A017B014115514E6105710509F155
:100D0000EC89FD8981E090E008A002C0880F991F5E
:100D10000A94E2F7808360E079E08DE390E0A70138
:100D200096010E94A638DA01C9010197A109B1090B
:100D3000B695A795979587959C01211580E1380771
:100D4000A8F0EC89FD89108260E874E88EE190E0FB
:100D5000A70196010E94A638DA01C9010197A109ED
:100D6000B109B695A795979587959C01E889F9896A
:100D70003083EA89FB89208319A2EE89FF894081AB
:100D800081E090E09C010C8C02C0220F331F0A947A
:100D9000E2F7242B2083EE89FF8940819C010D8C92
:100DA00002C0220F331F0A94E2F7242B2083EE891E
:100DB000FF8940819C010E8C02C0220F331F0A94D0
:100DC000E2F7242B2083EE89FF8920810F8C02C05B
:100DD000880F991F0A94E2F7809582238083DF9120
:100DE000CF91FF90EF90DF90CF900895CF93DF9356
:100DF000FC0186859785DC01A05CBF4FEC01CE5BD2
:100E0000DF4F4D915C91119728813981421753072B
:100E1000C1F7A689B7893C9181E090E0AC01048CD0
:100E200002C0440F551F0A94E2F7242F2095232374
:100E30002C93A689B7893C91AC01058C02C0440F64
:100E4000551F0A94E2F7242F209523232C93A6897B
:100E5000B7893C91AC01068C02C0440F551F0A941F
:100E6000E2F7242F209523232C93A689B7892C9170
:100E7000078C02C0880F991F0A94E2F7809582239D
:100E80008C9384859585FC01EE5BFF4F2081318139
:100E9000329731832083DF91CF910895CF92DF92F3
:100EA000EF92FF92EDE2FFE01382128288EEC82EED
:100EB00083E0D82EE12CF12CC482D582E682F78221
:100EC0006BEC73E0718360838BE291E1958784879B
:100ED00087EE90E19787868785EC90E0918B808BF9
:100EE00084EC90E0938B828B80EC90E0958B848BEC
:100EF00081EC90E0978B868B82EC90E0918F808FD5
:100F000086EC90E0938F828F44E0448F33E0358FFE
:100F100027E0268F95E0978F81E080A3EBE0FFE04C
:100F200013821282C482D582E682F7827183608343
:100F3000A3EAB0E1B587A487AFE5B0E1B787A6879C
:100F4000ADECB0E0B18BA08BACECB0E0B38BA28B7E
:100F5000A8ECB0E0B58BA48BA9ECB0E0B78BA68B66
:100F6000AAECB0E0B18FA08FAEECB0E0B38FA28F4F
:100F7000448F358F268F978F80A3E9EEFEE0138292
:100F80001282C482D582E682F78271836083ABE1EC
:100F9000B0E1B587A487A7EDBFE0B787A687A5ED29
:100FA000B0E0B18BA08BA4EDB0E0B38BA28BA0ED31
:100FB000B0E0B58BA48BA1EDB0E0B78BA68BA2ED12
:100FC000B0E0B18FA08FA6EDB0E0B38FA28F448FB9
:100FD000358F268F978F80A3E7ECFEE01382128275
:100FE000C482D582E682F7827183608363E97FE001
:100FF000758764876FE47FE07787668765E371E0D4
:10100000718B608B64E371E0738B628B60E371E0E2
:10101000758B648B61E371E0778B668B62E371E0C3
:10102000718F608F66E371E0738F628F448F358FAD
:10103000268F978F80A3FF90EF90DF90CF90089539
:10104000A0E0B0E0E6E2F8E00C9404396C01EB01BA
:101050007B01E40EF51E00E010E0CE15DF0561F027
:101060006991D601ED91FC910190F081E02DC601CE
:101070001995080F191FF1CFC801CDB7DEB7E8E009
:101080000C9420396115710581F0FB01019000205D
:10109000E9F73197AF01461B570BDC01ED91FC914D
:1010A0000280F381E02D1995089580E090E0089585
:1010B000A0E0B0E0EEE5F8E00C9402397C016B01B1
:1010C000C0E0D0E000E010E0D60114968D919C9134
:1010D0001597C817D90788F4D701ED91FC91A08026
:1010E000B180BE01C6010E94B50B682FC701F50192
:1010F0001995080F191F2196E7CFC801CDB7DEB7A4
:10110000EAE00C941E390E9442080895DC01ED913A
:10111000FC910190F081E02D199508950F931F9394
:10112000CF93DF93EC016DE00E9486088C016AE0AA
:10113000CE010E948608800F911FDF91CF911F91F1
:101140000F9108950F931F93CF93DF93EC010E94AB
:1011500058088C01CE010E948E08800F911FDF91EC
:10116000CF911F910F9108950F931F93CF93DF930A
:10117000EC010E9442088C01CE010E948E08800F73
:10118000911FDF91CF911F910F910895A1E2B0E0DF
:10119000ECECF8E00C9400396C01142FE52FCB0136
:1011A000022F19A2223008F40AE07E0121E2E20EA9
:1011B000F11C802E912CA12CB12C612F7E2FA5012A
:1011C00094010E94A638029F1019112481E0E81AA8
:1011D000F1081A3014F4105D01C0195CF701108396
:1011E000122FE32FCA01232B242B252B31F7B70114
:1011F000C6010E944208A196ECE00C941C3921150E
:10120000310549F4DC01ED91FC910190F081E02D74
:10121000642F199508950E94C60808959A01462FD3
:1012200050E060E070E00E94FF080895A0E0B0E0A8
:10123000ECE1F9E00C9404398C016A017B01211581
:10124000310549F4DC01ED91FC910190F081E02D34
:10125000642F19951DC02A303105A9F477FF12C0FB
:101260006DE20E948608EC0144275527BA014C190B
:101270005D096E097F092AE0C8010E94C6088C0F2B
:101280009D1F06C02AE0B701A601C8010E94C6083A
:10129000CDB7DEB7E8E00C9420399A01AB01770FA7
:1012A000660B770B0E9416090895A0E0B0E0EBE50D
:1012B000F9E00C94FF388C016A017B01722E9A01CF
:1012C000AB01C701B6010E943C30882319F067EDDD
:1012D00073E027C046015701E894B7F82FEF3FEFBE
:1012E0004FE75FE7C501B4010E943C3081110DC09A
:1012F0002FEF3FEF4FE75FE7C501B4010E946B2E70
:1013000018161CF46BED73E00CC02FEF3FEF4FE7A6
:101310005FE4C701B6010E94CA2F181634F46FEDBE
:1013200073E0C8010E9442087CC02FEF3FEF4FE7F7
:101330005FECC701B6010E946B2E87FDF0CF20E065
:1013400030E0A901C701B6010E946B2E87FF0AC0D9
:101350006DE2C8010E948608EC01F7FAF094F7F8F4
:10136000F09402C0C0E0D0E0B12C60E070E080E01A
:101370009FE37B1441F020E030E040E251E40E9422
:10138000702EB394F6CFA70196010E94FF2D6B013A
:101390007C010E94E92E4B015C012AE0AB01BC01FB
:1013A000C8010E94C608C80FD91F7720C9F1C5011E
:1013B000B4010E94182F9B01AC01C701B6010E9425
:1013C000FE2D6B017C0164E77CE0C8010E944208AD
:1013D000C80FD91F20E030E040E251E4C701B60158
:1013E0000E94CF2F4B015C010E94E22E6B017C0119
:1013F0004AE050E0C8010E944D09C80FD91FB6014C
:10140000DD0C880B990B0E941A2F9B01AC01C501C2
:10141000B4010E94FE2D6B017C017A947110DACF29
:10142000CE01CDB7DEB7EDE00C941B390E94550913
:101430000895FC01808191810E94B70C0895CF939B
:10144000DF93EC0188819981009711F00E94B70C1D
:10145000198218821D821C821B821A82DF91CF9111
:1014600008950F931F93CF93DF93EC018B016F5F70
:101470007F4F888199810E94400D009731F09983B8
:1014800088831B830A8381E001C080E0DF91CF91D4
:101490001F910F910895CF93DF93EC01888199817B
:1014A000892B29F08A819B818617970760F4CE01EA
:1014B0000E94310A882341F08C819D81892B19F487
:1014C000E881F981108281E0DF91CF910895EF9258
:1014D000FF920F931F93CF93DF93EC017B018A015F
:1014E000BA010E944B0A811104C0CE010E941F0A5A
:1014F00007C01D830C83B701888199810E948E39B2
:10150000CE01CDB7DEB7E6E00C942239FC011182A2
:10151000108213821282158214821682611571055F
:1015200051F0FB0101900020E9F73197AF01461B14
:10153000570B0E94670A0895CF93DF93EC01FB01DC
:101540008617970761F0608171816115710529F037
:10155000448155810E94670A02C00E941F0ACE0181
:10156000DF91CF910895FC011182108213821282C3
:101570001582148216820E949C0A0895CF93DF93ED
:10158000EC016115710559F0FB0101900020E9F7AC
:101590003197AF01461B570B0E94670A02C00E9499
:1015A0001F0ACE01DF91CF910895A2E0B0E0EBEDEC
:1015B000FAE00C940A39FC01118210821382128223
:1015C00015821482168269831A82BE016F5F7F4F73
:1015D0000E94BE0A2296E2E00C942639A2E1B0E015
:1015E000E4EFFAE00C9408398C01CB01F801118288
:1015F00010821382128215821482168250E0BE017C
:101600006F5F7F4F0E949539BE016F5F7F4FC801AA
:101610000E94BE0A6296E4E00C942439EF92FF9295
:101620000F931F93CF93DF936115710511F480E041
:101630001CC041155105C1F07B01EC018C819D81DD
:101640008A01080F191FB801CE010E944B0A882396
:1016500071F3288139818C819D81B701820F931F9D
:101660000E948E391D830C8381E0CDB7DEB7E6E0A2
:101670000C942239A2E0B0E0E0E4FBE00C940A39DB
:1016800069831A8241E050E0BE016F5F7F4F0E9484
:101690000E0B2296E2E00C942639A7E0B0E0E3E5D9
:1016A000FBE00C9406397C01CB014AE050E08E014E
:1016B0000F5F1F4FB8010E949539F801019000207B
:1016C000E9F73197AF01401B510BB801C7010E94E8
:1016D0000E0B2796E6E00C942239CF93DF93EC01B2
:1016E000FB0144815581608171810E940E0B811143
:1016F00003C0CE010E941F0ACE01DF91CF91089551
:10170000CF93DF93EC016115710561F0FB0101904E
:101710000020E9F73197AF01461B570B0E940E0BD3
:10172000811103C0CE010E941F0ACE01DF91CF912B
:101730000895CF93DF93EC010E943A0B811103C00F
:10174000CE010E941F0ACE01DF91CF910895CF9361
:10175000DF93EC010E944D0B811103C0CE010E946A
:101760001F0ACE01DF91CF910895FC0124813581BC
:101770006217730748F480819181009729F0FC017A
:10178000E60FF71F8081089580E008950E94B50B51
:101790000895A0E0B0E0EFECFBE00C9403397C018D
:1017A0006B018A01E9012417350720F4812F890193
:1017B000C42FD82F65E87EE0C7010E94860AD601B3
:1017C00014968D919C91159780179107C8F08C17EE
:1017D0009D0708F4EC01D601ED91FC911197EC0FF7
:1017E000FD1FB08010826D917C91600F711FC70149
:1017F0000E94BE0AD601ED91FC91EC0FFD1FB08254
:10180000C701CDB7DEB7E9E00C941F39FC01808138
:101810009181009719F00E945E39089560E070E0B0
:10182000CB0108950E94B10E0E945102C5E5D5E09A
:101830000E9469022097E1F30E945505F9CF0F93AA
:101840001F93CF93DF938230910510F482E090E0F4
:10185000E091AD12F091AE1220E030E0A0E0B0E0F7
:10186000309719F14081518102811381481759073E
:10187000C8F08417950769F4109731F012960C930D
:10188000129713961C9327C00093AD121093AE12BB
:1018900022C02115310519F04217530718F49A0197
:1018A000BD01EF01DF01F801DBCF21153105F9F0B2
:1018B000281B390B2430310580F48A819B81611506
:1018C000710521F0FB019383828304C09093AE12D3
:1018D0008093AD12FE01329644C0FE01E20FF31F69
:1018E0008193919322503109398328833AC0209102
:1018F000AB123091AC12232B41F4209102023091B3
:1019000003023093AC122093AB122091000230916D
:1019100001022115310541F42DB73EB74091040273
:1019200050910502241B350BE091AB12F091AC12E3
:10193000E217F307A0F42E1B3F0B2817390778F0A6
:10194000AC014E5F5F4F2417350748F04E0F5F1F05
:101950005093AC124093AB128193919302C0E0E09C
:10196000F0E0CF01DF91CF911F910F910895CF93B8
:10197000DF93009709F481C0FC0132971382128231
:10198000A091AD12B091AE12109781F420813181F7
:10199000820F931F2091AB123091AC122817390798
:1019A00051F5F093AC12E093AB1267C0ED0120E06B
:1019B00030E0CE17DF0740F44A815B819E0141157C
:1019C0005105F1F0EA01F5CFD383C2834081518103
:1019D000840F951FC817D90759F488819981840FFE
:1019E000951F0296918380838A819B819383828352
:1019F0002115310529F4F093AE12E093AD123DC0EC
:101A0000E901FB83EA8349915991C40FD51FEC1773
:101A1000FD0761F480819181840F951F0296E90191
:101A200099838883828193819B838A83E0E0F0E0BD
:101A300012968D919C911397009719F0FD01DC018E
:101A4000F7CF8D919C9111979D012E5F3F4F820F93
:101A5000931F2091AB123091AC122817390769F40B
:101A6000309729F41092AE121092AD1202C0138278
:101A70001282B093AC12A093AB12DF91CF91089574
:101A8000A0E0B0E0E6E4FDE00C94FE38EC01009745
:101A900021F4CB010E941F0CB4C0FC01E60FF71F1C
:101AA0009C0122503109E217F30708F4A8C0D901BC
:101AB0000D911C91119706171707B0F0053011050D
:101AC00008F49BC0C80104978617970708F495C0CF
:101AD00002501109061B170B019311936D937C9310
:101AE000CF010E94B70C89C05B01A01AB10A4C015A
:101AF000800E911EA091AD12B091AE12612C712C8E
:101B0000E12CF12C109709F446C08D919C9111970E
:101B1000A815B905B1F56C0142E0C40ED11CCA1478
:101B2000DB0478F14C018A189B08640142E0C40E82
:101B3000D11C1296BC9012971396AC91B5E0CB16BF
:101B4000D10440F0B282A38391828082D9016D9347
:101B50007C9309C00E5F1F4F800F911FF901918385
:101B60008083EB2DFA2FE114F10431F0D7011396A5
:101B7000FC93EE93129741C0F093AE12E093AD1236
:101B80003CC06816790608F43C017D0112960D9060
:101B9000BC91A02DB7CF8091AB129091AC1288165A
:101BA0009906E1F466167706C8F4809100029091D8
:101BB0000102009741F48DB79EB740910402509105
:101BC0000502841B950BE817F907C8F4F093AC12D3
:101BD000E093AB12F901718360830FC0CB010E94C7
:101BE0001F0C7C01009759F0A801BE010E948539A5
:101BF000CE010E94B70CC70104C0CE0102C080E034
:101C000090E0CDB7DEB7EEE00C941A391F920F9238
:101C10000FB60F9211242F933F938F939F93AF93FF
:101C2000BF938091701190917111A0917211B09138
:101C3000731130916F1123E0230F2D3720F401969B
:101C4000A11DB11D05C026E8230F0296A11DB11DDF
:101C500020936F118093701190937111A093721162
:101C6000B09373118091741190917511A0917611B8
:101C7000B09177110196A11DB11D809374119093BD
:101C80007511A0937611B0937711BF91AF919F9189
:101C90008F913F912F910F900FBE0F901F9018952D
:101CA0002FB7F89460917011709171118091721139
:101CB000909173112FBF08953FB7F89480917411DC
:101CC00090917511A0917611B091771126B5A89BCE
:101CD00005C02F3F19F00196A11DB11D3FBFBA2FBE
:101CE000A92F982F8827820F911DA11DB11DBC011E
:101CF000CD0142E0660F771F881F991F4A95D1F7E3
:101D00000895CF92DF92EF92FF92CF93DF936B0112
:101D10007C010E945C0EEB01C114D104E104F104CA
:101D200079F00E945C0E6C1B7D0B683E7340A0F343
:101D300081E0C81AD108E108F108C851DC4FECCFA6
:101D4000DF91CF91FF90EF90DF90CF9008950197B2
:101D500039F0880F991F880F991F02970197F1F7A3
:101D60000895789484B5826084BD84B5816084BD13
:101D700085B5826085BD85B5816085BDEEE6F0E004
:101D8000808181608083E1E8F0E010828081826060
:101D90008083808181608083E0E8F0E080818160E1
:101DA0008083E1EBF0E0808184608083E0EBF0E011
:101DB000808181608083E1E9F0E0808182608083BE
:101DC000808181608083E0E9F0E0808181608083B0
:101DD000E1EAF0E08081826080838081816080839D
:101DE000E0EAF0E0808181608083E1E2F1E08081DF
:101DF00082608083808181608083E0E2F1E0808185
:101E000081608083EAE7F0E0808184608083808164
:101E1000826080838081816080838081806880830C
:101E20001092C1000895AF92BF92DF92EF92FF929D
:101E30000F931F93CF93DF93EC017B018B015C0128
:101E400082E0A80EB11CF801D1908F01CE010E9452
:101E5000DB3CD81621F06D2DCE010E94E33C21968B
:101E6000CA15DB0581F7C701DF91CF911F910F9153
:101E7000FF90EF90DF90BF90AF9008950F931F9366
:101E8000CF93DF938C01EB010E94DB3C8883C80178
:101E900001960E94DB3C8983CE01DF91CF911F9197
:101EA0000F91089508958DE29FE00E948E0863EEE1
:101EB00073E08DE29FE00E94B4086EE074E08DE272
:101EC0009FE00E94B40863EE73E08DE29FE00E9401
:101ED000B4088DE29FE00E948E0869E374E08DE211
:101EE0009FE00E94B40864E574E08DE29FE00E94E8
:101EF000B40868E674E08DE29FE00E94B4086EE8E2
:101F000074E08DE29FE00E94B40867EB74E08DE21C
:101F10009FE00E94B40864ED74E08DE29FE00E94AF
:101F2000B4086AEF74E08DE29FE00E94B4086FE1AC
:101F300075E08DE29FE00E94B40866E475E08DE2F2
:101F40009FE00E94B40860E775E08DE29FE00E9488
:101F5000B4086BE875E08DE29FE00E94B40862EA85
:101F600075E08DE29FE00E94B40869EB75E08DE2B8
:101F70009FE00E94B40869ED75E08DE29FE00E9449
:101F8000B4086FEF75E08DE29FE00E94B40865E24F
:101F900076E08DE29FE00E94B4086DE376E08DE28A
:101FA0009FE00E94B4088DE29FE00E948E086FE5DA
:101FB00076E08DE29FE00E94B40864E876E08DE26E
:101FC0009FE00E94B4086FEA76E08DE29FE00E94F5
:101FD000B40864E876E08DE29FE00E94B4080895BA
:101FE000FB01DA01CB01089631912D91321305C026
:101FF000E817F907C9F781E0089580E008956AEDD0
:1020000076E08DE29FE00E94830868EE73E080E056
:1020100090E00E94810E0895CF93C62F60E08CE07F
:102020000E943E3861E08CE00E940238C13019F411
:1020300086E090E002C08CE390E00E94A70E60E092
:102040008CE00E94023861E08CE00E943E386AE039
:1020500070E080E090E00E94810ECF910895DF92C1
:10206000EF92FF920F931F93CF93DF938C017B012D
:1020700084EA91E10E94012A84EA91E10E943D29CB
:1020800040E061ED84EA91E10E94D82960E0C80156
:102090000E940C1084EA91E10E94012A84EA91E1F5
:1020A0000E943D2940E065ED84EA91E10E94D82933
:1020B000E70148E0D42E38E0E32EF12C888180FF40
:1020C00002C060E001C061E0C8010E940C1088817C
:1020D00090E095958795888381E0E81AF10871F77B
:1020E0006BE074E08DE29FE00E948308DA94219611
:1020F000D110E1CF84EA91E10E943D2940E061EDF9
:1021000084EA91E10E94D82961E0C8010E940C1084
:10211000CDB7DEB7E7E00C94213989EB91E10E945D
:10212000542560937C1170937D1180937E11909360
:102130007F1189EB91E10E949C2560937811709347
:10214000791180937A1190937B11089588EB91E136
:102150000E94FF2C40E052EC61E070E08DE29FE0D5
:102160000E9472060895A2E0B0E0E9EBF0E10C9461
:1021700008398C01CA012DED30E03A832983BE0174
:102180006F5F7F4F0E943E0F89819A818D3D91053F
:1021900019F067EF76E002C066EF76E0C8010E94B2
:1021A000860AC8012296E4E00C942439A2E0B0E04B
:1021B000ECEDF0E10C9408398C0189EB91E10E947F
:1021C000192589EB91E10E941F25C8010E948D10FD
:1021D0008AEA90E09A838983BE016F5F7F4F80E037
:1021E00090E00E94130F2296E4E00C9424390F93A0
:1021F0001F93CF93DF938B01FB01848195818C30FA
:10220000910511F0409799F5C0E0D0E0F801848184
:102210009581C817D90738F5BE01C8010E94C60BC1
:1022200080333CF4BE01C8010E94C60B813444F4E3
:102230000DC0BE01C8010E94C60B8A33B4F0F2CFB4
:10224000BE01C8010E94C60B87347CF0BE01C801E4
:102250000E94C60B81365CF0BE01C8010E94C60B0D
:1022600087361CF004C081E003C02196CFCF80E008
:10227000DF91CF911F910F9108950F931F93CF93EB
:10228000DF938B01C0E0D0E0F80184819581C8170D
:10229000D90770F4BE01C8010E94C60B803354F008
:1022A000BE01C8010E94C60B8A3324F42196ECCFEC
:1022B00081E001C080E0DF91CF911F910F910895DF
:1022C000A2E0B0E0E6E6F1E10C940A391A82198244
:1022D000BE016F5F7F4F86E090E00E943E0F8981D4
:1022E0009A812296E2E00C942639AEE0B0E0EBE76A
:1022F000F1E10C9400397B016A010E94601123E036
:10230000EE0CFF1C2A95E1F7EC9C8001ED9C100D72
:10231000FC9C100D1124E00EF11E8E159F050CF48F
:102320007C01CE0101965C0192E0892E97E0992E06
:102330000E151F050CF069C0C80187709927892BFD
:1023400009F046C0680117FF03C097E0C90ED11C11
:1023500083E0D594C7948A95E1F78DE29FE00E94CF
:102360008E0869E077E08DE29FE00E9483088AE0B2
:10237000C816D1041CF46AEF76E009C094E6C916C9
:10238000D1041CF460EA7EE002C065E87EE08DE2E4
:102390009FE00E9483084AE0B601CE0108960E94A1
:1023A000EE0ABE01685F7F4FC5010E94B30A6DEF60
:1023B00076E0C5010E94800BBC018DE29FE00E9487
:1023C0005808C5010E94190ACE0108960E94190AF0
:1023D0001A821982B80186E891E10E94162C1F9298
:1023E0008F939F928F92BF92AF920E94E239B50174
:1023F0008DE29FE00E9483080F5F1F4F0F900F90A8
:102400000F900F900F900F9093CF8DE29FE00E945E
:102410008E082E96ECE00C941C390E94601123E08B
:10242000969587952A95E1F790938511809384116D
:1024300020E032E03093811120938011281B390B6A
:1024400030938311209382110895AEE0B0E0EBE267
:10245000F2E10C9406390E940D1200918011109146
:102460008111E0908411F090851167E077E0CE0152
:1024700008960E94860ABE01685F7F4FCE010196D2
:102480000E94B30AB701CE0101960E94A70B6CE02F
:1024900077E00E94800BB8010E94A70B6CE874E003
:1024A0000E94800BBC018DE29FE00E945808CE0183
:1024B00001960E94190ACE0108960E94190A2E96CA
:1024C000E6E00C942239A4E0B0E0E9E6F2E10C94F5
:1024D00006397C01BE016D5F7F4F84E090E00E9471
:1024E0003E0F61EC71E186E891E10E94E52A8B8163
:1024F0009C818A3A9105A1F100E010E04FEFB8010C
:1025000086E891E10E94A12B0F5F1F4F011580E12A
:102510001807A1F76AE070E080E090E00E94810E69
:102520001A821982BE016F5F7F4F86E090E00E94A1
:10253000130F6AE070E080E090E00E94810E8AEA6A
:1025400090E09A838983BE016F5F7F4F84E090E0C3
:102550000E94130F6AE070E080E090E00E94810E1C
:10256000C7010E940D122496E6E00C942239CF9305
:10257000DF93EC0187EB91E10E94752DCE010E9463
:10258000D610CE010E94A610CE010E94631287EBE6
:1025900091E10E94902DDF91CF910895AEE0B0E0DF
:1025A000E4EDF2E10C9408398C018DE29FE00E9489
:1025B0008E08C8010E948D10C8010E940D126EE0A5
:1025C00077E08DE29FE00E94B40869E377E08DE256
:1025D0009FE00E94830840917C1150917D11609191
:1025E0007E1170917F1124E030E08DE29FE00E9427
:1025F000160A6CE577E08DE29FE00E9483088DE289
:102600009FE00E948E086EE577E08DE29FE00E94D9
:102610008308409178115091791160917A117091ED
:102620007B1122E030E08DE29FE00E94160A61E813
:1026300077E08DE29FE00E9483088DE29FE00E9498
:102640008E088DE29FE00E948E0863E877E08DE2BD
:102650009FE00E94B4086EEA77E08DE29FE00E945E
:10266000830860918411709185114AE050E08DE2F9
:102670009FE00E944D096EEC74E08DE29FE00E94A5
:1026800083088DE29FE00E948E086FEC77E08DE278
:102690009FE00E94830860918211709183114AE04B
:1026A00050E08DE29FE00E944D096EEC74E08DE2F7
:1026B0009FE00E9483088DE29FE00E948E086FEEEB
:1026C00077E08DE29FE00E94830860918011709115
:1026D00081114AE050E08DE29FE00E944D096EECCE
:1026E00074E08DE29FE00E9483088DE29FE00E94EB
:1026F0008E088DE29FE00E948E0860E178E08DE216
:102700009FE00E94B40840E050E0B801CE01089676
:102710000E94B3106BE378E0CE0101960E94860A16
:10272000BE01685F7F4FCE0101960E946D0BBC0118
:102730008DE29FE00E94A208CE0101960E94190A34
:10274000CE0108960E94190A42E050E0B801CE017D
:1027500008960E94B31062E678E0CE0101960E94CE
:10276000860ABE01685F7F4FCE0101960E946D0B05
:10277000BC018DE29FE00E94A208CE0101960E945A
:10278000190ACE0108960E94190A44E050E0B801E7
:10279000CE0108960E94B31069E878E0CE01019658
:1027A0000E94860ABE01685F7F4FCE0101960E949B
:1027B0006D0BBC018DE29FE00E94A208CE01019644
:1027C0000E94190ACE0108960E94190AC8010E94A7
:1027D00060114AE0BC01CE0108960E94EE0A60EB4F
:1027E00078E0CE0101960E94860ABE01685F7F4FA5
:1027F000CE0101960E946D0BBC018DE29FE00E940C
:10280000A208CE0101960E94190ACE0108960E94E4
:10281000190A8DE29FE00E948E0867ED78E0CE01F4
:1028200008960E94860A62EE78E0CE0101960E9428
:10283000860ABE01685F7F4FCE0101960E946D0B34
:10284000BC018DE29FE00E94A208CE0101960E9489
:10285000190ACE0108960E94190A60E971E080E029
:1028600090E00E94810E2E96E4E00C942439A0E0C2
:10287000B0E0EDE3F4E10C94FF38EB0189E090E087
:102880000E941F0C5C018C809D8000E010E0081508
:1028900019050CF095C0B801CE010E94C60B80331B
:1028A0000CF460C0B801CE010E94C60B8A330CF054
:1028B00059C0B801CE010E94C60B782E729460EF09
:1028C0007622B801CE010E94C60B81343CF0B801DB
:1028D000CE010E94C60B87340CF446C0B801CE016D
:1028E0000E94C60B81363CF0B801CE010E94C60B97
:1028F00087360CF443C06801C80101967C0117FDBE
:102900006C01D594C794CA0CDB1CF6017082B70128
:10291000CE010E94C60B803334F0B701CE010E9475
:10292000C60B8A33ACF1B701CE010E94C60B8134CD
:1029300034F0B701CE010E94C60B87348CF1B70189
:10294000CE010E94C60B813634F0B701CE010E9441
:10295000C60B87366CF1F6018081780E70820E5FAF
:102960001F4F95CF712CADCFB801CE010E94C60B81
:102970008295807F50E9752E780EB0CFB801CE01D8
:102980000E94C60B8295807F40E9742E780EB3CFEB
:10299000B701CE010E94C60B30ED732E780EC3CF67
:1029A000B701CE010E94C60B29EC722E780EC7CF5C
:1029B000B701CE010E94C60B99EA792E780ECBCFD3
:1029C000F501E80DF91D1082C501CDB7DEB7EDE0C8
:1029D0000C941B3988EB91E10E942A2C87EB91E142
:1029E0000E944E2D6CE084EA91E10E94132A6BE074
:1029F00089E891E10E94D42560E586E891E10E9492
:102A0000E22A0895A5E1B0E0E8E0F5E10C9404398C
:102A10006C010E9460118C01892B89F461E079E0DE
:102A20008DE29FE00E94B4088DE29FE00E948E0834
:102A300060E971E080E090E00E94810EDDC06DE110
:102A400079E08DE29FE00E94B4088DE29FE00E9451
:102A50008E0840E050E060E170E0C6010E94751110
:102A6000C80117FF02C081589F4F7C01EE0CEF2C6C
:102A7000EE1CFF0800E010E065E87EE0CE010F9656
:102A80000E94860A8DE29FE00E94D2031816190662
:102A90000CF04BC06DE27FE0CE0101960E945B33EB
:102AA000BE016F5F7F4FCE010F960E949C0ACE0140
:102AB00001960E94190A8B899C89019789F460E02C
:102AC00070E0CE010F960E94C60B8D34C9F160E014
:102AD00070E0CE010F960E94C60B8D36E1F530C036
:102AE0006FE579E0CE0108960E94860ABE01685F14
:102AF0007F4FCE0101960E94B30ABE01615F7F4FF6
:102B0000CE0101960E946D0B61E779E00E94800B77
:102B1000BC018DE29FE00E94A208CE0101960E94B6
:102B2000190ACE0108960E94190A60E971E080E056
:102B300090E00E94810ECE010F960E94190A9CCF50
:102B40006BEE76E08DE29FE00E94B408CE010F9616
:102B50000E94190A51C060E070E0CE010F960E94F9
:102B6000C60B823441F060E070E0CE010F960E9407
:102B7000C60B823631F401151105C1F0015011095F
:102B800015C060E070E0CE010F960E94C60B86343F
:102B900041F060E070E0CE010F960E94C60B8636D1
:102BA00061F40E151F0514F40F5F1F4FA80160E1BB
:102BB00070E0C6010E947511B8CF6FE579E0CE01D3
:102BC00001960E94860ABE01615F7F4FCE01019689
:102BD0000E946D0B61E779E00E94800BBC018DE2E1
:102BE0009FE00E94A208CE0101960E94190A8DE280
:102BF0009FE00E948E0899CF6596E8E00C942039FA
:102C0000A6E1B0E0E6E0F6E10C9405397C0164E76A
:102C100079E08DE29FE00E94B4088DE29FE00E947F
:102C20008E086BE879E08DE29FE00E94B4088E0187
:102C30000F5F1F4F88E0D82E65E87EE0CE014096FA
:102C40000E94860A8DE29FE00E94D20318161906A0
:102C50006CF46DE27FE0C8010E945B33B801CE01E5
:102C600040960E949C0AC8010E94190A8C899D897D
:102C70008130910551F560E070E0CE0140960E94F0
:102C8000C60B8D3409F4BCC060E070E0CE01409604
:102C90000E94C60B8D3609F4B3C06FE579E0C80118
:102CA0000E94860ABE01605F7F4FC8010E946D0BC3
:102CB00061E779E00E94800BBC018DE29FE00E94F9
:102CC000A208C8010E94190A8AC08031910509F042
:102CD00079C068EB79E0CE0109960E94860ABE01B0
:102CE000675F7F4FC8010E94B30ABE01605F7F4FDC
:102CF000C8010E946D0B6AEC79E00E94800BBC0158
:102D00008DE29FE00E94A208C8010E94190ACE012C
:102D100009960E94190ABE01605F7F4FC8010E9498
:102D2000B30AB801C7010E943714BC01C7010E9451
:102D30002F10C8010E94190AF8018D2D11928A9551
:102D4000E9F7B80184EA91E10E94482A81110AC09A
:102D500084EA91E10E94062A68EC70E080E090E04D
:102D60000E94810EBE01605F7F4FCE0109960E94D6
:102D7000B30ABE01675F7F4FC7010E943714A801E5
:102D8000BC01C7010E94F00F882319F06EEC79E0B6
:102D900002C065ED79E08DE29FE00E948308CE01DC
:102DA00009960E94190A8DE29FE00E948E088DE22A
:102DB0009FE00E948E0864E779E08DE29FE00E9428
:102DC000B4080DC0029750F560E971E080E090E032
:102DD0000E94810ECE0140960E94190A2DCF8DE2ED
:102DE0009FE00E948E086DED79E08DE29FE00E94E9
:102DF000B4086BE879E08DE29FE00E94B408E4CF6C
:102E00006BEE76E08DE29FE00E94B408CE01409622
:102E10000E94190A6696E7E00C94213961E07AE095
:102E2000CE0109960E94860ABE01675F7F4FC801E6
:102E30000E94B30ABE01605F7F4FC8010E946D0B04
:102E400061E779E00E94800BBC018DE29FE00E9467
:102E5000A208C8010E94190ACE0109960E94190A07
:102E6000B3CFAFE1B0E0E7E3F7E10C94FA387C01CF
:102E70000E9460118C016FE07AE08DE29FE00E9479
:102E8000B4086DED79E08DE29FE00E94B4086DE139
:102E900079E08DE29FE00E94B4088DE29FE00E94FD
:102EA0008E0840E050E060E170E0C7010E947511BB
:102EB000C80117FF02C081589F4F1C01220C232C10
:102EC000221C3308C12CD12C8E010F5F1F4F2E0105
:102ED0002EE1420E511C65E87EE0CE0147960E942D
:102EE000860A8DE29FE00E94D203181619060CF0A4
:102EF00065C16DE27FE0C8010E945B33B801CE017D
:102F000047960E949C0AC8010E94190A8B8D9C8DCD
:102F10008130910599F460E070E0CE0147960E94FF
:102F2000C60B8D3409F455C160E070E0CE014796C0
:102F30000E94C60B8D3609F05AC14BC1039709F0A8
:102F4000A6C1C7010E9460115C01BE01695E7F4F8E
:102F5000C8010E94B30AB801C7010E943D11982E12
:102F6000C8010E94190A911015C068E57AE0CE01E7
:102F700009960E94860ABE01675F7F4FC8010E94C2
:102F8000B30ABE01695E7F4FC8010E946D0B61E705
:102F900079E026C08F89988D0E9440393C0197FDC9
:102FA0000BC0C501B7FC079623E0959587952A9538
:102FB000E1F7681679060CF16EE67AE0CE01099623
:102FC0000E94860ABE01675F7F4FC8010E94B30A54
:102FD000BE01695E7F4FC8010E946D0B6CE77AE00D
:102FE0000E94800BBC018DE29FE00E94A208C801F4
:102FF0000E94190ACE010996C1C065E87EE0CE01A3
:1030000040960E94860A530183E0AA0CBB1C8A9555
:10301000E1F74501E8E08E0E911CA814B904BCF557
:103020001F8E1E8EB50186E891E10E94162C1F921C
:103030008F9382E097E09F938F935F924F920E94CD
:10304000E239BE01605F7F4FCE0109960E94B30A4C
:10305000B201CE0109960E94800BBC01C8010E94FA
:10306000B30AB801CE0140960E949C0AC8010E9492
:10307000190ACE0109960E94190AFFEFAF1ABF0A7A
:103080000F900F900F900F900F900F90C6CF66EAA1
:103090007AE0CE0109960E94860ABE01675F7F4FE3
:1030A000C8010E94B30AB301C8010E94A70B69E0DE
:1030B00077E00E94800BBE01605F7F4F0E946D0B26
:1030C0006BEB7AE00E94800BBC018DE29FE00E94D6
:1030D0005808C8010E94190ACE0109960E94190ACF
:1030E000BE01605F7F4FC8010E94B30AB801C701EB
:1030F0000E943714BC01C7010E942F10C8010E9412
:10310000190AF80128E011922A95E9F7B80184EA32
:1031100091E10E94482A81110AC084EA91E10E944B
:10312000062A68EC70E080E090E00E94810EBE010B
:10313000605F7F4FCE0109960E94B30ABE01675FB0
:103140007F4FC7010E943714A801BC01C7010E942C
:10315000F00F882319F06EEC79E002C065ED79E09C
:103160008DE29FE00E948308CE0109960E94190A11
:103170008DE29FE00E948E08CE0140960E94190ABF
:103180008DE29FE00E948E088DE29FE00E948E08F3
:1031900064E779E08DE29FE00E94B4088DE29FE051
:1031A0000E948E086DED79E08DE29FE00E94B408E8
:1031B0006FE07AE08DE29FE00E94B40860E971E080
:1031C00080E090E00E94810ECE0147960E94190A8D
:1031D00082CE6BEE76E08DE29FE00E94B408CE01D5
:1031E00047960E94190A6F96E2E10C94163960E046
:1031F00070E0CE0147960E94C60B823441F060E039
:1032000070E0CE0147960E94C60B823639F4C11495
:10321000D104D1F081E0C81AD10816C060E070E096
:10322000CE0147960E94C60B863441F060E070E004
:10323000CE0147960E94C60B863669F4C214D304A9
:103240001CF49FEFC91AD90AA60160E170E0C7011A
:103250000E947511B3CF6FE579E0C8010E94860A1C
:10326000BE01695E7F4FC8010E946D0B61E779E086
:103270000E94800BBC018DE29FE00E94A208C80161
:103280000E94190A8DE29FE00E948E0897CF6FE599
:1032900079E0CE0109960E94860ABE01675F7F4FE2
:1032A000C8010E94B30ABE01695E7F4FC8010E9437
:1032B0006D0B61E779E00E94800BBC018DE29FE01D
:1032C0000E94A208C8010E94190ACE0109960E9414
:1032D000190A74CFA5E1B0E0E0E7F9E10C940839F0
:1032E0008C0164E779E08DE29FE00E94B4088DE2F2
:1032F0009FE00E948E0860EC7AE08DE29FE00E94E1
:10330000B40865E87EE0CE010F960E94860A8DE241
:103310009FE00E94D203181619068CF46DE27FE03C
:10332000CE0101960E945B33BE016F5F7F4FCE01DD
:103330000F960E949C0ACE0101960E94190A8B8961
:103340009C898130910569F560E070E0CE010F96AF
:103350000E94C60B8D3409F495C060E070E0CE0188
:103360000F960E94C60B8D3609F48CC06FE579E08C
:10337000CE0101960E94860ABE01615F7F4FCE0199
:1033800001960E946D0B61E779E00E94800BBC0101
:103390008DE29FE00E94A208CE0101960E94190AC8
:1033A00066C08031910509F055C06DEE7AE0CE011E
:1033B00008960E94860ABE01685F7F4FCE01019683
:1033C0000E94B30ABE01615F7F4FCE0101960E9449
:1033D0006D0B6DEF7AE00E94800BBC018DE29FE0E7
:1033E0000E94A208CE0101960E94190ACE010896F9
:1033F0000E94190ABE01615F7F4FCE0101960E94B3
:10340000B30ABE016F5F7F4FC8010E943714BC0131
:1034100089E891E10E94FC27CE0101960E94190AD9
:1034200061E089E891E10E94E22862E07BE08DE2C0
:103430009FE00E9483088DE29FE00E948E088DE24B
:103440009FE00E948E0864E779E08DE29FE00E9491
:10345000B4080DC0029720F560E971E080E090E0CB
:103460000E94810ECE010F960E94190A4ACF8DE26A
:103470009FE00E948E0860EC7AE08DE29FE00E945F
:10348000B408EACF6BEE76E08DE29FE00E94B408CC
:10349000CE010F960E94190A6596E4E00C94243937
:1034A00061E07AE0CE0108960E94860ABE01685F5C
:1034B0007F4FCE0101960E94B30ABE01615F7F4F2C
:1034C000CE0101960E946D0B61E779E00E94800BAE
:1034D000BC018DE29FE00E94A208CE0101960E94ED
:1034E000190ACE0108960E94190AB6CFAEE1B0E0E3
:1034F000ECE7FAE10C94FA387C010E9460118C012F
:103500006BE07BE08DE29FE00E94B4086DE179E022
:103510008DE29FE00E94B4088DE29FE00E948E0839
:1035200040E050E060E170E0C7010E9475111801B1
:1035300017FF03C08FE7280E311C220C232C221CFE
:10354000330800E010E042E0442E47E0542E3E01F4
:103550008DE1680E711C65E87EE0CE0146960E9402
:10356000860A8DE29FE00E94D203181619060CF01D
:103570004CC16DE27FE0CE0101960E945B33BE013B
:103580006F5F7F4FCE0146960E949C0ACE01019646
:103590000E94190A8A8D9B8D8130910599F460E013
:1035A00070E0CE0146960E94C60B8D3409F438C1F6
:1035B00060E070E0CE0146960E94C60B8D3609F0A1
:1035C0003DC12EC1039709F086C1C7010E94601159
:1035D0006C01BE016A5E7F4FCE0101960E94B30A64
:1035E000BE016F5F7F4FC7010E943D11B82ECE0113
:1035F00001960E94190AB11017C068E57AE0CE0161
:1036000008960E94860ABE01685F7F4FCE01019630
:103610000E94B30ABE016A5E7F4FCE0101960E94EE
:103620006D0B61E779E028C08E899F890E9440393F
:103630005C0197FD0BC0C601D7FC079623E095956A
:1036400087952A95E1F7A816B90624F16EE67AE087
:10365000CE0108960E94860ABE01685F7F4FCE01A8
:1036600001960E94B30ABE016A5E7F4FCE010196A9
:103670000E946D0B6CE77AE00E94800BBC018DE22A
:103680009FE00E94A208CE0101960E94190ACE0175
:103690000896A5C065E87EE0CE010F960E94860AD6
:1036A000650183E0CC0CDD1C8A95E1F7460188E0DA
:1036B000880E911CC814D904CCF51E8E1D8EB6013F
:1036C00086E891E10E94162C1F928F935F924F9291
:1036D0007F926F920E94E239BE01615F7F4FCE01FF
:1036E00008960E94B30AB301CE0108960E94800B8F
:1036F000BC01CE0101960E94B30ABE016F5F7F4FED
:10370000CE010F960E949C0ACE0101960E94190AD2
:10371000CE0108960E94190A8FEFC81AD80A0F9096
:103720000F900F900F900F900F90C4CF64E57BE047
:10373000CE0108960E94860ABE01685F7F4FCE01C7
:1037400001960E94B30AB501CE0101960E94A70B13
:1037500069E077E00E94800BBE01615F7F4F0E94AD
:103760006D0B6DEF7AE00E94800BBC018DE29FE053
:103770000E94A208CE0101960E94190ACE01089665
:103780000E94190A64E779E08DE29FE00E94B40884
:103790008DE29FE00E948E08BE01615F7F4FCE01E7
:1037A00001960E94B30ABE016F5F7F4FC7010E945E
:1037B0003714BC0189E891E10E94FC27CE010196F3
:1037C0000E94190A61E089E891E10E94E22862E022
:1037D0007BE08DE29FE00E948308CE010F960E945D
:1037E000190A8DE29FE00E948E086BE07BE08DE27B
:1037F0009FE00E94B40867E67BE08DE29FE00E94B4
:10380000B4088DE29FE00E948E0860E971E080E0DC
:1038100090E00E94810ECE0146960E94190A9BCE2E
:103820006BEE76E08DE29FE00E94B408CE014696F2
:103830000E94190A6E96E2E10C94163960E070E07D
:10384000CE0146960E94C60B823441F060E070E0E3
:10385000CE0146960E94C60B823631F40115110541
:10386000C1F00150110915C060E070E0CE0146962C
:103870000E94C60B863441F060E070E0CE014696AF
:103880000E94C60B863661F40215130514F40F5F0F
:103890001F4FA80160E170E0C7010E947511B5CF0C
:1038A0006FE579E0CE0101960E94860ABE016A5E4C
:1038B0007F4FCE0101960E946D0B61E779E00E9477
:1038C000800BBC018DE29FE00E94A208CE01019610
:1038D0000E94190A96CF6FE579E0CE0108960E9402
:1038E000860ABE01685F7F4FCE0101960E94B30A2F
:1038F000BE016A5E7F4FCE0101960E946D0B61E7AB
:1039000079E00E94800BBC018DE29FE00E94A2083A
:10391000CE0101960E94190ACE0108960E94190A4A
:1039200074CFACE1B0E0E7E9FCE10C9407398C011D
:1039300064E779E08DE29FE00E94B4088DE29FE0A9
:103940000E948E0869EA7BE08DE29FE00E94B40845
:1039500065E87EE0CE0146960E94860A65E87EE034
:10396000CE010F960E94860A8DE29FE00E94D2034C
:10397000181619068CF46DE27FE0CE0101960E94C4
:103980005B33BE016F5F7F4FCE0146960E949C0A5B
:10399000CE0101960E94190A8A8D9B8D8130910576
:1039A00089F560E070E0CE0146960E94C60B8D342A
:1039B00009F4EAC060E070E0CE0146960E94C60BB2
:1039C0008D3609F4E1C08DE29FE00E948E086FE51C
:1039D00079E0CE0101960E94860ABE016A5E7F4FA1
:1039E000CE0101960E946D0B61E779E00E94800B89
:1039F000BC018DE29FE00E94A208CE0101960E94C8
:103A0000190AB7C0029708F4A5C02EE030E040E0E4
:103A100050E0BE016A5E7F4FCE0101960E94C90B45
:103A2000BE016F5F7F4FCE010F960E949C0ACE01B0
:103A300001960E94190ABE01615F7F4FCE01019677
:103A40000E94B30ABE016F5F7F4FC8010E94F7104A
:103A5000F82ECE0101960E94190AFF2009F455C0E4
:103A60008DE29FE00E948E0860EE7BE0CE0108961A
:103A70000E94860ABE01685F7F4FCE0101960E94B8
:103A8000B30ABE01615F7F4FCE0101960E946D0BAC
:103A90006AEF7BE00E94800BBC018DE29FE00E94F8
:103AA0005808CE0101960E94190ACE0108960E947C
:103AB000190A60E07CE08DE29FE00E948308BE016D
:103AC000615F7F4FCE0101960E94B30ABE016F5F16
:103AD0007F4FC8010E94371467E00E94C82A40E166
:103AE00050E0682F8DE29FE00E940E09CE01019602
:103AF0000E94190A8DE29FE00E948E0864E779E037
:103B00008DE29FE00E94B40834C061E07AE0CE010B
:103B100008960E94860ABE01685F7F4FCE0101961B
:103B20000E94B30ABE016A5E7F4FCE0101960E94D9
:103B30006D0B61E779E00E94800BBC018DE29FE094
:103B40000E94A208CE0101960E94190ACE01089691
:103B50000E94190A60E971E080E090E00E94810E05
:103B6000CE010F960E94190ACE0146960E94190AAC
:103B7000EFCE8DE29FE00E948E0869EA7BE08DE245
:103B80009FE00E94B408E6CF6BEE76E08DE29FE006
:103B90000E94B408CE010F960E94190ACE014696E3
:103BA0000E94190A6C96E5E00C942339A5E1B0E077
:103BB000ECEDFDE10C9404398C018DE29FE00E9454
:103BC0008E08E0908411F090851181E0E81AF108E8
:103BD00067E07CE0CE0108960E94860ABE01685F1D
:103BE0007F4FCE0101960E94B30AB701CE01019624
:103BF0000E94A70B64E27CE00E94800BBC018DE276
:103C00009FE00E94A208CE0101960E94190ACE01EF
:103C100008960E94190A8DE29FE00E94D2031816AE
:103C20001906CCF76DE27FE0CE010F960E945B3360
:103C30008B899C89019749F060E070E0CE010F9676
:103C40000E94C60B8D3691F408C060E070E0CE0192
:103C50000F960E94C60B8D3479F76BEE76E08DE2FD
:103C60009FE00E94B4080FEF1FEF74C0BE01615FB8
:103C70007F4FCE0101960E94B30ABE016F5F7F4F56
:103C8000C8010E943D11F82ECE0101960E94190A2A
:103C9000F11017C066E47CE0CE0108960E94860A07
:103CA000BE01685F7F4FCE0101960E94B30ABE013C
:103CB000615F7F4FCE0101960E946D0B61E779E055
:103CC0002DC0CE010F960E94060C97FD11C0CE01AB
:103CD0000F960E94060C2091841130918511690184
:103CE000330FEE08FF086C157D058E059F0544F126
:103CF0006EE67AE0CE0108960E94860ABE01685FF1
:103D00007F4FCE0101960E94B30ABE01615F7F4FD3
:103D1000CE0101960E946D0B6CE77AE00E94800B49
:103D2000BC018DE29FE00E94A208CE0101960E9494
:103D3000190ACE0108960E94190ACE010F9669CF82
:103D4000CE010F960E94060C8B0183E0000F111F1D
:103D50008A95E1F7CE010F960E94190AC80165966F
:103D6000E8E00C9420398F929F92BF92CF92DF921D
:103D7000EF92FF920F931F93CF93DF93CDB7DEB7F0
:103D80006E970FB6F894DEBF0FBECDBF7C01B62E86
:103D90008DE29FE00E948E0867E57CE08DE29FE067
:103DA0000E94B40864E779E08DE29FE00E94B408C5
:103DB00019E0CE0101966C0165E87EE0CE014896DF
:103DC0000E94860AF601212F11922A95E9F78DE2C9
:103DD0009FE00E94D2031816190634F58E01065F83
:103DE0001F4F6DE27FE0C8010E945B33B801CE0136
:103DF00048960E949C0AC8010E94190A8C8D9D8DCC
:103E0000019749F060E070E0CE0148960E94C60B31
:103E10008D3659F50EC060E070E0CE0148960E94E4
:103E2000C60B8D3479F705C0CE0148960E94190A59
:103E3000C3CF6BEE76E08DE29FE00E94B408CE0126
:103E400048960E94190A6E960FB6F894DEBF0FBE10
:103E5000CDBFDF91CF911F910F91FF90EF90DF9039
:103E6000CF90BF909F908F900895BE01685E7F4F66
:103E7000C8010E94B30AB801C7010E94F710982E2A
:103E8000C8010E94190A911003C066E77CE0D3CFF5
:103E90008C8D9D8D0C97D1F56BEA7CE0CE0141961F
:103EA0000E94860ABE01685E7F4FCE0141960E9445
:103EB0006D0BBC01C8010E94B30AB801C7010E9482
:103EC0003714BC01C6010E948E39C8010E94190A2C
:103ED000CE0141960E94190A8DE29FE00E948E0851
:103EE0006EEA7CE08DE29FE00E94830867E0C601F5
:103EF0000E94C82A88876FEC79E08DE29FE00E94DB
:103F000083088DE29FE00E948E0811C0BE01685EAA
:103F10007F4FC8010E94B30AB801C7010E9437143D
:103F2000BC01C6010E948E39C8010E94190ABB203B
:103F300099F0C7010E940D12809184119091851112
:103F4000892B51F48DE29FE00E948E0861EC7CE0A9
:103F50008DE29FE00E94B4088091841190918511B8
:103F60001816190634F4BB2021F0C7010E94D61D93
:103F700003C0C7010E9460119A8B898B8F3FEFEFBE
:103F80009E0709F45CCF2091841130918511232B79
:103F900011F0B1100AC020E030E1281B390B2230AB
:103FA00031051CF46AEF7CE046CF28E030E0A60142
:103FB000BC0186E891E10E940D2B89889A8882E0F5
:103FC000C82E87E0D82E89899A899C01295F3F4FA6
:103FD00028153905F4F01B861A86B40186E891E1AC
:103FE0000E94162C1F928F93DF92CF921F930F93F4
:103FF0000E94E239B8018DE29FE00E948308FFEF42
:104000008F1A9F0A0F900F900F900F900F900F90A4
:10401000DACF2091841130918511232B11F0B1104A
:104020000DC008969A8B898BBE016F5E7F4F86E02C
:1040300090E00E94130FC7010E9425128DE29FE0BD
:104040000E948E086AE07DE08DE29FE00E94B40845
:1040500060E971E080E090E00E94810EF0CEAEE178
:10406000B0E0E5E3F0E20C9400397C016B018DE2F5
:104070009FE00E948E086BE17DE08DE29FE00E9450
:10408000B4085E0189E0A80EB11C88E0F501119228
:104090008A95E9F76CED75E080E090E00E94810E72
:1040A0008E010F5F1F4F88E0882E8DE29FE00E94F7
:1040B000D203181619069CF58DE29FE00E94FE03BC
:1040C000982E8F7D8D3409F4C7C06FE579E0CE015D
:1040D00041960E94860ABE016F5E7F4FC8010E9412
:1040E000B30A692DC8010E94990B61E779E00E942B
:1040F000800BBC018DE29FE00E94A208C8010E94D3
:10410000190ACE0141960E94190A8DE29FE00E9491
:104110008E0867E47DE08DE29FE00E94B408F8011C
:10412000882D11928A95E9F7B50184EA91E10E9400
:10413000482A81110BC084EA91E10E94062A68ECAA
:1041400070E080E090E00E94810E7FC068EB79E033
:10415000CE0148960E94860ABE01685E7F4FCE015E
:1041600041960E94B30AB601CE0141960E946D0BA2
:1041700065E67DE00E94800BBC018DE29FE00E941D
:10418000A208CE0141960E94190ACE0148960E94CB
:10419000190AB601CE0141960E94B30ABE016F5EB4
:1041A0007F4FC7010E943714BC01C7010E942F1026
:1041B000CE0141960E94190A68EC70E080E090E020
:1041C0000E94810EB80184EA91E10E94482A81117F
:1041D00005C084EA91E10E94062AEECFB601CE0125
:1041E00041960E94B30ABE016F5E7F4FC7010E94D5
:1041F0003714A801BC01C7010E94F00F882319F0F1
:104200006EEC79E002C065ED79E08DE29FE00E94FE
:104210008308CE0141960E94190A8DE29FE00E9418
:104220008E088DE29FE00E948E0864E779E08DE2BF
:104230009FE00E94B4088DE29FE00E948E086BE62A
:104240007DE08DE29FE00E94B4086CED75E080E0B7
:1042500090E00E94810E29CF6E96ECE00C941C3900
:10426000A6E2B0E0E6E3F1E20C94FD384C0164E72D
:1042700079E08DE29FE00E94B4088DE29FE00E9409
:104280008E086EE87DE08DE29FE00E94B4088E010A
:104290000F5F1F4F88E0582E7E0189E0E80EF11C69
:1042A00092E0692E97E0792E6E01E5E2CE0ED11CE8
:1042B00065E87EE0CE014E960E94860A8DE29FE080
:1042C0000E94D203181619066CF46DE27FE0C80153
:1042D0000E945B33B801CE014E960E949C0AC80131
:1042E0000E94190A8AA19BA1019799F560E070E0EC
:1042F000CE014E960E94C60B8D3409F4E9C060E0F1
:1043000070E0CE014E960E94C60B8D3609F4E0C0D7
:104310006FE579E0C8010E94860ABE01625E7F4FA8
:10432000C8010E946D0B61E779E00E94800BBC011F
:104330008DE29FE00E94A208C8010E94190A8DE246
:104340009FE00E948E086EE87DE08DE29FE00E9473
:10435000B408F801852D11928A95E9F765E87EE0A9
:10436000CE0147960E94860AB80184EA91E10E9434
:10437000482A81110BC084EA91E10E94062A68EC68
:1043800070E080E090E00E94810E93C067E0C80179
:104390000E94C82A9885891751F08DE29FE00E94FB
:1043A0008E0867EB7DE08DE29FE00E94B4088DE20D
:1043B0009FE00E948E0858011EA21DA2F501819166
:1043C0005F011F928F937F926F92DF92CF920E9434
:1043D000E239BE01695E7F4FCE0140960E94B30A6A
:1043E000B601CE0140960E94800BBC01C7010E941D
:1043F000B30AB701CE0147960E949C0AC7010E94EA
:10440000190ACE0140960E94190A0F900F900F9042
:104410000F900F900F90AE14BF0471F669EC7DE021
:10442000CE0140960E94860ABE01605F7F4FC701A1
:104430000E94B30ABE01695E7F4FC7010E946D0BE7
:104440006CE874E00E94800BBC018DE29FE00E944A
:10445000A208C7010E94190ACE0140960E94190ABB
:1044600084EA91E10E943D29BE01695E7F4FC70148
:104470000E94B30AB701C4010E942F20C7010E9405
:10448000190A8DE29FE00E948E088DE29FE00E9453
:104490008E0864E779E08DE29FE00E94B4088DE227
:1044A0009FE00E948E086EE87DE08DE29FE00E9412
:1044B000B408CE0147960E94190A60E971E080E0D5
:1044C00090E00E94810ECE014E960E94190AF0CE15
:1044D0006BEE76E08DE29FE00E94B408CE014E962E
:1044E0000E94190AA696EFE00C941939CF92DF9238
:1044F000FF920F931F93CF93DF93CDB7DEB72E9725
:104500000FB6F894DEBF0FBECDBF6C010E946011E4
:1045100097FD07968C0183E0159507958A95E1F73D
:104520006EED7DE0CE0108960E94860ABE01685FAE
:104530007F4FCE0101960E94B30AB801CE010196C9
:104540000E94A70B6DEE7DE00E94800BBC018DE206
:104550009FE00E94A208CE0101960E94190ACE0196
:1045600008960E94190A8DE29FE00E94D203181655
:104570001906CCF78DE29FE00E94FE03F82E982FDB
:104580009F7D993589F563E07EE08DE29FE00E9492
:10459000B40840E050E060E072E0C6010E9475118E
:1045A0006EE07EE0CE0108960E94860ABE01685F3A
:1045B0007F4FCE0101960E94B30AB801CE01019649
:1045C0000E94A70B65E17EE00E94800BBC018DE29A
:1045D0009FE00E94A208CE0101960E94190ACE0116
:1045E00008960E94190A18C09D549230A8F06FE5F1
:1045F00079E0CE0108960E94860ABE01685F7F4F6F
:10460000CE0101960E94B30A6F2DCE0101960E9441
:10461000990B61E779E098CF2E960FB6F894DEBF3C
:104620000FBECDBFDF91CF911F910F91FF90DF9013
:10463000CF900895AEE0B0E0E0E2F3E20C940939E7
:1046400064E779E08DE29FE00E94B4088DE29FE08C
:104650000E94D203181619065CF58DE29FE00E94B5
:10466000FE03182F8F7D8D3441F16FE579E0CE0187
:1046700008960E94860ABE01685F7F4FCE010196B0
:104680000E94B30A612FCE0101960E94990B61E747
:1046900079E00E94800BBC018DE29FE00E94A2089D
:1046A000CE0101960E94190ACE0108960E94190AAD
:1046B00087EB91E10E94CF2DC9CF2E96E3E00C94B9
:1046C0002539AFE0B0E0E7E6F3E20C94FB386C018B
:1046D000462E542E64E779E08DE29FE00E94B408F4
:1046E0008E01075F1F4FCE0101967C0188E0382EB6
:1046F00092E0692E97E0792E812C20E1922E8DE2B6
:104700009FE00E94D203181619062CF58DE29FE057
:104710000E94FE03B82E8F7D8D3409F4EAC06FE548
:1047200079E0C8010E94860AB801C7010E94B30A55
:104730006B2DC7010E94990B61E779E00E94800B05
:10474000BC018DE29FE00E94A208C7010E94190AE5
:10475000C8010E94190AF701232D11922A95E9F741
:10476000B70184EA91E10E94482A81110BC084EAD2
:1047700091E10E94062A68EC70E080E090E00E94DF
:10478000810EB0C067E0C7010E94C82A98858917CA
:1047900051F08DE29FE00E948E0867EB7DE08DE294
:1047A0009FE00E94B4084420A9F0552099F0C6016A
:1047B0000E940D128091841190918511892B51F4E2
:1047C0008DE29FE00E948E0861EC7CE08DE29FE02C
:1047D0000E94B4088DE29FE00E948E0857011A865D
:1047E0001986F50181915F011F928F937F926F92DD
:1047F0001F930F930E94E239B8018DE29FE00E945F
:1048000083080F900F900F900F900F900F90A016AD
:10481000B10629F7442009F44DC08091841190918C
:1048200085111816190634F4552021F0C6010E948E
:10483000D61D03C0C6010E9460119A8789878F3FE9
:10484000FFEF9F0709F455C0209184113091851125
:10485000232B11F051100DC09401281B390B22306D
:1048600031053CF46AEF7CE08DE29FE00E94B408E1
:1048700039C028E030E0A701BC0186E891E10E9440
:104880000D2B8091841190918511892B11F051107D
:1048900011C089859A8508969A878987B80186E02C
:1048A00090E00E94130F87EB91E10E94BA2DC601A0
:1048B0000E94251284EA91E10E943D29552009F4C5
:1048C0004ACF8DE29FE00E948E086AE07DE08DE293
:1048D0009FE00E94B40860E971E080E090E00E94EF
:1048E000810E07C060E971E080E090E00E94810ED7
:1048F00006CF2F96E1E10C941739AEE0B0E0E3E883
:10490000F4E20C94083961E37EE08DE29FE00E94BE
:10491000B4088DE29FE00E94D20318161906CCF766
:104920008DE29FE00E94FE03182F8F7D893599F557
:1049300067E57EE08DE29FE00E94B40800E010E0B1
:104940004FEFB80186E891E10E94A12BC8018F7753
:104950009927892B31F46CE074E08DE29FE00E948E
:1049600083080F5F1F4F011580E1180749F78DE29B
:104970009FE00E948E081A821982BE016F5F7F4FEE
:1049800086E090E00E94130F66E67EE08DE29FE0F5
:104990000E94B40827C08D54823020F16FE579E081
:1049A000CE0108960E94860ABE01685F7F4FCE0145
:1049B00001960E94B30A612FCE0101960E94990BC5
:1049C00061E779E00E94800BBC018DE29FE00E94CC
:1049D000A208CE0101960E94190ACE0108960E94F3
:1049E000190A97CF2E96E4E00C9424391F93CF93A5
:1049F000DF93162FD42FC22F66E370E081EC91E194
:104A00000E94FE30612F81EC91E10E9494306D2F65
:104A100081EC91E10E9494306C2F81EC91E10E9435
:104A2000943081EC91E10E941431DF91CF911F917C
:104A3000089524E540E06EEF0E94F624089520E0FA
:104A400040E466E00E94F6240895FF920F931F93BE
:104A5000CF93DF93F62E8A01E90166E370E081ECE3
:104A600091E10E94FE306F2D81EC91E10E94943023
:104A700081EC91E10E94143142E050E066E370E085
:104A800081EC91E10E94F03081EC91E10E9449308B
:104A9000F801808381EC91E10E9449308883CDB791
:104AA000DEB7E5E00C942339A2E0B0E0EAE5F5E2F8
:104AB0000C9402391A8219829E012F5F3F4FAE017A
:104AC0004E5F5F4F62E00E9425256A8180E1689F0A
:104AD000900111248981682F70E084E075956795B5
:104AE0008A95E1F7622B732B072E000C880B990B2C
:104AF0001F921F9223EC2F9320E52F93A12CB12C12
:104B00006501EE24EA941FE0F12E00E010E020E0C1
:104B100030E0A9010E946F370E941A2F20E030E494
:104B20004CE156E40E94702E0F900F900F900F9062
:104B30002296EAE00C941E39CF92DF92EF92FF9218
:104B4000CF93DF931F921F92CDB7DEB71A821982DF
:104B50009E012F5F3F4FAE014E5F5F4F64E00E94AA
:104B60002525698170E080E090E00E941A2F20E006
:104B700030E040E85BE30E94CF2F6B017C016A814B
:104B800070E080E090E00E941A2F9B01AC01C70109
:104B9000B6010E94FF2D0F900F90DF91CF91FF90F3
:104BA000EF90DF90CF900895CF93DF93EC01862FA5
:104BB0006093C01160E00E9402388091C01190E0C3
:104BC000FC01E75AFC4FE491E883FC01E156FC4FFD
:104BD000E491F0E0EE0FFF1FEB51FC4F85919491B3
:104BE0009A838983DF91CF910895A0E0B0E0EBEF45
:104BF000F5E20C940339EC017B01B88009811A813C
:104C00001A8EF894F80181819B2D909589238183D8
:104C10007894672B49F10E945C0E48EE53E0E49EC5
:104C20009001E59E300DF49E300D11246B017C0146
:104C3000C20ED31EE11CF11CF80180818B2159F4B6
:104C40000E945C0E6B017C01FCE1CF0EF2E0DF1EE6
:104C5000E11CF11C0EC00E945C0EC616D706E806C9
:104C6000F90650F783E011C0F80180818B21E1F74C
:104C7000E7CFF80180818B2159F40E945C0EC616A3
:104C8000D706E806F906A8F784E08A8F80E013C00B
:104C90000E945C0EC61AD70AE80AF90AF7E4CF1692
:104CA000D104E104F10410F085E0EFCF8EE190E053
:104CB0000E94A70E81E0CDB7DEB7E9E00C941F3962
:104CC000FF920F931F93CF93DF93FC01F62E108179
:104CD000C181D281128EF8948A81012F00958023A0
:104CE0008A838981812B898378948DE790E00E9463
:104CF000A70EF89489810823098378948CE291E0C7
:104D00008F1991090E94A70E88818123E9F309E197
:104D100088810150812339F40111FACF82E090E0BB
:104D20000E94A70EF5CFCDB7DEB7E5E00C9423398E
:104D300069E10E9460260895DC013C911196ED9195
:104D4000FC91129780EC90E02081232321F40197BD
:104D5000D9F78AE0089580818323E9F781E00895F7
:104D6000FF920F931F93CF93DF93EC01F88009819B
:104D70001A81F894F80181819F2D90958923818370
:104D8000CE010E949C26813049F08A3011F487E0E0
:104D900001C088E08A8F789480E00BC08EE190E0BB
:104DA0000E94A70EF80190819F2181E009F480E024
:104DB0007894CDB7DEB7E5E00C942339EF92FF92FB
:104DC0000F931F93CF93DF937C01FC01128E08E0B9
:104DD00010E0D1E0C0E0F701828D811109C0C70168
:104DE0000E94B0268111CD2BDD0F0150110999F7DA
:104DF0008C2FCDB7DEB7E6E00C942239A0E0B0E00E
:104E0000E4E0F7E20C9403396C018B01C0E0D0E0E0
:104E1000E42EF12CBC2ECE15DF0564F4C6010E94F1
:104E2000DE26F80181938F01F601828D811102C087
:104E30002196F0CF8B2DCDB7DEB7E9E00C941F396A
:104E4000DF92EF92FF920F931F93CF93DF938C012A
:104E5000D62EFC01E080C181D281F8948981FE2C9C
:104E6000F0948F218983C8010E949C26813041F0F3
:104E70008A3011F487E001C088E0F801828F16C003
:104E8000D0FE05C08EE190E00E94A70E0FC0F894FE
:104E90008A81F822FA8289818E2989838EE190E0C5
:104EA0000E94A70E8A818E298A8378947894CDB740
:104EB000DEB7E7E00C942139EF92FF920F931F9336
:104EC000CF93DF937C01062FFC01128EC8E0D0E067
:104ED00011E0F701828D81110BC061E0802F8123E9
:104EE00009F460E0C7010E942027110F219789F77C
:104EF000CDB7DEB7E6E00C942239A0E0B0E0E3E8FD
:104F0000F7E20C9403396C018B01C0E0D0E0E42E91
:104F1000F12CBC2ECE15DF0564F4F80161918F01F0
:104F2000C6010E945C27F601828D811102C0219684
:104F3000F0CF8B2DCDB7DEB7E9E00C941F39A0E0A0
:104F4000B0E0E5EAF7E20C940039EC018C014C0189
:104F500088E0880E911C88E0C82ED12CBB24B39425
:104F6000F801E4800E2C000CFF088B2D90E0E82265
:104F7000F922AA24A394E114F10409F4A12C6A2DC6
:104F8000CE010E94202761E0E114F10409F060E005
:104F9000CE010E942027CE010E94B0269A8D911149
:104FA0000EC0A8120CC0BB0CF1E0CF1AD108C1F69C
:104FB0000F5F1F4F8016910671F681E001C080E0FF
:104FC000CDB7DEB7ECE00C941C39FB0180E06CE857
:104FD000415088F0519198E0782F7527282F30E0C4
:104FE00035952795822F70FF02C0862F8227569510
:104FF000915091F7EDCF0895CF93DF93EC01DB0152
:10500000FC0134960B96BF012D912193E817F90707
:10501000D9F747E0CE010E94E5278B87DF91CF913A
:105020000895CF93DF93EC01FB0180818E8781810E
:105030008F878281888BBE01645F7F4F48E0CE01FD
:105040000E94E5278C8BDF91CF9108950F931F93DA
:10505000CF93DF93EC010E94DE268E3441F148F4B9
:105060008434D1F0883491F5E091BC11F091BD11F8
:105070001CC0883BB1F08E3B39F0843B39F56B8125
:10508000CE010E9420271FC0BE01645F7F4F49E010
:10509000CE010E947D2717C0E091BE11F091BF1193
:1050A00004C0E091BA11F091BB1119950CC08E01AA
:1050B0000B5E1F4F43E0B801CE010E94FE26B801EF
:1050C000CE010E9411288A8D811101C001C080E0AB
:1050D000DF91CF911F910F910895A8E0B0E0E3E731
:1050E000F8E20C9406398C017C0184E0E80EF11C96
:1050F000C8010E94DE268C3C09F451C028F4833399
:1051000069F1853589F154C08C3E19F0803F09F171
:105110004FC0F8018585082E000C990B982F882721
:105120002485022E000C330B822B932B34E09595B3
:1051300087953A95E1F72785022E000C330B281747
:10514000390738F42685022E000C330B821793079B
:1051500018F0C8010E949F2780E030C048E0B701E6
:10516000C8010E947D2724C048E0BE016F5F7F4FC9
:10517000C8010E94FE26F801828D8111EDCFD80171
:105180001496FE013196C8010C963D91219132137F
:10519000E3CFA817B907C9F7C8010E942628C8019C
:1051A0000E94262881E0F801928D992339F0D4CF0E
:1051B000F801828D882309F49BCFCECF2896E6E0B4
:1051C0000C942239AEE0B0E0E8EEF8E20C94063937
:1051D0008C01E62EFC01128E8DE29FE00E94D2032C
:1051E000181619066CF58DE29FE00E94FE03F82E5A
:1051F0008F7D8D3411F481E03CC06FE579E0CE0104
:1052000008960E94860ABE01685F7F4FCE01019614
:105210000E94B30A6F2DCE0101960E94990B61E79F
:1052200079E00E94800BBC018DE29FE00E94A20801
:10523000CE0101960E94190ACE0108960E94190A11
:1052400060E070E0C8010E94F525882329F2C801BA
:105250000E949826882309F4BFCFC8010E946D28B8
:105260008111C9CFF801928D992309F4B5CFE110CE
:10527000B3CF2E96E6E00C9422390F931F93CF9371
:105280008C0160E0FC0182850E940238CEE7C150AB
:1052900069F182E090E00E94A70EF80182850E94E9
:1052A0006D38892BA1F360E0F80182850E943E38B9
:1052B00061E0F80182850E94023884EF91E00E944B
:1052C000A70E60E0F80182850E94023881E490E038
:1052D0000E94A70EF80182850E946D38C1E0892BDB
:1052E00009F0C0E08AEE91E00E94A70E8C2FCF91CA
:1052F0001F910F9108950F931F93CF93DF93EC01AC
:10530000E989FA8990818C85892B8083ED85FE85DA
:1053100090818C85809589238083062F017010E011
:10532000F801E858F14F808190E00E94A70EED85CA
:10533000FE8590818C85892B8083F801EA58F14F96
:10534000808190E00E94A70EDF91CF911F910F9175
:105350000895CF93DF93EC01E989FA8990818C85D8
:10536000892B8083ED85FE8590818C8580958923AE
:10537000808381E090E00E94A70EE989FA899081FC
:105380008C8580958923808385E090E00E94A70E1C
:10539000EF85F88990818C858923C1E009F4C0E00C
:1053A00082E390E00E94A70E8C2FDF91CF910895A9
:1053B000DF92EF92FF920F931F93CF93DF93EC0155
:1053C000D62EE42E08E010E0FF24F39461E08D2D4A
:1053D0008F2109F460E0CE010E947B29FF0C01506F
:1053E0001109A1F7E11008C060E08A850E94023827
:1053F00060E08A850E943E38CDB7DEB7E7E00C94C6
:10540000213940E06CEC0E94D8290895FC018FEF0F
:105410008087118617821682158214821382128267
:10542000118210820895DC011A966C931A9770E02D
:10543000FB01E156FC4F24911B962C931B97FB011B
:10544000E75AFC4F64911C966C931C9730E0220F36
:10545000331FF901E150FC4F859194911E969C9366
:105460008E931D97F901EB51FC4F859194915096C5
:105470009C938E931F97F901E75EFB4F8591949162
:1054800052969C938E935197CD010E94062A0895BF
:10549000A0E0B0E0EEE4FAE20C940139FC012185D1
:1054A000222311F080E06FC06B01EC010E943D29C6
:1054B0008823C1F340E060EFCE010E94D82900E0CC
:1054C00010E0BB24B39499249A94EE24E394F12C35
:1054D000CE010E94A929A82ECE010E94A929402F01
:1054E000469546954695902F9770970101C0220FDB
:1054F0009A95EAF7AA2019F0882311F1D3CFE42F67
:10550000F0E0811123C08885082E000C990B081744
:10551000190711F498860EC0081719073CF4DE012C
:10552000AE0FBF1F8C91822329F402C0088780E050
:10553000B12C01C081E0902E882341F0AA24A394CD
:10554000FE01E40FF11D8081282B05C0EC0FFD1F2B
:1055500020958081282320836A2DCE010E947B29FB
:105560000F5F1F4F0034110509F0B2CFBB2011F0BF
:1055700081E08987F601CE010896299121938C1745
:105580009D07D9F781E0CDB7DEB7EBE00C941D396C
:10559000582FFC0180E07CE89E2F951B961788F41D
:1055A000419198E0A82FA427282F30E03595279522
:1055B000822FA0FF02C0872F82274695915091F736
:1055C000EBCF0895FC0162830895CF93DF93EC0144
:1055D000CB01798368830E94D4306A818881998164
:1055E0000E94F43088819981DC01ED91FC91019059
:1055F000F081E02D60E0199588819981DC01ED91C1
:10560000FC910190F081E02D60E0199588819981ED
:105610000E941431DF91CF910895A0E0B0E0E3E162
:10562000FBE20C9400398C016B015A017901CB012A
:10563000820F931F8130904108F07BC090E2892E49
:10564000E114F10409F477C09C2C8C2D8F71C82DC6
:10565000C81BD0E0EC16FD0608F4E701D80112964D
:105660006C9112978D919C910E94F430F801808189
:105670009181DC01ED91FC910190F081E02D6D2D87
:105680001995F80180819181DC01ED91FC910190E7
:10569000F081E02D692D1995F80180819181CF313C
:1056A00008F0CEE1D0E0DC01ED91FC910280F381C5
:1056B000E02DAE01B5011995F801808191810E941C
:1056C0001431811139C084E6982E84EF91E00E9454
:1056D000A70ED80112966C9112978D919C910E9401
:1056E000F430F80180819181DC01ED91FC91019011
:1056F000F081E02D60E01995F80180819181DC0155
:10570000ED91FC910190F081E02D60E01995F80198
:10571000808191810E941431882321F09A94911004
:10572000D4CF0AC0CC0EDD1EAC0EBD1EEC1AFD0A95
:1057300087CF89E001C080E0CDB7DEB7ECE00C9404
:105740001C39A1E0B0E0E7EAFBE20C940A39498396
:1057500021E030E0AE014F5F5F4F0E940D2B21969C
:10576000E2E00C942639A0E0B0E0E9EBFBE20C9417
:10577000FE38EC015B016A018901CB01820F931FA6
:105780008130904108F04AC00115110509F448C064
:1057900078010132110518F080E2E82EF12C7E2C00
:1057A0006A81888199810E94F43088819981DC0125
:1057B000ED91FC910190F081E02D6B2D1995888180
:1057C0009981DC01ED91FC910190F081E02D6A2D31
:1057D0001995888199810E941431811122C04E2D22
:1057E0006A81888199810E94EC306C2C4601888105
:1057F0009981DC01ED91FC910680F781E02D1995EE
:10580000F40181934F018E2F8619871580F3AE0C1A
:10581000BF1CCE0CDF1C0E191F09B6CF89E001C0DA
:1058200080E0CDB7DEB7EEE00C941A39A1E0B0E02D
:10583000ECE1FCE20C940A3921E030E0AE014F5F6C
:105840005F4F0E94B32B811101C089812196E2E054
:105850000C94263961E082E00E94023861E085E024
:105860000E9402380895CF93DF93EB0140E056E9A0
:1058700060E070E08DE29FE00E9472066AE77EE0E1
:105880008DE29FE00E948308BE018DE29FE00E94AE
:10589000580863E87EE08DE29FE00E94830864E69A
:1058A00070E080E090E00E94810E66E87EE08DE28C
:1058B0009FE00E94830863E87EE08DE29FE00E9403
:1058C000830864E670E080E090E00E94810E68EC5E
:1058D00070E080E090E00E94810E8DE29FE00E94E7
:1058E000F606DF91CF91089540E056E960E070E060
:1058F0008DE29FE00E9472066FE87EE08DE29FE0FD
:105900000E94830863E87EE08DE29FE00E948308A6
:1059100064E670E080E090E00E94810E62EA7EE042
:105920008DE29FE00E94830863E87EE08DE29FE0C5
:105930000E94830864E670E080E090E00E94810E9F
:1059400068EC70E080E090E00E94810E8DE29FE0C4
:105950000E94F606089560E085E00E943E380895B2
:1059600061E085E00E943E38089561E082E00E9497
:105970003E38089560E082E00E943E380895CF935B
:10598000DF93EC010E94BA2C64E670E080E090E0C6
:105990000E94810ECE010E94B02C6AE070E080E08F
:1059A00090E00E94810ECE010E94B52C68EB7BE056
:1059B00080E090E00E94810EDF91CF910895CF9317
:1059C000DF93EC010E94BA2C64E670E080E090E086
:1059D0000E94810ECE010E94AB2C6AE070E080E054
:1059E00090E00E94810ECE010E94B52C6CE271E025
:1059F00080E090E00E94810EDF91CF910895A9E0B0
:105A0000B0E0E5E0FDE20C9408398C0182E090E022
:105A10000E94DB3C888783E090E00E94DB3C898722
:105A2000888599858A3A910591F1C8010E94BF2C19
:105A3000C8010E94742C6BEA7EE0CE0101960E94A0
:105A4000860ABE016F5F7F4FC8010E94332CCE01D2
:105A500001960E94190A82E090E00E94DB3C8A3A9B
:105A600029F06AEA82E090E00E94E33C83E090E063
:105A70000E94DB3C882329F060E083E090E00E94F4
:105A8000E33C6AE070E080E090E00E94810EC80193
:105A90000E94DF2C2996E4E00C94243961E089E02F
:105AA0000E9402380895CF92DF92EF92FF920F93F7
:105AB0001F936A017B01C901B80120E030E0A90110
:105AC0008AE00E947533C701B6010E94810E8AE008
:105AD0000E94F936C701B6010E94810E1F910F91F5
