:100000000C9414020C9445020C9445020C94450285
:100010000C9445020C9445020C9445020C94450244
:100020000C9445020C9445020C9445020C94450234
:100030000C9445020C94B6330C9445020C94450282
:100040000C9445020C9445020C9445020C94450214
:100050000C9445020C9445020C9445020C944710F4
:100060000C9445020C941F070C940F080C94450245
:100070000C9445020C9445020C9445020C944502E4
:100080000C9445020C9445020C9445020C944502D4
:100090000C9453070C944E080C9445020C943A05AA
:1000A0000C9445020C9445020C9445020C944502B4
:1000B0000C9445020C9445020C9445020C944502A4
:1000C0000C9445020C9445020C9445020C9487074D
:1000D0000C948D080C9445020C94BB070C94CC082E
:1000E0000C94450290029B02A402B102BC02C7021A
:1000F000D202DA02E602EE02460346034603460354
:1001000046038B024603F90204030F031A03250377
:1001100030033B038B0246034603460346038B0230
:100120004603460346034603460346034603460387
:100130004603460346034603460346034603460377
:10014000460346034603F90204030F031A0325037B
:1001500030033B038B0246034603460346038B02F0
:100160006B116E1161116511A511721176117C115F
:10017000801184118A118E119211A51198119C1170
:10018000A0110C94D0150C946B060C94B32B0C940A
:10019000DA020C940A290C9476110C947B060C94C8
:1001A00089030C94B7060C948F090C9469280C945D
:1001B0006E110C949C0B0C940F1E0C9461110C94FA
:1001C0001A030C94350D0C940F030C9460270C94B7
:1001D0008B020C942E140C94610A0C9458040C9409
:1001E000A4020C94C2060C945D0B0C94B3030C9403
:1001F000541F0C94B1020C9462020C941E2D0C94AA
:10020000D8290C94EE070C94A0110C949C110C941A
:100210007E170C94782C0C9488210C9492150C94D5
:10022000BC020C94812D0C9493160C94870F0C94A3
:10023000100E0C94E8280C949B020C9490020C94E1
:1002400089220C94AC030C94A5110C94F9020C9423
:10025000D5240C9473240C946D020C94D2020C944B
:10026000670A0C94D4030C94940D0C949F0A0C947C
:1002700084110C940D0B0C94E81A0C947C110C94C2
:100280009D030C940C2D0C94F41B0C94EE020C9416
:1002900025030C941C0D0C944D2A0C94BF260C9431
:1002A000DA030C9497060C9480110C9481030C943F
:1002B0008A110C9422300C946B110C94AF180C948E
:1002C00016140C9465110C94AD030C9472110C94DB
:1002D00046030C948E110C94810D0C9498110C947F
:1002E000C7020C9430030C943B030C947D160C94C1
:1002F00004030C9492110C94EB250C94E60200007C
:10030000090A02080B0C0D07060304010000000097
:1003100000000000000000000000000000000000DD
:100320000000000000000000000011100F0000009D
:1003300000000000000000000000000000000000BD
:1003400000000000010210202008081020401020AA
:100350004080020102010804020101020408102089
:100360004080804020100804020180040201804087
:1003700020100804020108040201010204081020F0
:10038000408001020408102040800505050507058E
:1003900008080808020202020A0A08080404040401
:1003A000010101010101010103030303030303032D
:1003B000040707070C0C0C0C0C0C0C0C02020202BC
:1003C00006060606060606060B0B0B0B0B0B0B0BA5
:1003D000000020002300260029002C002F003200FE
:1003E00000010000030106010901000022002500B0
:1003F00028002B002E00310034000201000005010E
:1004000008010B0100002100240027002A002D0014
:100410003000330001010000040107010A0102005D
:10042000620258048F097D1611241FBECFEFD1E25E
:10043000DEBFCDBF00E00CBF1CE0A0E0B2E0E8E60C
:10044000F1E700E00BBF02C007900D92A035B107A5
:10045000D9F720E1A0E5BCE001C01D92A733B207A7
:10046000E1F712E0C4E1D2E000E006C02197010903
:10047000802FFE010E94A834C031D10780E0080718
:10048000A9F70E94530E0C94B2380C94000081E539
:100490009CE00E94140440E052EC61E070E087E7C9
:1004A0009DE00E940B0980E59CE00E94D81468EE54
:1004B00073E080E090E00E94C21080E59CE00E9422
:1004C0005C12089580E59CE00E945B120895A5E10E
:1004D000B0E0EDE6F2E00C94CB3487E79DE00E94BB
:1004E0006B06181619060CF008C187E79DE00E94FC
:1004F0009706682F082E000C990BAA0BBB0BFC016A
:10050000F097EE33F10508F0C1C08827EE58FF4F91
:100510008F4F0C94A83480E59CE00E945C12E3C0ED
:1005200067E072E087E79DE00E94F50A80E59CE0C5
:100530000E94F214D8C066E172E087E79DE00E9455
:10054000F50A40E060E008C064E272E087E79DE001
:100550000E94F50A40E061E080E59CE00E94CF2423
:10056000C2C065E472E087E79DE00E94F50A80E57D
:100570009CE00E94C923B7C064E572E087E79DE074
:100580000E94F50A80E59CE00E94E21AACC064E794
:1005900072E087E79DE00E94F50A80E59CE00E94FA
:1005A000EE1BA1C063E972E087E79DE00E94F50AB7
:1005B00060E007C06BEA72E087E79DE00E94F50A01
:1005C00061E080E59CE00E942B208DC060ED72E030
:1005D00087E79DE00E94F50A41E0BDCF6DEF72E034
:1005E00087E79DE00E94F50A80E59CE00E948D1659
:1005F0007AC062E173E087E79DE00E94F50A80E53A
:100600009CE00E946D246FC061E273E087E79DE08B
:100610000E94F50A80E59CE00E94E52564C060E345
:1006200073E087E79DE00E94F50A80E59CE00E9468
:10063000091E59C067E473E087E79DE00E94F50A50
:1006400080E59CE00E9478174EC06EE673E087E775
:100650009DE00E94F50A80E59CE00E94A91843C035
:100660006FE873E087E79DE00E94F50A80E59CE073
:100670000E94832238C06EE973E087E79DE00E9404
:10068000F50A80E59CE00E94EA122DC0CE01089692
:100690000E94160D65ED73E0CE010F960E94C70C07
:1006A000BE01615F7F4FCE0101960E94F40CBE0136
:1006B000685F7F4FCE0101960E94AE0D68EE73E039
:1006C0000E94C10DBC0187E79DE00E94E30ACE01B4
:1006D00001960E945A0CCE010F960E945A0CCE0130
:1006E00008960E945A0C68EE73E080E090E00E9449
:1006F000C21080E59CE00E945C126596E2E00C94DA
:10070000E7348091810C90E02091820C821B91094A
:1007100008959091820C8091810C981750F4E92FE4
:10072000F0E0ED57F34F208130E09F5F9093820C13
:1007300002C02FEF3FEFC9010895E091820C809134
:10074000810CE81730F4F0E0ED57F34F808190E032
:1007500008958FEF9FEF08950895A0E0B0E0E3EBD8
:10076000F3E00C94C5347C01CB018A0120915D0C2F
:10077000222389F0EB016B01C40ED51ECC15DD05DB
:1007800069F06991D701ED91FC910190F081E02D24
:10079000C7011995F3CF642F0E941105C801CDB789
:1007A000DEB7E8E00C94E134A1E0B0E0EAEDF3E07C
:1007B0000C94CB34698320915D0C2223D1F02091DD
:1007C0005E0C203240F021E030E0FC0133832283D4
:1007D00080E090E015C080915F0CE82FF0E0E05AD7
:1007E000F34F998190838F5F80935F0C80935E0CB1
:1007F00005C061E0CE0101960E94110581E090E004
:100800002196E2E00C94E734FC011382128288EE18
:1008100093E0A0E0B0E084839583A683B7838FEE56
:1008200093E09183808308951092820C1092810C42
:1008300010925F0C10925E0C0E945D040895862F4A
:10084000413208F040E263E87CE00E947B041092B1
:10085000820C8093810C089521E00E941F0408956A
:1008600021E00E941F04089581E080935D0C609355
:10087000800C10925F0C10925E0C08950E9434045C
:1008800008950F93062F21E040915E0C60E67CE016
:100890008091800C0E94BF0410925F0C10925E0C3D
:1008A00010925D0C0F91089561E00E94410408953B
:1008B00081E59CE00E94040408951092100D81E0EF
:1008C00080930E0D10920D0D61E084E10E94E21103
:1008D00061E085E10E94E211E9EBF0E080818E7F2A
:1008E000808380818D7F808388E48093B80085E455
:1008F0008093BC000895413208F03FC09091100DE4
:100900009111FCCF91E09093100D20930E0D2FEFDD
:100910002093A30C1092E80C240F2093E70C9093E3
:100920000F0D90910F0D880F892B80930F0D8091E3
:100930000D0D813041F410920D0D80910F0D8093BB
:10094000BB0085EC01C085EE8093BC008091100D4A
:100950008130E1F38091E80C841710F44091E80CA9
:10096000A9EEBCE0962FFB018E2F891B841718F48B
:100970008D918193F9CF842F089580E008950F938E
:10098000413208F046C09091100D9111FCCF32E039
:100990003093100D00930E0D3FEF3093A30C109287
:1009A000E80C4093E70C562FA9EEBCE0FB013E2F6C
:1009B000351B341718F431913D93F9CF10920F0D78
:1009C00030910F0D880F832B80930F0D80910D0DAB
:1009D000813041F410920D0D80910F0D8093BB007A
:1009E00085EC01C085EE8093BC00222321F080912C
:1009F000100D8230D1F38091A30C8F3F79F080915C
:100A0000A30C803241F08091A30C803331F094E04C
:100A100005C091E003C092E001C093E0892F0F91DF
:100A20000895613298F42091100D243089F4609378
:100A3000C50C282FA7ECBCE0FC018E2F821B86176B
:100A400018F481918D93F9CF80E0089581E00895A5
:100A500082E0089585ED8093BC008091BC0084FD08
:100A6000FCCF1092100D089585EC8093BC0010927D
:100A7000100D08951F920F920FB60F9211240BB60E
:100A80000F922F933F934F935F936F937F938F9327
:100A90009F93AF93BF93EF93FF938091B900887FAB
:100AA000803609F49CC068F5883209F45BC090F484
:100AB000803109F454C038F4882309F4F5C0883033
:100AC00009F44DC0F5C0883109F44CC0803209F4F6
:100AD0005DC0EEC0803409F468C048F4803309F486
:100AE00055C0883309F0E4C08093A30CA8C08035BA
:100AF00009F44FC0883509F45DC0883409F0D8C0C6
:100B0000D5C0883909F4C6C0A8F4883709F467C08D
:100B100038F4883609F463C0803709F460C0C8C06F
:100B2000883809F4B7C0803909F45FC0803809F00B
:100B3000BFC05BC0803B09F485C038F4803A09F43B
:100B400066C0883A09F47EC0B3C0803C09F4A6C0F0
:100B5000883C09F4A3C0883B09F489C0A9C08091EE
:100B60000F0D10C09091E80C8091E70C981770F56C
:100B7000E091E80C81E08E0F8093E80CF0E0E75103
:100B8000F34F80818093BB0085EC85C08093A30CDC
:100B90008DC0E091E80C81E08E0F8093E80C80918D
:100BA000BB00F0E0E751F34F80839091E80C809117
:100BB000E70C6DC0E091E80C81E08E0F8093E80CAB
:100BC0008091BB00F0E0E751F34F808380910E0DE0
:100BD00081116CC081E080930D0D84EA60C083E0D8
:100BE0008093100D1092A40CCFCF8091A40C803272
:100BF00008F050C0E091A40C81E08E0F8093A40C0B
:100C00008091BB00F0E0EB55F34F8083BDCF809126
:100C1000A40C803230F4E091A40CF0E0EB55F34FDB
:100C200010820E942A056091A40C70E0E091090DE9
:100C3000F0910A0D85EA9CE019951092A40C0E948F
:100C4000340536C084E08093100D1092C60C1092CB
:100C5000C50CE0910B0DF0910C0D19958091C50C10
:100C6000811105C081E08093C50C1092C70CE09102
:100C7000C60C81E08E0F8093C60CF0E0E953F34F71
:100C800080818093BB009091C60C8091C50C981711
:100C900008F47ACF85E88093BC000AC085EC809385
:100CA000BC001092100D04C01092A30C0E942A05E3
:100CB000FF91EF91BF91AF919F918F917F916F9134
:100CC0005F914F913F912F910F900BBE0F900FBEF0
:100CD0000F901F901895FC0124853585F901E05C83
:100CE000FF4F80819181329620813181821B930B4D
:100CF0008F7399270895DC011C96ED91FC911D9747
:100D0000DF01A05CBF4F2D913C91119712968D9100
:100D10009C9111972817390739F08D919C91E80F14
:100D2000F91F808190E008958FEF9FEF0895FC01F7
:100D3000A485B585FD01E05CFF4F208131813296AD
:100D4000808191812817390779F080819181A80FDE
:100D5000B91F8C91208131812F5F3F4F2F73332733
:100D60003183208390E008958FEF9FEF0895FC0179
:100D700081A1882329F0A489B5898C9186FFFBCFB6
:100D800011A208950F931F93CF93DF93FC01A685C3
:100D9000B7858D01005C1F4FE8018881998101961C
:100DA0008F739927AD014E5B5F4FEA01288139812E
:100DB00028173907D1F3E80128813981A20FB31F21
:100DC0006C93A685B785A05CBF4F11969C938E93BC
:100DD000A689B7892C9181E090E0078C02C0880F2A
:100DE000991F0A94E2F7822B8C9381E081A30488F7
:100DF000F589E02D80818064808381E090E0DF913F
:100E0000CF911F910F910895FB01E05CFF4F20816E
:100E10003181DB01AE5BBF4F4D915C912F5F3F4F46
:100E20002F7333274217530741F040815181DB0173
:100E3000A40FB51F8C9331832083089508951F92CA
:100E40000F920FB60F9211240BB60F922F933F9370
:100E50004F935F936F937F938F939F93AF93BF93C2
:100E6000EF93FF938091C00082FD07C08091C60080
:100E700065E77FE00E94040702C08091C600FF91F1
:100E8000EF91BF91AF919F918F917F916F915F9102
:100E90004F913F912F910F900BBE0F900FBE0F906F
:100EA0001F90189508951F920F920FB60F9211245C
:100EB0000BB60F922F933F934F935F936F937F9354
:100EC0008F939F93AF93BF93EF93FF938091C8004D
:100ED00082FD07C08091CE006DEE7EE00E94040787
:100EE00002C08091CE00FF91EF91BF91AF919F9191
:100EF0008F917F916F915F914F913F912F910F90C3
:100F00000BBE0F900FBE0F901F90189508951F9263
:100F10000F920FB60F9211240BB60F922F933F939F
:100F20004F935F936F937F938F939F93AF93BF93F1
:100F3000EF93FF938091D00082FD07C08091D6008F
:100F400065E67EE00E94040702C08091D600FF9112
:100F5000EF91BF91AF919F918F917F916F915F9131
:100F60004F913F912F910F900BBE0F900FBE0F909E
:100F70001F90189508951F920F920FB60F9211248B
:100F80000BB60F922F933F934F935F936F937F9383
:100F90008F939F93AF93BF93EF93FF938091300113
:100FA00082FD07C0809136016DED7DE00E9404074F
:100FB00002C080913601FF91EF91BF91AF919F9157
:100FC0008F917F916F915F914F913F912F910F90F2
:100FD0000BBE0F900FBE0F901F90189587E79DE0F6
:100FE0000E946B06892B11F00E941E0785E59DE08B
:100FF0000E946B06892B11F00E94520783E39DE04B
:101000000E946B06892B11F00E94860781E19DE00A
:101010000E946B06892B11F00E94BA0708951F9257
:101020000F920FB60F9211240BB60F922F933F938E
:101030008F939F93EF93FF932091710F3091720FD5
:101040008091730F9091740F2817390731F48091B4
:10105000C1008F7D8093C10014C0E091730FF091A7
:10106000740FEF5CF04F20818091730F9091740F9B
:1010700001968F7399279093740F8093730F209329
:10108000C600FF91EF919F918F913F912F910F900B
:101090000BBE0F900FBE0F901F9018951F920F92CE
:1010A0000FB60F9211240BB60F922F933F938F938D
:1010B0009F93EF93FF932091E90E3091EA0E809178
:1010C000EB0E9091EC0E2817390731F48091C9008E
:1010D0008F7D8093C90014C0E091EB0EF091EC0E6F
:1010E000E755F14F20818091EB0E9091EC0E019627
:1010F0008F7399279093EC0E8093EB0E2093CE0084
:10110000FF91EF919F918F913F912F910F900BBE87
:101110000F900FBE0F901F9018951F920F920FB651
:101120000F9211240BB60F922F933F938F939F939F
:10113000EF93FF932091610E3091620E8091630EC8
:101140009091640E2817390731F48091D1008F7D7A
:101150008093D10014C0E091630EF091640EEF5DB6
:10116000F14F20818091630E9091640E01968F73F0
:1011700099279093640E8093630E2093D600FF917D
:10118000EF919F918F913F912F910F900BBE0F90F8
:101190000FBE0F901F9018951F920F920FB60F92CF
:1011A00011240BB60F922F933F938F939F93EF933E
:1011B000FF932091D90D3091DA0D8091DB0D909144
:1011C000DC0D2817390731F4809131018F7D809330
:1011D000310114C0E091DB0DF091DC0DE756F24FC8
:1011E00020818091DB0D9091DC0D01968F73992702
:1011F0009093DC0D8093DB0D20933601FF91EF91EE
:101200009F918F913F912F910F900BBE0F900FBE2A
:101210000F901F901895CF92DF92EF92FF92CF938D
:10122000DF93EC016A017B014115514E61057105A7
:1012300009F1EC89FD8981E090E008A002C0880FE7
:10124000991F0A94E2F7808360E079E08DE390E0F3
:10125000A70196010E946734DA01C9010197A1092B
:10126000B109B695A795979587959C01211580E1C1
:101270003807A8F0EC89FD89108260E874E88EE1F7
:1012800090E0A70196010E946734DA01C901019735
:10129000A109B109B695A795979587959C01E8890D
:1012A000F9893083EA89FB89208319A2EE89FF89B5
:1012B000408181E090E09C010C8C02C0220F331F22
:1012C0000A94E2F7242B2083EE89FF8940819C0158
:1012D0000D8C02C0220F331F0A94E2F7242B2083C7
:1012E000EE89FF8940819C010E8C02C0220F331FC2
:1012F0000A94E2F7242B2083EE89FF8920810F8C4A
:1013000002C0880F991F0A94E2F780958223808398
:10131000DF91CF91FF90EF90DF90CF900895CF9223
:10132000DF92EF92FF92E7E7FDE01382128288EEF0
:10133000C82E83E0D82EE12CF12CC482D582E6821F
:10134000F7826FEF73E07183608385E79FE0958795
:10135000848781E39FE09787868785EC90E0918B77
:10136000808B84EC90E0938B828B80EC90E0958B6B
:10137000848B81EC90E0978B868B82EC90E0918F50
:10138000808F86EC90E0938F828F44E0448F33E02F
:10139000358F27E0268F95E0978F81E080A3E5E5E4
:1013A000FDE013821282C482D582E682F7827183C5
:1013B0006083ADEEBEE0B587A487A9EABEE0B7873B
:1013C000A687ADECB0E0B18BA08BACECB0E0B38BFA
:1013D000A28BA8ECB0E0B58BA48BA9ECB0E0B78BE6
:1013E000A68BAAECB0E0B18FA08FAEECB0E0B38FCB
:1013F000A28F448F358F268F978F80A3E3E3FDE084
:1014000013821282C482D582E682F782718360835E
:10141000A5E6BEE0B587A487A1E2BEE0B787A687B0
:10142000A5EDB0E0B18BA08BA4EDB0E0B38BA28BA7
:10143000A0EDB0E0B58BA48BA1EDB0E0B78BA68B8F
:10144000A2EDB0E0B18FA08FA6EDB0E0B38FA28F78
:10145000448F358F268F978F80A3E1E1FDE01382C3
:101460001282C482D582E682F782718360836DED39
:101470007DE07587648769E97DE07787668765E346
:1014800071E0718B608B64E371E0738B628B60E35E
:1014900071E0758B648B61E371E0778B668B62E33F
:1014A00071E0718F608F66E371E0738F628F448F9C
:1014B000358F268F978F80A3FF90EF90DF90CF908E
:1014C0000895A0E0B0E0E7E6FAE00C94C5346C01C2
:1014D000EB017B01E40EF51E00E010E0CE15DF0508
:1014E00061F06991D601ED91FC910190F081E02DC0
:1014F000C6011995080F191FF1CFC801CDB7DEB786
:10150000E8E00C94E1346115710581F0FB01019074
:101510000020E9F73197AF01461B570BDC01ED9135
:10152000FC910280F381E02D1995089580E090E010
:101530000895A0E0B0E0EFE9FAE00C94C3347C0138
:101540006B01C0E0D0E000E010E0D60114968D9170
:101550009C911597C817D90788F4D701ED91FC9194
:10156000A080B180BE01C6010E94F60D682FC701A0
:10157000F5011995080F191F2196E7CFC801CDB7BE
:10158000DEB7EAE00C94DF340E94830A0895DC01A0
:10159000ED91FC910190F081E02D199508950F9344
:1015A0001F93CF93DF93EC016DE00E94C70A8C017B
:1015B0006AE0CE010E94C70A800F911FDF91CF9190
:1015C0001F910F9108950F931F93CF93DF93EC0119
:1015D0000E94990A8C01CE010E94CF0A800F911FB0
:1015E000DF91CF911F910F9108950F931F93CF9388
:1015F000DF93EC010E94830A8C01CE010E94CF0A86
:10160000800F911FDF91CF911F910F910895A1E25B
:10161000B0E0EDE0FBE00C94C1346C01142FE52F39
:10162000CB01022F19A2223008F40AE07E0121E248
:10163000E20EF11C802E912CA12CB12C612F7E2F5B
:10164000A50194010E946734029F1019112481E0C2
:10165000E81AF1081A3014F4105D01C0195CF701A2
:101660001083122FE32FCA01232B242B252B31F7B4
:10167000B701C6010E94830AA196ECE00C94DD3408
:101680002115310549F4DC01ED91FC910190F081C7
:10169000E02D642F199508950E94070B08959A0173
:1016A000462F50E060E070E00E94400B0895A0E0FB
:1016B000B0E0EDE5FBE00C94C5348C016A017B01E0
:1016C0002115310549F4DC01ED91FC910190F08187
:1016D000E02D642F19951DC02A303105A9F477FF3C
:1016E00012C06DE20E94C70AEC0144275527BA01D7
:1016F0004C195D096E097F092AE0C8010E94070B99
:101700008C0F9D1F06C02AE0B701A601C8010E94E8
:10171000070BCDB7DEB7E8E00C94E1349A01AB01DA
:10172000770F660B770B0E94570B0895A0E0B0E08F
:10173000ECE9FBE00C94C0348C016A017B01722E51
:101740009A01AB01C701B6010E94CD2F882319F081
:101750006BE074E027C046015701E894B7F82FEF1B
:101760003FEF4FE75FE7C501B4010E94CD2F811124
:101770000DC02FEF3FEF4FE75FE7C501B4010E94B7
:10178000FC2D18161CF46FE074E00CC02FEF3FEF37
:101790004FE75FE4C701B6010E945B2F181634F4CF
:1017A00063E174E0C8010E94830A7CC02FEF3FEF21
:1017B0004FE75FECC701B6010E94FC2D87FDF0CF1B
:1017C00020E030E0A901C701B6010E94FC2D87FF8F
:1017D0000AC06DE2C8010E94C70AEC01F7FAF09452
:1017E000F7F8F09402C0C0E0D0E0B12C60E070E007
:1017F00080E09FE37B1441F020E030E040E251E4E0
:101800000E94012EB394F6CFA70196010E94902D5D
:101810006B017C010E947A2E4B015C012AE0AB0136
:10182000BC01C8010E94070BC80FD91F7720C9F15E
:10183000C501B4010E94A92E9B01AC01C701B601EC
:101840000E948F2D6B017C0164E97AE0C8010E943F
:10185000830AC80FD91F20E030E040E251E4C701FD
:10186000B6010E94602F4B015C010E94732E6B0138
:101870007C014AE050E0C8010E948E0BC80FD91FBE
:10188000B601DD0C880B990B0E94AB2E9B01AC01BD
:10189000C501B4010E948F2D6B017C017A947110F7
:1018A000DACFCE01CDB7DEB7EDE00C94DC340E9488
:1018B000960B0895FC01808191810E94F80E089595
:1018C000CF93DF93EC0188819981009711F00E94FA
:1018D000F80E198218821D821C821B821A82DF91E7
:1018E000CF9108950F931F93CF93DF93EC018B015A
:1018F0006F5F7F4F888199810E94810F009731F03F
:10190000998388831B830A8381E001C080E0DF9193
:10191000CF911F910F910895CF93DF93EC018881B0
:101920009981892B29F08A819B818617970760F41A
:10193000CE010E94720C882341F08C819D81892BFD
:1019400019F4E881F981108281E0DF91CF91089547
:10195000EF92FF920F931F93CF93DF93EC017B01E4
:101960008A01BA010E948C0C811104C0CE010E9430
:10197000600C07C01D830C83B701888199810E9488
:101980004F35CE01CDB7DEB7E6E00C94E334FC0171
:1019900011821082138212821582148216826115BE
:1019A000710551F0FB0101900020E9F73197AF017B
:1019B000461B570B0E94A80C0895CF93DF93EC01B0
:1019C000FB018617970761F06081718161157105D0
:1019D00029F0448155810E94A80C02C00E94600C2D
:1019E000CE01DF91CF910895FC0111821082138204
:1019F00012821582148216820E94DD0C0895CF9304
:101A0000DF93EC016115710559F0FB010190002095
:101A1000E9F73197AF01461B570B0E94A80C02C093
:101A20000E94600CCE01DF91CF910895A2E0B0E05A
:101A3000ECE1FDE00C94CB34FC01118210821382A6
:101A4000128215821482168269831A82BE016F5F28
:101A50007F4F0E94FF0C2296E2E00C94E734A2E153
:101A6000B0E0E5E3FDE00C94C9348C01CB01F80152
:101A7000118210821382128215821482168250E023
:101A8000BE016F5F7F4F0E945635BE016F5F7F4F73
:101A9000C8010E94FF0C6296E4E00C94E534EF92DA
:101AA000FF920F931F93CF93DF936115710511F48C
:101AB00080E01CC041155105C1F07B01EC018C8117
:101AC0009D818A01080F191FB801CE010E948C0C5C
:101AD000882371F3288139818C819D81B701820F20
:101AE000931F0E944F351D830C8381E0CDB7DEB775
:101AF000E6E00C94E334A2E0B0E0E1E8FDE00C9411
:101B0000CB3469831A8241E050E0BE016F5F7F4FA2
:101B10000E944F0D2296E2E00C94E734A7E0B0E07B
:101B2000E4E9FDE00C94C7347C01CB014AE050E0CD
:101B30008E010F5F1F4FB8010E945635F8010190CA
:101B40000020E9F73197AF01401B510BB801C701E5
:101B50000E944F0D2796E6E00C94E334CF93DF9379
:101B6000EC01FB0144815581608171810E944F0D20
:101B7000811103C0CE010E94600CCE01DF91CF9194
:101B80000895CF93DF93EC016115710561F0FB01BE
:101B900001900020E9F73197AF01461B570B0E94D7
:101BA0004F0D811103C0CE010E94600CCE01DF9168
:101BB000CF910895CF93DF93EC010E947B0D8111AB
:101BC00003C0CE010E94600CCE01DF91CF91089539
:101BD000CF93DF93EC010E948E0D811103C0CE01E3
:101BE0000E94600CCE01DF91CF910895FC01248109
:101BF00035816217730748F480819181009729F03D
:101C0000FC01E60FF71F8081089580E008950E948F
:101C1000F60D0895A0E0B0E0E0E1FEE00C94C434DD
:101C20007C016B018A01E9012417350720F4812F1B
:101C30008901C42FD82F60EB76E0C7010E94C70C42
:101C4000D60114968D919C91159780179107C8F035
:101C50008C179D0708F4EC01D601ED91FC911197CA
:101C6000EC0FFD1FB08010826D917C91600F711F91
:101C7000C7010E94FF0CD601ED91FC91EC0FFD1FF6
:101C8000B082C701CDB7DEB7E9E00C94E034FC01C7
:101C900080819181009719F00E941F35089560E0BE
:101CA00070E0CB0108950E94F2100E944702CEEE30
:101CB000D7E00E9467022097E1F30E94EE07F9CF78
:101CC0000F931F93CF93DF938230910510F482E03E
:101CD00090E0E0913510F091361020E030E0A0E087
:101CE000B0E0309719F1408151810281138148178A
:101CF0005907C8F08417950769F4109731F01296C8
:101D00000C93129713961C9327C0009335101093D1
:101D1000361022C02115310519F04217530718F467
:101D20009A01BD01EF01DF01F801DBCF211531057B
:101D3000F9F0281B390B2430310580F48A819B810E
:101D40006115710521F0FB019383828304C0909398
:101D5000361080933510FE01329644C0FE01E20F2A
:101D6000F31F8193919322503109398328833AC01C
:101D70002091331030913410232B41F42091020232
:101D800030910302309334102093331020910002DD
:101D9000309101022115310541F42DB73EB7409134
:101DA000040250910502241B350BE0913310F09191
:101DB0003410E217F307A0F42E1B3F0B2817390746
:101DC00078F0AC014E5F5F4F2417350748F04E0F97
:101DD0005F1F50933410409333108193919302C04E
:101DE000E0E0F0E0CF01DF91CF911F910F910895D6
:101DF000CF93DF93009709F481C0FC0132971382DF
:101E00001282A0913510B0913610109781F4208184
:101E10003181820F931F2091331030913410281795
:101E2000390751F5F0933410E093331067C0ED019A
:101E300020E030E0CE17DF0740F44A815B819E014D
:101E400041155105F1F0EA01F5CFD383C2834081FA
:101E50005181840F951FC817D90759F4888199813A
:101E6000840F951F0296918380838A819B8193833F
:101E700082832115310529F4F0933610E093351053
:101E80003DC0E901FB83EA8349915991C40FD51FF5
:101E9000EC17FD0761F480819181840F951F0296F4
:101EA000E90199838883828193819B838A83E0E01F
:101EB000F0E012968D919C911397009719F0FD0117
:101EC000DC01F7CF8D919C9111979D012E5F3F4FC3
:101ED000820F931F20913310309134102817390747
:101EE00069F4309729F4109236101092351002C020
:101EF00013821282B0933410A0933310DF91CF91EC
:101F00000895A0E0B0E0E7E8FFE00C94BF34EC01F6
:101F1000009721F4CB010E94600EB4C0FC01E60FD3
:101F2000F71F9C0122503109E217F30708F4A8C0FB
:101F3000D9010D911C91119706171707B0F00530C4
:101F4000110508F49BC0C80104978617970708F489
:101F500095C002501109061B170B019311936D9345
:101F60007C93CF010E94F80E89C05B01A01AB10AD0
:101F70004C01800E911EA0913510B0913610612C4D
:101F8000712CE12CF12C109709F446C08D919C9195
:101F90001197A815B905B1F56C0142E0C40ED11C2A
:101FA000CA14DB0478F14C018A189B08640142E0F2
:101FB000C40ED11C1296BC9012971396AC91B5E04A
:101FC000CB16D10440F0B282A38391828082D901E2
:101FD0006D937C9309C00E5F1F4F800F911FF90115
:101FE00091838083EB2DFA2FE114F10431F0D701B6
:101FF0001396FC93EE93129741C0F0933610E09342
:1020000035103CC06816790608F43C017D01129633
:102010000D90BC91A02DB7CF8091331090913410CA
:1020200088169906E1F466167706C8F480910002D6
:1020300090910102009741F48DB79EB74091040240
:1020400050910502841B950BE817F907C8F4F0932B
:102050003410E0933310F901718360830FC0CB011A
:102060000E94600E7C01009759F0A801BE010E94F9
:102070004635CE010E94F80EC70104C0CE0102C051
:1020800080E090E0CDB7DEB7EEE00C94DB341F9239
:102090000F920FB60F9211242F933F938F939F931C
:1020A000AF93BF938091BA0F9091BB0FA091BC0FDB
:1020B000B091BD0F3091B90F23E0230F2D3720F4DD
:1020C0000196A11DB11D05C026E8230F0296A11D92
:1020D000B11D2093B90F8093BA0F9093BB0FA093BB
:1020E000BC0FB093BD0F8091BE0F9091BF0FA09118
:1020F000C00FB091C10F0196A11DB11D8093BE0FFD
:102100009093BF0FA093C00FB093C10FBF91AF9139
:102110009F918F913F912F910F900FBE0F901F9025
:1021200018952FB7F8946091BA0F7091BB0F8091FA
:10213000BC0F9091BD0F2FBF08953FB7F8948091C9
:10214000BE0F9091BF0FA091C00FB091C10F26B5E7
:10215000A89B05C02F3F19F00196A11DB11D3FBFDF
:10216000BA2FA92F982F8827820F911DA11DB11D6D
:10217000BC01CD0142E0660F771F881F991F4A9569
:10218000D1F70895CF92DF92EF92FF92CF93DF9332
:102190006B017C010E949D10EB01C114D104E1048C
:1021A000F10479F00E949D106C1B7D0B683E73401A
:1021B000A0F381E0C81AD108E108F108C851DC4F4A
:1021C000ECCFDF91CF91FF90EF90DF90CF9008950B
:1021D000019739F0880F991F880F991F029701976F
:1021E000F1F70895789484B5826084BD84B58160E8
:1021F00084BD85B5826085BD85B5816085BDEEE60F
:10220000F0E0808181608083E1E8F0E010828081ED
:1022100082608083808181608083E0E8F0E080815B
:1022200081608083E1EBF0E0808184608083E0EB7B
:10223000F0E0808181608083E1E9F0E0808182606C
:102240008083808181608083E0E9F0E0808181602B
:102250008083E1EAF0E08081826080838081816018
:102260008083E0EAF0E0808181608083E1E2F1E058
:10227000808182608083808181608083E0E2F1E000
:10228000808181608083EAE7F0E0808184608083E0
:10229000808182608083808181608083808180688A
:1022A00080831092C100089590E0FC013197E131E4
:1022B000F10508F04AC08827E055FF4F8F4F0C9476
:1022C000A834809180008F7703C0809180008F7D3B
:1022D00080938000089584B58F7702C084B58F7D88
:1022E00084BD08958091B0008F7703C08091B000C5
:1022F0008F7D8093B0000895809190008F7707C004
:10230000809190008F7D03C080919000877F8093A3
:10231000900008958091A0008F7707C08091A00061
:102320008F7D03C08091A000877F8093A0000895D7
:10233000809120018F7707C0809120018F7D03C09D
:1023400080912001877F809320010895CF93DF93B0
:1023500090E0FC01EC5BFC4F2491FC01E657FC4F44
:102360008491882361F190E0880F991FFC01EC5F54
:10237000FB4FC591D491FC01E651FC4FA591B4915E
:10238000611109C09FB7F8948881209582238883C2
:10239000EC912E230BC0623061F49FB7F8948881D2
:1023A000322F309583238883EC912E2B2C939FBF63
:1023B00006C08FB7F894E8812E2B28838FBFDF915A
:1023C000CF9108951F93CF93DF93282F30E0F90129
:1023D000E250FD4F8491F901EC5BFC4FD491F9017F
:1023E000E657FC4FC491CC23C1F0162F81110E94F7
:1023F0005411EC2FF0E0EE0FFF1FE651FC4FA591BA
:10240000B4919FB7F894111104C08C91D095D82342
:1024100002C0EC91DE2BDC939FBFDF91CF911F9127
:102420000895CF93DF93282F30E0F901E250FD4F5C
:102430008491F901EC5BFC4FD491F901E657FC4F14
:10244000C491CC2391F081110E945411EC2FF0E043
:10245000EE0FFF1FE053FC4FA591B491EC91ED23DB
:1024600081E090E021F480E002C080E090E0DF9124
:10247000CF9108951F93CF93DF93EC01188180E0F3
:1024800090E00E949C38181729F0612F80E090E0BE
:102490000E94A438198181E090E00E949C381817AE
:1024A00029F0612F81E090E00E94A438CE01DF91F5
:1024B000CF911F910895089587E79DE00E94CF0A6C
:1024C00067E174E087E79DE00E94F50A6FE374E03E
:1024D00087E79DE00E94F50A67E174E087E79DE0E9
:1024E0000E94F50A87E79DE00E94CF0A67E674E044
:1024F00087E79DE00E94F50A63E874E087E79DE0C6
:102500000E94F50A67E974E087E79DE00E94F50AFA
:102510006EEB74E087E79DE00E94F50A6CED74E0D5
:1025200087E79DE00E94F50A62E075E087E79DE09D
:102530000E94F50A67E275E087E79DE00E94F50AD0
:102540006CE375E087E79DE00E94F50A63E575E0BE
:1025500087E79DE00E94F50A61E775E087E79DE067
:102560000E94F50A6BE875E087E79DE00E94F50A96
:1025700062EA75E087E79DE00E94F50A87E79DE043
:102580000E94CF0A69EB75E087E79DE00E94F50A9B
:102590006EED75E087E79DE00E94F50A66E076E063
:1025A00087E79DE00E94F50A6EED75E087E79DE004
:1025B0000E94F50A0895FB01DA01CB0108963191DA
:1025C0002D91321305C0E817F907C9F781E0089586
:1025D00080E008950895CF93C62F60E08CE00E94BC
:1025E000E21161E08CE00E94A611C13019F486E08E
:1025F00090E002C08CE390E00E94E81060E08CE084
:102600000E94A61161E08CE00E94E2116AE070E095
:1026100080E090E00E94C210CF910895DF92EF9287
:10262000FF920F931F93CF93DF938C017B018EEE6C
:102630009FE00E94662B8EEE9FE00E94A22A40E05F
:1026400061ED8EEE9FE00E943D2B60E0C8010E948C
:10265000EB128EEE9FE00E94662B8EEE9FE00E94B2
:10266000A22A40E065ED8EEE9FE00E943D2BE7013F
:1026700048E0D42E38E0E32EF12C888180FF02C0A0
:1026800060E001C061E0C8010E94EB12888190E027
:1026900095958795888381E0E81AF10871F76CE3D6
:1026A00074E087E79DE00E94C40ADA942196D11075
:1026B000E1CF8EEE9FE00E94A22A40E061ED8EEE17
:1026C0009FE00E943D2B61E0C8010E94EB12CDB754
:1026D000DEB7E7E00C94E234CF92DF92EF92FF9204
:1026E0000F931F936A017B01C901B80120E030E01C
:1026F000A9018AE00E941C30C701B6010E94C210E5
:102700008AE00E94A033C701B6010E94C2101F9147
:102710000F91FF90EF90DF90CF90089581E090E1CE
:102720000E94B9266093C60F7093C70F8093C80F9D
:102730009093C90F81E090E10E9401276093C20F3E
:102740007093C30F8093C40F9093C50F08950F9398
:102750001F93CF93DF938B01FB01848195818E3092
:10276000910511F0409799F5C0E0D0E0F80184811F
:102770009581C817D90738F5BE01C8010E94070E18
:1027800080333CF4BE01C8010E94070E813444F43A
:102790000DC0BE01C8010E94070E8A33B4F0F2CF0B
:1027A000BE01C8010E94070E87347CF0BE01C8013B
:1027B0000E94070E81365CF0BE01C8010E94070E20
:1027C00087361CF004C081E003C02196CFCF80E0A3
:1027D000DF91CF911F910F9108950F931F93CF9386
:1027E000DF938B01C0E0D0E0F80184819581C817A8
:1027F000D90770F4BE01C8010E94070E803354F05F
:10280000BE01C8010E94070E8A3324F42196ECCF42
:1028100081E001C080E0DF91CF911F910F91089579
:10282000A2E0B0E0E6E1F4E10C94CB341A82198224
:1028300080E090E00E949C38898381E090E00E94D3
:102840009C388A8389819A812296E2E00C94E7344D
:10285000AEE0B0E0EEE2F4E10C94C1347B016A0139
:102860000E94101423E0EE0CFF1C2A95E1F7EC9C6B
:102870008001ED9C100DFC9C100D1124E00EF11E4A
:102880008E159F050CF47C01CE0101965C0196E348
:10289000892E96E0992E0E151F050CF069C0C8010F
:1028A00087709927892B09F046C0680117FF03C07C
:1028B00097E0C90ED11C83E0D594C7948A95E1F7BF
:1028C00087E79DE00E94CF0A6BED76E087E79DE009
:1028D0000E94C40A8AE0C816D1041CF46EE276E0B5
:1028E00009C094E6C916D1041CF46FE276E002C078
:1028F00060EB76E087E79DE00E94C40A4AE0B601FB
:10290000CE0108960E942F0DBE01685F7F4FC50162
:102910000E94F40C61E376E0C5010E94C10DBC0188
:1029200087E79DE00E94990AC5010E945A0CCE01DA
:1029300008960E945A0C1A821982B80180ED9FE015
:102940000E947B2D1F928F939F928F92BF92AF9286
:102950000E94A335B50187E79DE00E94C40A0F5F7E
:102960001F4F0F900F900F900F900F900F9093CFDD
:1029700087E79DE00E94CF0A2E96ECE00C94DD34B0
:102980000E94101423E0969587952A95E1F790937D
:10299000CF0F8093CE0F20E032E03093CB0F209307
:1029A000CA0F281B390B3093CD0F2093CC0F0895FD
:1029B000CF93DF93EC0181E090E10E947E2681E0DD
:1029C00090E10E94842661E57CE080ED9FE00E941A
:1029D0004A2CCE010E948E13CE010E94C014DF91BA
:1029E000CF910895CF93DF93EC0187E79DE00E949C
:1029F000CF0ACE010E948E13CE010E94C0146BE359
:102A000076E087E79DE00E94F50A63E676E087E7D7
:102A10009DE00E94C40A4091C60F5091C70F60917B
:102A2000C80F7091C90F24E030E087E79DE00E9455
:102A3000570C6DE676E087E79DE00E94C40A61E7E7
:102A400076E087E79DE00E94C40A4091C20F509152
:102A5000C30F6091C40F7091C50F22E030E087E78B
:102A60009DE00E94570C6AE776E087E79DE00E94B0
:102A7000F50A87E79DE00E94CF0A6CE776E087E7DA
:102A80009DE00E94F50A64EA76E087E79DE00E94F7
:102A9000C40A6091CE0F7091CF0F4AE050E087E7F3
:102AA0009DE00E948E0B61EB76E087E79DE00E943F
:102AB000F50A69EB76E087E79DE00E94C40A609121
:102AC000CC0F7091CD0F4AE050E087E79DE00E9467
:102AD0008E0B61EB76E087E79DE00E94F50A6BECD8
:102AE00076E087E79DE00E94C40A6091CA0F70916A
:102AF000CB0F4AE050E087E79DE00E948E0B61EB30
:102B000076E087E79DE00E94F50A87E79DE00E9456
:102B1000CF0ADF91CF910895AEE0B0E0E2E9F5E1B0
:102B20000C94C7340E94C0140091CA0F1091CB0FAF
:102B3000E090CE0FF090CF0F69ED76E0CE010896D1
:102B40000E94C70CBE01685F7F4FCE0101960E94B4
:102B5000F40CB701CE0101960E94E80D6EED76E00F
:102B60000E94C10DB8010E94E80D60EE76E00E945F
:102B7000C10DBC0187E79DE00E94990ACE01019634
:102B80000E945A0CCE0108960E945A0C2E96E6E03E
:102B90000C94E334A0E0B0E0E0EDF5E10C94C03437
:102BA000EB0189E090E00E94600E5C018C809D80CA
:102BB00000E010E0081519050CF095C0B801CE0131
:102BC0000E94070E80330CF460C0B801CE010E9451
:102BD000070E8A330CF059C0B801CE010E94070ECF
:102BE000782E729460EF7622B801CE010E94070E13
:102BF00081343CF0B801CE010E94070E87340CF4FA
:102C000046C0B801CE010E94070E81363CF0B801E3
:102C1000CE010E94070E87360CF443C06801C8013C
:102C200001967C0117FD6C01D594C794CA0CDB1C7E
:102C3000F6017082B701CE010E94070E803334F096
:102C4000B701CE010E94070E8A33ACF1B701CE0165
:102C50000E94070E813434F0B701CE010E94070EA6
:102C600087348CF1B701CE010E94070E813634F013
:102C7000B701CE010E94070E87366CF1F601808104
:102C8000780E70820E5F1F4F95CF712CADCFB801BB
:102C9000CE010E94070E8295807F50E9752E780E36
:102CA000B0CFB801CE010E94070E8295807F40E927
:102CB000742E780EB3CFB701CE010E94070E30ED0F
:102CC000732E780EC3CFB701CE010E94070E29ECF8
:102CD000722E780EC7CFB701CE010E94070E99EA77
:102CE000792E780ECBCFF501E80DF91D1082C501C4
:102CF000CDB7DEB7EDE00C94DC346CE08EEE9FE0F7
:102D00000E94782B6BE083ED9FE00E94392760E5FD
:102D100080ED9FE00E94472C0895A5E1B0E0E3E933
:102D2000F6E10C94C5346C010E9410148C0162EE23
:102D300076E087E79DE00E94F50A87E79DE00E9424
:102D4000CF0A40E050E060E170E0C6010E94281424
:102D5000C80117FF02C081589F4F7C01EE0CEF2C79
:102D6000EE1CFF0800E010E060EB76E0CE010F966D
:102D70000E94C70C87E79DE00E946B061816190693
:102D80000CF04CC067E77DE0CE0101960E94023056
:102D9000BE016F5F7F4FCE010F960E94DD0CCE010A
:102DA00001960E945A0C8B899C89019791F460E0EE
:102DB00070E0CE010F960E94070E8D34D1F160E0D5
:102DC00070E0CE010F960E94070E8D3609F03FC0CD
:102DD00030C064E277E0CE0108960E94C70CBE01C5
:102DE000685F7F4FCE0101960E94F40CBE01615FC7
:102DF0007F4FCE0101960E94AE0D66E377E00E9400
:102E0000C10DBC0187E79DE00E94E30ACE01019657
:102E10000E945A0CCE0108960E945A0C60E971E09B
:102E200080E090E00E94C210CE010F960E945A0CE2
:102E30009BCF65EE7AE087E79DE00E94F50ACE0120
:102E40000F960E945A0C6596E8E00C94E13460E01D
:102E500070E0CE010F960E94070E823441F060E0D0
:102E600070E0CE010F960E94070E823631F40115F4
:102E70001105C1F00150110915C060E070E0CE01EC
:102E80000F960E94070E863441F060E070E0CE019C
:102E90000F960E94070E863661F40E151F0514F476
:102EA0000F5F1F4FA80160E170E0C6010E94281467
:102EB000B5CF64E277E0CE0101960E94C70CBE0157
:102EC000615F7F4FCE0101960E94AE0D66E377E011
:102ED0000E94C10DBC0187E79DE00E94E30ACE017C
:102EE00001960E945A0C87E79DE00E94CF0A96CF78
:102EF000A6E1B0E0EEE7F7E10C94C6347C0167E3AD
:102F00007AE087E79DE00E94F50A87E79DE00E944E
:102F1000CF0A60E577E087E79DE00E94F50A8E0121
:102F20000F5F1F4F88E0D82E60EB76E0CE01409611
:102F30000E94C70C87E79DE00E946B0618161906D1
:102F40006CF467E77DE0C8010E940230B801CE0151
:102F500040960E94DD0CC8010E945A0C8C899D8904
:102F60008130910551F560E070E0CE0140960E94FD
:102F7000070E8D3409F4BCC060E070E0CE014096CD
:102F80000E94070E8D3609F4B3C064E277E0C801F1
:102F90000E94C70CBE01605F7F4FC8010E94AE0D4A
:102FA00066E377E00E94C10DBC0187E79DE00E94C7
:102FB000E30AC8010E945A0C8AC08031910509F0C9
:102FC00079C06DE777E0CE0109960E94C70CBE017B
:102FD000675F7F4FC8010E94F40CBE01605F7F4FA6
:102FE000C8010E94AE0D6AE673E00E94C10DBC01EB
:102FF00087E79DE00E94E30AC8010E945A0CCE01B7
:1030000009960E945A0CBE01605F7F4FC8010E9462
:10301000F40CB801C7010E94CA15BC01C7010E9487
:103020000E13C8010E945A0CF8018D2D11928A9539
:10303000E9F7B8018EEE9FE00E94AD2B81110AC026
:103040008EEE9FE00E946B2B68EC70E080E090E0D9
:103050000E94C210BE01605F7F4FCE0109960E94A0
:10306000F40CBE01675F7F4FC7010E94CA15A8011B
:10307000BC01C7010E94DB12882319F06FE877E0DA
:1030800002C066E977E087E79DE00E94C40ACE01AE
:1030900009960E945A0C87E79DE00E94CF0A87E7B5
:1030A0009DE00E94CF0A67E37AE087E79DE00E94F7
:1030B000F50A0DC0029750F560E971E080E090E0FC
:1030C0000E94C210CE0140960E945A0C2DCF87E775
:1030D0009DE00E94CF0A6EE977E087E79DE00E94BD
:1030E000F50A60E577E087E79DE00E94F50AE4CF06
:1030F00065EE7AE087E79DE00E94F50ACE014096F2
:103100000E945A0C6696E7E00C94E23462EC77E099
:10311000CE0109960E94C70CBE01675F7F4FC801B0
:103120000E94F40CBE01605F7F4FC8010E94AE0D8B
:1031300066E377E00E94C10DBC0187E79DE00E9435
:10314000E30AC8010E945A0CCE0109960E945A0C4B
:10315000B3CFAFE1B0E0EFEAF8E10C94BB347C010F
:103160000E9410148C0160ED77E087E79DE00E94DB
:10317000F50A6EE977E087E79DE00E94F50A62EEC6
:1031800076E087E79DE00E94F50A87E79DE00E94D0
:10319000CF0A40E050E060E170E0C7010E942814CF
:1031A000C80117FF02C081589F4F1C01220C232C1D
:1031B000221C3308C12CD12C8E010F5F1F4F2E0112
:1031C0002EE1420E511C60EB76E0CE0147960E9444
:1031D000C70C87E79DE00E946B06181619060CF0D5
:1031E00065C167E77DE0C8010E940230B801CE01E9
:1031F00047960E94DD0CC8010E945A0C8B8D9C8D55
:103200008130910599F460E070E0CE0147960E940C
:10321000070E8D3409F455C160E070E0CE01479689
:103220000E94070E8D3609F05AC14BC1039709F071
:10323000A6C1C7010E9410145C01BE01695E7F4FE8
:10324000C8010E94F40CB801C7010E94ED13982E2A
:10325000C8010E945A0C911015C069E178E0CE01B6
:1032600009960E94C70CBE01675F7F4FC8010E948C
:10327000F40CBE01695E7F4FC8010E94AE0D66E38B
:1032800077E026C08F89988D0E9401353C0197FD1B
:103290000BC0C501B7FC079623E0959587952A9545
:1032A000E1F7681679060CF16FE278E0CE01099635
:1032B0000E94C70CBE01675F7F4FC8010E94F40CDB
:1032C000BE01695E7F4FC8010E94AE0D6DE378E0DC
:1032D0000E94C10DBC0187E79DE00E94E30AC8017E
:1032E0000E945A0CCE010996C1C060EB76E0CE0177
:1032F00040960E94C70C530183E0AA0CBB1C8A9520
:10330000E1F74501E8E08E0E911CA814B904BCF564
:103310001F8E1E8EB50180ED9FE00E947B2D1F92B7
:103320008F9386E396E09F938F935F924F920E94D4
:10333000A335BE01605F7F4FCE0109960E94F40C59
:10334000B201CE0109960E94C10DBC01C8010E94C4
:10335000F40CB801CE0140960E94DD0CC8010E9419
:103360005A0CCE0109960E945A0CFFEFAF1ABF0A01
:103370000F900F900F900F900F900F90C6CF67E6B1
:1033800078E0CE0109960E94C70CBE01675F7F4FAF
:10339000C8010E94F40CB301C8010E94E80D6BED56
:1033A00076E00E94C10DBE01605F7F4F0E94AE0DAE
:1033B0006CE778E00E94C10DBC0187E79DE00E94A8
:1033C000990AC8010E945A0CCE0109960E945A0C13
:1033D000BE01605F7F4FC8010E94F40CB801C701B5
:1033E0000E94CA15BC01C7010E940E13C8010E94A9
:1033F0005A0CF80128E011922A95E9F7B8018EEEEF
:103400009FE00E94AD2B81110AC08EEE9FE00E94CA
:103410006B2B68EC70E080E090E00E94C210BE016F
:10342000605F7F4FCE0109960E94F40CBE01675F7A
:103430007F4FC7010E94CA15A801BC01C7010E94A5
:10344000DB12882319F06FE877E002C066E977E0C5
:1034500087E79DE00E94C40ACE0109960E945A0C9B
:1034600087E79DE00E94CF0ACE0140960E945A0C49
:1034700087E79DE00E94CF0A87E79DE00E94CF0A80
:1034800067E37AE087E79DE00E94F50A87E79DE021
:103490000E94CF0A6EE977E087E79DE00E94F50A77
:1034A00060ED77E087E79DE00E94F50A60E971E052
:1034B00080E090E00E94C210CE0147960E945A0C14
:1034C00082CE65EE7AE087E79DE00E94F50ACE01A4
:1034D00047960E945A0C6F96E2E10C94D73460E054
:1034E00070E0CE0147960E94070E823441F060E002
:1034F00070E0CE0147960E94070E823639F4C1145F
:10350000D104D1F081E0C81AD10816C060E070E0A3
:10351000CE0147960E94070E863441F060E070E0CD
:10352000CE0147960E94070E863669F4C214D30472
:103530001CF49FEFC91AD90AA60160E170E0C70127
:103540000E942814B3CF64E277E0C8010E94C70C40
:10355000BE01695E7F4FC8010E94AE0D66E377E051
:103560000E94C10DBC0187E79DE00E94E30AC801EB
:103570000E945A0C87E79DE00E94CF0A97CF64E231
:1035800077E0CE0109960E94C70CBE01675F7F4FAE
:10359000C8010E94F40CBE01695E7F4FC8010E9401
:1035A000AE0D66E377E00E94C10DBC0187E79DE0A8
:1035B0000E94E30AC8010E945A0CCE0109960E949B
:1035C0005A0C74CFA5E1B0E0E8EEFAE10C94C934EE
:1035D0008C0167E37AE087E79DE00E94F50A87E7C0
:1035E0009DE00E94CF0A61E878E087E79DE00E94B5
:1035F000F50A60EB76E0CE010F960E94C70C87E7D4
:103600009DE00E946B06181619068CF467E77DE0B2
:10361000CE0101960E940230BE016F5F7F4FCE0146
:103620000F960E94DD0CCE0101960E945A0C8B89E8
:103630009C898130910569F560E070E0CE010F96BC
:103640000E94070E8D3409F495C060E070E0CE0151
:103650000F960E94070E8D3609F48CC064E277E065
:10366000CE0101960E94C70CBE01615F7F4FCE0163
:1036700001960E94AE0D66E377E00E94C10DBC0189
:1036800087E79DE00E94E30ACE0101960E945A0C52
:1036900066C08031910509F055C06EEA78E0CE0130
:1036A00008960E94C70CBE01685F7F4FCE0101964D
:1036B0000E94F40CBE01615F7F4FCE0101960E9413
:1036C000AE0D6EEB78E00E94C10DBC0187E79DE076
:1036D0000E94E30ACE0101960E945A0CCE01089680
:1036E0000E945A0CBE01615F7F4FCE0101960E947D
:1036F000F40CBE016F5F7F4FC8010E94CA15BC0168
:1037000083ED9FE00E946129CE0101960E945A0C30
:1037100061E083ED9FE00E94472A63EC78E087E751
:103720009DE00E94C40A87E79DE00E94CF0A87E7D8
:103730009DE00E94CF0A67E37AE087E79DE00E9460
:10374000F50A0DC0029720F560E971E080E090E095
:103750000E94C210CE010F960E945A0C4ACF87E7F2
:103760009DE00E94CF0A61E878E087E79DE00E9433
:10377000F50AEACF65EE7AE087E79DE00E94F50A58
:10378000CE010F960E945A0C6596E4E00C94E53445
:1037900062EC77E0CE0108960E94C70CBE01685F1C
:1037A0007F4FCE0101960E94F40CBE01615F7F4FF6
:1037B000CE0101960E94AE0D66E377E00E94C10D36
:1037C000BC0187E79DE00E94E30ACE0101960E94BA
:1037D0005A0CCE0108960E945A0CB6CFAEE1B0E06A
:1037E000E4EFFBE10C94BB347C010E9410148C01CB
:1037F0006CEC78E087E79DE00E94F50A62EE76E0E7
:1038000087E79DE00E94F50A87E79DE00E94CF0AC6
:1038100040E050E060E170E0C7010E942814180108
:1038200017FF03C08FE7280E311C220C232C221C0B
:10383000330800E010E046E3442E46E0542E3E01FB
:103840008DE1680E711C60EB76E0CE0146960E9419
:10385000C70C87E79DE00E946B06181619060CF04E
:103860004CC167E77DE0CE0101960E940230BE01A7
:103870006F5F7F4FCE0146960E94DD0CCE01019610
:103880000E945A0C8A8D9B8D8130910599F460E0DD
:1038900070E0CE0146960E94070E8D3409F438C1BF
:1038A00060E070E0CE0146960E94070E8D3609F06A
:1038B0003DC12EC1039709F086C1C7010E941014B3
:1038C0006C01BE016A5E7F4FCE0101960E94F40C2E
:1038D000BE016F5F7F4FC7010E94ED13B82ECE016E
:1038E00001960E945A0CB11017C069E178E0CE0130
:1038F00008960E94C70CBE01685F7F4FCE010196FB
:103900000E94F40CBE016A5E7F4FCE0101960E94B8
:10391000AE0D66E377E028C08E899F890E9401354D
:103920005C0197FD0BC0C601D7FC079623E0959577
:1039300087952A95E1F7A816B90624F16FE278E099
:10394000CE0108960E94C70CBE01685F7F4FCE0172
:1039500001960E94F40CBE016A5E7F4FCE01019673
:103960000E94AE0D6DE378E00E94C10DBC0187E7B7
:103970009DE00E94E30ACE0101960E945A0CCE01FE
:103980000896A5C060EB76E0CE010F960E94C70CAA
:10399000650183E0CC0CDD1C8A95E1F7460188E0E7
:1039A000880E911CC814D904CCF51E8E1D8EB6014C
:1039B00080ED9FE00E947B2D1F928F935F924F922C
:1039C0007F926F920E94A335BE01615F7F4FCE014F
:1039D00008960E94F40CB301CE0108960E94C10D16
:1039E000BC01CE0101960E94F40CBE016F5F7F4FB7
:1039F000CE010F960E94DD0CCE0101960E945A0C5A
:103A0000CE0108960E945A0C8FEFC81AD80A0F9060
:103A10000F900F900F900F900F90C4CF65E179E059
:103A2000CE0108960E94C70CBE01685F7F4FCE0191
:103A300001960E94F40CB501CE0101960E94E80D9A
:103A40006BED76E00E94C10DBE01615F7F4F0E9469
:103A5000AE0D6EEB78E00E94C10DBC0187E79DE0E2
:103A60000E94E30ACE0101960E945A0CCE010896EC
:103A70000E945A0C67E37AE087E79DE00E94F50A0E
:103A800087E79DE00E94CF0ABE01615F7F4FCE01B4
:103A900001960E94F40CBE016F5F7F4FC7010E9428
:103AA000CA15BC0183ED9FE00E946129CE010196F9
:103AB0000E945A0C61E083ED9FE00E94472A63EC6C
:103AC00078E087E79DE00E94C40ACE010F960E942D
:103AD0005A0C87E79DE00E94CF0A6CEC78E087E7FC
:103AE0009DE00E94F50A68E279E087E79DE00E9488
:103AF000F50A87E79DE00E94CF0A60E971E080E067
:103B000090E00E94C210CE0146960E945A0C9BCEB5
:103B100065EE7AE087E79DE00E94F50ACE014696C1
:103B20000E945A0C6E96E2E10C94D73460E070E08B
:103B3000CE0146960E94070E823441F060E070E0AC
:103B4000CE0146960E94070E823631F4011511050A
:103B5000C1F00150110915C060E070E0CE01469639
:103B60000E94070E863441F060E070E0CE01469678
:103B70000E94070E863661F40215130514F40F5FD8
:103B80001F4FA80160E170E0C7010E942814B5CF63
:103B900064E277E0CE0101960E94C70CBE016A5E26
:103BA0007F4FCE0101960E94AE0D66E377E00E9442
:103BB000C10DBC0187E79DE00E94E30ACE0101969A
:103BC0000E945A0C96CF64E277E0CE0108960E94DC
:103BD000C70CBE01685F7F4FCE0101960E94F40CB6
:103BE000BE016A5E7F4FCE0101960E94AE0D66E374
:103BF00077E00E94C10DBC0187E79DE00E94E30AC7
:103C0000CE0101960E945A0CCE0108960E945A0CD1
:103C100074CFACE1B0E0EFE0FEE10C94C8348C016D
:103C200067E37AE087E79DE00E94F50A87E79DE079
:103C30000E94CF0A6AE679E087E79DE00E94F50AD4
:103C400060EB76E0CE0146960E94C70C60EB76E012
:103C5000CE010F960E94C70C87E79DE00E946B067D
:103C6000181619068CF467E77DE0CE0101960E94D4
:103C70000230BE016F5F7F4FCE0146960E94DD0C81
:103C8000CE0101960E945A0C8A8D9B8D8130910540
:103C900089F560E070E0CE0146960E94070E8D34F3
:103CA00009F4EAC060E070E0CE0146960E94070E7B
:103CB0008D3609F4E1C087E79DE00E94CF0A64E2F7
:103CC00077E0CE0101960E94C70CBE016A5E7F4F6D
:103CD000CE0101960E94AE0D66E377E00E94C10D11
:103CE000BC0187E79DE00E94E30ACE0101960E9495
:103CF0005A0CB7C0029708F4A5C02EE030E040E0AF
:103D000050E0BE016A5E7F4FCE0101960E940A0E0E
:103D1000BE016F5F7F4FCE010F960E94DD0CCE017A
:103D200001960E945A0CBE01615F7F4FCE01019641
:103D30000E94F40CBE016F5F7F4FC8010E94A71361
:103D4000F82ECE0101960E945A0CFF2009F455C0AE
:103D500087E79DE00E94CF0A61EA79E0CE010896EC
:103D60000E94C70CBE01685F7F4FCE0101960E9482
:103D7000F40CBE01615F7F4FCE0101960E94AE0D33
:103D80006BEB79E00E94C10DBC0187E79DE00E94CA
:103D9000990ACE0101960E945A0CCE0108960E9403
:103DA0005A0C61EC79E087E79DE00E94C40ABE01ED
:103DB000615F7F4FCE0101960E94F40CBE016F5FE0
:103DC0007F4FC8010E94CA1567E00E942D2C40E178
:103DD00050E0682F87E79DE00E944F0BCE010196CF
:103DE0000E945A0C87E79DE00E94CF0A67E37AE0C1
:103DF00087E79DE00E94F50A34C062EC77E0CE01CF
:103E000008960E94C70CBE01685F7F4FCE010196E5
:103E10000E94F40CBE016A5E7F4FCE0101960E94A3
:103E2000AE0D66E377E00E94C10DBC0187E79DE01F
:103E30000E94E30ACE0101960E945A0CCE01089618
:103E40000E945A0C60E971E080E090E00E94C2108C
:103E5000CE010F960E945A0CCE0146960E945A0C33
:103E6000EFCE87E79DE00E94CF0A6AE679E087E718
:103E70009DE00E94F50AE6CF65EE7AE087E79DE0D7
:103E80000E94F50ACE010F960E945A0CCE0146966A
:103E90000E945A0C6C96E5E00C94E434A5E1B0E085
:103EA000E4E5FFE10C94C5348C0187E79DE00E94B6
:103EB000CF0AE090CE0FF090CF0F81E0E81AF10822
:103EC00068EC79E0CE0108960E94C70CBE01685FDD
:103ED0007F4FCE0101960E94F40CB701CE010196EE
:103EE0000E94E80D65EE79E00E94C10DBC0187E7F4
:103EF0009DE00E94E30ACE0101960E945A0CCE0179
:103F000008960E945A0C87E79DE00E946B061816DF
:103F10001906CCF767E77DE0CE010F960E940230CC
:103F20008B899C89019749F060E070E0CE010F9683
:103F30000E94070E8D3691F408C060E070E0CE015B
:103F40000F960E94070E8D3479F765EE7AE087E7C9
:103F50009DE00E94F50A0FEF1FEF74C0BE01615F84
:103F60007F4FCE0101960E94F40CBE016F5F7F4F20
:103F7000C8010E94ED13F82ECE0101960E945A0C42
:103F8000F11017C067E07AE0CE0108960E94C70CD6
:103F9000BE01685F7F4FCE0101960E94F40CBE0106
:103FA000615F7F4FCE0101960E94AE0D66E377E020
:103FB0002DC0CE010F960E94470E97FD11C0CE0175
:103FC0000F960E94470E2091CE0F3091CF0F6901BE
:103FD000330FEE08FF086C157D058E059F0544F133
:103FE0006FE278E0CE0108960E94C70CBE01685FC0
:103FF0007F4FCE0101960E94F40CBE01615F7F4F9E
:10400000CE0101960E94AE0D6DE378E00E94C10DD5
:10401000BC0187E79DE00E94E30ACE0101960E9461
:104020005A0CCE0108960E945A0CCE010F9669CF09
:10403000CE010F960E94470E8B0183E0000F111FE7
:104040008A95E1F7CE010F960E945A0CC801659639
:10405000E8E00C94E1348F929F92BF92CF92DF926E
:10406000EF92FF920F931F93CF93DF93CDB7DEB7FD
:1040700069970FB6F894DEBF0FBECDBF7C01B62E98
:1040800087E79DE00E94CF0A68E17AE087E79DE03C
:104090000E94F50A19E0CE0101966C0160EB76E012
:1040A000CE0141960E94C70CF601212F11922A954C
:1040B000E9F787E79DE00E946B061816190634F5AC
:1040C0008E01065F1F4F67E77DE0C8010E94023046
:1040D000B801CE0141960E94DD0CC8010E945A0C25
:1040E0008D899E89019749F060E070E0CE0141968C
:1040F0000E94070E8D3659F50EC060E070E0CE01CB
:1041000041960E94070E8D3479F705C0CE01419685
:104110000E945A0CC3CF65EE7AE087E79DE00E94CB
:10412000F50ACE0141960E945A0C69960FB6F89492
:10413000DEBF0FBECDBFDF91CF911F910F91FF90DA
:10414000EF90DF90CF90BF909F908F900895BE0129
:104150006F5E7F4FC8010E94F40CB801C7010E9436
:10416000A713982EC8010E945A0C911003C06EE448
:104170007AE0D3CFBE016F5E7F4FC8010E94F40C7E
:10418000B801C7010E94CA15BC01C6010E944F3583
:10419000C8010E945A0CF60101900020E9F7CF01F6
:1041A00008978C159D05C9F487E79DE00E94CF0A0A
:1041B00063E87AE087E79DE00E94C40A67E0C601F1
:1041C0000E942D2C888760E977E087E79DE00E94B8
:1041D000C40A87E79DE00E94CF0ABB2099F0C7017F
:1041E0000E94C0148091CE0F9091CF0F892B51F473
:1041F00087E79DE00E94CF0A66E97AE087E79DE0C5
:104200000E94F50A8091CE0F9091CF0F18161906D3
:1042100034F4BB2021F0C7010E944E1F03C0C70128
:104220000E941014998F888F8F3FEFEF9E0709F43B
:1042300078CF2091CE0F3091CF0F232B11F0B110FA
:104240000AC020E030E1281B390B223031051CF474
:104250006FEC7AE062CF28E030E0A601BC0180ED8F
:104260009FE00E94722C888C998C86E3C82E86E091
:10427000D82E888D998D9C01295F3F4F28153905CF
:10428000F4F01B861A86B40180ED9FE00E947B2D1E
:104290001F928F93DF92CF921F930F930E94A335AB
:1042A000B80187E79DE00E94C40AFFEF8F1A9F0ABA
:1042B0000F900F900F900F900F900F90DACF2091EA
:1042C000CE0F3091CF0F232B11F0B1100AC00896FA
:1042D000998F888FCE0148960E943A12C7010E949A
:1042E0008C1587E79DE00E94CF0A6FED7AE087E7A3
:1042F0009DE00E94F50A60E971E080E090E00E9494
:10430000C2100FCFAEE1B0E0E8E8F1E20C94C134A6
:104310007C016B0187E79DE00E94CF0A60EF7AE0A5
:1043200087E79DE00E94F50A5E0189E0A80EB11CB6
:1043300088E0F50111928A95E9F76CED75E080E06F
:1043400090E00E94C2108E010F5F1F4F88E0882E00
:1043500087E79DE00E946B06181619069CF587E713
:104360009DE00E949706982E8F7D8D3409F4C7C07A
:1043700064E277E0CE0141960E94C70CBE016F5EF9
:104380007F4FC8010E94F40C692DC8010E94DA0D0C
:1043900066E377E00E94C10DBC0187E79DE00E94C3
:1043A000E30AC8010E945A0CCE0141960E945A0CA1
:1043B00087E79DE00E94CF0A6CE17BE087E79DE004
:1043C0000E94F50AF801882D11928A95E9F7B50146
:1043D0008EEE9FE00E94AD2B81110BC08EEE9FE010
:1043E0000E946B2B68EC70E080E090E00E94C210AD
:1043F0007FC06DE777E0CE0148960E94C70CBE01F2
:10440000685E7F4FCE0141960E94F40CB601CE014A
:1044100041960E94AE0D6AE37BE00E94C10DBC0193
:1044200087E79DE00E94E30ACE0141960E945A0C64
:10443000CE0148960E945A0CB601CE0141960E94C8
:10444000F40CBE016F5E7F4FC7010E94CA15BC010C
:10445000C7010E940E13CE0141960E945A0C68ECCF
:1044600070E080E090E00E94C210B8018EEE9FE004
:104470000E94AD2B811105C08EEE9FE00E946B2B38
:10448000EECFB601CE0141960E94F40CBE016F5EE4
:104490007F4FC7010E94CA15A801BC01C7010E9435
:1044A000DB12882319F06FE877E002C066E977E055
:1044B00087E79DE00E94C40ACE0141960E945A0CF3
:1044C00087E79DE00E94CF0A87E79DE00E94CF0A20
:1044D00067E37AE087E79DE00E94F50A87E79DE0C1
:1044E0000E94CF0A60E47BE087E79DE00E94F50A26
:1044F0006CED75E080E090E00E94C21029CF6E96CE
:10450000ECE00C94DD34A6E2B0E0E9E8F2E20C94D1
:10451000BE344C0167E37AE087E79DE00E94F50A2C
:1045200087E79DE00E94CF0A63E67BE087E79DE096
:104530000E94F50A8E010F5F1F4F88E0582E7E0102
:1045400089E0E80EF11C96E3692E96E0792E6E0163
:10455000E5E2CE0ED11C60EB76E0CE014E960E94D5
:10456000C70C87E79DE00E946B06181619066CF4CD
:1045700067E77DE0C8010E940230B801CE014E9687
:104580000E94DD0CC8010E945A0C8AA19BA10197D0
:1045900099F560E070E0CE014E960E94070E8D34D2
:1045A00009F4E9C060E070E0CE014E960E94070E6B
:1045B0008D3609F4E0C064E277E0C8010E94C70CC0
:1045C000BE01625E7F4FC8010E94AE0D66E377E0D8
:1045D0000E94C10DBC0187E79DE00E94E30AC8016B
:1045E0000E945A0C87E79DE00E94CF0A63E67BE0B9
:1045F00087E79DE00E94F50AF801852D11928A95C2
:10460000E9F760EB76E0CE0147960E94C70CB8014F
:104610008EEE9FE00E94AD2B81110BC08EEE9FE0CD
:104620000E946B2B68EC70E080E090E00E94C2106A
:1046300093C067E0C8010E942D2C9885891751F01E
:1046400087E79DE00E94CF0A6CE87BE087E79DE06A
:104650000E94F50A87E79DE00E94CF0A58011EA23A
:104660001DA2F50181915F011F928F937F926F923E
:10467000DF92CF920E94A335BE01695E7F4FCE01CB
:1046800040960E94F40CB601CE0140960E94C10DE6
:10469000BC01C7010E94F40CB701CE0147960E94ED
:1046A000DD0CC7010E945A0CCE0140960E945A0CA4
:1046B0000F900F900F900F900F900F90AE14BF04BB
:1046C00071F66EE97BE0CE0140960E94C70CBE01F8
:1046D000605F7F4FC7010E94F40CBE01695E7F4F8F
:1046E000C7010E94AE0D60EE76E00E94C10DBC01D4
:1046F00087E79DE00E94E30AC7010E945A0CCE01A1
:1047000040960E945A0C8EEE9FE00E94A22ABE01A3
:10471000695E7F4FC7010E94F40CB701C4010E947B
:104720008221C7010E945A0C87E79DE00E94CF0AB0
:1047300087E79DE00E94CF0A67E37AE087E79DE084
:104740000E94F50A87E79DE00E94CF0A63E67BE0BE
:1047500087E79DE00E94F50ACE0147960E945A0C19
:1047600060E971E080E090E00E94C210CE014E96B8
:104770000E945A0CF0CE65EE7AE087E79DE00E9439
:10478000F50ACE014E960E945A0CA696EFE00C94C4
:10479000DA34CF92DF92FF920F931F93CF93DF9380
:1047A000CDB7DEB72E970FB6F894DEBF0FBECDBFE4
:1047B0006C010E94101497FD07968C0183E01595FB
:1047C00007958A95E1F763EB7BE0CE0108960E949E
:1047D000C70CBE01685F7F4FCE0101960E94F40CAA
:1047E000B801CE0101960E94E80D62EC7BE00E94C8
:1047F000C10DBC0187E79DE00E94E30ACE0101964E
:104800000E945A0CCE0108960E945A0C87E79DE040
:104810000E946B0618161906CCF787E79DE00E94E8
:104820009706F82E982F9F7D993589F568ED7BE0E6
:1048300087E79DE00E94F50A40E050E060E072E00A
:10484000C6010E94281463EE7BE0CE0108960E9408
:10485000C70CBE01685F7F4FCE0101960E94F40C29
:10486000B801CE0101960E94E80D6AEE7BE00E943D
:10487000C10DBC0187E79DE00E94E30ACE010196CD
:104880000E945A0CCE0108960E945A0C18C09D54E2
:104890009230A8F064E277E0CE0108960E94C70C3F
:1048A000BE01685F7F4FCE0101960E94F40C6F2D10
:1048B000CE0101960E94DA0D66E377E098CF2E963E
:1048C0000FB6F894DEBF0FBECDBFDF91CF911F9121
:1048D0000F91FF90DF90CF900895AEE0B0E0E3E756
:1048E000F4E20C94C5346C0167E37AE087E79DE05D
:1048F0000E94F50A87E79DE00E946B0618161906CC
:1049000064F587E79DE00E949706182F8F7D8D3410
:1049100009F441C064E277E0CE0108960E94C70C1A
:10492000BE01685F7F4FCE0101960E94F40C612F9B
:10493000CE0101960E94DA0D66E377E00E94C10D78
:10494000BC0187E79DE00E94E30ACE0101960E9428
:104950005A0CCE0108960E945A0C83E0E82EF12CE6
:1049600008EE13E020E030E04AEF50E060E070E055
:10497000C6010E946C1381E0E81AF10889F708EE7D
:1049800013E020E030E048EE53E060E070E0C60164
:104990000E946C13AFCF2E96E8E00C94E134AFE0A8
:1049A000B0E0E5EDF4E20C94BC346C01462E542EDC
:1049B00067E37AE087E79DE00E94F50A8E01075FD2
:1049C0001F4FCE0101967C0188E0382E96E3692EB8
:1049D00096E0792E812C20E1922E87E79DE00E94BF
:1049E0006B06181619062CF587E79DE00E949706BE
:1049F000B82E8F7D8D3409F4E4C064E277E0C801FD
:104A00000E94C70CB801C7010E94F40C6B2DC701AE
:104A10000E94DA0D66E377E00E94C10DBC0187E7D2
:104A20009DE00E94E30AC7010E945A0CC8010E943F
:104A30005A0CF701232D11922A95E9F7B7018EEE52
:104A40009FE00E94AD2B81110BC08EEE9FE00E9473
:104A50006B2B68EC70E080E090E00E94C210AAC06E
:104A600067E0C7010E942D2C9885891751F087E7D0
:104A70009DE00E94CF0A6CE87BE087E79DE00E9402
:104A8000F50A4420A9F0552099F0C6010E94C014EF
:104A90008091CE0F9091CF0F892B51F487E79DE045
:104AA0000E94CF0A66E97AE087E79DE00E94F50A56
:104AB00087E79DE00E94CF0A57011A861986F50103
:104AC00081915F011F928F937F926F921F930F933B
:104AD0000E94A335B80187E79DE00E94C40A0F90A9
:104AE0000F900F900F900F900F90A016B10629F71E
:104AF000442009F447C08091CE0F9091CF0F181633
:104B0000190634F4552021F0C6010E944E1F03C03F
:104B1000C6010E9410149A8789878F3FFFEF9F0775
:104B200009F44FC02091CE0F3091CF0F232B11F0FD
:104B300051100DC09401281B390B223031053CF473
:104B40006FEC7AE087E79DE00E94F50A33C028E029
:104B500030E0A701BC0180ED9FE00E94722C8091A3
:104B6000CE0F9091CF0F892B11F051100BC089857A
:104B70009A8508969A878987C8010E943A12C601C9
:104B80000E948C158EEE9FE00E94A22A552009F407
:104B900050CF87E79DE00E94CF0A6FED7AE087E76C
:104BA0009DE00E94F50A60E971E080E090E00E94DB
:104BB000C21007C060E971E080E090E00E94C2107E
:104BC0000CCF2F96E1E10C94D834AEE0B0E0EBEEE0
:104BD000F5E20C94C93466E07CE087E79DE00E9432
:104BE000F50A87E79DE00E946B0618161906CCF7B8
:104BF00087E79DE00E949706182F8F7D893581F504
:104C00006CE27CE087E79DE00E94F50A00E010E09E
:104C10004FEFB80180ED9FE00E94062DC8018F770D
:104C20009927892B31F46DE374E087E79DE00E94BA
:104C3000C40A0F5F1F4F011580E1180749F787E786
:104C40009DE00E94CF0A1A821982CE0101960E942D
:104C50003A126BE37CE087E79DE00E94F50A27C0EB
:104C60008D54823020F164E277E0CE0108960E94F4
:104C7000C70CBE01685F7F4FCE0101960E94F40C05
:104C8000612FCE0101960E94DA0D66E377E00E9463
:104C9000C10DBC0187E79DE00E94E30ACE010196A9
:104CA0000E945A0CCE0108960E945A0C9ACF2E965A
:104CB000E4E00C94E5341F93CF93DF93162FD42FA9
:104CC000C22F66E370E081E59CE00E943E04612F04
:104CD00081E59CE00E94D4036D2F81E59CE00E9459
:104CE000D4036C2F81E59CE00E94D40381E59CE015
:104CF0000E945404DF91CF911F91089524E540E074
:104D00006EEF0E945B26089520E040E466E00E947A
:104D10005B260895FF920F931F93CF93DF93F62E98
:104D20008A01E90166E370E081E59CE00E943E04AF
:104D30006F2D81E59CE00E94D40381E59CE00E94F8
:104D4000540442E050E066E370E081E59CE00E949C
:104D5000300481E59CE00E948903F801808381E5AD
:104D60009CE00E9489038883CDB7DEB7E5E00C9410
:104D7000E434A2E0B0E0EFEBF6E20C94C3341A8224
:104D800019829E012F5F3F4FAE014E5F5F4F62E081
:104D90000E948A266A8180E1689F9001112489819E
:104DA000682F70E084E0759567958A95E1F7622B2E
:104DB000732B072E000C880B990B1F921F9223EC6C
:104DC0002F9320E52F93A12CB12C6501EE24EA94BA
:104DD0001FE0F12E00E010E020E030E0A9010E9489
:104DE00016340E94AB2E20E030E44CE156E40E94E1
:104DF000012E0F900F900F900F902296EAE00C94E6
:104E0000DF34CF92DF92EF92FF92CF93DF931F9226
:104E10001F92CDB7DEB71A8219829E012F5F3F4FD6
:104E2000AE014E5F5F4F64E00E948A26698170E0A8
:104E300080E090E00E94AB2E20E030E040E85BE3B1
:104E40000E94602F6B017C016A8170E080E090E03D
:104E50000E94AB2E9B01AC01C701B6010E94902DB0
:104E60000F900F90DF91CF91FF90EF90DF90CF9058
:104E70000895CF93DF93EC01862F6093081060E0D4
:104E80000E94A6118091081090E0FC01EC5BFC4FA1
:104E9000E491E883FC01E657FC4FE491F0E0EE0F6B
:104EA000FF1FE053FC4F859194919A838983DF9192
:104EB000CF910895A0E0B0E0E0E6F7E20C94C434AE
:104EC000EC017B01B88009811A811A8EF894F801EF
:104ED00081819B2D9095892381837894672B49F15B
:104EE0000E949D1048EE53E0E49E9001E59E300D37
:104EF000F49E300D11246B017C01C20ED31EE11C07
:104F0000F11CF80180818B2159F40E949D106B01E6
:104F10007C01FCE1CF0EF2E0DF1EE11CF11C0EC0B3
:104F20000E949D10C616D706E806F90650F783E0E2
:104F300011C0F80180818B21E1F7E7CFF801808172
:104F40008B2159F40E949D10C616D706E806F90673
:104F5000A8F784E08A8F80E013C00E949D10C61AD3
:104F6000D70AE80AF90AF7E4CF16D104E104F104FC
:104F700010F085E0EFCF8EE190E00E94E81081E034
:104F8000CDB7DEB7E9E00C94E034FF920F931F93A6
:104F9000CF93DF93FC01F62E1081C181D281128E56
:104FA000F8948A81012F009580238A838981812B3F
:104FB000898378948DE790E00E94E810F8948981C5
:104FC0000823098378948CE291E08F1991090E945B
:104FD000E81088818123E9F309E188810150812368
:104FE00039F40111FACF82E090E00E94E810F5CF89
:104FF000CDB7DEB7E5E00C94E43469E10E94C52743
:105000000895DC013C911196ED91FC91129780EC92
:1050100090E02081232321F40197D9F78AE00895B5
:1050200080818323E9F781E00895FF920F931F9316
:10503000CF93DF93EC01F88009811A81F894F8018D
:1050400081819F2D909589238183CE010E94012823
:10505000813049F08A3011F487E001C088E08A8FFE
:10506000789480E00BC08EE190E00E94E810F80197
:1050700090819F2181E009F480E07894CDB7DEB77C
:10508000E5E00C94E434EF92FF920F931F93CF93DB
:10509000DF937C01FC01128E08E010E0D1E0C0E05B
:1050A000F701828D811109C0C7010E941528811165
:1050B000CD2BDD0F0150110999F78C2FCDB7DEB73D
:1050C000E6E00C94E334A0E0B0E0E9E6F8E20C940A
:1050D000C4346C018B01C0E0D0E0E42EF12CBC2E76
:1050E000CE15DF0564F4C6010E944328F8018193C0
:1050F0008F01F601828D811102C02196F0CF8B2D98
:10510000CDB7DEB7E9E00C94E034DF92EF92FF9286
:105110000F931F93CF93DF938C01D62EFC01E08079
:10512000C181D281F8948981FE2CF0948F218983EA
:10513000C8010E940128813041F08A3011F487E0D3
:1051400001C088E0F801828F16C0D0FE05C08EE154
:1051500090E00E94E8100FC0F8948A81F822FA8249
:1051600089818E2989838EE190E00E94E8108A81EE
:105170008E298A8378947894CDB7DEB7E7E00C94D3
:10518000E234EF92FF920F931F93CF93DF937C0152
:10519000062FFC01128EC8E0D0E011E0F701828DED
:1051A00081110BC061E0802F812309F460E0C70109
:1051B0000E948528110F219789F7CDB7DEB7E6E069
:1051C0000C94E334A0E0B0E0E8EEF8E20C94C434D0
:1051D0006C018B01C0E0D0E0E42EF12CBC2ECE158A
:1051E000DF0564F4F80161918F01C6010E94C128B6
:1051F000F601828D811102C02196F0CF8B2DCDB7A3
:10520000DEB7E9E00C94E034A0E0B0E0EAE0F9E2D7
:105210000C94C134EC018C014C0188E0880E911C87
:1052200088E0C82ED12CBB24B394F801E4800E2C66
:10523000000CFF088B2D90E0E822F922AA24A39409
:10524000E114F10409F4A12C6A2DCE010E948528F5
:1052500061E0E114F10409F060E0CE010E948528CC
:10526000CE010E9415289A8D91110EC0A8120CC073
:10527000BB0CF1E0CF1AD108C1F60F5F1F4F8016AB
:10528000910671F681E001C080E0CDB7DEB7ECE0B9
:105290000C94DD34FB0180E06CE8415088F05191C2
:1052A00098E0782F7527282F30E035952795822FA5
:1052B00070FF02C0862F82275695915091F7EDCF4F
:1052C0000895CF93DF93EC01DB01FC0134960B963C
:1052D000BF012D912193E817F907D9F747E0CE01D7
:1052E0000E944A298B87DF91CF910895CF93DF9356
:1052F000EC01FB0180818E8781818F878281888B81
:10530000BE01645F7F4F48E0CE010E944A298C8B2A
:10531000DF91CF9108950F931F93CF93DF93EC010B
:105320000E9443288E3441F148F48434D1F088340B
:1053300091F5E0910410F09105101CC0883BB1F08C
:105340008E3B39F0843B39F56B81CE010E94852874
:105350001FC0BE01645F7F4F49E0CE010E94E2287A
:1053600017C0E0910610F091071004C0E091021000
:10537000F091031019950CC08E010B5E1F4F43E096
:10538000B801CE010E946328B801CE010E9476299F
:105390008A8D811101C001C080E0DF91CF911F9102
:1053A0000F910895A8E0B0E0E8EDF9E20C94C7345D
:1053B0008C017C0184E0E80EF11CC8010E944328A6
:1053C0008C3C09F451C028F4833369F1853589F1A7
:1053D00054C08C3E19F0803F09F14FC0F80185851B
:1053E000082E000C990B982F88272485022E000C7C
:1053F000330B822B932B34E0959587953A95E1F703
:105400002785022E000C330B2817390738F4268520
:10541000022E000C330B8217930718F0C8010E946C
:10542000042980E030C048E0B701C8010E94E228AA
:1054300024C048E0BE016F5F7F4FC8010E9463280F
:10544000F801828D8111EDCFD8011496FE013196BD
:10545000C8010C963D9121913213E3CFA817B907EB
:10546000C9F7C8010E948B29C8010E948B2981E0DD
:10547000F801928D992339F0D4CFF801828D8823D9
:1054800009F49BCFCECF2896E6E00C94E334AEE04F
:10549000B0E0EDE4FAE20C94C7348C01E62EFC0196
:1054A000128E87E79DE00E946B06181619066CF5B0
:1054B00087E79DE00E949706F82E8F7D8D3411F4CA
:1054C00081E03CC064E277E0CE0108960E94C70C00
:1054D000BE01685F7F4FCE0101960E94F40C6F2DD4
:1054E000CE0101960E94DA0D66E377E00E94C10DBD
:1054F000BC0187E79DE00E94E30ACE0101960E946D
:105500005A0CCE0108960E945A0C60E070E0C80167
:105510000E945A27882329F2C8010E94FD27882368
:1055200009F4BFCFC8010E94D2298111C9CFF80167
:10553000928D992309F4B5CFE110B3CF2E96E6E012
:105540000C94E3340F931F93CF938C0160E0FC0124
:1055500082850E94A611CEE7C15069F182E090E0F9
:105560000E94E810F80182850E941112892BA1F394
:1055700060E0F80182850E94E21161E0F801828515
:105580000E94A61184EF91E00E94E81060E0F8010B
:1055900082850E94A61181E490E00E94E810F80143
:1055A00082850E941112C1E0892B09F0C0E08AEEC9
:1055B00091E00E94E8108C2FCF911F910F910895D8
:1055C0000F931F93CF93DF93EC01E989FA899081C0
:1055D0008C85892B8083ED85FE8590818C858095D7
:1055E00089238083062F017010E0F801E35BF34FFD
:1055F000808190E00E94E810ED85FE8590818C8589
:10560000892B8083F801E55BF34F808190E00E9455
:10561000E810DF91CF911F910F910895CF93DF9301
:10562000EC01E989FA8990818C85892B8083ED854D
:10563000FE8590818C8580958923808381E090E030
:105640000E94E810E989FA8990818C8580958923E8
:10565000808385E090E00E94E810EF85F8899081D2
:105660008C858923C1E009F4C0E082E390E00E94C8
:10567000E8108C2FDF91CF910895DF92EF92FF9287
:105680000F931F93CF93DF93EC01D62EE42E08E007
:1056900010E0FF24F39461E08D2D8F2109F460E088
:1056A000CE010E94E02AFF0C01501109A1F7E11080
:1056B00008C060E08A850E94A61160E08A850E9489
:1056C000E211CDB7DEB7E7E00C94E23440E06CECD9
:1056D0000E943D2B0895FC018FEF80871186178271
:1056E000168215821482138212821182108208950A
:1056F000DC011A966C931A9770E0FB01E657FC4F99
:1057000024911B962C931B97FB01EC5BFC4F64913F
:105710001C966C931C9730E0220F331FF901E65161
:10572000FC4F859194911E969C938E931D97F90141
:10573000E053FC4F8591949150969C938E931F97C4
:10574000F901EC5FFB4F8591949152969C938E9357
:105750005197CD010E946B2B0895A0E0B0E0E3EBE0
:10576000FBE20C94C234FC012185222311F080E07D
:105770006FC06B01EC010E94A22A8823C1F340E0B4
:1057800060EFCE010E943D2B00E010E0BB24B394FB
:1057900099249A94EE24E394F12CCE010E940E2BCE
:1057A000A82ECE010E940E2B402F46954695469579
:1057B000902F9770970101C0220F9A95EAF7AA20BF
:1057C00019F0882311F1D3CFE42FF0E0811123C029
:1057D0008885082E000C990B0817190711F4988674
:1057E0000EC0081719073CF4DE01AE0FBF1F8C91E5
:1057F000822329F402C0088780E0B12C01C081E037
:10580000902E882341F0AA24A394FE01E40FF11DF9
:105810008081282B05C0EC0FFD1F20958081282357
:1058200020836A2DCE010E94E02A0F5F1F4F0034B3
:10583000110509F0B2CFBB2011F081E08987F60194
:10584000CE010896299121938C179D07D9F781E005
:10585000CDB7DEB7EBE00C94DE34582FFC0180E0CE
:105860007CE89E2F951B961788F4419198E0A82F0D
:10587000A427282F30E035952795822FA0FF02C05E
:10588000872F82274695915091F7EBCF0895FC0121
:1058900062830895CF93DF93EC01CB017983688312
:1058A0000E9414046A81888199810E94340488814D
:1058B0009981DC01ED91FC910190F081E02D60E097
:1058C000199588819981DC01ED91FC910190F0811D
:1058D000E02D60E01995888199810E945404DF9140
:1058E000CF910895A0E0B0E0E8E7FCE20C94C13469
:1058F0008C016B015A017901CB01820F931F81301A
:10590000904108F07BC090E2892EE114F10409F483
:1059100077C09C2C8C2D8F71C82DC81BD0E0EC1645
:10592000FD0608F4E701D80112966C9112978D914B
:105930009C910E943404F80180819181DC01ED91F9
:10594000FC910190F081E02D6D2D1995F801808179
:105950009181DC01ED91FC910190F081E02D692DA8
:105960001995F80180819181CF3108F0CEE1D0E026
:10597000DC01ED91FC910280F381E02DAE01B501D7
:105980001995F801808191810E945404811139C0D8
:1059900084E6982E84EF91E00E94E810D8011296D8
:1059A0006C9112978D919C910E943404F801808132
:1059B0009181DC01ED91FC910190F081E02D60E09E
:1059C0001995F80180819181DC01ED91FC910190A4
:1059D000F081E02D60E01995F801808191810E94AD
:1059E0005404882321F09A949110D4CF0AC0CC0E8D
:1059F000DD1EAC0EBD1EEC1AFD0A87CF89E001C08A
:105A000080E0CDB7DEB7ECE00C94DD34A1E0B0E08F
:105A1000ECE0FDE20C94CB34498321E030E0AE01B0
:105A20004F5F5F4F0E94722C2196E2E00C94E734A6
:105A3000A0E0B0E0EEE1FDE20C94BF34EC015B01CC
:105A40006A018901CB01820F931F8130904108F0D8
:105A50004AC00115110509F448C078010132110549
:105A600018F080E2E82EF12C7E2C6A8188819981E1
:105A70000E94340488819981DC01ED91FC910190B0
:105A8000F081E02D6B2D199588819981DC01ED91D4
:105A9000FC910190F081E02D6A2D19958881998102
:105AA0000E945404811122C04E2D6A8188819981FF
:105AB0000E942C046C2C460188819981DC01ED91B7
:105AC000FC910680F781E02D1995F40181934F0137
:105AD0008E2F8619871580F3AE0CBF1CCE0CDF1CF1
