:100000000C94A4000C94CC000C94CC000C94CC0068
:100010000C94CC000C94CC000C94CC000C941F30AD
:100020000C94CC000C94CC000C94CC000C94CC0020
:100030000C94CC000C94CC000C94CC000C94CC0010
:100040000C94C00C0C94CC000C948A050C94CD0537
:100050000C94CC000C94CC000C94CC000C94CC00F0
:100060000C94C3030C94CC00150120012901360126
:1000700041014C0157015F016B017301CB01CB01C1
:10008000CB01CB01CB011001CB017E018901940191
:100090009F01AA01B501C0011001CB01CB01CB0129
:1000A000CB011001CB01CB01CB01CB01CB01CB01AB
:1000B000CB01CB01CB01CB01CB01CB01CB01CB01E0
:1000C000CB01CB01CB01CB01CB017E018901940196
:1000D0009F01AA01B501C0011001CB01CB01CB01E9
:1000E000CB0110010000000700020100000304061C
:1000F0000000000000000000010204081020408001
:100100000102040810200102040810200404040461
:1001100004040404020202020202030303030303B1
:100120000000000023002600290000000000250038
:1001300028002B0000000000240027002A000200F5
:10014000E900E1028B067C1311241FBECFEFD8E03B
:10015000DEBFCDBF1BE0A0E0B1E0E2ECF9E602C0FB
:1001600005900D92A035B107D9F72DE0A0E5BBE0D1
:1001700001C01D92A432B207E1F710E0C4EAD0E05A
:1001800004C02197FE010E940D31C03AD107C9F782
:100190000E94B30C0C94DF340C94000081E59BE0CA
:1001A0000E949D0240E052EC61E070E081E19CE041
:1001B0000E94080680E59BE00E94D71168EE73E07C
:1001C00080E090E00E943B0D80E59BE00E948D0E58
:1001D000089580E59BE00E948C0E0895A5E1B0E0B3
:1001E000E4EFF0E00C942E3181E19CE00E94F004F9
:1001F000181619060CF007C181E19CE00E941C054D
:10020000482F082E000C550B660B770BFA01F09760
:10021000EE33F10508F0BFC0EC5CFF4F0C940D31DC
:1002200080E59BE00E948D0EE4C067E071E081E113
:100230009CE00E945A0780E59BE00E94F111D9C022
:1002400066E171E081E19CE00E945A0740E060E0D5
:1002500008C064E271E081E19CE00E945A0740E03E
:1002600061E080E59BE00E94EF21C3C065E471E09E
:1002700081E19CE00E945A0780E59BE00E94E92012
:10028000B8C064E571E081E19CE00E945A0780E516
:100290009BE00E94F717ADC064E771E081E19CE04C
:1002A0000E945A0780E59BE00E940419A2C063E9FE
:1002B00071E081E19CE00E945A0760E007C06BEAB0
:1002C00071E081E19CE00E945A0761E080E59BE0DB
:1002D0000E944D1D8EC060ED71E081E19CE00E94A6
:1002E0005A0741E0BDCF6DEF71E081E19CE00E94D3
:1002F0005A0780E59BE00E948C137BC062E172E0AC
:1003000081E19CE00E945A0780E59BE00E948D21DC
:1003100070C061E272E081E19CE00E945A0780E5D2
:100320009BE00E942C2365C060E372E081E19CE0C9
:100330000E945A0780E59BE00E942C1B5AC067E48C
:1003400072E081E19CE00E945A0780E59BE00E94F8
:1003500083144FC06EE672E081E19CE00E945A0770
:1003600080E59BE00E94B41544C06FE872E081E133
:100370009CE00E945A0780E59BE00E94A51F39C0BF
:100380006EE972E081E19CE00E945A0780E59BE003
:100390000E94AE0F2EC0682FCE0108960E947E09E3
:1003A00065ED72E0CE010F960E942F09BE01615FDC
:1003B0007F4FCE0101960E945C09BE01685F7F4FAE
:1003C000CE0101960E94160A68EE72E00E94290A88
:1003D000BC0181E19CE00E944807CE0101960E9489
:1003E000C208CE010F960E94C208CE0108960E9454
:1003F000C20868EE73E080E090E00E943B0D80E56B
:100400009BE00E948D0E6596E2E00C944A3180914B
:10041000810B90E02091820B821B910908959091AD
:10042000820B8091810B981750F4E92FF0E0ED5783
:10043000F44F208130E09F5F9093820B02C02FEF3A
:100440003FEFC9010895E091820B8091810BE8177D
:1004500030F4F0E0ED57F44F808190E008958FEF95
:100460009FEF08950895A0E0B0E0E9E3F2E00C9476
:1004700028317C01262F972F8A0180915D0B8823DC
:1004800091F0C62FD72F6E01C40ED51ECC15DD05F9
:1004900071F06991D701ED91FC910190F081E02D0F
:1004A000C7010995F3CF642F822F0E949A03C801D8
:1004B000CDB7DEB7E8E00C944431A1E0B0E0E3E66C
:1004C000F2E00C942E31698320915D0B2223D1F050
:1004D00020915E0B203240F021E030E0FC013383BC
:1004E000228380E090E015C080915F0BE82FF0E060
:1004F000E05AF44F998190838F5F80935F0B8093D4
:100500005E0B05C061E0CE0101960E949A0381E076
:1005100090E02196E2E00C944A31FC0113821282B1
:1005200088EE93E0A0E0B0E084839583A683B78350
:100530008FEE92E09183808308951092820B109247
:10054000810B10925F0B10925E0B0E94E6020895E1
:10055000862F413208F040E263E87BE00E9404030A
:100560001092820B8093810B089521E00E94A802D3
:10057000089521E00E94A802089581E080935D0B18
:100580006093800B10925F0B10925E0B08950E9497
:10059000BD0208950F93062F21E040915E0B60E6A7
:1005A0007BE08091800B0E94480310925F0B1092B9
:1005B0005E0B10925D0B0F91089561E00E94CA02DC
:1005C000089581E59BE00E948D0208951092100C21
:1005D00081E080930E0C10920D0C61E082E10E948C
:1005E0000B0E61E083E10E940B0EE9EBF0E08081ED
:1005F0008E7F808380818D7F808388E48093B800A4
:1006000085E48093BC000895413208F03FC090918A
:10061000100C9111FCCF91E09093100C20930E0CD4
:100620002FEF2093A30B1092E80B240F2093E70BDE
:1006300090930F0C90910F0C880F892B80930F0CC7
:1006400080910D0C813041F410920D0C80910F0CB3
:100650008093BB0085EC01C085EE8093BC00809147
:10066000100C8130E1F38091E80B841710F4409175
:10067000E80B29EE3BE0FB01D9018A2F821B84178E
:1006800018F48D918193F9CF842F089580E0089517
:100690000F93413208F046C09091100C9111FCCF9D
:1006A00032E03093100C00930E0C3FEF3093A30B0D
:1006B0001092E80B4093E70BFB0169EE7BE0DB0156
:1006C0003A2F361B341718F431913D93F9CF10921D
:1006D0000F0C30910F0C880F832B80930F0C80919F
:1006E0000D0C813041F410920D0C80910F0C809311
:1006F000BB0085EC01C085EE8093BC00222321F075
:100700008091100C8230D1F38091A30B8F3F79F050
:100710008091A30B803241F08091A30B803331F0A4
:1007200094E005C091E003C092E001C093E0892FFE
:100730000F910895613298F42091100C243089F4BF
:100740006093C50BFC0127EC3BE0D9018A2F821B8B
:10075000861718F481918D93F9CF80E0089581E098
:10076000089582E0089585ED8093BC008091BC00DF
:1007700084FDFCCF1092100C089585EC8093BC0092
:100780001092100C08951F920F920FB60F92112421
:100790002F933F934F935F936F937F938F939F9389
:1007A000AF93BF93EF93FF938091B900887F80361A
:1007B00009F49CC068F5883209F45BC090F480317C
:1007C00009F454C038F4882309F4F5C0883009F4DA
:1007D0004DC0F5C0883109F44CC0803209F45DC0C9
:1007E000EEC0803409F468C048F4803309F455C081
:1007F000883309F0E4C08093A30BA8C0803509F4C6
:100800004FC0883509F45DC0883409F0D8C0D5C020
:10081000883909F4C6C0A8F4883709F467C038F4E9
:10082000883609F463C0803709F460C0C8C08838CE
:1008300009F4B7C0803909F45FC0803809F0BFC03F
:100840005BC0803B09F485C038F4803A09F466C087
:10085000883A09F47EC0B3C0803C09F4A6C0883C45
:1008600009F4A3C0883B09F489C0A9C080910F0C8A
:1008700010C09091E80B8091E70B981770F5E0910C
:10088000E80B81E08E0F8093E80BF0E0E751F44F26
:1008900080818093BB0085EC85C08093A30B8DC0C5
:1008A000E091E80B81E08E0F8093E80B8091BB0014
:1008B000F0E0E751F44F80839091E80B8091E70BD3
:1008C0006DC0E091E80B81E08E0F8093E80B809182
:1008D000BB00F0E0E751F44F808380910E0C811152
:1008E0006CC081E080930D0C84EA60C083E080934B
:1008F000100C1092A40BCFCF8091A40B803208F083
:1009000050C0E091A40B81E08E0F8093A40B8091E6
:10091000BB00F0E0EB55F44F8083BDCF8091A40B7A
:10092000803230F4E091A40BF0E0EB55F44F1082EC
:100930000E94B3036091A40B70E0E091090CF09168
:100940000A0C85EA9BE009951092A40B0E94BD0356
:1009500036C084E08093100C1092C60B1092C50B29
:10096000E0910B0CF0910C0C09958091C50B811155
:1009700005C081E08093C50B1092C70BE091C60BB8
:1009800081E08E0F8093C60BF0E0E953F44F808135
:100990008093BB009091C60B8091C50B981708F40B
:1009A0007ACF85E88093BC000AC085EC8093BC00B8
:1009B0001092100C04C01092A30B0E94B303FF917D
:1009C000EF91BF91AF919F918F917F916F915F91C7
:1009D0004F913F912F910F900FBE0F901F90189540
:1009E000FC0124853585F901E05CFF4F8081918110
:1009F000329620813181821B930B8F739927089542
:100A0000DC011C96ED91FC911D97DF01A05CBF4FAE
:100A10002D913C91119712968D919C9111972817C9
:100A2000390739F08D919C91E80FF91F808190E092
:100A300008958FEF9FEF0895FC01A485B585FD0112
:100A4000E05CFF4F208131813296808191812817AF
:100A5000390779F080819181A80FB91F8C9120818D
:100A600031812F5F3F4F2F7333273183208390E0F5
:100A700008958FEF9FEF0895FC0181A1882329F04D
:100A8000A489B5898C9186FFFBCF11A208950F939D
:100A90001F93CF93DF93FC01A685B7858D01005C82
:100AA0001F4FE8018881998101968F739927AD01C5
:100AB0004E5B5F4FEA012881398182179307D1F39A
:100AC000E80128813981A20FB31F6C93A685B785F1
:100AD000A05CBF4F11969C938E93A689B7892C91E9
:100AE00081E090E0078C02C0880F991F0A94E2F71A
:100AF000822B8C9381E081A30488F589E02D80818D
:100B00008064808381E090E0DF91CF911F910F910D
:100B1000089508951F920F920FB60F9211242F93EC
:100B20004F935F938F939F93EF93FF938091C000B8
:100B300082FD1CC02091C6008091B70C9091B80C2A
:100B400001968F7399274091B90C5091BA0C841774
:100B5000950771F0E091B70CF091B80CE958F34F9C
:100B600020839093B80C8093B70C02C08091C6008C
:100B7000FF91EF919F918F915F914F912F910F90E6
:100B80000FBE0F901F90189581E19CE00E94F00429
:100B9000892B11F00E94890508951F920F920FB6BC
:100BA0000F9211242F933F938F939F93EF93FF9373
:100BB0002091730C3091740C8091750C9091760C8F
:100BC0002817390731F48091C1008F7D8093C100CF
:100BD00014C0E091750CF091760CED5CF34F208120
:100BE0008091750C9091760C01968F739927909354
:100BF000760C8093750C2093C600FF91EF919F9126
:100C00008F913F912F910F900FBE0F901F901895CD
:100C1000A0E0B0E0EEE0F6E00C942831EC016A01CF
:100C20007B014115514E6105710511F1EC89FD897A
:100C300081E090E008A002C0880F991F0A94E2F7B3
:100C4000808360E079E08DE390E0A70196010E9447
:100C5000CC3089019A0101501109210931093695D9
:100C60002795179507959801011580E11807A8F0B9
:100C7000EC89FD89108260E874E88EE190E0A701BC
:100C800096010E94CC30DA01C9010197A109B1098E
:100C9000B695A795979587959C01E889F989308342
:100CA000EA89FB89208319A2EE89FF89408181E0CE
:100CB00090E09C010C8C02C0220F331F0A94E2F7D3
:100CC000242B2083EE89FF8940819C010D8C02C07A
:100CD000220F331F0A94E2F7242B2083EE89FF8929
:100CE00040819C010E8C02C0220F331F0A94E2F750
:100CF000242B2083EE89FF8920810F8C02C0880F6E
:100D0000991F0A94E2F7809582238083CDB7DEB7DE
:100D1000E8E00C944431E1E1FCE01382128288EEB9
:100D200093E0A0E0B0E084839583A683B7838FEF40
:100D300092E09183808387E79CE09587848783E3B3
:100D40009CE09787868785EC90E0918B808B84EC84
:100D500090E0938B828B80EC90E0958B848B81EC80
:100D600090E0978B868B82EC90E0918F808F86EC61
:100D700090E0938F828F84E0848F83E0858F87E07B
:100D8000868F85E0878F81E080A30895A0E0B0E0A2
:100D9000ECECF6E00C9428316C01EB017B01E40EE5
:100DA000F51E00E010E0CE15DF0561F06991D60177
:100DB000ED91FC910190F081E02DC6010995080F9D
:100DC000191FF1CFC801CDB7DEB7E8E00C9444316C
:100DD0006115710581F0FB0101900020E9F7319761
:100DE000AF01461B570BDC01ED91FC910280F381B2
:100DF000E02D0995089580E090E00895A0E0B0E02E
:100E0000E4E0F7E00C9426316C017B01C0E0D0E017
:100E100000E010E0D70114968D919C911597C817AA
:100E2000D90788F4D601ED91FC91A080B180BE0174
:100E3000C7010E945E0A682FC601F5010995080FD7
:100E4000191F2196E7CFC801CDB7DEB7EAE00C94B1
:100E500042310E94E8060895DC01ED91FC91019079
:100E6000F081E02D099508950F931F93CF93DF93A1
:100E7000EC016DE00E942C078C016AE0CE010E941B
:100E80002C07800F911FDF91CF911F910F91089533
:100E90000F931F93CF93DF93EC010E94FE068C010A
:100EA000CE010E943407800F911FDF91CF911F91D7
:100EB0000F9108950F931F93CF93DF93EC010E943E
:100EC000E8068C01CE010E943407800F911FDF914C
:100ED000CF911F910F910895A1E2B0E0E2E7F7E012
:100EE0000C9424316C01142FE52FCB01022F19A291
:100EF000223008F40AE07E0121E2E20EF11C802E8D
:100F0000912CA12CB12C612F7E2FA50194010E9460
:100F1000CC30029F1019112481E0E81AF1081A3030
:100F200014F4105D01C0195CF7011083122FE32F38
:100F3000CA01232B242B252B31F7B701C6010E94B0
:100F4000E806A196ECE00C944031A0E0B0E0EBEABA
:100F5000F7E00C9428318C016A017B0121153105E1
:100F600049F4DC01ED91FC910190F081E02D642FBA
:100F700009951DC02A303105A9F477FF12C06DE232
:100F80000E942C07EC0144275527BA014C195D0932
:100F90006E097F092AE0C8010E946C078C0F9D1F13
:100FA00006C02AE0B701A601C8010E946C07CDB7B0
:100FB000DEB7E8E00C9444319A01AB01770F660B81
:100FC000770B0E94A50708952115310549F4DC012E
:100FD000ED91FC910190F081E02D642F0995089529
:100FE0000E946C0708959A01462F50E060E070E07F
:100FF0000E94E4070895A0E0B0E0E1E0F8E00C947E
:1010000023318C016A017B01722E9A01AB01C70169
:10101000B6010E94592D882319F06BE073E01AC0C5
:1010200046015701E894B7F82FEF3FEF4FE75FE72E
:10103000C501B4010E94592D811110C02FEF3FEF5F
:101040004FE75FE7C501B4010E94882B181634F4FE
:101050006FE073E0C8010E94E8068CC02FEF3FEFFD
:101060004FE75FE4C701B6010E94E72C18161CF495
:1010700063E173E0EFCF2FEF3FEF4FE75FECC70186
:10108000B6010E94882B87FDF3CF20E030E0A90154
:10109000C701B6010E94882B87FF0AC06DE2C80114
:1010A0000E942C07EC01F7FAF094F7F8F09402C0D4
:1010B000C0E0D0E0B12C60E070E080E09FE3B714C6
:1010C00041F020E030E040E251E40E948D2BB394E7
:1010D000F6CF9B01AC01C701B6010E941C2B6B012E
:1010E0007C010E94062C4B015C010E94352C9B0167
:1010F000AC01C701B6010E941B2B6B017C012AE0E9
:10110000B501A401C8010E946C07C80FD91F772040
:1011100039F064E979E0C8010E94E806C80FD91FD8
:10112000772039F120E030E040E251E4C701B60118
:101130000E94EC2C4B015C010E94FF2B6B01770F8E
:10114000EE08FF082AE030E0B701A601C8010E94BE
:10115000A507C80FD91FC701B6010E94372C9B01F4
:10116000AC01C501B4010E941B2B6B017C017A9478
:10117000D7CFCE01CDB7DEB7EDE00C943F310E9462
:10118000FB070895FC01808191810E94510B089515
:10119000CF93DF93EC0188819981009711F00E9431
:1011A000510B198218821D821C821B821A82DF91C8
:1011B000CF9108950F931F93CF93DF93EC018B0191
:1011C0006F5F7F4F888199810E94E90B009731F012
:1011D000998388831B830A8381E001C080E0DF91CB
:1011E000CF911F910F910895CF93DF93EC018881E8
:1011F0009981892B29F08A819B818617970760F452
:10120000CE010E94DA08882341F08C819D81892BD0
:1012100019F4E881F981108281E0DF91CF9108957E
:10122000EF92FF920F931F93CF93DF93EC017B011B
:101230008A01BA010E94F408811104C0CE010E9403
:10124000C80807C01D830C83B701888199810E945B
:10125000B231CE01CDB7DEB7E6E00C944631FC01E9
:1012600011821082138212821582148216826115F5
:10127000710551F0FB0101900020E9F73197AF01B2
:10128000461B570B0E9410090895CF93DF93EC0182
:10129000FB018617970761F0608171816115710507
:1012A00029F0448155810E94100902C00E94C8089B
:1012B000CE01DF91CF910895FC011182108213823B
:1012C00012821582148216820E9445090895CF93D6
:1012D000DF93EC016115710559F0FB0101900020CD
:1012E000E9F73197AF01461B570B0E94100902C066
:1012F0000E94C808CE01DF91CF910895A2E0B0E02E
:10130000E4E8F9E00C942E31FC0111821082138282
:10131000128215821482168269831A82BE016F5F5F
:101320007F4F0E9467092296E2E00C944A31A2E1C5
:10133000B0E0EDE9F9E00C942C318C01CB01F8011F
:10134000118210821382128215821482168250E05A
:10135000BE016F5F7F4F0E94B931BE016F5F7F4F4B
:10136000C8010E9467096296E4E00C944831EF924C
:10137000FF920F931F93CF93DF93FC01248135815C
:101380006115710511F480E019C041155105A9F0EE
:101390007B01EC018A01020F131FB8010E94F408BF
:1013A000882389F3288139818C819D81B701820F3F
:1013B000931F0E94B2311D830C8381E0CDB7DEB74D
:1013C000E6E00C944631A2E0B0E0E9EEF9E00C94DE
:1013D0002E3169831A8241E050E0BE016F5F7F4F7A
:1013E0000E94B7092296E2E00C944A31A7E0B0E0EF
:1013F000ECEFF9E00C942A317C01CB014AE050E09B
:101400008E010F5F1F4FB8010E94B931F8010190A2
:101410000020E9F73197AF01401B510BB801C7011C
:101420000E94B7092796E6E00C944631CF93DF93EC
:10143000EC01FB0144815581608171810E94B709F3
:10144000811103C0CE010E94C808CE01DF91CF9167
:101450000895CF93DF93EC016115710561F0FB01F5
:1014600001900020E9F73197AF01461B570B0E940E
:10147000B709811103C0CE010E94C808CE01DF91D7
:10148000CF910895CF93DF93EC010E94E30981117E
:1014900003C0CE010E94C808CE01DF91CF9108950C
:1014A000CF93DF93EC010E94F609811103C0CE01B6
:1014B0000E94C808CE01DF91CF910895FC012481DC
:1014C00035816217730748F480819181009729F074
:1014D000FC01E60FF71F8081089580E008950E94C7
:1014E0005E0A0895A0E0B0E0E8E7FAE00C94273146
:1014F0007C016B018A01E9012417350720F4812F53
:101500008901C42FD82F60EB75E0C7010E942F0915
:10151000D60114968D919C91159780179107D0F064
:101520008C179D0708F4EC01D601ED91FC91119701
:10153000EC0FFD1FB08010824D915C91BA01600FDD
:10154000711FC7010E946709D601ED91FC91EC0F54
:10155000FD1FB082C701CDB7DEB7E9E00C9443317F
:10156000FC0180819181009719F00E9482310895D9
:1015700060E070E0CB010895CF93DF938230910556
:1015800010F482E090E0E091220DF091230D20E034
:1015900030E0C0E0D0E0309711F140815181481730
:1015A0005907C0F04817590761F482819381209749
:1015B00019F09B838A832BC09093230D8093220D77
:1015C00026C02115310519F04217530718F49A0166
:1015D000BE01DF01EF010280F381E02DDCCF211598
:1015E000310509F1281B390B2430310590F412968E
:1015F0008D919C9113976115710521F0FB019383E7
:10160000828304C09093230D8093220DFD013296B6
:1016100044C0FD01E20FF31F8193919322503109E1
:101620002D933C933AC02091200D3091210D232B16
:1016300041F420910201309103013093210D209358
:10164000200D20910001309101012115310541F457
:101650002DB73EB74091040150910501241B350B75
:10166000E091200DF091210DE217F307A0F42E1B5D
:101670003F0B2817390778F0AC014E5F5F4F2417F6
:10168000350748F04E0F5F1F5093210D4093200DFA
:101690008193919302C0E0E0F0E0CF01DF91CF9120
:1016A00008950F931F93CF93DF93009709F48CC095
:1016B000FC013297138212820091220D1091230DAA
:1016C0000115110581F420813181820F931F209132
:1016D000200D3091210D2817390779F5F093210D50
:1016E000E093200D71C0D80140E050E0AE17BF0775
:1016F00050F412962D913C911397AD0121153105AF
:1017000009F1D901F3CF9D01DA013383228360818E
:101710007181860F971F8217930769F4EC01288166
:101720003981260F371F2E5F3F4F318320838A81F7
:101730009B8193838283452B29F4F093230DE093BF
:10174000220D42C01396FC93EE931297ED0149913E
:1017500059919E01240F351FE217F30771F4808120
:101760009181840F951F029611969C938E9382818E
:10177000938113969C938E931297E0E0F0E0D8014A
:1017800012968D919C911397009719F0F8018C0196
:10179000F6CF8D919C9198012E5F3F4F820F931F42
:1017A0002091200D3091210D2817390769F43097C9
:1017B00029F41092230D1092220D02C0138212827E
:1017C0001093210D0093200DDF91CF911F910F9168
:1017D0000895A0E0B0E0EFEEFBE00C942231EC01C4
:1017E000009721F4CB010E94BC0AB8C0FC01E60FAF
:1017F000F71F9C0122503109E217F30708F4ACC02F
:10180000D9010D911C91119706171707B0F00530FB
:10181000110508F49FC0C80104978617970708F4BC
:1018200099C002501109061B170B019311936D9378
:101830007C93CF010E94510B8DC05B01A01AB10AAD
:101840004C01800E911EA091220DB091230D40E01D
:1018500050E0E12CF12C109709F44AC0A815B90505
:10186000D1F56D907C901197630182E0C80ED11C78
:10187000CA14DB0480F1A3014A195B096A0182E002
:10188000C80ED11C1296BC9012971396AC91B5E07D
:10189000CB16D10440F0B282A38351834083D90197
:1018A0006D937C930AC00E5F1F4FC301800F911F81
:1018B000F90191838083EB2DFA2FE114F10431F0CB
:1018C000D7011396FC93EE93129744C0F093230D27
:1018D000E093220D3FC08D919C91119748175907B5
:1018E00008F4AC017D0112960D90BC91A02DB3CFF0
:1018F0008091200D9091210D88159905E1F44617EE
:101900005707C8F48091000190910101009741F4BC
:101910008DB79EB74091040150910501841B950B32
:10192000E817F907C8F4F093210DE093200DF901B1
:10193000718360830FC0CB010E94BC0A7C010097B9
:1019400059F0A801BE010E94A931CE010E94510B9D
:10195000C70104C0CE0102C080E090E0CDB7DEB781
:10196000EEE00C943E310E946B0D0E94CE00C4EC60
:10197000D5E00E94EE002097E1F30E94C405F9CF64
:101980001F920F920FB60F9211242F933F938F93B4
:101990009F93AF93BF938091BC0C9091BD0CA0918D
:1019A000BE0CB091BF0C3091BB0C23E0230F2D3740
:1019B00020F40196A11DB11D05C026E8230F029653
:1019C000A11DB11D2093BB0C8093BC0C9093BD0C4A
:1019D000A093BE0CB093BF0C8091C00C9091C10C31
:1019E000A091C20CB091C30C0196A11DB11D8093B2
:1019F000C00C9093C10CA093C20CB093C30CBF91C8
:101A0000AF919F918F913F912F910F900FBE0F90AB
:101A10001F9018952FB7F8946091BC0C7091BD0C75
:101A20008091BE0C9091BF0C2FBF08953FB7F894E2
:101A30008091C00C9091C10CA091C20CB091C30CCC
:101A400026B5A89B05C02F3F19F00196A11DB11D19
:101A50003FBFBA2FA92F982F8827820F911DA11D54
:101A6000B11DBC01CD0142E0660F771F881F991F91
:101A70004A95D1F70895CF92DF92EF92FF92CF93DC
:101A8000DF936B017C010E94160DEB01C114D104A0
:101A9000E104F10479F00E94160D6C1B7D0B683E89
:101AA0007340A0F381E0C81AD108E108F108C851D9
:101AB000DC4FECCFDF91CF91FF90EF90DF90CF9094
:101AC0000895019739F0880F991F880F991F029781
:101AD0000197F1F70895789484B5826084BD84B548
:101AE000816084BD85B5826085BD85B5816085BD19
:101AF000EEE6F0E0808181608083E1E8F0E0108232
:101B0000808182608083808181608083E0E8F0E072
:101B1000808181608083E1EBF0E08081846080835C
:101B2000E0EBF0E0808181608083EAE7F0E0808193
:101B300084608083808182608083808181608083F3
:101B40008081806880831092C1000895833081F085
:101B500028F4813099F08230A1F008958630A9F000
:101B60008730B9F08430D1F4809180008F7D03C03C
:101B7000809180008F7780938000089584B58F775F
:101B800002C084B58F7D84BD08958091B0008F77A9
:101B900003C08091B0008F7D8093B0000895CF93F3
:101BA000DF9390E0FC01E850FF4F2491FC01E45FDB
:101BB000FE4F8491882361F190E0880F991FFC010A
:101BC000EC5CFE4FC591D491FC01E65DFE4FA59102
:101BD000B491611109C09FB7F89488812095822340
:101BE0008883EC912E230BC0623061F49FB7F89488
:101BF0003881822F809583238883EC912E2B2C9320
:101C00009FBF06C08FB7F894E8812E2B28838FBF23
:101C1000DF91CF9108951F93CF93DF93282F30E06A
:101C2000F901EC51FF4F8491F901E850FF4FD49135
:101C3000F901E45FFE4FC491CC23C9F0162F811146
:101C40000E94A60DEC2FF0E0EE0FFF1FE65DFE4FA9
:101C5000A591B4918FB7F894111105C09C91ED2F07
:101C6000E095E92302C0EC91ED2BEC938FBFDF915F
:101C7000CF911F910895CF93DF93282F30E0F90182
:101C8000EC51FF4F8491F901E850FF4FD491F901D5
:101C9000E45FFE4FC491CC2391F081110E94A60D08
:101CA000EC2FF0E0EE0FFF1FE05EFE4FA591B49128
:101CB000EC91ED2381E090E021F480E002C080E02F
:101CC00090E0DF91CF910895A1E0B0E0EAE6FEE078
:101CD0000C942C318C01FC01608180E090E06983E0
:101CE0000E94C9346981681721F080E090E00E9469
:101CF000D134F801618181E090E069830E94C934A8
:101D00006981681721F081E090E00E94D134C80118
:101D10002196E4E00C944831089581E19CE00E9412
:101D2000340767E173E081E19CE00E945A076FE3AA
:101D300073E081E19CE00E945A0767E173E081E172
:101D40009CE00E945A0781E19CE00E94340767E60C
:101D500073E081E19CE00E945A0763E873E081E14F
:101D60009CE00E945A0767E973E081E19CE00E94D1
:101D70005A076EEB73E081E19CE00E945A076CED1C
:101D800073E081E19CE00E945A0762E074E081E127
:101D90009CE00E945A0767E274E081E19CE00E94A7
:101DA0005A076CE374E081E19CE00E945A0763E506
:101DB00074E081E19CE00E945A0761E774E081E1F0
:101DC0009CE00E945A076BE874E081E19CE00E946D
:101DD0005A0762EA74E081E19CE00E945A0781E1BF
:101DE0009CE00E94340769EB74E081E19CE00E9472
:101DF0005A076EED74E081E19CE00E945A0766E0AC
:101E000075E081E19CE00E945A076EED74E081E18B
:101E10009CE00E945A070895FB01DA01CB01089665
:101E200031912D91321305C0E817F907C9F781E008
:101E3000089580E00895CF93C62F60E08CE00E9463
:101E40000B0E61E08CE00E94CF0DC13019F486E0EA
:101E500090E002C08CE390E00E94610D60E08CE0B5
:101E60000E94CF0D61E08CE00E940B0E6AE070E0F2
:101E700080E090E00E943B0DCF910895AF92BF9219
:101E8000DF92EF92FF920F931F93CF93DF931F92F6
:101E9000CDB7DEB78C01F62E80EF9CE079830E94EF
:101EA000EB2880EF9CE00E940A2840E061ED80EF83
:101EB0009CE00E94A52860E0C8010E941B0F80EFF3
:101EC0009CE00E94EB2880EF9CE00E940A2840E002
:101ED00065ED80EF9CE00E94A528AF2C7981B72E9C
:101EE00028E0D22E88E0E82EF12CF501808180FFD9
:101EF00002C060E001C061E0C8010E941B0FF50153
:101F0000208130E0359527952083F1E0EF1AF10824
:101F100061F76CE373E081E19CE00E942907DA94A9
:101F20008FEFA81AB80AD110DDCF80EF9CE00E9495
:101F30000A2840E061ED80EF9CE00E94A52861E066
:101F4000C8010E941B0F0F90DF91CF911F910F913D
:101F5000FF90EF90DF90BF90AF900895CF93DF9305
:101F6000EC0180EF9CE00E940A28813089F080EF2C
:101F70009CE00E940A28813059F540E061ED80EF35
:101F80009CE00E94A52861E0CE010E941B0F20C0AA
:101F900040E06CEC80EF9CE00E94A52840E06AEAFB
:101FA00080EF9CE00E94A52840E060E080EF9CE08C
:101FB0000E94A52840E060E080EF9CE00E94A528F8
:101FC00080EF9CE00E94D1288C3989F683E07EC0A6
:101FD00080EF9CE00E940A28813009F040C040E078
:101FE00065EB80EF9CE00E94A52880EF9CE00E94BA
:101FF000D1288E3FA1F580EF9CE00E940A28813015
:1020000051F440E061ED80EF9CE00E94A52860E083
:10201000CE010E941B0F80EF9CE00E940A288130B5
:10202000F1F440E065EB80EF9CE00E94A52880EF92
:102030009CE00E94D1288F3F91F480EF9CE00E94A9
:102040000A28813009F03FC040E061ED80EF9CE05C
:102050000E94A52861E0CE010E941B0F34C080EFD2
:102060009CE00E940A28813051F440E06DE180EF4D
:102070009CE00E94A52861E0CE010E941B0F80EF2A
:102080009CE00E940A288130E9F440E06EE180EF94
:102090009CE00E94A52880EF9CE00E94D1288E3F02
:1020A00089F480EF9CE00E940A28813071F440E0BE
:1020B0006DE180EF9CE00E94A52860E0CE010E94C7
:1020C0001B0F03C004C081E001C082E090E0DF91FB
:1020D000CF910895CF92DF92EF92FF920F931F93CB
:1020E0006A017B01C901B80120E030E0A9018AE062
:1020F0000E94A82DC701B6010E943B0D8AE00E94F4
:102100000830C701B6010E943B0D1F910F91FF904F
:10211000EF90DF90CF90089583E09DE00E94062429
:102120006093C80C7093C90C8093CA0C9093CB0C2D
:1021300083E09DE00E944D246093C40C7093C50C15
:102140008093C60C9093C70C08950F931F93CF9361
:10215000DF938B01FB01848195818E30910511F015
:10216000409791F5C0E0D0E0F80184819581C817CF
:10217000D90740F5BE01C8010E946F0A80333CF4C4
:10218000BE01C8010E946F0A813444F40DC0BE0133
:10219000C8010E946F0A8A339CF0F2CFBE01C801C9
:1021A0000E946F0A873464F0BE01C8010E946F0A62
:1021B000813654F0BE01C8010E946F0A873624F4AC
:1021C0002196D2CF81E001C080E0DF91CF911F91B5
:1021D0000F9108950F931F93CF93DF938B01C0E06E
:1021E000D0E0F80184819581C817D90770F4BE0149
:1021F000C8010E946F0A803354F0BE01C8010E94DA
:102200006F0A8A3324F42196ECCF81E001C080E08C
:10221000DF91CF911F910F910895A2E0B0E0E3E12B
:10222000F1E10C942E311A82198280E090E00E9434
:10223000C934898381E090E00E94C9348A8389810E
:102240009A812296E2E00C944A31AEE0B0E0EBE2F3
:10225000F1E10C9424318B017A010E940D11B80137
:1022600023E0660F771F2A95E1F76E9D80016F9D31
:10227000100D7E9D100D1124600F711F5C016817F9
:1022800079070CF45B01CE0101966C0196E3892E6F
:1022900095E0992E0A151B050CF069C0C8018770DE
:1022A0009927892B09F046C0780117FF03C097E0F2
:1022B000E90EF11C83E0F594E7948A95E1F781E15A
:1022C0009CE00E9434076BED75E081E19CE00E9488
:1022D00029078AE0E816F1041CF46EE275E009C0F3
:1022E00094E6E916F1041CF46FE275E002C060EBBD
:1022F00075E081E19CE00E9429074AE0B701CE0128
:1023000008960E949709BE01685F7F4FC6010E9430
:102310005C0961E375E0C6010E94290ABC0181E104
:102320009CE00E94FE06C6010E94C208CE010896EB
:102330000E94C2081A821982B80182ED9CE00E94B4
:10234000072B1F928F939F928F92DF92CF920E94C2
:102350000632B60181E19CE00E9429070F5F1F4F02
:102360000F900F900F900F900F900F9093CF81E1EF
:102370009CE00E9434072E96ECE00C9440310E94C1
:102380000D1123E0969587952A95E1F79093D10C4E
:102390008093D00C20E032E03093CD0C2093CC0C15
:1023A000281B390B3093CF0C2093CE0C0895CF937C
:1023B000DF93EC0183E09DE00E94CB2383E09DE06E
:1023C0000E94D12361E57BE082ED9CE00E94D6294A
:1023D000CE010E948C10CE010E94BF11DF91CF91DF
:1023E0000895CF93DF93EC0181E19CE00E943407D4
:1023F000CE010E948C10CE010E94BF116BE375E0EC
:1024000081E19CE00E945A0763E675E081E19CE06F
:102410000E9429074091C80C5091C90C6091CA0CC8
:102420007091CB0C24E030E081E19CE00E94BF0879
:102430006DE675E081E19CE00E94290761E775E0A7
:1024400081E19CE00E9429074091C40C5091C50C89
:102450006091C60C7091C70C22E030E081E19CE0F5
:102460000E94BF086AE775E081E19CE00E945A077C
:1024700081E19CE00E9434076CE775E081E19CE01B
:102480000E945A0764EA75E081E19CE00E942907F6
:102490006091D00C7091D10C4AE050E081E19CE059
:1024A0000E94DC0761EB75E081E19CE00E945A0725
:1024B00069EB75E081E19CE00E9429076091CE0CF8
:1024C0007091CF0C4AE050E081E19CE00E94DC0773
:1024D00061EB75E081E19CE00E945A076BEC75E0CE
:1024E00081E19CE00E9429076091CC0C7091CD0C99
:1024F0004AE050E081E19CE00E94DC0761EB75E07E
:1025000081E19CE00E945A0781E19CE00E9434072F
:10251000DF91CF910895AEE0B0E0E1E9F2E10C94F3
:102520002A310E94BF110091CC0C1091CD0CE0908B
:10253000D00CF090D10C69ED75E0CE0108960E94A8
:102540002F09BE01685F7F4FCE0101960E945C0992
:10255000B701CE0101960E94500A6EED75E00E940F
:10256000290AB8010E94500A60EE75E00E94290A0B
:10257000BC0181E19CE00E94FE06CE0101960E9412
:10258000C208CE0108960E94C2082E96E6E00C947E
:102590004631A0E0B0E0EFECF2E10C942331EB0126
:1025A00089E090E00E94BC0A4C01AC80BD8000E054
:1025B00010E00A151B050CF095C0B801CE010E9471
:1025C0006F0A80330CF460C0B801CE010E946F0A1C
:1025D0008A330CF059C0B801CE010E946F0A782EE0
:1025E000729460EF7622B801CE010E946F0A8134A6
:1025F0003CF0B801CE010E946F0A87340CF446C04B
:10260000B801CE010E946F0A81363CF0B801CE01BC
:102610000E946F0A87360CF443C06801C801019616
:102620007C0117FD6C01D594C794C80CD91CF60128
:102630007082B701CE010E946F0A803334F0B70177
:10264000CE010E946F0A8A33ACF1B701CE010E941D
:102650006F0A813434F0B701CE010E946F0A8734CB
:102660008CF1B701CE010E946F0A813634F0B701B8
:10267000CE010E946F0A87366CF1F6018081780ED8
:1026800070820E5F1F4F95CF712CADCFB801CE0178
:102690000E946F0A8295807F50E9752E780EB0CF28
:1026A000B801CE010E946F0A8295807F40E9742EA6
:1026B000780EB3CFB701CE010E946F0A30ED732EB2
:1026C000780EC3CFB701CE010E946F0A29EC722E9B
:1026D000780EC7CFB701CE010E946F0A99EA792E12
:1026E000780ECBCFF401EA0DFB1D1082C401CDB7EB
:1026F000DEB7EDE00C943F316CE080EF9CE00E948F
:10270000FD286BE085ED9CE00E94852460E582ED6C
:102710009CE00E94D3290895A5E1B0E0E2E9F3E14D
:102720000C9428316C010E940D118C0162EE75E051
:1027300081E19CE00E945A0781E19CE00E943407FD
:1027400040E050E060E170E0C6010E942511980170
:1027500017FF02C0295F3F4F93E0359527959A9563
:10276000E1F737FF02C0215F3F4F890184E01595F3
:1027700007958A95E1F7E12CF12C60EB75E0CE012D
:102780000F960E942F0981E19CE00E94F004181628
:1027900019060CF04CC061E17CE0CE0101960E946C
:1027A0008E2DBE016F5F7F4FCE010F960E944509AF
:1027B000CE0101960E94C2088B899C89019791F4F1
:1027C00060E070E0CE010F960E946F0A8D34D1F167
:1027D00060E070E0CE010F960E946F0A8D3609F01E
:1027E0003FC030C064E276E0CE0108960E942F0917
:1027F000BE01685F7F4FCE0101960E945C09BE0159
:10280000615F7F4FCE0101960E94160A66E376E073
:102810000E94290ABC0181E19CE00E944807CE0188
:1028200001960E94C208CE0108960E94C20860E983
:1028300071E080E090E00E943B0DCE010F960E9477
:10284000C2089BCF65EE79E081E19CE00E945A07C7
:10285000CE010F960E94C2086596E8E00C944431C0
:1028600060E070E0CE010F960E946F0A823441F062
:1028700060E070E0CE010F960E946F0A823639F454
:10288000E114F104D1F081E0E81AF10816C060E02B
:1028900070E0CE010F960E946F0A863441F060E02E
:1028A00070E0CE010F960E946F0A863669F4E0163A
:1028B000F1061CF48FEFE81AF80AA70160E170E056
:1028C000C6010E942511B3CF64E276E0CE010196E5
:1028D0000E942F09BE01615F7F4FCE0101960E94C9
:1028E000160A66E376E00E94290ABC0181E19CE0B9
:1028F0000E944807CE0101960E94C20881E19CE037
:102900000E94340794CFA6E1B0E0E9E8F4E10C942A
:1029100029317C0167E379E081E19CE00E945A075C
:1029200081E19CE00E94340760E576E081E19CE073
:102930000E945A078E010F5F1F4F88E0D82E60EB70
:1029400075E0CE0140960E942F0981E19CE00E9433
:10295000F004181619066CF461E17CE0C8010E94CD
:102960008E2DB801CE0140960E944509C8010E94F3
:10297000C2088C899D898130910551F560E070E035
:10298000CE0140960E946F0A8D3409F4BCC060E00D
:1029900070E0CE0140960E946F0A8D3609F4B3C0F4
:1029A00064E276E0C8010E942F09BE01605F7F4F9C
:1029B000C8010E94160A66E376E00E94290ABC015B
:1029C00081E19CE00E944807C8010E94C2088AC0B9
:1029D0008031910509F079C06DE776E0CE01099666
:1029E0000E942F09BE01675F7F4FC8010E945C09EA
:1029F000BE01605F7F4FC8010E94160A6AE672E05E
:102A00000E94290ABC0181E19CE00E944807C8019C
:102A10000E94C208CE0109960E94C208BE01605FF2
:102A20007F4FC8010E945C09B801C7010E94C9120A
:102A3000BC01C7010E943E0FC8010E94C208F801F4
:102A40008D2D11928A95E9F7B80180EF9CE00E94E4
:102A5000322981110AC080EF9CE00E94F02868ECC6
:102A600070E080E090E00E943B0DBE01605F7F4F10
:102A7000CE0109960E945C09BE01675F7F4FC701C6
:102A80000E94C912A801BC01C7010E940C0F882333
:102A900019F06FE876E002C066E976E081E19CE03B
:102AA0000E942907CE0109960E94C20881E19CE09C
:102AB0000E94340781E19CE00E94340767E379E0DB
:102AC00081E19CE00E945A070DC0029750F560E931
:102AD00071E080E090E00E943B0DCE0140960E94A4
:102AE000C2082DCF81E19CE00E9434076EE976E0B8
:102AF00081E19CE00E945A0760E576E081E19CE07C
:102B00000E945A07E4CF65EE79E081E19CE00E94E3
:102B10005A07CE0140960E94C2086696E7E00C94E0
:102B2000453162EC76E0CE0109960E942F09BE0184
:102B3000675F7F4FC8010E945C09BE01605F7F4FE5
:102B4000C8010E94160A66E376E00E94290ABC01C9
:102B500081E19CE00E944807C8010E94C208CE01A2
:102B600009960E94C208B3CFAFE1B0E0EAEBF5E10D
:102B70000C941E317C010E940D118C0160ED76E0F9
:102B800081E19CE00E945A076EE976E081E19CE0D9
:102B90000E945A0762EE75E081E19CE00E945A07AC
:102BA00081E19CE00E94340740E050E060E170E089
:102BB000C7010E942511980117FF02C0295F3F4FEE
:102BC00043E0359527954A95E1F737FF02C0215F2D
:102BD0003F4F190134E0359427943A95E1F7C12C21
:102BE000D12C8E010F5F1F4F4E018EE1880E911C7C
:102BF00060EB75E0CE0147960E942F0981E19CE0D1
:102C00000E94F004181619060CF065C161E17CE021
:102C1000C8010E948E2DB801CE0147960E94450939
:102C2000C8010E94C2088B8D9C8D8130910599F45A
:102C300060E070E0CE0147960E946F0A8D3409F47F
:102C400055C160E070E0CE0147960E946F0A8D3654
:102C500009F05AC14BC1039709F0A6C1C7010E94F0
:102C60000D113C01BE01695E7F4FC8010E945C09E5
:102C7000B801C7010E94EA10B82EC8010E94C2081C
:102C8000B11015C069E177E0CE0109960E942F09C5
:102C9000BE01675F7F4FC8010E945C09BE01695E8B
:102CA0007F4FC8010E94160A66E376E026C08F892E
:102CB000988D0E9464315C0197FD0BC0C30177FCC5
:102CC000079623E0959587952A95E1F7A816B9060A
:102CD0000CF16FE277E0CE0109960E942F09BE0148
:102CE000675F7F4FC8010E945C09BE01695E7F4F2C
:102CF000C8010E94160A6DE377E00E94290ABC0110
:102D000081E19CE00E944807C8010E94C208CE01F0
:102D10000996C1C060EB75E0CE0140960E942F0974
:102D2000250183E0440C551C8A95E1F73201B8E097
:102D30006B0E711C46145704BCF51F8E1E8EB2011B
:102D400082ED9CE00E94072B1F928F93A6E3B5E0D3
:102D5000BF93AF939F928F920E940632BE01605F35
:102D60007F4FCE0109960E945C09B401CE010996FD
:102D70000E94290ABC01C8010E945C09B801CE0169
:102D800040960E944509C8010E94C208CE010996DA
:102D90000E94C2080F900F900F900F900F900F900D
:102DA000FFEF4F1A5F0AC6CF67E677E0CE010996BC
:102DB0000E942F09BE01675F7F4FC8010E945C0916
:102DC000B501C8010E94500A6BED75E00E94290A06
:102DD000BE01605F7F4F0E94160A6CE777E00E9499
:102DE000290ABC0181E19CE00E94FE06C8010E9404
:102DF000C208CE0109960E94C208BE01605F7F4FE3
:102E0000C8010E945C09B801C7010E94C912BC0137
:102E1000C7010E943E0FC8010E94C208D801E8E025
:102E20001D92EA95E9F7B80180EF9CE00E943229F3
:102E300081110AC080EF9CE00E94F02868EC70E0ED
:102E400080E090E00E943B0DBE01605F7F4FCE01AD
:102E500009960E945C09BE01675F7F4FC7010E940F
:102E6000C912A801BC01C7010E940C0F882319F0E8
:102E70006FE876E002C066E976E081E19CE00E94BE
:102E80002907CE0109960E94C20881E19CE00E94B8
:102E90003407CE0140960E94C20881E19CE00E9466
:102EA000340781E19CE00E94340767E379E081E127
:102EB0009CE00E945A0781E19CE00E9434076EE981
:102EC00076E081E19CE00E945A0760ED76E081E1C6
:102ED0009CE00E945A0760E971E080E090E00E9467
:102EE0003B0DCE0147960E94C20882CE65EE79E086
:102EF00081E19CE00E945A07CE0147960E94C208D9
:102F00006F96E2E10C943A3160E070E0CE014796B2
:102F10000E946F0A823441F060E070E0CE01479673
:102F20000E946F0A823639F4C114D104D1F091E0C5
:102F3000C91AD10816C060E070E0CE0147960E9421
:102F40006F0A863441F060E070E0CE0147960E943F
:102F50006F0A863669F4C214D3041CF4AFEFCA1AA0
:102F6000DA0AA60160E170E0C7010E942511B3CF23
:102F700064E276E0C8010E942F09BE01695E7F4FBE
:102F8000C8010E94160A66E376E00E94290ABC0185
:102F900081E19CE00E944807C8010E94C20881E1CB
:102FA0009CE00E94340797CF64E276E0CE01099658
:102FB0000E942F09BE01675F7F4FC8010E945C0914
:102FC000BE01695E7F4FC8010E94160A66E376E083
:102FD0000E94290ABC0181E19CE00E944807C801C7
:102FE0000E94C208CE0109960E94C20874CFA5E1D2
:102FF000B0E0EDEFF7E10C942C318C0167E379E060
:1030000081E19CE00E945A0781E19CE00E94340724
:1030100061E877E081E19CE00E945A0760EB75E08F
:10302000CE010F960E942F0981E19CE00E94F004DE
:10303000181619068CF461E17CE0CE0101960E941D
:103040008E2DBE016F5F7F4FCE010F960E94450906
:10305000CE0101960E94C2082B893C89213031059E
:1030600069F560E070E0CE010F960E946F0A8D3422
:1030700009F496C060E070E0CE010F960E946F0ADE
:103080008D3609F48DC064E276E0CE0101960E948F
:103090002F09BE01615F7F4FCE0101960E94160A83
:1030A00066E376E00E94290ABC0181E19CE00E946F
:1030B0004807CE0101960E94C20867C02031310541
:1030C00009F055C06EEA77E0CE0108960E942F09FC
:1030D000BE01685F7F4FCE0101960E945C09BE0170
:1030E000615F7F4FCE0101960E94160A6EEB77E07A
:1030F0000E94290ABC0181E19CE00E944807CE01A0
:1031000001960E94C208CE0108960E94C208BE0124
:10311000615F7F4FCE0101960E945C09BE016F5F27
:103120007F4FC8010E94C912BC0185ED9CE00E943E
:10313000C926CE0101960E94C20861E085ED9CE09F
:103140000E94AF2763EC77E081E19CE00E942907B1
:1031500081E19CE00E94340781E19CE00E943407F9
:1031600067E379E081E19CE00E945A070EC02230BB
:10317000310520F560E971E080E090E00E943B0DB0
:10318000CE010F960E94C20849CF81E19CE00E94C7
:10319000340761E877E081E19CE00E945A07EACFBA
:1031A00065EE79E081E19CE00E945A07CE010F961E
:1031B0000E94C2086596E4E00C94483162EC76E027
:1031C000CE0108960E942F09BE01685F7F4FCE0195
:1031D00001960E945C09BE01615F7F4FCE0101969E
:1031E0000E94160A66E376E00E94290ABC0181E18A
:1031F0009CE00E944807CE0101960E94C208CE01C1
:1032000008960E94C208B6CFAEE1B0E0EAE0F9E16C
:103210000C941E317C010E940D118C016CEC77E046
:1032200081E19CE00E945A0762EE75E081E19CE03A
:103230000E945A0781E19CE00E94340740E050E080
:1032400060E170E0C7010E942511180117FF03C05B
:1032500087E0280E311C43E0359427944A95E1F726
:1032600037FE03C08FE0280E311C24E035942794EC
:103270002A95E1F700E010E036E3832E35E0932E47
:103280005E018DE1A80EB11C60EB75E0CE014696A3
:103290000E942F0981E19CE00E94F0041816190693
:1032A0000CF04EC161E17CE0CE0101960E948E2DB2
:1032B000BE016F5F7F4FCE0146960E944509CE0149
:1032C00001960E94C2088A8D9B8D8130910599F4E8
:1032D00060E070E0CE0146960E946F0A8D3409F4DA
:1032E0003AC160E070E0CE0146960E946F0A8D36CA
:1032F00009F03FC130C1039709F088C1C7010E949E
:103300000D113C01BE016A5E7F4FCE0101960E9405
:103310005C09BE016F5F7F4FC7010E94EA10D82E83
:10332000CE0101960E94C208D11017C069E177E072
:10333000CE0108960E942F09BE01685F7F4FCE0123
:1033400001960E945C09BE016A5E7F4FCE01019624
:103350000E94160A66E376E02AC08E899F890E9441
:1033600064316C0197FD0DC0930177FE02C0295FA7
:103370003F4F93E0359527959A95E1F7C216D3060E
:1033800024F16FE277E0CE0108960E942F09BE017A
:10339000685F7F4FCE0101960E945C09BE016A5EA4
:1033A0007F4FCE0101960E94160A6DE377E00E94DE
:1033B000290ABC0181E19CE00E944807CE010196E8
:1033C0000E94C208CE010896A5C060EB75E0CE0150
:1033D0000F960E942F09260183E0440C551C8A9504
:1033E000E1F7320188E0680E711C46145704CCF5F1
:1033F0001E8E1D8EB20182ED9CE00E94072B1F9253
:103400008F939F928F92BF92AF920E940632BE011D
:10341000615F7F4FCE0108960E945C09B501CE0125
:1034200008960E94290ABC01CE0101960E945C09FF
:10343000BE016F5F7F4FCE010F960E944509CE01FE
:1034400001960E94C208CE0108960E94C2080F9001
:103450000F900F900F900F900F908FEF481A580A0F
:10346000C4CF65E178E0CE0108960E942F09BE0125
:10347000685F7F4FCE0101960E945C09B601CE01C4
:1034800001960E94500A6BED75E00E94290ABE0168
:10349000615F7F4F0E94160A6EEB77E00E94290A57
:1034A000BC0181E19CE00E944807CE0101960E9488
:1034B000C208CE0108960E94C20867E379E081E164
:1034C0009CE00E945A0781E19CE00E943407BE0103
:1034D000615F7F4FCE0101960E945C09BE016F5F64
:1034E0007F4FC7010E94C912BC0185ED9CE00E947C
:1034F000C926CE0101960E94C20861E085ED9CE0DC
:103500000E94AF2763EC77E081E19CE00E942907ED
:10351000CE010F960E94C20881E19CE00E94340710
:103520006CEC77E081E19CE00E945A0768E278E069
:1035300081E19CE00E945A0781E19CE00E943407EF
:1035400060E971E080E090E00E943B0DCE0146967C
:103550000E94C20899CE65EE79E081E19CE00E946C
:103560005A07CE0146960E94C2086E96E2E10C947C
:103570003A3160E070E0CE0146960E946F0A8234D4
:1035800041F060E070E0CE0146960E946F0A8236FC
:1035900031F401151105C1F00150110915C060E0A9
:1035A00070E0CE0146960E946F0A863441F060E0DA
:1035B00070E0CE0146960E946F0A863661F40215CD
:1035C000130514F40F5F1F4FA80160E170E0C701FD
:1035D0000E942511B5CF64E276E0CE0101960E94EB
:1035E0002F09BE016A5E7F4FCE0101960E94160A26
:1035F00066E376E00E94290ABC0181E19CE00E941A
:103600004807CE0101960E94C20896CF64E276E098
:10361000CE0108960E942F09BE01685F7F4FCE0140
:1036200001960E945C09BE016A5E7F4FCE01019641
:103630000E94160A66E376E00E94290ABC0181E135
:103640009CE00E944807CE0101960E94C208CE016C
:1036500008960E94C20874CFACE1B0E0E2E3FBE15F
:103660000C942B318C0167E379E081E19CE00E94AE
:103670005A0781E19CE00E9434076AE678E081E124
:103680009CE00E945A0760EB75E0CE0146960E94CE
:103690002F0960EB75E0CE010F960E942F0981E1A2
:1036A0009CE00E94F004181619068CF461E17CE09D
:1036B000CE0101960E948E2DBE016F5F7F4FCE011D
:1036C00046960E944509CE0101960E94C2088A8D45
:1036D0009B8D8130910589F560E070E0CE014696C2
:1036E0000E946F0A8D3409F4EAC060E070E0CE01F8
:1036F00046960E946F0A8D3609F4E1C081E19CE094
:103700000E94340764E276E0CE0101960E942F0900
:10371000BE016A5E7F4FCE0101960E94160A66E3E3
:1037200076E00E94290ABC0181E19CE00E944807E2
:10373000CE0101960E94C208B7C0029708F4A5C046
:103740002EE030E040E050E0BE016A5E7F4FCE01E7
:1037500001960E94720ABE016F5F7F4FCE010F96E5
:103760000E944509CE0101960E94C208BE01615F18
:103770007F4FCE0101960E945C09BE016F5F7F4FB3
:10378000C8010E94A510F82ECE0101960E94C20821
:10379000FF2009F455C081E19CE00E94340761EAF2
:1037A00078E0CE0108960E942F09BE01685F7F4F26
:1037B000CE0101960E945C09BE01615F7F4FCE0180
:1037C00001960E94160A6BEB78E00E94290ABC0160
:1037D00081E19CE00E94FE06CE0101960E94C20893
:1037E000CE0108960E94C20861EC78E081E19CE07D
:1037F0000E942907BE01615F7F4FCE0101960E94A2
:103800005C09BE016F5F7F4FC8010E94C91267E06B
:103810000E94B92940E150E0682F81E19CE00E94BC
:10382000F307CE0101960E94C20881E19CE00E944C
:10383000340767E379E081E19CE00E945A0734C0D5
:1038400062EC76E0CE0108960E942F09BE01685F07
:103850007F4FCE0101960E945C09BE016A5E7F4FD8
:10386000CE0101960E94160A66E376E00E94290ABC
:10387000BC0181E19CE00E944807CE0101960E94B4
:10388000C208CE0108960E94C20860E971E080E09B
:1038900090E00E943B0DCE010F960E94C208CE011F
:1038A00046960E94C208EFCE81E19CE00E94340758
:1038B0006AE678E081E19CE00E945A07E6CF65EE77
:1038C00079E081E19CE00E945A07CE010F960E94A8
:1038D000C208CE0146960E94C2086C96E5E00C94A0
:1038E0004731A5E1B0E0E7E7FCE10C942A317C0127
:1038F00081E19CE00E9434070091D00C1091D10C22
:103900000150110968EC78E0CE0108960E942F0959
:10391000BE01685F7F4FCE0101960E945C09B8012D
:10392000CE0101960E94500A65EE78E00E94290AB5
:10393000BC0181E19CE00E944807CE0101960E94F3
:10394000C208CE0108960E94C20881E19CE00E9454
:10395000F00418161906CCF761E17CE0CE010F9651
:103960000E948E2D8B899C89019749F060E070E060
:10397000CE010F960E946F0A8D3691F408C060E068
:1039800070E0CE010F960E946F0A8D3479F765EED4
:1039900079E081E19CE00E945A070FEF1FEF74C0AD
:1039A000BE01615F7F4FCE0101960E945C09BE019E
:1039B0006F5F7F4FC7010E94EA10182FCE0101965A
:1039C0000E94C208111117C067E079E0CE01089685
:1039D0000E942F09BE01685F7F4FCE0101960E94B1
:1039E0005C09BE01615F7F4FCE0101960E94160AFD
:1039F00066E376E02DC0CE010F960E94B00A97FDD7
:103A000011C0CE010F960E94B00A4091D00C509187
:103A1000D10C8A01550F220B330B601771078207F7
:103A2000930744F16FE277E0CE0108960E942F09D8
:103A3000BE01685F7F4FCE0101960E945C09BE0106
:103A4000615F7F4FCE0101960E94160A6DE377E019
:103A50000E94290ABC0181E19CE00E944807CE0136
:103A600001960E94C208CE0108960E94C208CE01AB
:103A70000F9669CFCE010F960E94B00A8B0183E0AA
:103A8000000F111F8A95E1F7CE010F960E94C20820
:103A9000C8016596E6E00C9446318F929F92BF92E2
:103AA000CF92DF92EF92FF920F931F93CF93DF930A
:103AB000CDB7DEB769970FB6F894DEBF0FBECDBFA6
:103AC0007C01B62E81E19CE00E94340768E179E038
:103AD00081E19CE00E945A0719E0CE0101966C0139
:103AE00060EB75E0CE0141960E942F09F601212F6F
:103AF00011922A95E9F781E19CE00E94F0041816E2
:103B0000190634F58E01065F1F4F61E17CE0C801A4
:103B10000E948E2DB801CE0141960E944509C80130
:103B20000E94C2088D899E89019749F060E070E08B
:103B3000CE0141960E946F0A8D3659F50EC060E0A5
:103B400070E0CE0141960E946F0A8D3479F705C06E
:103B5000CE0141960E94C208C3CF65EE79E081E1B3
:103B60009CE00E945A07CE0141960E94C2086996C5
:103B70000FB6F894DEBF0FBECDBFDF91CF911F917E
:103B80000F91FF90EF90DF90CF90BF909F908F901C
:103B90000895BE016F5E7F4FC8010E945C09B801A5
:103BA000C7010E94A510982EC8010E94C20891105A
:103BB00003C06EE479E0D3CFBE016F5E7F4FC801D2
:103BC0000E945C09B801C7010E94C912BC01C6016C
:103BD0000E94B231C8010E94C208F6010190002083
:103BE000E9F7CF0108978C159D05C9F481E19CE0A8
:103BF0000E94340763E879E081E19CE00E94290794
:103C000067E0C6010E94B929888760E976E081E112
:103C10009CE00E94290781E19CE00E943407BB20C0
:103C200099F0C7010E94BF118091D00C9091D10CE6
:103C3000892B51F481E19CE00E94340766E979E028
:103C400081E19CE00E945A078091D00C9091D10CA8
:103C50001816190634F4BB2021F0C7010E94711C0C
:103C600003C0C7010E940D11998F888F8F3FEFEF1E
:103C70009E0709F478CF2091D00C3091D10C232BE2
:103C800011F0B1100AC020E030E1281B390B2230BE
:103C900031051CF46FEC79E062CF28E030E0A6013A
:103CA000BC0182ED9CE00E94FE29C88CD98C86E381
:103CB000882E85E0982E888D998D9C01295F3F4F35
:103CC0002C153D05F4F01B861A86B60182ED9CE0AA
:103CD0000E94072B1F928F939F928F921F930F9397
:103CE0000E940632B80181E19CE00E942907FFEFA3
:103CF000CF1ADF0A0F900F900F900F900F900F9038
:103D0000DACF2091D00C3091D10C232B11F0B110CF
:103D10000AC00896998F888FCE0148960E94640E3B
:103D2000C7010E948B1281E19CE00E9434076FED75
:103D300079E081E19CE00E945A0760E971E080E04F
:103D400090E00E943B0D0FCFAEE1B0E0EAEAFEE169
:103D50000C9424317C016B0181E19CE00E943407CA
:103D600060EF79E081E19CE00E945A075E0189E002
:103D7000A80EB11C88E0F50111928A95E9F76CED67
:103D800075E080E090E00E943B0D8E010F5F1F4FB9
:103D900088E0882E81E19CE00E94F0041816190644
:103DA0009CF581E19CE00E941C05982E8F7D8D344E
:103DB00009F4C7C064E276E0CE0141960E942F0963
:103DC000BE016F5E7F4FC8010E945C09692DC8016A
:103DD0000E94420A66E376E00E94290ABC0181E162
:103DE0009CE00E944807C8010E94C208CE0141968B
:103DF0000E94C20881E19CE00E9434076CE17AE0F5
:103E000081E19CE00E945A07F801882D11928A9561
:103E1000E9F7B50180EF9CE00E94322981110BC0C7
:103E200080EF9CE00E94F02868EC70E080E090E079
:103E30000E943B0D7FC06DE776E0CE0148960E9460
:103E40002F09BE01685E7F4FCE0141960E945C093A
:103E5000B601CE0141960E94160A6AE37AE00E94FA
:103E6000290ABC0181E19CE00E944807CE014196ED
:103E70000E94C208CE0148960E94C208B601CE0137
:103E800041960E945C09BE016F5E7F4FC7010E9490
:103E9000C912BC01C7010E943E0FCE0141960E948B
:103EA000C20868EC70E080E090E00E943B0DB80131
:103EB00080EF9CE00E943229811105C080EF9CE0D8
:103EC0000E94F028EECFB601CE0141960E945C0917
:103ED000BE016F5E7F4FC7010E94C912A801BC01DD
:103EE000C7010E940C0F882319F06FE876E002C02A
:103EF00066E976E081E19CE00E942907CE014196C7
:103F00000E94C20881E19CE00E94340781E19CE0AC
:103F10000E94340767E379E081E19CE00E945A0740
:103F200081E19CE00E94340760E47AE081E19CE05A
:103F30000E945A076CED75E080E090E00E943B0D16
:103F400029CF6E96ECE00C944031A6E2B0E0EBEAAB
:103F5000FFE10C9422314C0167E379E081E19CE0C0
:103F60000E945A0781E19CE00E94340763E67AE0F0
:103F700081E19CE00E945A078E010F5F1F4F7E0176
:103F800089E0E80EF11C86E3A82E85E0B82E6E01CC
:103F9000E5E2CE0ED11C60EB75E0CE014E960E949C
:103FA0002F0981E19CE00E94F004181619066CF4B8
:103FB00061E17CE0C8010E948E2DB801CE014E96D1
:103FC0000E944509C8010E94C2088AA19BA10197CD
:103FD00099F560E070E0CE014E960E946F0A8D3434
:103FE00009F4E9C060E070E0CE014E960E946F0ACD
:103FF0008D3609F4E0C064E276E0C8010E942F0922
:10400000BE01625E7F4FC8010E94160A66E376E039
:104010000E94290ABC0181E19CE00E944807C80176
:104020000E94C20881E19CE00E94340763E67AE0C6
:1040300081E19CE00E945A0788E0F80111928A957C
:10404000E9F760EB75E0CE0147960E942F09B801B1
:1040500080EF9CE00E94322981110BC080EF9CE030
:104060000E94F02868EC70E080E090E00E943B0D38
:1040700093C067E0C8010E94B9299885891751F05B
:1040800081E19CE00E9434076CE87AE081E19CE0E9
:104090000E945A0781E19CE00E94340738011EA269
:1040A0001DA2F30181913F011F928F93BF92AF92A6
:1040B000DF92CF920E940632BE01695E7F4FCE0131
:1040C00040960E945C09B601CE0140960E94290AE2
:1040D000BC01C7010E945C09B701CE0147960E944E
:1040E0004509C7010E94C208CE0140960E94C2083D
:1040F0000F900F900F900F900F900F906E147F0401
:1041000071F66EE97AE0CE0140960E942F09BE0159
:10411000605F7F4FC7010E945C09BE01695E7F4FEF
:10412000C7010E94160A60EE75E00E94290ABC01D0
:1041300081E19CE00E944807C7010E94C208CE01AD
:1041400040960E94C20880EF9CE00E940A28BE01AF
:10415000695E7F4FC7010E945C09B701C4010E94DC
:10416000A41EC7010E94C20881E19CE00E9434079E
:1041700081E19CE00E94340767E379E081E19CE003
:104180000E945A0781E19CE00E94340763E67AE0CE
:1041900081E19CE00E945A07CE0147960E94C20826
:1041A00060E971E080E090E00E943B0DCE014E9608
:1041B0000E94C208F0CE65EE79E081E19CE00E94A9
:1041C0005A07CE014E960E94C208A696EEE00C94C5
:1041D0003E31CF92DF92FF920F931F93CF93DF93E5
:1041E000CDB7DEB72E970FB6F894DEBF0FBECDBFAA
:1041F0006C010E940D1197FD07968C0183E01595C7
:1042000007958A95E1F763EB7AE0CE0108960E9464
:104210002F09BE01685F7F4FCE0101960E945C09A5
:10422000B801CE0101960E94500A62EC7AE00E9429
:10423000290ABC0181E19CE00E944807CE01019659
:104240000E94C208CE0108960E94C20881E19CE04B
:104250000E94F00418161906CCF781E19CE00E9438
:104260001C05F82E982F9F7D993589F568ED7AE029
:1042700081E19CE00E945A0740E050E060E072E07B
:10428000C6010E94251163EE7AE0CE0108960E94D5
:104290002F09BE01685F7F4FCE0101960E945C0925
:1042A000B801CE0101960E94500A6AEE7AE00E949F
:1042B000290ABC0181E19CE00E944807CE010196D9
:1042C0000E94C208CE0108960E94C20818C09D54E0
:1042D0009230A8F064E276E0CE0108960E942F09A1
:1042E000BE01685F7F4FCE0101960E945C096F2D71
:1042F000CE0101960E94420A66E376E098CF2E96A0
:104300000FB6F894DEBF0FBECDBFDF91CF911F91E6
:104310000F91FF90DF90CF900895AEE0B0E0E3E919
:10432000F1E20C9428316C0167E379E081E19CE0D3
:104330000E945A0781E19CE00E94F00418161906B9
:1043400064F581E19CE00E941C05182F8F7D8D345F
:1043500009F441C064E276E0CE0108960E942F097C
:10436000BE01685F7F4FCE0101960E945C09612FFC
:10437000CE0101960E94420A66E376E00E94290A75
:10438000BC0181E19CE00E944807CE0101960E9499
:10439000C208CE0108960E94C20883E0E82EF12CE4
:1043A00008EE13E020E030E04AEF50E060E070E01B
:1043B000C6010E946A1081E0E81AF10889F708EE48
:1043C00013E020E030E048EE53E060E070E0C6012A
:1043D0000E946A10AFCF2E96E8E00C9444312F92E1
:1043E0003F925F926F927F928F929F92AF92BF9215
:1043F000CF92DF92EF92FF920F931F93CF93DF93B1
:10440000CDB7DEB72F970FB6F894DEBF0FBECDBF86
:104410005C01C62ED42E67E379E081E19CE00E9426
:104420005A078E01075F1F4FCE0101967C0188E07D
:10443000582E96E3892E95E0992E612C20E1722E5C
:1044400081E19CE00E94F004181619062CF581E128
:104450009CE00E941C05382E8F7D8D3409F4E4C049
:1044600064E276E0C8010E942F09B801C7010E94EA
:104470005C09632DC7010E94420A66E376E00E9450
:10448000290ABC0181E19CE00E944807C7010E9403
:10449000C208C8010E94C208F701252D11922A9571
:1044A000E9F7B70180EF9CE00E94322981110BC02F
:1044B00080EF9CE00E94F02868EC70E080E090E0E3
:1044C0000E943B0DAAC067E0C7010E94B9299885E8
:1044D000891751F081E19CE00E9434076CE87AE092
:1044E00081E19CE00E945A07CC20A9F0DD2099F0E0
:1044F000C5010E94BF118091D00C9091D10C892BE5
:1045000051F481E19CE00E94340766E979E081E1A1
:104510009CE00E945A0781E19CE00E943407170149
:104520001A861986F10181911F011F928F939F9224
:104530008F921F930F930E940632B80181E19CE095
:104540000E9429070F900F900F900F900F900F90DF
:104550002016310629F7CC2009F447C08091D00CF1
:104560009091D10C1816190634F4DD2021F0C50104
:104570000E94711C03C0C5010E940D119A87898792
:104580008F3FFFEF9F0709F44FC02091D00C30916F
:10459000D10C232B11F0D1100DC09301281B390B26
:1045A000223031053CF46FEC79E081E19CE00E941F
:1045B0005A0733C028E030E0A701BC0182ED9CE03F
:1045C0000E94FE298091D00C9091D10C892B11F082
:1045D000D1100BC089859A8508969A878987C8016A
:1045E0000E94640EC5010E948B1280EF9CE00E9425
:1045F0000A28DD2009F450CF81E19CE00E943407B5
:104600006FED79E081E19CE00E945A0760E971E07A
:1046100080E090E00E943B0D07C060E971E080E01F
:1046200090E00E943B0D0CCF2F960FB6F894DEBFA2
:104630000FBECDBFDF91CF911F910F91FF90EF90F3
:10464000DF90CF90BF90AF909F908F907F906F90B2
:104650005F903F902F900895AEE0B0E0E2E3F3E288
:104660000C942C3166E07BE081E19CE00E945A07CB
:1046700081E19CE00E94F00418161906CCF781E154
:104680009CE00E941C05182F982F9F7D993581F57D
:104690006CE27BE081E19CE00E945A0700E010E0C0
:1046A0004FEFB80182ED9CE00E94922AC8018F77FB
:1046B0009927892B31F46DE373E081E19CE00E943E
:1046C00029070F5F1F4F011580E1180749F781E1A6
:1046D0009CE00E9434071A821982CE0101960E9442
:1046E000640E6BE37BE081E19CE00E945A0727C0E7
:1046F0009D54923020F164E276E0CE0108960E944B
:104700002F09BE01685F7F4FCE0101960E945C09B0
:10471000612FCE0101960E94420A66E376E00E9474
:10472000290ABC0181E19CE00E944807CE01019664
:104730000E94C208CE0108960E94C20899CF2E9608
:10474000E4E00C944831A2E0B0E0E9EAF3E20C9432
:104750002D31162F66E370E081E59BE02A834983C3
:104760000E94C702612F81E59BE00E945D024981A2
:10477000642F81E59BE00E945D022A81622F81E522
:104780009BE00E945D0281E59BE00E94DD02229693
:10479000E3E00C94493124E540E06EEF0E94A3234E
:1047A000089520E040E466E00E94A3230895FF926C
:1047B0000F931F93CF93DF93F62E8A01E90166E3EF
:1047C00070E081E59BE00E94C7026F2D81E59BE0D0
:1047D0000E945D0281E59BE00E94DD0242E050E024
:1047E00066E370E081E59BE00E94B90281E59BE011
:1047F0000E940F02F801808381E59BE00E940F0276
:104800008883CDB7DEB7E5E00C944731A2E0B0E095
:10481000ECE0F4E20C9426311A8219829E012F5F9B
:104820003F4FAE014E5F5F4F62E00E94D723698128
:1048300070E084E0759567958A95E1F78A8120E1BB
:10484000829FC0011124682B792B072E000C880B46
:10485000990B1F921F9223EC2F9320E52F93A12CED
:10486000B12C6501EE24EA941FE0F12E00E010E087
:1048700020E030E0A9010E947B300E94372C20E02C
:1048800030E44CE156E40E948D2B0F900F900F9076
:104890000F902296EAE00C944231CF92DF92EF9291
:1048A000FF92CF93DF9300D0CDB7DEB71A82198283
:1048B0009E012F5F3F4FAE014E5F5F4F64E00E944D
:1048C000D7236A8170E080E090E00E94372C6B0172
:1048D0007C018981682F70E080E090E00E94372C95
:1048E00020E030E040E85BE30E94EC2C9B01AC014F
:1048F000C701B6010E941C2B0F900F90DF91CF9142
:10490000FF90EF90DF90CF900895CF93DF93EC016D
:10491000862F60930A0D60E00E94CF0D20910A0D52
:1049200030E0F901E850FF4FE491E883F901E45FDA
:10493000FE4FE491F0E0EE0FFF1FE05EFE4F859129
:1049400094919A838983DF91CF910895A0E0B0E09C
:10495000ECEAF4E20C942731EC017B01B880098188
:104960001A811A8EF894F80181819B2D90958923E4
:1049700081837894672BF1F00E94160D48EE53E086
:10498000E49E9001E59E300DF49E300D11246B01E4
:104990007C01C20ED31EE11CF11CF80180818B2129
:1049A00069F00E94160DC616D706E806F906A8F7A4
:1049B00083E01AC0F80180818B21E1F70E94160D77
:1049C0006B017C01FCE1CF0EF2E0DF1EE11CF11C6B
:1049D000F80180818B2159F40E94160DC616D70666
:1049E000E806F906A8F784E08A8F80E013C00E94E9
:1049F000160DC61AD70AE80AF90AF7E4CF16D10449
:104A0000E104F10410F085E0EFCF8EE190E00E9428
:104A1000610D81E0CDB7DEB7E9E00C944331A1E050
:104A2000B0E0E5E1F5E20C942A31FC011081E1806F
:104A3000F280128EF894F7018281012F0095802375
:104A400082838181812B818378948DE790E06983D3
:104A50000E94610DF894F701818108230183789405
:104A60008CE291E06981861B91090E94610DF7013A
:104A700080818123E1F309E1F701808101508123E5
:104A800039F40111F9CF82E090E00E94610DF4CF7A
:104A90002196E6E00C94463169E10E940F250895C5
:104AA000FC0190810180F281E02D20EC30E08081DA
:104AB000892329F421503109D1F78AE008958081B2
:104AC0008923E9F781E00895A1E0B0E0EAE6F5E2A4
:104AD0000C9428317C01FC011081C180D280F894B3
:104AE000F6018181012F009580238183C7016983AD
:104AF0000E9450256981813041F08A3011F487E0AD
:104B000001C088E0F701828F18C060FF05C08EE108
:104B100090E00E94610D11C0F894F6018281082393
:104B200002838181812B81838EE190E00E94610D5F
:104B3000F6018281182B1283789478942196E8E00C
:104B40000C944431EF92FF920F931F93CF93DF9316
:104B5000EC01E62E1A8E08E010E0FF24F3948A8D13
:104B600081110CC061E08F2D8E2109F460E0CE012F
:104B70000E946425FF0C0150110989F7CDB7DEB7FB
:104B8000E6E00C944631A0E0B0E0E9ECF5E20C94EC
:104B900027316C018B01C0E0D0E0E42EF12CBC2E5B
:104BA000CE15DF0564F4F80161918F01C6010E9402
:104BB000A225F601828D811102C02196F0CF8B2DA6
:104BC000CDB7DEB7E9E00C944331FC019081018060
:104BD000F281E02D20EC30E08081892329F42150FE
:104BE0003109D1F78AE0089580818923E9F781E0CE
:104BF0000895EF92FF921F93CF93DF93EC011881FA
:104C0000E980FA80F894F7018181912F90958923AA
:104C10008183CE010E94E525813049F08A3011F46C
:104C200087E001C088E08A8F789480E00BC08EE135
:104C300090E00E94610DF7018081182381E009F462
:104C400080E07894DF91CF911F91FF90EF900895CD
:104C5000A0E0B0E0EEE2F6E20C942531EC018C012C
:104C60000C5F1F4F6C018CE0C80ED11C99249394EB
:104C700088E0A82EB12CEE24E3948E2D90E0F8016C
:104C80002081022E000C330B82239323FF24F39404
:104C9000892B09F4F12C6F2DCE010E9464256F2D14
:104CA0006925CE010E946425CE010E94F9259A8DC6
:104CB00091110EC08F110CC0EE0CF1E0AF1AB108CB
:104CC000E1F60F5F1F4F0C151D0591F681E001C045
:104CD00080E0CDB7DEB7EBE00C944131EF92FF926C
:104CE0000F931F93CF93DF938C01FC01128E88E00A
:104CF000E82EF12CD1E0C0E0F801828D81110AC0CC
:104D0000C8010E94F9258111CD2BDD0FF1E0EF1ACA
:104D1000F10891F78C2FCDB7DEB7E6E00C94463161
:104D2000A0E0B0E0E6E9F6E20C9427316C018B01DB
:104D3000C0E0D0E0E42EF12CBC2ECE15DF0564F4EB
:104D4000C6010E946E26F80181938F01F601828DC3
:104D5000811102C02196F0CF8B2DCDB7DEB7E9E0EF
:104D60000C944331FB0180E06CE8415088F0519194
:104D700098E0752F7827282F30E035952795822FDA
:104D800070FF02C0862F82275695915091F7EDCF84
:104D90000895CF93DF93EC01DB01FC0134960B9671
:104DA000BF012D912193E817F907D9F747E0CE010C
:104DB0000E94B2268B87DF91CF910895CF93DF9326
:104DC000EC01FB0180818E8781818F878281888BB6
:104DD000BE01645F7F4F48E0CE010E94B2268C8BFB
:104DE000DF91CF9108950F931F93CF93DF93EC0141
:104DF0000E946E268E3441F148F48434D1F0883418
:104E000091F5E091060DF091070D1CC0883BB1F0C3
:104E10008E3B39F0843B39F56B81CE010E946425CD
:104E20001FC0BE01645F7F4F49E0CE010E94C325D1
:104E300017C0E091080DF091090D04C0E091040D38
:104E4000F091050D09950CC08E010B5E1F4F43E0DC
:104E5000B801CE010E949026B801CE010E94DE2644
:104E60008A8D811101C001C080E0DF91CF911F9137
:104E70000F910895A8E0B0E0E0E4F7E20C942A3145
:104E80008C017C0184E0E80EF11CC8010E946E26B2
:104E90008C3C09F451C028F4833369F1853589F1DC
:104EA00054C08C3E19F0803F09F14FC0F801858550
:104EB000082E000C990B982F88272485022E000CB1
:104EC000330B822B932B34E0959587953A95E1F738
:104ED0002785022E000C330B2817390738F4268556
:104EE000022E000C330B8217930718F0C8010E94A2
:104EF000282680E030C048E0B701C8010E94C325E1
:104F000024C048E0BE016F5F7F4FC8010E94902619
:104F1000F801828D8111EDCFD8011496FE013196F2
:104F2000CE0109963D9121913213E3CFE817F9079D
:104F3000C9F7C8010E94F326C8010E94F32681E048
:104F4000F801928D992339F0D4CFF801828D88230E
:104F500009F49BCFCECF2896E6E00C944631AEE024
:104F6000B0E0E5EBF7E20C942A318C01E62EFC016F
:104F7000128E81E19CE00E94F004181619066CF56F
:104F800081E19CE00E941C05F82E8F7D8D3411F488
:104F900081E03CC064E276E0CE0108960E942F09D1
:104FA000BE01685F7F4FCE0101960E945C096F2DA4
:104FB000CE0101960E94420A66E376E00E94290A29
:104FC000BC0181E19CE00E944807CE0101960E944D
:104FD000C208CE0108960E94C20860E070E0C801D5
:104FE0000E94A624882329F2C8010E944C25882308
:104FF00009F4BFCFC8010E943A278111C9CFF80137
:10500000928D992309F4B5CFE110B3CF2E96E6E047
:105010000C9446310F931F93CF938C0160E0FC01F9
:1050200082850E94CF0DCEE7C15069F182E090E009
:105030000E94610DF80182850E943B0E892BA1F32D
:1050400060E0F80182850E940B0E61E0F801828524
:105050000E94CF0D84EF91E00E94610D60E0F801A5
:1050600082850E94CF0D81E490E00E94610DF801DD
:1050700082850E943B0EC1E0892B09F0C0E08AEED8
:1050800091E00E94610D8C2FCF911F910F91089597
:105090000F931F93CF93DF93EC01E989FA899081F5
:1050A0008C85892B8083ED85FE8590818C8580950C
:1050B00089238083062F017010E0F801E35BF44F31
:1050C000808190E00E94610DED85FE8590818C8548
:1050D000892B8083F801E55BF44F808190E00E948A
:1050E000610DDF91CF911F910F910895CF93DF93C1
:1050F000EC01E989FA8990818C85892B8083ED8583
:10510000FE8590818C8580958923808381E090E065
:105110000E94610DE989FA8990818C8580958923A7
:10512000808385E090E00E94610DEF85F889908191
:105130008C859823C1E009F4C0E082E390E00E94EE
:10514000610D8C2FDF91CF910895A1E0B0E0EBEAE3
:10515000F8E20C9428316C01E62E08E010E0FF2400
:10516000F39461E08F2D8E2109F460E0C60149833C
:105170000E944828FF0C01501109498101151105B1
:1051800081F741110AC060E0F60182850E94CF0DCF
:1051900060E0F60182850E940B0E2196E8E00C94F7
:1051A0004431EF92FF920F931F93CF93DF937C01D3
:1051B00008E010E0C0E0D1E0C7010E94762881112C
:1051C000CD2BDD0F01501109B9F78C2FCDB7DEB70C
:1051D000E6E00C94463140E06CEC0E94A52808956E
:1051E000FC018FEF80871186178216821582148248
:1051F00013821282118210820895DC011A966C9338
:105200001A9770E0FB01E45FFE4F24911B962C93EC
:105210001B97FB01E850FF4F64911C966C931C9701
:1052200030E0220F331FF901E65DFE4F8591949126
:105230001E969C938E931D97F901E05EFE4F85911B
:10524000949150969C938E931F97F901EC5CFE4FBE
:105250008591949152969C938E935197CD010E9483
:10526000F0280895A1E0B0E0E8E3F9E20C942431DD
:10527000DC0119962C91222311F080E076C06B019D
:105280004C010E940A288823C1F340E060EFC4016A
:105290000E94A52800E010E0AA24A394BB24BA949D
:1052A000EE24E394F12CC4010E947628682FC401F7
:1052B00069830E947628702F769576957695902F43
:1052C0009770970101C0220F9A95EAF769816623CA
:1052D00019F0882331F1D1CFE72FF0E0811127C0F9
:1052E000D40118964C911897042E000C550B0417F6
:1052F000150719F41896BC920FC0D40104171507AE
:1053000034F4AE0FBF1F8C91822331F402C0189683
:105310000C9390E0A12C01C091E0B02E992339F0BC
:1053200061E0F401E70FF11D8081282B05C0E80D35
:10533000F91D2095808128232083C4010E944828DC
:105340000F5F1F4F0034110509F0ADCFAA2019F0EF
:1053500081E0F4018187D401F601C40108962D9102
:105360002193A817B907D9F781E02196ECE00C94B6
:105370004031582FFC0180E07CE89E2F951B96174A
:1053800088F4419198E0A42FA827282F30E0359584
:105390002795822FA0FF02C0872F82274695915024
:1053A00091F7EBCF0895FC0162830895CF93DF93CB
:1053B000EC01CB01798368830E949D026A81888118
:1053C00099810E94BD0288819981DC01ED91FC9157
:1053D0000190F081E02D60E0099588819981DC01E0
:1053E000ED91FC910190F081E02D60E009958881BC
:1053F00099810E94DD02DF91CF910895A0E0B0E095
:10540000E4E0FAE20C9424318C016B015A01790139
:10541000CB01820F931F8130904108F07DC090E254
:10542000892EE114F10409F475C09C2C8C2D8F7128
:10543000C82DC81BD0E0EC16FD0608F4E701D80122
:1054400012966C9112978D919C910E94BD02F80169
:1054500080819181DC01ED91FC910190F081E02D42
:105460006D2D0995F80180819181DC01ED91FC9110
:105470000190F081E02D692D0995F80180819181DD
:10548000CF3108F0CEE1D0E0DC01ED91FC9102805B
:10549000F381E02DAE01B5010995F801808191817C
:1054A0000E94DD02811139C084E6982E84EF91E0DC
:1054B0000E94610DD80112966C9112978D919C916A
:1054C0000E94BD02F80180819181DC01ED91FC9187
:1054D0000190F081E02D60E00995F80180819181D3
:1054E000DC01ED91FC910190F081E02D60E00995E7
:1054F000F801808191810E94DD02882321F09A9435
:105500009110D4CF0AC0CC0EDD1EAC0EBD1EEC1A1D
:10551000FD0A87CF80E001C089E0CDB7DEB7ECE0BF
:105520000C944031A1E0B0E0E8E9FAE20C942E31AD
:10553000498321E030E0AE014F5F5F4F0E94FE29BA
:105540002196E2E00C944A31A0E0B0E0EAEAFAE207
:105550000C942231EC016B015A018901CB01820FBD
:10556000931F8130904108F04CC00115110509F4DA
:1055700046C078010132110518F080E2E82EF12CC6
:105580007E2C6A81888199810E94BD0288819981DF
:10559000DC01ED91FC910190F081E02D6D2D0995DC
:1055A00088819981DC01ED91FC910190F081E02DE1
:1055B0006C2D0995888199810E94DD02811122C09C
:1055C0004E2D6A81888199810E94B5026A2C45011D
:1055D00088819981DC01ED91FC910680F781E02DB5
:1055E0000995F40181934F018E2F8619871580F359
:1055F000CE0CDF1CAE0CBF1C0E191F09B6CF80E00D
:1056000001C089E0CDB7DEB7EEE00C943E31A1E0F9
:10561000B0E0EDE0FBE20C942E3121E030E0AE0191
:105620004F5F5F4F0E94A42A811101C0898121969A
:10563000E2E00C944A315058BB27AA270E94332B32
:105640000C94AD2C0E949F2C38F00E94A62C20F0C8
:1056500039F49F3F19F426F40C949C2C0EF4E09539
:10566000E7FB0C94962CE92F0E94BE2C58F3BA1736
:10567000620773078407950720F079F4A6F50C9468
:10568000E02C0EF4E0950B2EBA2FA02D0B01B901E2
:1056900090010C01CA01A0011124FF27591B99F0A8
:1056A000593F50F4503E68F11A16F040A22F232FB4
:1056B000342F4427585FF3CF469537952795A79504
:1056C000F0405395C9F77EF41F16BA0B620B730BAB
:1056D000840BBAF09150A1F0FF0FBB1F661F771F1C
:1056E000881FC2F70EC0BA0F621F731F841F48F4D1
:1056F000879577956795B795F7959E3F08F0B0CF5A
:105700009395880F08F09927EE0F97958795089540
:105710000E94722C08F481E008950E94A12B0C9441
:10572000AD2C0E94A62C58F00E949F2C40F029F42A
:105730005F3F29F00C94962C51110C94E12C0C94A1
:105740009C2C0E94BE2C68F39923B1F3552391F34E
:10575000951B550BBB27AA2762177307840738F0E0
:105760009F5F5F4F220F331F441FAA1FA9F335D03D
:105770000E2E3AF0E0E832D091505040E695001CF1
:10578000CAF72BD0FE2F29D0660F771F881FBB1FAB
:10579000261737074807AB07B0E809F0BB0B802D89
:1057A000BF01FF2793585F4F3AF09E3F510578F0B5
:1057B0000C94962C0C94E12C5F3FE4F3983ED4F3C8
:1057C000869577956795B795F7959F5FC9F7880F89
:1057D000911D9695879597F90895E1E0660F771FDB
:1057E000881FBB1F621773078407BA0720F0621B6C
:1057F000730B840BBA0BEE1F88F7E09508950E9497
:10580000062C6894B1110C94E12C08950E94C62CCA
:1058100088F09F5798F0B92F9927B751B0F0E1F071
:10582000660F771F881F991F1AF0BA95C9F714C021
:10583000B13091F00E94E02CB1E008950C94E02C7E
:10584000672F782F8827B85F39F0B93FCCF386955A
:1058500077956795B395D9F73EF4909580957095B7
:1058600061957F4F8F4F9F4F0895E89409C097FB34
:105870003EF490958095709561957F4F8F4F9F4F27
:105880009923A9F0F92F96E9BB279395F69587956B
:1058900077956795B795F111F8CFFAF4BB0F11F42E
:1058A00060FF1BC06F5F7F4F8F4F9F4F16C08823D5
:1058B00011F096E911C0772321F09EE8872F762F0B
:1058C00005C0662371F096E8862F70E060E02AF04C
:1058D0009A95660F771F881FDAF7880F9695879538
:1058E00097F90895990F0008550FAA0BE0E8FEEF0D
:1058F00016161706E807F907C0F012161306E40794
:10590000F50798F0621B730B840B950B39F40A268C
:1059100061F0232B242B252B21F408950A2609F46A
:10592000A140A6958FEF811D811D089597F99F676E
:1059300080E870E060E008959FEF80EC0895002417
:105940000A941616170618060906089500240A94E4
:1059500012161306140605060895092E0394000C6A
:1059600011F4882352F0BB0F40F4BF2B11F460FFF9
:1059700004C06F5F7F4F8F4F9F4F089557FD905822
:10598000440F551F59F05F3F71F04795880F97FB03
:10599000991F61F09F3F79F08795089512161306BD
:1059A0001406551FF2CF4695F1DF08C016161706EC
:1059B0001806991FF1CF8695710561050894089521
:1059C000E894BB2766277727CB0197F908950E94B3
:1059D000722C08F48FEF08950E94FF2C0C94AD2CCC
:1059E0000E949F2C38F00E94A62C20F0952311F0E5
:1059F0000C94962C0C949C2C11240C94E12C0E9459
:105A0000BE2C70F3959FC1F3950F50E0551F629F18
:105A1000F001729FBB27F00DB11D639FAA27F00D07
:105A2000B11DAA1F649F6627B00DA11D661F829F2E
:105A30002227B00DA11D621F739FB00DA11D621F13
:105A4000839FA00D611D221F749F3327A00D611D30
:105A5000231F849F600D211D822F762F6A2F112412
:105A60009F5750409AF0F1F088234AF0EE0FFF1F45
:105A7000BB1F661F771F881F91505040A9F79E3F9C
:105A8000510580F00C94962C0C94E12C5F3FE4F3CC
:105A9000983ED4F3869577956795B795F795E795F2
:105AA0009F5FC1F7FE2B880F911D9695879597F9FB
:105AB00008950E94722C880B990B08950F931F93E1
:105AC000CF93DF93EC010E940A0D688779878A875C
:105AD0009B87E881F9810680F781E02DCE01099549
